:020000040800F2
:1000000000000220B9020008BF020008C302000875
:1000100035030008390300088103000800000000D0
:10002000000000000000000000000000C9030008FC
:10003000CD03000800000000D1030008852C000853
:10004000E5030008E5030008E5030008E5030008F0
:10005000E5030008E5030008E5030008E5030008E0
:10006000E5030008E5030008E5030008E5030008D0
:10007000E5030008E5030008E5030008E5030008C0
:10008000E5030008E5030008E5030008E5030008B0
:10009000E5030008E5030008E5030008E5030008A0
:1000A000E5030008912C0008E5030008E5030008BB
:1000B000E5030008E5030008E5030008E503000880
:1000C000E5030008E5030008E5030008E503000870
:1000D000E5030008E5030008E5030008E503000860
:1000E000E5030008E5030008E5030008E503000850
:1000F000E5030008E5030008E5030008E503000840
:10010000E5030008E5030008E5030008E50300082F
:10011000E5030008E50300082D230008E5030008B7
:10012000E5030008E5030008E5030008E50300080F
:10013000E5030008E5030008E5030008E5030008FF
:10014000E5030008E5030008E5030008E5030008EF
:10015000E5030008E5030008E5030008E5030008DF
:10016000E5030008E5030008E5030008E5030008CF
:10017000E5030008E5030008E503000800000000AF
:10018000E5030008E503000800B583B002F074FC45
:10019000384B394A1360394A1360394900E0214627
:1001A000384B99420BD20A684B6801F10C048868FD
:1001B0009842F4D952F8041B43F8041BF8E72E4B7D
:1001C0001A68314B9A4200D0FEE72C4B1A682F4B2D
:1001D0009A42F9D1274B2E4A13602E4A13602E4AB9
:1001E00005E0002043F8040B9A42FAD80A462B4B4C
:1001F0009A4204D2114651F8083B5268F4E7244B66
:100200001B6813B9234B1B6803B1FEE702F0EEFE37
:10021000694601A802F0C0FB214C224BE41AA4104D
:10022000002504E01F4B53F8253098470135AC42B8
:10023000F8DC1D4C1D4BE41AA410002504E01B4BF8
:1002400053F8253098470135AC42F8DC0099019805
:1002500004F036FF0546164C164BE41AA41004E0D1
:10026000013C144B53F824309847002CF8DC284606
:1002700002F065FBBABADECA000000203C0D002087
:10028000E8030008000400087856341232547698C7
:10029000400D00207C11002000040008100400081C
:1002A00010040008100400081004000810040008DE
:1002B000100400081004000808B5FFF765FF00BE31
:1002C000FEE71EF0040F0CBFEFF30880EFF3098088
:1002D0007146414A10472DE9F04182B004468846F4
:1002E000124B5E6B9F6B9D6A1B6B13F0020F03D06A
:1002F0000E4BDB6A002B0CDB0D4802F05FFBCDF8E8
:1003000000803B4632462946204602F0C1FB00BE33
:10031000FEE74BF6AB6102F035FC0028ECD0034B56
:100320004FF00042DA6202B0BDE8F08100ED00E07B
:10033000B07C000800BEFEE71EF0040F0CBFEFF318
:100340000880EFF309807146244A10472DE9F041F7
:1003500082B004468846084B5E6B9F6B9D6A0748D7
:1003600002F02CFBCDF800803B4632462946204661
:1003700002F08EFB00BEFEE700ED00E0C07C00084E
:100380001EF0040F0CBFEFF30880EFF309807146F5
:10039000134A10472DE9F04182B004468846084BC5
:1003A0005E6B9F6B9D6A074802F008FBCDF80080EA
:1003B0003B4632462946204602F06AFB00BEFEE775
:1003C00000ED00E0CC7C000800BEFEE700BEFEE7CA
:1003D00000BEFEE770470000D70200084D0300088A
:0803E0009503000800BEFEE7D2
:1003E8005480000800000020400D002054800008C0
:1003F8000000001000000010400D002080110020B7
:080408000000001000000010CC
:1004100008B50B4B1A6842F400721A601A6842F46D
:1004200080621A601A6842F480721A60032000F039
:10043000A5FB0F2001F032FF04F036FF002008BDBD
:10044000003C0240024A136801331360704700BF4A
:10045000DC0D0020014B1868704700BFDC0D002048
:1004600010B582B00190FFF7F5FF0446FFF7F2FFE9
:10047000001B019B9842F9D302B010BD10B5044691
:10048000514B5A6822F440325A605A6841680A4314
:100490005A600268536823F480735360026853689B
:1004A000016943EA012353600268536823F04073F3
:1004B00053600268536881680B4353600268936815
:1004C00023F40063936002689368C1680B439360F0
:1004D000826A3E4B9A425FD00268936823F0706351
:1004E000936002689368816A0B4393600268936823
:1004F00023F04053936002689368C16A0B43936092
:100500002268936823F00203936022689368A169CC
:1005100043EA41039360236A002B4ED0636A013B98
:10052000072B44D82268536843F400635360226861
:10053000536823F460435360636A013B4FF46042A5
:1005400092FAA2F2B2FA82F2934021684A68134307
:100550004B602268D36A23F47003D3622168CB6AAC
:10056000E269013A43EA0253CB622268936823F4BA
:100570000073936022689368216B43EA4123936080
:100580002268936823F480639360226893686169AA
:1005900043EA8123936010BD0268936823F070637F
:1005A00093600268936823F040539360A8E740F299
:1005B0000A61074802F0F8F9B4E72268536823F4A7
:1005C00000635360C5E700BF002301400100000F36
:1005D000EC790008002800F0EB8010B504460368B1
:1005E000744A93420CD002F58072934208D002F50F
:1005F0008072934204D040F20D116F4802F0D4F99A
:10060000636843B1B3F5803F05D0B3F5003F02D036
:10061000B3F5403F6FD1A36843B1B3F1807F05D0FC
:10062000B3F1007F02D0B3F1407F6AD12369012B7F
:100630006DD8A369012B70D8A36A7BB3B3F1807F17
:100640002CD0B3F1007F29D0B3F1407F26D0B3F195
:10065000806F23D0B3F1A06F20D0B3F1C06F1DD055
:10066000B3F1E06F1AD0B3F1006F17D0B3F1106F90
:1006700014D0B3F1206F11D0B3F1306F0ED0B3F1BD
:10068000406F0BD0B3F1506F08D0B3F1606F05D05D
:10069000B3F1706F02D0494A934244D1E36813B179
:1006A000B3F5006F45D1E369013B0F2B47D8236BAE
:1006B000012B4AD86369022B4DD8236A012B50D8ED
:1006C000A26A3E4B9A420AD0E36A43B1B3F1805F1B
:1006D00005D0B3F1005F02D0B3F1405F47D1236C86
:1006E000002B4AD0236C13F0100F4DD001200023B3
:1006F00084F83C3010BD4FF487712F4802F054F954
:1007000089E740F20F112C4802F04EF98EE74FF4C2
:100710008871294802F048F98BE740F21111264808
:1007200002F042F988E74FF48971234802F03CF95E
:10073000B4E740F21311204802F036F9B3E74FF462
:100740008A711D4802F030F9B1E740F215111A48DC
:1007500002F02AF9AEE74FF48B71174802F024F942
:10076000ABE740F21711144802F01EF9A8E740F277
:100770001B11114802F018F9B1E7636484F83C30AA
:10078000204604F03FFEADE7236C23F4885323F0AA
:10079000020343F0020323642046FFF76FFE0020AC
:1007A0006064236C23F0030343F0010323649EE79A
:1007B0000120704700200140EC7900080100000F83
:1007C00010B582B00446002301938369012B29D818
:1007D000E36A43B1B3F1805F05D0B3F1005F02D0AB
:1007E000B3F1405F24D194F83C30012B6FD001234A
:1007F00084F83C3023689A6812F0010F1ED19A6881
:1008000042F001029A60364B1B68364AA2FB032372
:100810009B0C03EB43030193019B7BB1019B013BC9
:100820000193F9E74FF4DD712F4802F0BDF8CFE7EF
:1008300040F2BB112C4802F0B7F8D4E72268936865
:1008400013F0010F45D0236C23F4E06323F0010380
:1008500043F480732364536813F4806F05D0236CD2
:1008600023F4405343F480532364236C13F4805FD8
:100870001AD0636C23F006036364002384F83C30D1
:1008800023686FF022021A60184B5B6813F01F0F89
:100890000DD123689A6812F0405F1DD19A6842F02A
:1008A00080429A60002015E000236364E5E7236836
:1008B0000F4A934201D000200CE09A6812F0405F8A
:1008C0000CD19A6842F080429A60002002E0022037
:1008D00000E0002002B010BD0020FBE70020F9E797
:1008E0000C00002083DE1B43EC790008002301404C
:1008F0000020014003689A6812F4806F03D09B685F
:1009000013F4807F1CD170B50D460446FFF7A2FD9D
:10091000064623681A6812F0020F1AD1B5F1FF3F9C
:10092000F7D025B1FFF796FD801BA842F1D9236CC3
:1009300043F004032364002384F83C3003202DE0BB
:10094000036C43F020030364002380F83C30012053
:1009500070476FF012021A60236C43F40073236433
:1009600023689A6812F0405F17D1A269BAB9DA6AAF
:1009700012F4700F03D09B6813F4806F11D1236CB5
:1009800023F480732364236C13F4805F0BD1236CF6
:1009900043F001032364002000E0002070BD00202C
:1009A000FCE70020FAE70020F8E70368D86C7047FE
:1009B00030B583B005460C46002301930B68122B1B
:1009C0004ED86368013B0F2B50D8A368072B53D830
:1009D00095F83C30012B00F0C780012385F83C30AE
:1009E0002368092B4ED92868C2689BB203EB4303E6
:1009F0001E3B072101FA03F322EA0303C3602868C0
:100A0000C268A168238803EB43031E3B01FA03F38A
:100A10001343C3606368062B4AD82868426B03EB14
:100A20008303053B1F2101FA03F322EA0303436317
:100A30002868426B636803EB8303053B218801FA56
:100A400003F3134343632A68484B9A4260D02A68F1
:100A5000464B9A4265D0002085F83C0003B030BD7B
:100A600040F20451424801F09FFFAAE740F20551CD
:100A70003F4801F099FFA8E740F206513C4801F0D9
:100A800093FFA5E7286802699BB203EB43030721A4
:100A900001FA03F322EA0303036128680269A168EB
:100AA000238803EB430301FA03F313430361B1E724
:100AB0000C2B16D82868026B03EB8303233B1F2102
:100AC00001FA03F322EA030303632868026B6368F5
:100AD00003EB8303233B218801FA03F313430363EE
:100AE000B1E72868C26A03EB8303413B1F2101FA87
:100AF00003F322EA0303C3622868C26A636803EB54
:100B00008303413B218801FA03F31343C3629AE74D
:100B10002368122B9BD1174A536843F48003536018
:100B200095E72368103B012B95D8124A536843F48C
:100B3000000353602368102B8DD10F4B1B6802F10B
:100B4000467202F52E3202F28332A2FB03239B0C83
:100B500003EB83035A000192019B002B3FF47BAF10
:100B6000019B013B0193F7E7022077E7002001405A
:100B7000EC790008002301400C00002010B5044669
:100B8000C31E042B0FD80A4AD36823F4E0631B0466
:100B90001B0C240204F4E064234343F0BF6343F4DA
:100BA0000033D36010BDA421024801F0FDFEEAE746
:100BB00000ED00E01C7A000870B505460C461646AC
:100BC0000F2A0FD80F2C12D81B4BDB68C3F302235C
:100BD000C3F10702042A28BF0422191D06290BD9D4
:100BE000033B0AE0BC21154801F0DEFEEAE7BD2127
:100BF000124801F0D9FEE7E700234FF0FF3101FA78
:100C000002F224EA02049C4001FA03F326EA0306F6
:100C10003443002D08DB2401E4B205F1604505F5FD
:100C2000614585F8004370BD05F00F052401E4B26D
:100C3000034B5C55F7E700BF00ED00E01C7A0008AD
:100C400014ED00E010B5041E08DB04F01F02640977
:100C500001239340044A42F8243010BDD0210348B8
:100C600001F0A2FEF1E700BF00E100E01C7A0008FD
:100C70002DE9F04782B080460E46B84B984223D00B
:100C800003F5806398421FD003F5806398421BD020
:100C900003F58063984217D003F58063984213D020
:100CA00003F5806398420FD003F5806398420BD020
:100CB00003F58063984207D003F58063984203D020
:100CC000C521A74801F070FE338833B37368012B48
:100CD0001ED9112B1CD0022B1AD0122B18D0A14ACE
:100CE000934215D002F58012934211D002F5801282
:100CF00093420DD0A2F5F812934209D002F580126A
:100D0000934205D002F58012934201D0032B09D102
:100D1000B368022B0BD800244FE0C621904801F0A5
:100D200043FED3E7C7218E4801F03EFEF0E7C8211D
:100D30008B4801F039FEEEE7D921894801F034FEF5
:100D400067E0EC21864801F02FFE92E0082300E0E6
:100D500000238B4003430232834941F82230834B06
:100D60001A68FB4303EA0201706810F4803F01D067
:100D700047EA02017D4A1160526803EA0201706885
:100D800010F4003F01D047EA0201784A51609268AE
:100D900003EA0201706810F4801F01D047EA0201E3
:100DA000724A9160D2681340716811F4001F01D03B
:100DB00047EA02036D4AD36001340F2C00F2CB8066
:100DC0000125A54037682F40BD42F5D17368022B3D
:100DD00001D0122B2DD13369DBB1092B19D0012B96
:100DE00017D0022B15D0032B13D0042B11D0052BB9
:100DF0000FD0062B0DD0072B0BD0082B09D00A2BB8
:100E000007D00B2B05D00C2B03D00D2B01D00F2BB3
:100E100092D1E208083258F8220004F00703990042
:100E20000F238B4020EA030033698B40034348F8CB
:100E30002230D8F800204FEA440A4FF0030909FA9B
:100E40000AF96FEA090909EA0202736803F0030369
:100E500003FA0AF31343C8F8003073685A1E012AD4
:100E600003D9112B01D0122B18D1F368032B3FF6B5
:100E700068AFD8F8082009EA0202F36803FA0AF317
:100E80001343C8F80830D8F8042022EA0502736832
:100E9000C3F30015A5401543C8F80450D8F80C302A
:100EA00009EA0309B36803FA0AF343EA0903C8F835
:100EB0000C30736813F0805F3FF47EAF0023019322
:100EC0002B4B5A6C42F480425A645B6C03F48043AF
:100ED0000193019BA208911C234B53F8210004F0BD
:100EE000030399000F238B4020EA03001B4B984516
:100EF0003FF42EAF03F5806398451ED003F5806361
:100F000098451CD003F5806398451AD003F580639B
:100F1000984518D003F58063984516D003F5806393
:100F2000984514D003F58063984512D003F580638B
:100F300098453FF40BAF09230BE7012309E7022390
:100F400007E7032305E7042303E7052301E7062357
:100F5000FFE60723FDE602B0BDE8F087000002408F
:100F6000507A00080000111000380140003C014098
:100F70000038024038B505460C4621B12B691C42A9
:100F800007D0012038BD4FF4C871034801F00CFDB3
:100F9000F4E70020F6E700BF507A000870B5064677
:100FA00015460C4621B1012D08D86DB1B46170BD54
:100FB00040F2B111064801F0F7FCF4E74FF4D971A3
:100FC000034801F0F1FCF0E72404B461EFE700BF4F
:100FD000507A000830B583B0044603680F2B29D837
:100FE000236813F0010F3DD06368012B01D9052B55
:100FF00025D1A24B9B6803F00C03042B29D09F4BF7
:101000009B6803F00C03082B1ED022799C4B1A70AE
:101010006368002B50D0FFF71DFA0546974B1B68FD
:1010200013F4003F1ED1FFF715FA401B6428F5D9D1
:101030000320E3E1F521934801F0B6FCD0E7FA2163
:10104000904801F0B1FCD4E78C4B5B6813F4800F3F
:10105000DBD08A4B1B6813F4003F03D06368002B7E
:1010600000F0C781236813F0020F5CD0E368012B06
:1010700031D823691F2B34D8804B9B6813F00C0F99
:101080003AD07E4B9B6803F00C03082B2FD0E3680B
:10109000002B73D07C4B01221A60FFF7DBF9054669
:1010A000764B1B6813F0020F59D1FFF7D3F9401BA1
:1010B0000228F5D90320A1E1FFF7CCF905466F4BD3
:1010C0001B6813F4003FCDD0FFF7C4F9401B642820
:1010D000F5D9032092E14FF496716A4801F064FC5F
:1010E000C7E740F22D11674801F05EFCC4E7634B8F
:1010F0005B6813F4800FCAD1604B1B6813F0020FBA
:1011000003D0E368012B40F076815C48036823F04C
:10111000F8032169F82292FAA2F2B2FA82F201FAF5
:1011200002F213430360236813F0080F50D0636981
:10113000012B35D86369002B38D0544B01221A603B
:10114000FFF788F905464D4B5B6F13F0020F3FD157
:10115000FFF780F9401B0228F5D903204EE14748EC
:10116000036823F0F8032169F82292FAA2F2B2FA96
:1011700082F201FA02F213430360D4E7424B0022E9
:101180001A60FFF767F905463C4B1B6813F0020F26
:10119000C9D0FFF75FF9401B0228F5D903202DE1E4
:1011A00040F26D11374801F0FFFBC3E7374B0022D7
:1011B0001A60FFF74FF90546304B5B6F13F0020FD3
:1011C00006D0FFF747F9401B0228F5D9032015E1A7
:1011D000236813F0040F5FD0A368012B01D9052BFE
:1011E0001FD100230193254B1A6C42F080521A64E0
:1011F0001B6C03F080530193019B254A136843F451
:1012000080731360FFF726F90546214B1B6813F422
:10121000807F0CD1FFF71EF9401B0228F5D903206F
:10122000ECE040F29711174801F0BEFBD9E7227AB3
:10123000184B1A70A36883B1FFF70CF905460F4BE2
:101240001B6F13F0020F27D1FFF704F9401B41F287
:1012500088339842F3D90320D0E0FFF7FBF8054626
:10126000064B1B6F13F0020F16D0FFF7F3F8401B6D
:1012700041F288339842F3D90320BFE0003802409E
:1012800002380240907A000800004742800E474230
:101290000070004070380240A369022B39D8A3695E
:1012A000002B00F0AA80574A926802F00C02082A2C
:1012B00000F0A680022B40F08880E36913B1B3F5FB
:1012C000800F2CD1236A3F2B2FD8636A323BB3F5B2
:1012D000BF7F30D8A36A022B05D0042B03D0062B86
:1012E00001D0082B2DD1E36A043B0B2B2FD8464BA2
:1012F00000221A60FFF7AEF80546424B1B6813F058
:10130000007F2AD0FFF7A6F8401B0228F5D903205A
:1013100074E04FF4E6713D4801F046FBBFE740F250
:10132000D5113A4801F040FBCCE74FF4EB71374858
:1013300001F03AFBC9E740F2D711344801F034FB21
:10134000C8E74FF4EC71314801F02EFBCBE740F2D7
:10135000D9112E4801F028FBC9E7E369226A13433B
:10136000616A47F6C07292FAA2F2B2FA82F201FA08
:1013700002F21343A26A5208013A4FF4403191FA43
:10138000A1F1B1FA81F18A401343E16A4FF0706232
:1013900092FAA2F2B2FA82F201FA02F21343194A65
:1013A0005360194B01221A60FFF754F80446154B9D
:1013B0001B6813F0007F06D1FFF74CF8001B0228D2
:1013C000F5D903201AE0002018E00F4B00221A6024
:1013D000FFF740F804460B4B1B6813F0007F06D064
:1013E000FFF738F8001B0228F5D9032006E000209B
:1013F00004E0012002E0012000E0002003B030BD45
:101400000120FBE70038024060004742907A000864
:10141000214B9B6803F00C03042B38D0082B38D1E8
:101420001D4B586800F03F005B6813F4800F1ED01E
:101430001A4AB2FBF0F2184B586847F6C0731840CE
:1014400093FAA3F3B3FA83F3D84000FB02F0124BF4
:101450005B6803F440334FF4403292FAA2F2B2FADE
:1014600082F2D34001335B00B0FBF3F070470C4ACB
:10147000B2FBF0F2084B586847F6C073184093FA75
:10148000A3F3B3FA83F3D84000FB02F0DFE703488D
:1014900070470348704700BF0038024000127A00CE
:1014A0000024F40070B504460D460368013B0E2B82
:1014B0005ED8072D62D88C4B1B6803F00F03AB423C
:1014C00008D2EBB2884A1370136803F00F03AB42E3
:1014D00040F00481236813F0020F18D0A3687BB199
:1014E000802B0DD0902B0BD0A02B09D0B02B07D088
:1014F000C02B05D0D02B03D0E02B01D0F02B43D153
:101500007A4A936823F0F003A1680B439360236841
:1015100013F0010F7FD06368032B3BD86368012B66
:101520003ED09A1E012A42D9704A126812F0020F68
:1015300000F0D6806D498A6822F0030213438B6065
:10154000FEF788FF06466368012B37D0022B44D094
:10155000032B51D0654B9B6813F00C0F5BD0FEF74B
:1015600079FF801B41F288339842F3D90320A8E029
:1015700040F237215E4801F017FA9AE74FF40E71F6
:101580005B4801F011FA96E740F24F21584801F00C
:101590000BFAB5E740F25621554801F005FABDE7D0
:1015A000524A126812F4003FC4D1012089E04F4A28
:1015B000126812F0007FBDD1012082E04B4B9B6886
:1015C00003F00C03042B26D0FEF744FF801B41F2EE
:1015D00088339842F2D9032073E0444B9B6803F0B0
:1015E0000C03082B17D0FEF735FF801B41F2883320
:1015F0009842F2D9032064E03C4B9B6803F00C0353
:101600000C2B08D0FEF726FF801B41F2883398424E
:10161000F2D9032055E0344B1B6803F00F03AB42B3
:1016200007D9EAB2304B1A701B6803F00F03AB42C4
:1016300058D1236813F0040F14D0E3685BB1B3F5FD
:10164000805F08D0B3F5A05F05D0B3F5C05F02D0CE
:10165000B3F5E05F36D1254A936823F4E053E1689F
:101660000B439360236813F0080F15D023695BB117
:10167000B3F5805F08D0B3F5A05F05D0B3F5C05FC8
:1016800002D0B3F5E05F23D1184A936823F4604396
:10169000216943EAC1039360FFF7BAFE134B9B68CD
:1016A00003F0F003F02292FAA2F2B2FA82F2D340EF
:1016B000104AD35CD840104B18600F2000F0EEFDAC
:1016C000002070BD4FF42D71094801F06DF9C2E79B
:1016D00040F2BB21064801F067F9D5E70120F0E7A9
:1016E0000120EEE70120ECE7003C02400038024018
:1016F000907A0008807A00080C000020014B1868DE
:10170000704700BF0C00002008B5FFF7F7FF074B3C
:101710009B6803F4E0534FF4E05292FAA2F2B2FA5B
:1017200082F2D340024AD35CD84008BD0038024060
:10173000807A000808B5FFF7E1FF074B9B6803F4C8
:1017400060434FF4604292FAA2F2B2FA82F2D340BE
:10175000024AD35CD84008BD00380240807A0008B5
:101760000F2303600B4B9A6802F0030242609A68F1
:1017700002F0F00282609A6802F4E052C2609B6854
:10178000DB0803F4E0530361034B1B6803F00F0312
:101790000B60704700380240003C024010B4036AFE
:1017A000046A24F001040462846924F0F00444EA29
:1017B000021223F00A030B438261036210BC7047DC
:1017C00010B4036A23F0100303628469036A24F4EB
:1017D000704444EA023223F0A00343EA0113826119
:1017E000036210BC7047836823F0700341F0070167
:1017F00019438160704710B4846824F47F4442EA3E
:1018000003230B432343836010BC704710B5044689
:101810000368234A934237D0B3F1804F34D0A2F506
:101820007C42934230D002F5806293422CD002F584
:101830008062934228D002F58062934224D002F560
:101840008062934220D002F5704293421CD002F590
:101850007052934218D002F58062934214D002F580
:101860008062934210D0A2F5983293420CD002F5D8
:101870008062934208D002F58062934204D04FF414
:10188000B271084801F090F82268D36843F0010370
:10189000D3602268136843F001031360002010BD79
:1018A00000000140C07A000838B590F83830012BAC
:1018B00000F0D8820D460446012380F83830022318
:1018C00080F839300B68B3F5805F11D0B3F5005F55
:1018D0000ED06BB1102B0BD0202B09D0302B07D0A2
:1018E000402B05D0502B03D0602B01D0702B52D150
:1018F0002268936823F47F4323F0770393602B6877
:10190000402B00F007824CD9702B00F03A8100F296
:10191000A780502B00F09C81602B40F02B81236826
:10192000B74A93421FD0B3F1804F1CD0A2F57C423E
:10193000934218D002F58062934214D002F580627F
:10194000934210D002F5784293420CD002F57052C7
:10195000934208D0A2F59432934204D040F6BA7173
:10196000A84801F021F86B68B3F5004F05D023B10A
:10197000022B02D00A2B40F0C181EB680F2B00F242
:10198000C381EA6869682068FFF71AFF6021206850
:10199000FFF729FFEEE040F66D719A4801F004F878
:1019A000A6E7102B00F00C822ED9202B00F03182FC
:1019B000302B40F0DF802368914A93421FD0B3F16F
:1019C000804F1CD0A2F57C42934218D002F5806271
:1019D000934214D002F58062934210D002F578420F
:1019E00093420CD002F57052934208D0A2F5943283
:1019F000934204D040F6E871824800F0D5FF3021D0
:101A00002068FFF7F0FEB5E0002B40F0B3802368BC
:101A10007B4A93421FD0B3F1804F1CD0A2F57C4289
:101A2000934218D002F58062934214D002F580628E
:101A3000934210D002F5784293420CD002F57052D6
:101A4000934208D0A2F59432934204D040F6D67166
:101A50006C4800F0A9FF00212068FFF7C4FE89E070
:101A6000B3F5805F45D0B3F5005F40F08380236815
:101A7000634A934217D0B3F1804F14D0A2F57C4251
:101A8000934210D002F5806293420CD002F580623E
:101A9000934208D002F57842934204D040F69A71FE
:101AA000584800F081FF6B68B3F5004F05D023B1B3
:101AB000022B02D00A2B40F0B980AB684BB1B3F5D2
:101AC000805F06D0B3F5005F03D0B3F5405F40F010
:101AD000B380EB680F2B00F2B580EB686A68A968E9
:101AE0002068FFF788FE2268936843F48043936080
:101AF00040E02368424A934237D0B3F1804F34D05C
:101B0000A2F57C42934230D002F5806293422CD001
:101B100002F58062934228D002F58062934224D07D
:101B200002F58062934220D002F5704293421CD0AD
:101B300002F57052934218D002F58062934214D09D
:101B400002F58062934210D0A2F5983293420CD0F5
:101B500002F58062934208D002F58062934204D07D
:101B600040F67971274800F01FFF2268936823F040
:101B700007039360012384F83930002084F838008B
:101B800038BD23681E4A934217D0B3F1804F14D05A
:101B9000A2F57C42934210D002F5806293420CD0B1
:101BA00002F58062934208D002F57842934204D055
:101BB00040F68271134800F0F7FE6B68B3F5004FF2
:101BC00004D01BB1022B01D00A2B1DD1AB6843B14D
:101BD000B3F5805F05D0B3F5005F02D0B3F5405F89
:101BE00018D1EB680F2B1BD8EB686A68A9682068CE
:101BF000FFF701FE2268936843F077039360B9E72B
:101C000000000140C07A000840F68471964800F058
:101C1000CBFEDBE740F68571934800F0C5FEE0E7B8
:101C200040F68671904800F0BFFEDDE740F69C71FB
:101C30008D4800F0B9FE40E740F69D718A4800F0FB
:101C4000B3FE46E740F69E71874800F0ADFE44E7DC
:101C50002368864A93422FD0B3F1804F2CD0A2F54F
:101C60007C42934228D002F58062934224D002F550
:101C70008062934220D002F5784293421CD002F554
:101C80007052934218D002F58062934214D002F54C
:101C90008062934210D0A2F5983293420CD002F5A4
:101CA0008062934208D002F58062934204D040F6ED
:101CB000AC716D4800F078FE6B68B3F5004F04D04E
:101CC0001BB1022B01D00A2B0CD1EB680F2B0FD8C4
:101CD000EA6869682068FFF761FD50212068FFF716
:101CE00082FD47E740F6AF715F4800F05DFEECE72C
:101CF0004FF47B615C4800F057FEE9E740F6BD71A8
:101D0000594800F051FE38E640F6BE71564800F0E2
:101D10004BFE36E62368554A93422FD0B3F1804FED
:101D20002CD0A2F57C42934228D002F580629342E7
:101D300024D002F58062934220D002F5784293428B
:101D40001CD002F57052934218D002F58062934283
:101D500014D002F58062934210D0A2F598329342DB
:101D60000CD002F58062934208D002F58062934263
:101D700004D040F6C8713C4800F016FE6B68B3F51D
:101D8000004F04D01BB1022B01D00A2B0CD1EB6801
:101D90000F2B0FD8EA6869682068FFF7FFFC402125
:101DA0002068FFF720FDE5E640F6CB712E4800F0F5
:101DB000FBFDECE740F6CC712B4800F0F5FDE9E7C0
:101DC00023682A4A93421FD0B3F1804F1CD0A2F55A
:101DD0007C42934218D002F58062934214D002F5FF
:101DE0008062934210D002F5784293420CD002F503
:101DF0007052934208D0A2F59432934204D040F638
:101E0000DC71194800F0D0FD10212068FFF7EBFCD1
:101E1000B0E62368154A93421FD0B3F1804F1CD01F
:101E2000A2F57C42934218D002F58062934214D00E
:101E300002F58062934210D002F5784293420CD0B2
:101E400002F57052934208D0A2F59432934204D026
:101E500040F6E271044800F0A7FD20212068FFF75A
:101E6000C2FC87E602208BE6C07A00080000014031
:101E7000704770477047704710B5044603681A6989
:101E800012F0020F11D0DA6812F0020F0DD06FF0CD
:101E900002021A610123037603689B6913F0030FA2
:101EA00070D0FFF7E6FF0023237623681A6912F04B
:101EB000040F12D0DA6812F0040F0ED06FF0040293
:101EC0001A610223237623689B6913F4407F5FD055
:101ED0002046FFF7CEFF0023237623681A6912F00D
:101EE000080F12D0DA6812F0080F0ED06FF0080257
:101EF0001A61042323762368DB6913F0030F4ED0A5
:101F00002046FFF7B6FF0023237623681A6912F0F4
:101F1000100F12D0DA6812F0100F0ED06FF010020E
:101F20001A61082323762368DB6913F4407F3DD0D0
:101F30002046FFF79EFF0023237623681A6912F0DC
:101F4000010F03D0DA6812F0010F36D123681A6945
:101F500012F0800F03D0DA6812F0800F34D12368BA
:101F60001A6912F0400F03D0DA6812F0400F32D134
:101F700023681A6912F0200F03D0DA6812F0200FDC
:101F800030D110BDFFF774FF2046FFF773FF8AE7DB
:101F90002046FFF76DFF2046FFF76CFF9BE72046CA
:101FA000FFF766FF2046FFF765FFACE72046FFF727
:101FB0005FFF2046FFF75EFFBDE76FF001021A6189
:101FC000204600F0AFF9C1E76FF080021A612046A9
:101FD00000F063F9C3E76FF040021A612046FFF793
:101FE0004AFFC5E76FF020021A61204600F054F95D
:101FF000C7E7000003682E4A904212D0B0F1804F2C
:102000000FD0A2F57C4290420BD002F58062904244
:1020100007D002F58062904203D002F578429042E8
:1020200003D123F070034A681343214A90422AD017
:10203000B0F1804F27D0A2F57C42904223D002F528
:10204000806290421FD002F5806290421BD002F560
:102050007842904217D002F57052904213D002F5A8
:10206000806290420FD002F5806290420BD0A2F5C0
:102070009832904207D002F58062904203D002F578
:102080008062904203D123F44073CA681343036013
:102090008B68C3620B688362054B984203D003F5DB
:1020A0008063984201D10B69036301234361704748
:1020B0000000014000286ED010B504460368374A7E
:1020C000934236D0B3F1804F33D0A2F57C42934295
:1020D0002FD002F5806293422BD002F580629342AA
:1020E00027D002F58062934223D002F580629342AA
:1020F0001FD002F5704293421BD002F570529342FA
:1021000017D002F58062934213D002F580629342A9
:102110000FD0A2F5983293420BD002F58062934221
:1021200007D002F58062934203D0D9211C4800F009
:102130003BFCA3683BB1102B05D0202B03D0402BD8
:1021400001D0602B17D123692BB1B3F5807F02D06A
:10215000B3F5007F14D194F83930B3B1022384F879
:102160003930214651F8040BFFF744FF012384F86E
:102170003930002010BDDA21094800F015FCE2E7F3
:10218000DB21074800F010FCE5E784F838302046F2
:1021900003F08CF8E2E70120704700BF0000014027
:1021A000C07A000838B504460D460368384A9342A1
:1021B00027D0B3F1804F24D0A2F57C42934220D0A7
:1021C00002F5806293421CD002F58062934218D0DF
:1021D00002F58062934214D002F58062934210D0DF
:1021E00002F5704293420CD002F57052934208D02F
:1021F000A2F59432934204D04FF4CB61254800F00D
:10220000D3FB2B686BB1102B0BD0202B09D0302BBC
:1022100007D0402B05D0502B03D0602B01D0702B62
:1022200027D16B68802B00D04BBB94F83830012B42
:102230002BD0012284F83820022384F83930216819
:102240004B6823F070034B6021684B682868034398
:102250004B6021688B6823F080038B6021688B685A
:10226000686803438B6084F83920002084F83800C4
:1022700038BD40F25961074800F096FBD1E740F2C3
:102280005A61044800F090FBCFE70220F0E700BF5E
:1022900000000140F07A00087047704700B589B02F
:1022A000002201463620FEF787FC3620FEF7CAFCE6
:1022B00000230193174B1A6C42F010021A641B6C36
:1022C00003F010030193019B02A903A8FFF748FA4A
:1022D000069BBBB9FFF718FA0F4BA3FB00239B0C1F
:1022E000013B0E480E4A026040F2E732C260436092
:1022F000002303618360FFF7DDFE38B1012009B0E0
:102300005DF804FBFFF700FA4000E5E70348FFF73C
:102310007DFAF4E70038024083DE1B43E00D002025
:102320000010004008B5FEF78DF808BD08B502485A
:10233000FFF7A2FD08BD00BFE00D00202DE9F84326
:1023400004464268B44B9A4200F29C80E3681BB199
:10235000B3F5005F40F09C80236933B1B3F5806F23
:1023600003D0B3F5C06F40F0998063694FF6F37204
:10237000134200D123B940F25271A84800F014FB77
:1023800021680A6922F44052E36813430B61216813
:10239000CA6822F4164222F00C02A36820690343A3
:1023A00060690343E06903431343CB6021684A69D2
:1023B00022F44072A36913434B61E369B3F5004F04
:1023C00072D02368964A934200F02E8102F5806213
:1023D000934200F02981FFF797F900EB800000EBB2
:1023E00080006568AD00B0FBF5F58E4FA7FB0535A5
:1023F0006D092E01FFF788F900EB800000EB8000EB
:102400006568AD00B0FBF5F9FFF77EF900EB8000E1
:1024100000EB80006568AD00B0FBF5F5A7FB053566
:102420006D094FF0640808FB15952D013235A7FBA7
:1024300005356D0905F0F0053544FFF765F900EB4A
:10244000800000EB80006668B600B0FBF6F6FFF790
:102450005BF900EB800000EB800063689B00B0FB41
:10246000F3F0A7FB0030400908FB10684FEA08189A
:1024700008F13208A7FB0837C7F3431723682F4436
:102480009F6027E140F24F71644800F08DFA5DE7EC
:102490004FF4EA61614800F087FA5DE740F251715C
:1024A0005E4800F081FA60E723685D4A93425BD0A2
:1024B00002F58062934257D0FFF726F900EB8000C7
:1024C00000EB800065686D00B0FBF5F5554FA7FB8C
:1024D00005356D092E01FFF717F900EB800000EBC1
:1024E000800065686D00B0FBF5F9FFF70DF900EBB2
:1024F000800000EB800065686D00B0FBF5F5A7FB80
:1025000005356D094FF0640808FB1595ED0032356F
:10251000A7FB05356D096D0005F4F8753544FFF727
:10252000F3F800EB800000EB800066687600B0FBFB
:10253000F6F6FFF7E9F800EB800000EB8000636837
:102540005B00B0FBF3F3A7FB03235B0908FB1368F5
:102550004FEAC80808F13208A7FB0837C7F342174B
:1025600023682F449F60B5E0FFF7E4F800EB80009C
:1025700000EB800065686D00B0FBF5F5294FA7FB07
:1025800005356D092E01FFF7D5F800EB800000EB53
:10259000800065686D00B0FBF5F9FFF7CBF800EB44
:1025A000800000EB800065686D00B0FBF5F5A7FBCF
:1025B00005356D094FF0640808FB1595ED003235BF
:1025C000A7FB05356D096D0005F4F8753544FFF777
:1025D000B1F800EB800000EB800066687600B0FB8D
:1025E000F6F6FFF7A7F800EB800000EB80006368C9
:1025F0005B00B0FBF3F3A7FB03235B0908FB136845
:102600004FEAC80808F13208A7FB0837C7F342179A
:1026100023682F449F605DE0A037A000247B000862
:10262000001001401F85EB51FFF784F800EB80009C
:1026300000EB80006568AD00B0FBF5F5264FA7FB09
:1026400005356D092E01FFF775F800EB800000EBF2
:1026500080006568AD00B0FBF5F9FFF76BF800EBA3
:10266000800000EB80006568AD00B0FBF5F5A7FBCE
:1026700005356D094FF0640808FB15952D013235BD
:10268000A7FB05356D0905F0F0053544FFF752F855
:1026900000EB800000EB80006668B600B0FBF6F649
:1026A000FFF748F800EB800000EB800063689B00B8
:1026B000B0FBF3F0A7FB0030400908FB10684FEABD
:1026C000081808F13208A7FB0837C7F34317236837
:1026D0002F449F60BDE8F8831F85EB512DE9F04141
:1026E00005460F4616469846069C2B681B6837EA37
:1026F00003030CBF01230023B3421DD1B4F1FF3FFC
:10270000F3D02CB1FDF7A6FEA0EB0800A042ECD957
:102710002A68D36823F4D073D3602A68536923F0FE
:1027200001035361202385F8393085F83A300023BE
:1027300085F83830032000E00020BDE8F08100007B
:10274000002800F0898010B504468369002B53D01F
:102750000368424A93420FD0A2F54C4293420BD0F9
:1027600002F58062934207D002F54C42934203D0B7
:10277000FE213B4800F018F9A36943B1B3F5807F0F
:1027800005D0B3F5007F02D0B3F5407F2FD1A36809
:1027900013B1B3F5805F4DD1E36913B1B3F5004FC9
:1027A0004ED194F83930002B50D0242384F839309E
:1027B0002268D36823F40053D3602046FFF7BEFDA0
:1027C0002268136923F4904313612268536923F04C
:1027D0002A0353612268D36843F40053D360002076
:1027E000E063202384F8393084F83A3010BDFF21AB
:1027F0001B4800F0D9F8CAE70368184A9342C6D0CC
:10280000A2F54C429342C2D002F580629342BED000
:1028100002F580629342BAD002F580629342B6D04C
:1028200002F544429342B2D040F203110C4800F04A
:10283000BBF8ACE740F20511094800F0B5F8ABE78A
:102840004FF48371064800F0AFF8AAE784F83830F7
:10285000204602F09DFDA8E70120704700100140CE
:10286000247B00082DE9F04182B01E4690F83930F3
:10287000DBB2202B52D104460D469046002952D09F
:10288000002A52D090F83830012B50D0012380F824
:1028900038300023C363212380F83930FDF7DAFD97
:1028A0000746A4F82480A4F8268010E000963B4652
:1028B000002280212046FFF711FF002839D12B8804
:1028C0002268C3F3080353602369ABB90235E38C74
:1028D000A3B1013BE384A368B3F5805FE6D0009623
:1028E0003B46002280212046FFF7F8FE18BB15F872
:1028F000012B23685A60EAE70135E8E700963B467A
:10290000002240212046FFF7E9FE0346A8B9202215
:1029100084F83920002284F8382000E00223184689
:1029200002B0BDE8F0810123F9E70123F7E70223B4
:10293000F5E70323F3E70323F1E70323EFE7FEE7DC
:1029400008B5034800F054F80120FFF7F8FF00BF76
:10295000547B000808B503460C4A12685AB10B4A6A
:102960001068033323F003030344094A934206D853
:10297000064A136008BD054A06491160EFE704F0F6
:102980009BFB0C2303604FF0FF30F3E7440D002066
:1029900000FC01208011002001230360014B0B602B
:1029A000704700BF0400002008B50A4601460248EF
:1029B00000F004F8FFF7C4FF687B00080FB400B50F
:1029C00083B004AB53F8042B01938021074804F033
:1029D000C3FB002804DC03B05DF804EB04B07047CF
:1029E0000146024800F044F8F5E700BF4C0D002016
:1029F00010B5044604F07CFB0146204600F038F890
:102A00000121024800F034F810BD00BFF47C00083A
:102A10002DE9F04385B004460F46435633BB0425E9
:102A200028462146ABBE0446384605B0BDE8F083D3
:102A300004AA1344002203F8102C4FF00408E946BE
:102A400040464946ABBE8046761B002EECD035464C
:102A5000102E28BF10250023AB42E9D214F9011B28
:102A600004AA1A4402F8101C0133F5E70E46ECE7FD
:102A700008B5FFF7CDFF08BD08B500F093F8024A8E
:102A8000024B9A6008BD00BF0000000800ED00E0A6
:102A9000F8B504460D4617461E462748FFF78EFF39
:102AA00021682648FFF78AFF61682548FFF786FFFF
:102AB000A1682448FFF782FFE1682348FFF77EFF03
:102AC00021692248FFF77AFF61692148FFF776FF05
:102AD000A1692048FFF772FFE1691F48FFF76EFF09
:102AE0001E48FFF76BFF29461D48FFF767FF1D4C87
:102AF000E16A1D48FFF762FF216B1C48FFF75EFF8C
:102B0000E16B1B48FFF75AFF15F0800F0AD115F44F
:102B1000004F0CD11748FFF751FF06991648FFF7F1
:102B20004DFFF8BD39461548FFF748FFEFE731463E
:102B30001348FFF743FFEDE7947B0008A47B0008F0
:102B4000B47B0008C47B0008D47B0008E47B000849
:102B5000F47B0008047C0008147C0008247C000836
:102B6000307C000800ED00E0407C0008507C00084C
:102B7000607C0008907C0008987C0008707C00084D
:102B8000807C000883691A888A4201D0002070473F
:102B90000268033A012A01D9002070470233836199
:102BA000012070470C4B1A6842F001021A600021A4
:102BB00099601A6822F0847222F480321A60074AFF
:102BC0005A601A6822F480221A60D960044B4FF0D0
:102BD00000629A60704700BF003802401030002445
:102BE00000ED00E0224B9B6803F00C03042B14D093
:102BF000082B16D01BB11F4B1F4A1A6002E01D4B59
:102C00001D4A1A601A4B9B68C3F303131B4AD15C1D
:102C1000184A1368CB4013607047164B184A1A6065
:102C2000F0E7134B5A685B6803F03F0312F4800F20
:102C300013D0134AB2FBF3F20D4B5B68C3F3881356
:102C400003FB02F30A4A5268C2F301420132520006
:102C5000B3FBF2F3074A1360D4E7074AB2FBF3F27F
:102C6000034B5B68C3F3881303FB02F3EAE700BF7F
:102C7000003802400C0000200024F400DC7C000836
:102C800000127A0008B5FDF7DDFB02F0E3FA08BD9B
:102C900010B51348FDF794FD124A536983F0010300
:102CA000536164210E48FDF725FE0028F9D10D4A35
:102CB000536983F0010353610948FDF776FE81B241
:102CC000094C21800948FFF779FE4FF6FF73022275
:102CD00021460748FFF7C6FD0648FFF7CDF810BDAF
:102CE000200E002000100240CC0D0020EC7C0008DB
:102CF000680E0020A80E00202DE9F0478CB00024BB
:102D00000794089409940A940B940194474B1A6B06
:102D100042F004021A631A6B02F004020192019A53
:102D200002941A6B42F080021A631A6B02F080025E
:102D30000292029A03941A6B42F001021A631A6B10
:102D400002F001020392039A04941A6B42F01002FB
:102D50001A631A6B02F010020492049A05941A6B1B
:102D600042F008021A631A6B02F008020592059AF3
:102D700006941A6B42F002021A631B6B03F0020303
:102D80000693069B2A4F22464EF22D013846FEF747
:102D900005F9DFF8A0A022464FF47C415046FEF72B
:102DA000FDF8DFF8949022464FF4E0714846FEF7B4
:102DB000F5F8DFF8888022464FF47F414046FEF761
:102DC000EDF84EF22D03079301260896099403258A
:102DD0000A9507A93846FDF74BFF5023079308943F
:102DE000099407A93846FDF743FF4FF47C43079346
:102DF000089609940A9507A95046FDF739FF4FF444
:102E0000E0730793089609940A9507A94846FDF7C9
:102E10002FFF4FF47F430793089609940A9507A95B
:102E20004046FDF725FF0CB0BDE8F08700380240B2
:102E3000001002400004024000080240000C024062
:102E400072B6FEE700B595B03022002108A804F064
:102E500047F9002303930493059306930793019383
:102E60001F4A116C41F080511164126C02F08052C3
:102E70000192019A02931B4B1A6842F480421A6035
:102E80001B6803F480430293029B01230893099378
:102E900002230E934FF480020F9204221092A82274
:102EA000119212930723139308A8FEF793F898B989
:102EB0000F23039302230493002305934FF4A0539D
:102EC00006934FF480530793052103A8FEF7EAFA0F
:102ED00020B915B05DF804FBFFF7B2FFFFF7B0FFB4
:102EE000003802400070004008B50A480A4B0360F1
:102EF0004FF4E133436000238360C36003610C221D
:102F000042618361C361FFF71BFC00B908BDFFF795
:102F100097FF00BF680E00200010014000B585B08B
:102F2000002300930193029303931248124A026014
:102F3000436083600361012282610362C3620F49BF
:102F40008162C360C26103634261FDF743FB60B904
:102F50000023009301220192029369460548FDF780
:102F600027FD20B905B05DF804FBFFF769FFFFF707
:102F700067FF00BF200E0020002001400100000F6D
:102F800000B587B000230293039304930593009345
:102F900001931448144A02604FF47A7242608360CD
:102FA0004FF6FF72C26003614361FFF783F890B987
:102FB0004FF48053029302A90A48FEF775FC60B9EA
:102FC00000230093019369460648FFF7EBF830B9F8
:102FD00007B05DF804FBFFF733FFFFF731FFFFF7A2
:102FE0002FFF00BFA80E00200000014008B5FDF72C
:102FF0000FFAFFF727FFFFF7F5FDFFF77DFEFFF75D
:10300000BFFFFFF771FFFFF789FF08BD70B5DEB0A6
:103010000446244D7C26324629463FA804F052F847
:103020003246A91920A804F04DF801AB10221A600D
:103030005A609A600821D96019615A6199611A48E9
:103040000568DD611A621948006858629862DA62A0
:103050001A635A639963DA63154E36681E645A64BC
:103060009964D9641A655A659A65D965002119660B
:1030700058669D66DA661A675A6798675EAA02EB19
:10308000840252F87C0C0B49086052F8F81C0A4A7A
:10309000116053F82420094B1A60094B1C605EB084
:1030A00070BD00BFF87C00089C0C0020A00C002024
:1030B000880C002064110020F80E0020280F00204A
:1030C000100F0020F8B504460E46854B00221988E3
:1030D0005868FDF763FF834B002219885868FDF795
:1030E0005DFF814B002219885868FDF757FF7F4B21
:1030F000002219885868FDF751FF7D4B002219887E
:103100005868FDF74BFF7B4B002219885868FDF784
:1031100045FF794B002219885868FDF73FFF774B30
:10312000002219885868FDF739FF754B002219886D
:103130005868FDF733FF734B002219885868FDF774
:103140002DFF714B002219885868FDF727FF6F4B40
:10315000002219885868FDF721FF6D4B002219885D
:103160005868FDF71BFF6B4B002219885868FDF764
:1031700015FF694B002219885868FDF70FFF674B50
:10318000002219885868FDF709FFF5B215F0400FC5
:1031900036D1E4B214F0020F39D114F004073DD156
:1031A00014F0010F41D115F0010F45D115F0020FB8
:1031B00049D115F0040F4DD115F0080F51D115F07C
:1031C000100F55D115F0200F59D1002E5EDB14F0F1
:1031D000080562D114F0100F66D114F0200F6AD1E7
:1031E000002F6FD1002D74D14D4C012221886068D1
:1031F000FDF7D4FE002221886068FDF7CFFEF8BD00
:10320000374B012219885868FDF7C8FEC1E7354BD6
:10321000012219885868FDF7C1FEBEE7324B012232
:1032200019885868FDF7BAFEBAE7304B01221988B1
:103230005868FDF7B3FEB6E72D4B01221988586890
:10324000FDF7ACFEB2E72B4B012219885868FDF759
:10325000A5FEAEE7284B012219885868FDF79EFEAF
:10326000AAE7264B012219885868FDF797FEA6E7C2
:10327000234B012219885868FDF790FEA2E7214BE5
:10328000012219885868FDF789FE9EE71E4B01222E
:1032900019885868FDF782FE99E71C4B01221988AE
:1032A0005868FDF77BFE95E7194B0122198858688D
:1032B000FDF774FE91E7174B012219885868FDF756
:1032C0006DFE8DE7144B012219885868FDF766FEE4
:1032D00088E7124B012219885868FDF75FFE83E7E3
:1032E000600C0020780C0020100C0020700C0020D6
:1032F000000C0020080C0020400C0020480C00208E
:10330000500C0020580C0020680C0020180C0020E5
:10331000200C0020280C0020300C0020380C00204D
:10332000CC0C002010B50446064B012219885868C1
:10333000FDF734FE044B1A7821460020FFF7C2FE49
:1033400010BD00BF940C0020280F002010B50446CB
:10335000064B002219885868FDF720FE044B1A78A6
:1033600021460020FFF7AEFE10BD00BF940C0020E8
:10337000280F002038B504460D46064B0122198857
:103380005868FDF70BFE044B1A7829462046FFF7D4
:1033900099FE38BD940C0020280F0020F8B5044693
:1033A0000D461646B64B002219885868FDF7F6FD03
:1033B000B44B002219885868FDF7F0FDB24B00228B
:1033C00019885868FDF7EAFDB04B00221988586843
:1033D000FDF7E4FDAE4B002219885868FDF7DEFDCD
:1033E000AC4B002219885868FDF7D8FDAA4B002283
:1033F00019885868FDF7D2FDA84B00221988586833
:10340000FDF7CCFDA64B002219885868FDF7C6FDD4
:10341000A44B002219885868FDF7C0FDA24B00227A
:1034200019885868FDF7BAFDA04B00221988586822
:10343000FDF7B4FD9E4B002219885868FDF7AEFDDC
:103440009C4B002219885868FDF7A8FD9A4B002272
:1034500019885868FDF7A2FD984B00221988586812
:10346000FDF79CFD15F0400F40F0E68014F0020FD0
:1034700040F0E98014F0040740F0EC8014F0010FF4
:1034800040F0EF8015F0010F40F0F28015F0020FD0
:1034900040F0188115F0040F40F01B8115F0080F63
:1034A00040F01E8115F0100F40F0218115F0200F23
:1034B00040F0248115F0800F40F0278114F00805BA
:1034C00040F02A8114F0100F40F02D8114F0200FED
:1034D00040F03081002F40F03481002D40F03881E1
:1034E0003746002EC0F23B813F110025BD4280F2DD
:1034F0003981734C002221886068FDF74FFD01225D
:1035000021886068FDF74AFD002221886068FDF788
:1035100045FD012221886068FDF740FD00222188D9
:103520006068FDF73BFD012221886068FDF736FDEC
:10353000002221886068FDF731FD01222188606842
:10354000FDF72CFD002221886068FDF727FD012290
:1035500021886068FDF722FD002221886068FDF760
:103560001DFD012221886068FDF718FD00222188D9
:103570006068FDF713FD012221886068FDF70EFDEC
:10358000002221886068FDF709FD0122218860681A
:10359000FDF704FD002221886068FDF7FFFC012291
:1035A00021886068FDF7FAFC002221886068FDF739
:1035B000F5FC012221886068FDF7F0FC00222188DB
:1035C0006068FDF7EBFC012221886068FDF7E6FCEE
:1035D000002221886068FDF7E1FC012221886068F3
:1035E000FDF7DCFC002221886068FDF7D7FC012292
:1035F00021886068FDF7D2FC002221886068FDF711
:10360000CDFC012221886068FDF7C8FC00222188DA
:103610006068FDF7C3FC012221886068FDF7BEFCED
:10362000002221886068FDF7B9FC012221886068CA
:10363000FDF7B4FC013559E7114B01221988586890
:10364000FDF7ACFC12E70F4B012219885868FDF713
:10365000A5FC0FE70C4B012219885868FDF79EFC6A
:103660000CE70A4B012219885868FDF797FC09E717
:10367000074B012219885868FDF790FC06E700BF48
:10368000600C0020780C0020100C0020700C002032
:10369000000C0020080C0020400C0020480C0020EA
:1036A000500C0020580C0020680C0020180C002042
:1036B000200C0020280C0020300C0020380C0020AA
:1036C000CC0C0020354B012219885868FDF766FCA8
:1036D000E0E6334B012219885868FDF75FFCDDE610
:1036E000304B012219885868FDF758FCDAE62E4B5A
:1036F000012219885868FDF751FCD7E62B4B0122AF
:1037000019885868FDF74AFCD4E6294B012219882C
:103710005868FDF743FCD1E6264B0122198858680A
:10372000FDF73CFCCEE6244B012219885868FDF7D2
:1037300035FCCBE6214B012219885868FDF72EFC99
:10374000C8E61F4B012219885868FDF727FCC4E61C
:103750001C4B012219885868FDF720FCC0E606F1D1
:103760000F07C1E616F00F0F16D1F8BD164C002258
:1037700021886068FDF712FC012221886068FDF74E
:103780000DFC0135724206F00F0302F00F0258BF24
:103790005342AB42EADAE8E70025F3E7080C0020E1
:1037A000400C0020480C0020500C0020580C002039
:1037B000680C0020180C0020200C0020280C002091
:1037C000300C0020380C0020CC0C0020F8B5054649
:1037D0000F4614461E461A4B1A781A4B1B789A420B
:1037E00025D02A20FFF7B2FD47F30720FFF79AFD07
:1037F00078B2FFF797FD46F30720FFF793FD70B20D
:10380000FFF790FD2B20FFF7A1FD45F30720FFF701
:1038100089FD68B2FFF786FD44F30720FFF782FDBC
:1038200060B2FFF77FFD2C20FFF790FDF8BD064B3F
:103830001B681A1B34461E1A0D461746D1E700BFF7
:10384000D40C0020840C0020F80E002008B50C4B8E
:103850001A780C4B1B789A4208D00B4B1B680B4A0A
:10386000126800210846FFF7B1FF08BD074B1B682F
:10387000054A126800210846FFF7A8FFF5E700BFD8
:10388000D40C0020CE0D002064110020F80E002082
:1038900010B5264B002219885868FDF77FFBFFF70B
:1038A000D5FF234B1B68012B05D1214B1B68102B27
:1038B00008D0002420E01F4B012219885868FDF72A
:1038C0006DFBF2E71C4B1B681C4A1268013203FBBC
:1038D000022200210846FFF761FD144B01221988DE
:1038E0005868FDF75BFBFFF7B1FF10BDD2B20021B6
:1038F0000846FFF7E7FB01340F4B1A680F4B1B68B4
:10390000013302FB0333A342E7DD094B1A68012AA6
:10391000ECD1D2B200210120FFF7D4FB044B1A787E
:1039200000210120FFF7CEFBE5E700BFF40B0020EC
:10393000280F0020940C002064110020F80E0020B5
:10394000054B186002781A7142785A7182789A7120
:10395000C278DA71704700BF9C0F002008B56FF085
:103960001D00FFF7F3FC2320FFF7DCFC0220FFF72C
:10397000D9FC0420FFF7D6FC6FF01F00FFF7E6FC30
:103980000120FFF7CFFC6FF01F00FFF7DFFC0320E3
:10399000FFF7C8FC0120FFF7D9FC6FF01900FFF713
:1039A000D5FC0420FFF7BEFC6FF06C00FFF7BAFCFB
:1039B0006FF01F00FFF7B6FC6FF04F00FFF7C6FC7B
:1039C0000020FFF7AFFC0020FFF7ACFC0320FFF75F
:1039D000A9FC1F20FFF7A6FC0120FFF7A3FC6FF056
:1039E0002000FFF79FFC0020FFF79CFC6FF04B00CE
:1039F000FFF7ACFC0320FFF795FC6FF05F00FFF7CB
:103A000091FC0020FFF78EFC2E20FFF78BFC30206E
:103A1000FFF788FC0020FFF785FC0F20FFF782FCF2
:103A20000020FFF77FFC6FF04900FFF78FFC0220BA
:103A3000FFF778FC0D20FFF775FC0020FFF772FC04
:103A40001020FFF76FFC1020FFF76CFC0020FFF741
:103A500069FC0820FFF766FC6FF04500FFF776FC75
:103A60000520FFF75FFC6FF04700FFF76FFC0720B2
:103A7000FFF758FC0120FFF755FC3620FFF766FCE6
:103A80002220FFF74FFC6FF00F00FFF75FFC0320D1
:103A9000FFF748FC40F2DF1340F21F3200210846D6
:103AA000FFF794FE2920FFF751FC6FF04100FFF76C
:103AB0004DFC0620FFF736FC6FF00F00FFF732FCDD
:103AC0000120FFF72FFC6FF00F00FFF72BFC002009
:103AD000FFF728FC0020FFF725FC6FF02F00FFF711
:103AE00035FC0D20FFF71EFC2C20FFF72FFC08BD36
:103AF00000F0F80040B240EA5110054B1870C900C0
:103B000021F01F0149B241EAD202024B1A707047FC
:103B1000E40E0020EC0E00200212024B1A70024B41
:103B200018707047E40E0020EC0E002000F0F80042
:103B300040B240EA5110074B1870C90021F01F0134
:103B400049B241EAD202044B1A70044B00221A70A7
:103B5000704700BF740F00204C0F00207C0F002026
:103B600010B51A4B18701A4B1B68012B27D1194C32
:103B7000002221886068FDF711FA0122218860681F
:103B8000FDF70CFA144C002221886068FDF706FA54
:103B9000FFF7E4FE012221886068FDF7FFF9FF22AC
:103BA00011461046FFF7A4FF002211461046FFF70A
:103BB000BDFF0023094A1360094A137010BD054B6D
:103BC000012219885868FDF7E9F9D0E7D40C0020E4
:103BD000280F00208C0C0020F40B00209C0F0020EC
:103BE0007C0F0020B0F1FF3F08D0020A054B1A708D
:103BF000054B1870054B00221A707047034B0122C9
:103C00001A707047740F00204C0F00207C0F0020AA
:103C100070B504460E46151E18DB154B0022198898
:103C20005868FDF7BBF93346621931462046FFF765
:103C3000CDFD104B1B68102B0BD00D4B01221988AA
:103C40005868FDF7ABF9FFF701FE70BD2C446D42DB
:103C5000E3E7094B012219885868FDF79FF92A46C6
:103C6000064B1978064B1878FFF798FBE5E700BF7D
:103C7000F40B0020280F0020940C0020EC0E0020F4
:103C8000E40E002070B506460C46151E18DB154BD9
:103C9000002219885868FDF781F9631932462146D8
:103CA0003046FFF793FD104B1B68102B0BD00D4BCC
:103CB000012219885868FDF771F9FFF7C7FD70BD3B
:103CC0002C446D42E3E7094B012219885868FDF73F
:103CD00065F92A46064B1978064B1878FFF75EFB04
:103CE000E5E700BFF40B0020280F0020940C002013
:103CF000EC0E0020E40E002008B541B240F307208E
:103D0000FFF738FB08BD000070B505460E460E4CA7
:103D1000002221886068FDF741F933462A46314682
:103D20002846FFF753FD094B1878094B1B7843EAE7
:103D30000020FFF7E1FF012221886068FDF72EF9DE
:103D4000FFF784FD70BD00BFF40B0020E40E0020DF
:103D5000EC0E00202DE9F047044688469146764B4C
:103D6000002219885868FDF719F9744B1B78002B4D
:103D700040F09680724B1A78724B1B789A420DD0A5
:103D8000714A9779E41B1379DB08577907FB03F72E
:103D900007FB04F704374FF0000A6AE06A4D2A79FE
:103DA00042446B794B44013B013A49464046FFF798
:103DB0000DFDAE79A41B2B79DB086E7906FB03F6AB
:103DC00006FB04F6043600271DE0604B1878604BB4
:103DD0001B7843EA0020FFF78FFF0134E4B2072C81
:103DE0000FD8C4F1070345FA03F313F0010FECD029
:103DF000584B1878584B1B7843EA0020FFF77CFF9C
:103E0000EBE70136013750490B79DA084B7903FBB0
:103E100002F3BB4240F386804B4B1B689D5D002440
:103E2000DDE74A4B18784A4B1B7843EA0020FFF73E
:103E300063FF0134E4B2072C0DD845FA04F313F004
:103E4000010FEED0434B1878434B1B7843EA002018
:103E5000FFF752FFEDE7013E002E05DB3A4B1A68F3
:103E6000BB19D55C0024E6E7374B1B79DB081F4400
:103E70009A4435490A79D308497901FB03F1514540
:103E800050DD9AFBF3F303EB090142440B46013A80
:103E90004046FFF79BFC2C4B1E79F608013EDBE702
:103EA000294A9379E41A1379DB0892F805A00AFBF2
:103EB00003FA0AFB04F404F1040A00272CE004EBE3
:103EC000080000EBC60007EB09014B1C421CFFF782
:103ED0007DFC204B1878204B1B7843EA0020FFF72D
:103EE0000BFF0134E4B2072C07D8C4F1070345FAED
:103EF00003F313F0010FF4D0E1E70136124B1B7905
:103F0000DB08B34206DD104B1A680AEB0603D55CEA
:103F10000024E8E79A4401370B4B5B79BB4201DD93
:103F20000026EBE7044B012219885868FDF736F8A4
:103F3000FFF78CFCBDE8F087F40B00207C0F00201D
:103F4000D40C0020CE0D00209C0F0020740F002008
:103F50004C0F0020E40E0020EC0E00202DE9F04173
:103F600007460C4616461D46904201DC064617469B
:103F7000AC4202DC2B4625461C46A7EB060842460F
:103F800029463046FFF744FE424621463046FFF7B9
:103F90003FFE641B224629463046FFF773FE224649
:103FA00029463846FFF76EFEBDE8F0812DE9F04F57
:103FB00083B006460F4614461D46904201DC044677
:103FC0001646AF4202DC2B463D461F46A6EB0408D0
:103FD000B8F1040F04DDA7EB0509B9F1040F02DC09
:103FE00003B0BDE8F08F04F1010B05F1010A514661
:103FF0005846FFF789FE731E514601931846FFF796
:1040000083FE07F1FF3A51465846FFF77DFE5146C1
:104010000198FFF779FE04F1020AA8F1040842466C
:1040200029465046FFF7F4FD424639465046FFF711
:10403000EFFD0235A9F104094A4629462046FFF75B
:1040400021FE4A4629463046FFF71CFEC8E72DE907
:10405000F84F884616469946904201DC06461046BF
:10406000C84502DC4B46C1469846851B042D03DD3E
:10407000A8EB0907042F39DCBDE8F88F06F1020A26
:10408000A5F1040B5A4609EB04015046FFF7C0FDA9
:104090005A46A8EB04015046FFF7BAFD013407EB7E
:1040A000D773B4EB630FE7DC002CE7D0012C0CD006
:1040B0002A4609EB04013046FFF7AAFD2A46A8EB81
:1040C00004013046FFF7A4FDE8E706F1010AA5F177
:1040D000020B5A4609EB04015046FFF799FD5A4678
:1040E000A8EB04015046FFF793FDD7E70024D6E77D
:1040F0002DE9F04F8BB004460791914698461498ED
:1041000002F0AEFC6CA3D3E9002302F013FDCDE96D
:1041100000016B4B002219885868FCF73FFF694982
:104120008B79E41A0B79DA084B7903FB02F303FB72
:1041300004F30433099300230693CDF82090C1467D
:10414000A6E0614B1878614B1B7843EA0020FFF72B
:10415000D3FD09F101095FFA89F9B9F1070F7FD899
:1041600009EBCA04574D95F804800BFB0848DDE9BC
:10417000000101F07BF906460F46404602F070FC54
:1041800032463B4602F0D6FC06460F46069802F041
:1041900067FCCDE90201DDE9000101F0AFF902465B
:1041A0000B46DDE9020102F0C5FC02460B46304633
:1041B000394602F007FB06460F46079802F050FC0E
:1041C00032463B4602F000FB02F04EFF0646DDE9B8
:1041D000000101F04BF902460B46DDE9020102F055
:1041E000A9FCCDE902012F790BFB0747DDE90001AE
:1041F00001F084F904460D46384602F031FC2246AF
:104200002B4602F097FC02460B46DDE9020102F064
:10421000DBFA04460D46089802F022FC22462B46A3
:1042200002F0D2FA02F020FF0146431C721C304615
:10423000FFF7CCFAC9F10703059A42FA03F313F02A
:10424000010F7FF47EAF224B1B78002B81D1214BD5
:104250001878214B1B7843EA0020FFF74DFD78E7E3
:104260000AF1010A174B1B79DB08534508DD154B92
:104270001A68099B5344D65C4FF0000905966CE719
:10428000D946099A1A440992069B0133DBB2069378
:104290000C4B5B79069A934203D90026B246CB4673
:1042A000E0E7074B012219885868FCF777FEFFF713
:1042B000CDFA0BB0BDE8F08FEC51B81E85EB913F05
:1042C000F40B00209C0F0020E40E0020EC0E0020D8
:1042D0007C0F0020740F00204C0F00202DE9F043CC
:1042E00083B004460E4691461F4602F001FF804609
:1042F0002C4B1A782C4B1B789A4209D042F20F7340
:104300009E4220D042F20E739E4224D0002537E018
:1043100042F20F739E420ED042F20E739E42F5D1CE
:10432000224B1B680133224A167908FB163606EB2E
:10433000D6767610EAE71D4B1B6801331C4A1679C6
:1043400000FB1636E8E71B4B1B680133184A167949
:1043500000FB1636D6E7174B1B680133144A167953
:1043600008FB163606EBD6767610CFE714F9010B6C
:1043700000972B464A463146C0B2FFF7B9FE0135D9
:1043800045450CDA002FF1D114F9010B084B1979CE
:104390004A4605FB0161C0B2FFF7DCFCEFE703B062
:1043A000BDE8F083D40C0020CE0D00206411002065
:1043B0009C0F0020F80E00202DE9F0418EB09DF9F1
:1043C0005070E8B933B930238DF8003000238DF8F0
:1043D000013071E000205C1E844205DD0EAC044417
:1043E00004F8387C0130F6E70EAB0344302403F8C0
:1043F000384C01300EAB1844002300F8383C5BE029
:10440000044600281FDB4FF0000C0025002C1EDDA9
:104410002D4E86FB040EE017C0EBAE0000EB8000D3
:104420004FEA400EA4EB0E0000F130080DF1380EFB
:10443000AE440EF81C8C0135201A86FB0064C017B0
:10444000C0EBA404E2E744424FF0010CDDE7002496
:104450000EA8284400F81C4CBCF1000F02D02D20FF
:104460008DF800006646AC449C451DDB0024002707
:10447000BD421BDDE81B0138F31923440DF1380E52
:10448000704410F91C0C734403F8380C0137EFE743
:1044900030190DF1380E704400F8387C0134581B87
:1044A000801BA042F4DCE2E70024F8E764440EAB92
:1044B0001C44002304F8383C00236846FFF70EFF35
:1044C0000EB0BDE8F08100BF67666666034B1878E2
:1044D000034B1B7843EA0020704700BFE40E002026
:1044E000EC0E0020034B1878034B1B7843EA0020A6
:1044F000704700BF740F00204C0F0020014B18685C
:10450000704700BF9C0F00202DE9F04F85B001904F
:10451000029191460393DDF838A00F9D012D0ED036
:10452000704B1A78704B1B789A425FD06F4B002209
:1045300019885868FCF732FD4FF0000BC1E0694B59
:104540001A78694B1B789A4207D0684B0022198869
:104550005868FCF723FD002532E0644B00221988DF
:104560005868FCF71BFD019800EB09020299039BB8
:10457000CB18013B013AFFF729F9002407E03AF88C
:10458000140041B240F30720FEF7F4FE0134039B10
:1045900003FB09F3A342F2DC544B0122198858684B
:1045A000FCF7FCFC99E009FB05433AF8130041B223
:1045B00040F30720FEF7DEFE013C002CF3DA013564
:1045C000039B9D420BDA029BE918019800EB09025C
:1045D0000B46013AFFF7FAF809F1FF34EDE7434BD8
:1045E000012219885868FCF7D9FC76E03F4B00227D
:1045F00019885868FCF7D2FC4FF0000B1DE071B22F
:1046000047F30720FEF7B6FE0134AC42F7DB08F1B2
:104610000108C84506DA09FB0B833AF813603746F0
:104620000024F2E7009B01330093009BAB4202DAC7
:104630004FF00008EDE70BF1010B039B9B450DDAF2
:10464000029B05FB0B3109FB05F2013A4B1901985E
:104650000244FFF7BBF800230093E6E7234B012257
:1046600019885868FCF79AFC37E008F1FF38B8F170
:10467000000F0EDB09FB0B833AF81360374600246A
:10468000AC42F2DA71B247F30720FEF773FE013451
:10469000F6E7009B01330093009BAB420FDA029BCD
:1046A00005FB0B31009B194409FB05F2013A0B464F
:1046B00001980244FFF78AF809F1FF38D7E70BF1B8
:1046C000010B039B9B4502DA00230093E4E7074BB1
:1046D000012219885868FCF761FCFFF7B7F805B0AC
:1046E000BDE8F08FD40C0020CE0D0020F40B00208C
:1046F000014B1879704700BF9C0F0020014B58797F
:10470000704700BF9C0F002038B51B4B1870012468
:104710001A4B1C601A4B37221A601A4B40F6B772BC
:104720001A60194B40F25D121A60184B40F65B722A
:104730001A60174B40F21F321A60164B40F2DF121C
:104740001A60154B0A221A70144B224619885868B1
:10475000FCF724FC124B224619885868FCF71EFC13
:10476000104D224629886868FCF718FC22462988E3
:104770006868FCF713FC38BDD40C0020480F0020FB
:10478000640F00200C0F0020800F0020F00E00208E
:10479000180F002068110020240F0020AC0C00200E
:1047A000A40C0020B40C002008B5044B19885868EC
:1047B000FCF7E0FBB0FA80F0400908BDC40C002013
:1047C000274BB3F90000B0F1FF3F47D0254BB3F9B9
:1047D0000030B3F1FF3F40D0234B1A78234B1B68C6
:1047E0009A4217D053BB224B1968401A214B1B68C1
:1047F0005A4202FB00F0204A1268521A90FBF2F073
:104800000344002B27DB1B4A1068984200DB184644
:1048100000B27047194B1968431A194A106800FB17
:1048200003F3184A1268521A93FBF2F3002B03DBCE
:104830009842EDDB1846EBE70023F9E70C4B1A68CA
:10484000801A0C4B1B6803FB00F00B4B1B689B1A78
:1048500090FBF3F3D5E70023D5E71846704700BF78
:1048600040110020580F0020D40C0020480F0020D9
:10487000800F002068110020F00E0020640F00203F
:10488000180F00200C0F0020264BB3F90000B0F1E8
:10489000FF3F20D0244BB3F90000B0F1FF3F1AD006
:1048A000224B1A78224B1B689A4215D043BB214BEE
:1048B0001A68801A204B1B6803FB00F01F4B1B6813
:1048C0009B1A90FBF3F3002B29DB1B4A10689842DC
:1048D00000DB184600B27047194B1968431A194A91
:1048E000106800FB03F3184A1268521A93FBF2F3A4
:1048F000002B03DB9842EDDB1846EBE70023F9E7DA
:104900000C4B1968401A0C4B1B685A4202FB00F012
:104910000A4A1268521A90FBF2F00344D3E70023CC
:10492000D3E700BF40110020580F0020D40C002016
:10493000480F0020640F0020180F00200C0F0020EB
:10494000800F002068110020F00E0020013803289D
:1049500013D8DFE800F002060A0E0A4B01221A7093
:104960007047084B0C221A707047064B1B221A70B6
:104970007047044B66221A707047024B0C221A7063
:10498000704700BF240F002070B50546144B00226D
:1049900019885868FCF702FB002414E0114B01222F
:1049A00019885868FCF7FAFA6D00EDB20C4E002237
:1049B00031887068FCF7F2FA012231887068FCF7E0
:1049C000EDFA0134E4B2072C09D815F0800FE5D1D7
:1049D000044B002219885868FCF7E0FAE4E770BD40
:1049E000A40C0020B40C002070B50024264601E081
:1049F0000134E4B20B2C14D876000B4D0122298827
:104A00006868FCF7CBFA002229886868FCF7C6FAC8
:104A1000064B19885868FCF7ADFA0028E8D0013633
:104A2000E6E7304670BD00BFA40C0020BC0C00209F
:104A30002DE9F04F83B0514B002219885868FCF7DC
:104A4000ADFA002425460194DFF850910094CB463E
:104A50002746A24601E001350134494B1B78A342A9
:104A600052DD484B19885868FCF784FA0028F3D1C6
:104A70009020FFF789FF444E012231887068FCF7CF
:104A80008DFA002231887068FCF788FAFFF7ACFFD6
:104A900006463C4B19885868FCF76CFA0028DBD1B5
:104AA000D020FFF771FFDFF8E0800122B8F8001096
:104AB000D8F80400FCF772FA0022B8F80010D8F811
:104AC0000400FCF76BFAFFF78FFF721E40F6FE73CF
:104AD0009A42C1D80028BFD0B0F5805FBCD2B244A2
:104AE0000744274B1B78052BB5D9B34500D9B346EE
:104AF000009BB34200D20096814500D98146019BBC
:104B00008342A8D20190A6E7052B08D9009B9B44BD
:104B1000AAEB0B0A019B9944A7EB0907023D174B2F
:104B2000012219885868FCF739FA154B1B78023BAB
:104B3000AB420AD0012D08D04FF6FF73134A138001
:104B4000134A138003B0BDE8F08F124B1A78124B52
:104B50001B689A4209D0BAFBF5FA0C4BA3F800A0E7
:104B6000B7FBF5F50A4B1D80ECE7B7FBF5F7074BF4
:104B70001F80BAFBF5F5064B1D80E3E7AC0C002067
:104B8000240F0020C40C0020A40C002040110020A1
:104B9000580F0020D40C0020480F00209F860100F1
:104BA000F0B40646002000E0013000EB8004A500D0
:104BB0000F4C2C44B4F90840002C01DB1328F3DD22
:104BC000142811D00A4F84000444A5007C197E5398
:104BD0006180A280E380BDF814302381049BE360F0
:104BE00000232361F0BC70474FF0FF30FAE700BFAD
:104BF000A40F00202DE9F04F85B00446FFF77EFC9E
:104C00000746FFF763FC0646FFF76CFC039004EBD6
:104C100084039A00894B13441B8913F0080F37D083
:104C2000864D104605EB020801230193D8F8103099
:104C30000093B8F80630B8F80420B8F80210285AE3
:104C4000FFF762FCB8F8083013F0100F40F09980BD
:104C500013F0010F04D07A4B1868FEF75DFF90E067
:104C6000784B1868FEF758FF744B4FEA840C0CEB36
:104C700004018A0003EB020E985ABEF80210BEF837
:104C80000420BEF806300B440244FFF767F978E0D1
:104C90006D4B1868FEF740FF684DA30023444FEAB0
:104CA000830905EB090835F80900B8F80210B8F8CF
:104CB0000420B8F806300B440244FFF7C8F9614BF2
:104CC0001868FEF729FF35F80900B8F80210B8F89F
:104CD0000420B8F806300B440244FFF767F9B8F82F
:104CE000083013F0010F58D0554B1868FEF714FF29
:104CF00004EB84039A00514B13441B8913F0020FF9
:104D000050D0524B1868FEF71BFE4C4DA3002344B5
:104D10004FEA830805EB0809B9F804A04FEA5A0ADC
:104D2000FFF7E6FCC0F34700AAEB000A35F80800DD
:104D30008244B9F806804FEA5808FFF7DFFCC0F359
:104D40004700A8EB0008B9F8020080443E4B186801
:104D5000FEF748FF3E4B1868FEF7DEFEA300234433
:104D60004FEA8309354B9944002342465146D9F80E
:104D70000C00FFF7B3FAB9F8083003F00603062B6E
:104D80003BD03846FEF7DCFD3046FEF7C5FE039803
:104D9000FEF728FF05B0BDE8F08F2D4B1868FEF731
:104DA000BBFEA5E72B4B1868FEF7CAFDDFF88CB0F9
:104DB000A30023444FEA83090BEB0908B8F8040069
:104DC0004508D8F80C0002F093F98246FFF790FCF2
:104DD00000FB0AFAA5EB5A0A3BF809008244B8F82E
:104DE00006904FEA5909FFF789FCC0F34700A9EB89
:104DF0000009B8F80280C844A8E7FFF779FCDFF89B
:104E00003CB04FEA840909EB040293000BEB030C5E
:104E100000234246AAEB0001DCF80C00FFF75EFA23
:104E2000FFF766FC4C44A3009B440023424600EB82
:104E30000A01DBF80C00FFF751FAA2E7A40F0020EB
:104E4000440F00202C0F0020540F00205011002090
:104E5000481100206C0F002010B5002400E0013440
:104E6000132C0CDC04EB84039A00054B1344B3F9B8
:104E70000830002BF3DB2046FFF7BCFEEFE710BD48
:104E8000A40F00200022132A14DC10B40A4C930053
:104E90001344980023180021215259809980D98009
:104EA0004FF4004119810549D9600132132AEDDD23
:104EB00010BC7047704700BFA40F0020B07B0008F3
:104EC00008B5FFF7DFFF4FF6FF730A4A13600A4A7F
:104ED00048F210411160094A1F211160084A13600D
:104EE000084B4FF478421A600023074A1360074AC0
:104EF000136008BD48110020440F0020540F00200B
:104F00002C0F0020780F00206C0F00205011002083
:104F100010B4064C206006480160019805490860FD
:104F200005490A60054A136010BC7047481100200B
:104F3000440F0020540F00202C0F0020780F002079
:104F4000014B1860704700BF6C0F0020F8B5FFF7E9
:104F50002BFC002800F0AB80FFF76AFDFFF730FC68
:104F60000546FFF791FC0746FFF7B0FA0646002317
:104F70004FF0FF3400E00133132B2BDC03EB8302F3
:104F800091004C4A0A44128912F4004FF3D112F0F6
:104F9000010FF0D1B4F1FF3FEDD103EB83018A00A3
:104FA00044498A5AAA42E6DC03EB8301880041495E
:104FB000014489880A44AA42DDDB3E4A0244528801
:104FC000BA42D8DC3B490144C9880A44BA42D2DB20
:104FD0001C46D0E7B4F1FF3F08D004EB84039A00ED
:104FE000344B13441B8913F0100F14D0FFF7DCFB74
:104FF0000028FBD1B4F1FF3F08D004EB84039A00F2
:105000002C4B13441B8913F0100F2AD03046FEF7A7
:1050100083FD2046F8BD284B1868FEF77DFD04EBA4
:1050200084039A00234B13441B8913F0080F0AD002
:1050300020498B18885A59889A88DB880B44024487
:10504000FEF78CFFD2E71B49A30023449A008B187C
:10505000885A59889A88DB880B440244FEF7A6FFD9
:10506000C4E7164B1868FEF757FD04EB84039A005B
:10507000104B13441B8913F0080F0AD00D498B18ED
:10508000885A59889A88DB880B440244FEF766FFE9
:10509000BCE70849A30023449A008B18885A598812
:1050A0009A88DB880B440244FEF780FFAEE74FF09E
:1050B000FF34AEE7A40F0020780F00202C0F002053
:1050C00070B582B05348FDF793FC534B19685348B1
:1050D000FDF774FC2923009328232722262150481A
:1050E0000068FDF793FF0120FFF70EFB0220FFF79A
:1050F0002DFC0120FEF734FDFFF7E2FE494C20466F
:10510000FEF71EFC2046FFF71BFFFEF7C1FB4FF426
:105110007A70FBF7A5F9444B444A1A60FFF7B2FED8
:105120004FF4826300934FF6E0734FF4FC624FF448
:1051300000414FF6FF70FFF7EBFE002401943C4B5B
:1051400000933C23C8221E210F20FFF729FD394B75
:1051500018600194384B00933C23C8221E214FF461
:105160009670FFF71DFD354B1860FFF775FE22E0C6
:10517000FEF78EFBFFF770FEFFF75AFCFFF720FBF0
:1051800086B22F4B1E80FFF77FFB2E4C2080002520
:1051900000950123C8224FF416713046FFF70CF931
:1051A00000950123C8224FF42F712088FFF704F9DE
:1051B0006420FBF755F94FF47840FEF7ADFCFFF79C
:1051C000F3FA214B18600128F2D1FFF7BFFE1F4B05
:1051D0001860184B1B689842CAD0184B1B6898423D
:1051E00007D0B0F1FF3FE3D1FEF752FBFFF734FEEB
:1051F000DEE7FEF74DFBFFF72FFE4FF47840FEF79A
:105200008BFC5A234FF4C8724FF496711048FFF785
:1052100065F8CDE7FC7D00080C000020107E00083A
:10522000FC0B002010000020380F00203333D33F48
:10523000287E0008140F0020347E00081C0F002078
:105240004E0F00204C1100208C0F0020680F002012
:105250003C7E000808B50F4A1368013313600E4AFC
:1052600011680E4AB2FBF1F2934200D208BD094B1D
:1052700000221A600A48FBF7A3FAFF210848FBF74F
:1052800039FB0028F9D10648FBF78FFB054B188046
:10529000ECE700BFD00D0020800C002040420F0042
:1052A000200E0020CC0D00207047000010B584B007
:1052B0000368334A93420AD0B3F1804F24D0314A75
:1052C000934235D0304A934246D004B010BD0024FA
:1052D00000942E4B5A6C42F001025A645B6C03F04E
:1052E00001030093009B224621461920FBF764FC32
:1052F0001920FBF7A7FC224621461A20FBF75CFC8D
:105300001A20FBF79FFCE0E70021019103F50E3323
:105310001A6C42F001021A641B6C03F00103019342
:105320000A461C20FBF748FC1C20FBF78BFCCCE753
:1053300000210291154B1A6C42F010021A641B6C8A
:1053400003F010030293029B0A463620FBF734FC5D
:105350003620FBF777FCB8E7002103910B4B1A6C62
:1053600042F480721A641B6C03F480730393039BF2
:105370000A462D20FBF720FC2D20FBF763FCA4E759
:1053800000000140001000400020004000380240B2
:1053900000B589B000230393049305930693079304
:1053A000026803F1804303F588339A4202D009B0C2
:1053B0005DF804FB0021019103F594335A6C42F02F
:1053C00010025A645A6C02F010020192019A029182
:1053D0001A6B42F001021A631B6B03F00103029384
:1053E000029B4FF4C06303930223049303230693A9
:1053F0000723079303A90248FBF73AFCD7E700BF4E
:105400000000024000B589B0002303930493059384
:1054100006930793026803F1804303F590339A42A1
:1054200002D009B05DF804FB0021019103F58C3333
:105430005A6C42F480725A645A6C02F4807201927F
:10544000019A02911A6B42F001021A631B6B03F07E
:1054500001030293029B012303930323049303A9F3
:105460000148FBF705FCDCE70000024030B5214AAB
:1054700021F00043934287B01BDD1F4A934205DDB4
:1054800002460B4601F09EF907B030BD02AA00F0BB
:105490007FF800F00300012811D0022820D0C0B10D
:1054A00001230093DDE90201DDE9042300F0CCFFD4
:1054B000EAE70022002300F087FA07B030BD009031
:1054C000DDE90423DDE9020100F0BEFF01F1004146
:1054D000DAE7DDE90423DDE9020100F075FAD3E73C
:1054E000DDE90423DDE9020100F06EFA01F100417B
:1054F000CAE700BFFB21E93FFFFFEF7F30B5224A3B
:1055000021F00043934287B01BDD204A934205DD22
:1055100002460B4601F056F907B030BD02AA00F072
:1055200037F800F00300012813D0022821D0B8B1C9
:10553000DDE90423DDE9020100F046FA01F1004152
:10554000EAE7002300930022002300F07DFF07B06C
:1055500030BDDDE90423DDE9020100F035FADBE7C7
:1055600001230093DDE90201DDE9042300F06CFF73
:10557000D2E701230093DDE90201DDE9042300F015
:1055800063FF01F10041C7E7FB21E93FFFFFEF7F28
:105590002DE9F04FBE4C21F00045A5428FB040F3FD
:1055A00082801446BB4A95420E4626DC0029AEA3F3
:1055B000D3E9002340F3B38101F004F9B64B9D42D7
:1055C00006460F4600F08480A9A3D3E9002301F02A
:1055D000F9F802460B46C4E900233946304601F08B
:1055E000F1F8A3A3D3E9002301F0ECF8C4E9020128
:1055F000012738460FB0BDE8F08FA84A954240F326
:105600008780A74A954259DC2F15A7F21647A5EBCC
:1056100007518946804601F027FD01F021FA8246B4
:105620008B464046494652465B46CDE908AB01F001
:10563000C9F800229B4B01F07DFA8946804601F0B3
:1056400013FD054601F00CFA02460B46404649465A
:10565000CDE90A2301F0B6F80022924B01F06AFA74
:1056600000220023CDE90C0101F0CCFC002800F061
:10567000F680002D0CBF012302238B4A01920221E8
:105680003A46009108A8214600F0C2FA002E0746CB
:10569000AFDA6268E36802F1004203F10043474277
:1056A0006260E360A5E7002700240025C2E900014D
:1056B0003846C2E902450FB0BDE8F08F02460B46FE
:1056C00001F080F80027C4E90201C4E9000190E775
:1056D00069A3D3E9002301F075F869A3D3E9002396
:1056E00006460F4601F06EF802460B46C4E9002359
:1056F0003046394601F066F861A3D3E9002301F092
:1057000061F80127C4E9020138460FB0BDE8F08F07
:1057100000F050FF5CA3D3E900238046894601F0E6
:1057200009FA0022614B01F04FF801F09DFC074699
:1057300001F096F94CA3D3E9002382468B46CDE9CC
:1057400004AB01F0F7F902460B464046494601F02A
:1057500039F847A3D3E90023CDE902015046594661
:1057600001F0E8F91F2F8046894602460B46DDE925
:10577000020128DC01F026F84D4B7A1E834653F8CF
:105780002230AB428A4622D05A465346C4E900230F
:105790005A465346DDE9020101F014F842464B46F1
:1057A00001F010F8002E02460B46C4E90223BFF6B2
:1057B00020AF0AF1004301F10041C4E900B3C4E99C
:1057C00002017F4215E700F0FDFF83468A462D1552
:1057D000CAF30A53EB1A102BD6DD27A3D3E9002313
:1057E000DDE9040101F0A6F98046894602460B4630
:1057F000DDE9020100F0E6FF82468B4602460B46D9
:10580000DDE9020100F0DEFF42464B4600F0DAFF20
:105810001BA3D3E9002380468946DDE9040101F09A
:1058200089F942464B4600F0CDFF0B4602468046C2
:10583000894650465946CDE906AB00F0C3FFC1F397
:105840000A53ED1A312D83468A4633DC02460B4655
:10585000C4E90023DDE90623CDE9022398E7032309
:105860000BE700BFAFF3008000004054FB21F93F7D
:105870003163621A61B4D03D0000601A61B4D03D5A
:105880007370032E8A19A33B83C8C96D305FE43F50
:10589000FB21E93F7BD90240FB21F93FFB21394144
:1058A000FFFFEF7F00007041C47E00080000E03F72
:1058B000447E000838A3D3E90023DDE9040101F0A8
:1058C00039F98046894602460B46DDE9060100F0BB
:1058D00079FF82468B4602460B46DDE90601CDE99B
:1058E00002AB00F06FFF42464B4600F06BFF2CA36B
:1058F000D3E9002380468946DDE9040101F01AF965
:1059000042464B4600F05EFF02460B468046894603
:105910005046594600F056FF83468A4634E700F069
:1059200053FF274B9D4206460F4616D01EA3D3E9D0
:10593000002300F049FF02460B46C4E90023394624
:10594000304600F03FFF18A3D3E9002300F03CFFEE
:105950004FF0FF37C4E902014BE615A3D3E900235A
:1059600000F032FF14A3D3E900230F46064600F0EF
:105970002BFF02460B46C4E900233946304600F0AF
:1059800021FF0DA3D3E9002300F01EFF4FF0FF37E6
:10599000C4E902012DE600BF0000002E8A19A33BD6
:1059A000C14920259A837B393163621A61B4D03DA5
:1059B0000000601A61B4D03D7370032E8A19A33BB6
:1059C000FB21F93F000000002DE9F04F21F00046D7
:1059D000B6F1795F85B00C4692469B4605466BDA78
:1059E00001F042FB002800F0E8802A4623462846C2
:1059F000214601F09FF874A3D3E90023804689462D
:105A000001F098F872A3D3E9002300F0DDFE4246CE
:105A10004B4601F08FF870A3D3E9002300F0D2FECB
:105A200042464B4601F086F86DA3D3E9002300F00F
:105A3000CBFE42464B4601F07DF86BA3D3E9002331
:105A400000F0C0FE42464B4601F074F868A3D3E96B
:105A5000002300F0B9FE42464B4601F06BF8CDE959
:105A600000010022644B4046494601F063F8DDE93D
:105A7000002306460F464046494601F05BF8524671
:105A8000804689465B462846214601F053F8024687
:105A90000B464046494600F095FE02460B4630460E
:105AA000394600F08FFE02460B460020534900F0B5
:105AB00089FE05B0BDE8F08F02460B4601F03AF8CA
:105AC00041A3D3E900238046894601F033F840A37F
