:020000040800F2
:1000000000000220B9020008BF020008C302000875
:1000100035030008390300088103000800000000D0
:10002000000000000000000000000000C9030008FC
:10003000CD03000800000000D10300081D320008B5
:10004000E5030008E5030008E5030008E5030008F0
:10005000E5030008E5030008E5030008E5030008E0
:10006000E5030008E5030008E5030008E5030008D0
:10007000E5030008E5030008E5030008E5030008C0
:10008000E5030008E5030008E5030008E5030008B0
:10009000E5030008E5030008E5030008E5030008A0
:1000A000E503000841320008E5030008E503000805
:1000B000E5030008E5030008E5030008E503000880
:1000C000E5030008E5030008E5030008E503000870
:1000D000E5030008E5030008E5030008E503000860
:1000E000E5030008E5030008E5030008E503000850
:1000F000E5030008E5030008E5030008E503000840
:10010000E5030008E5030008E5030008E50300082F
:10011000E5030008E503000881280008E50300085E
:10012000E5030008E5030008E5030008E50300080F
:10013000E5030008E5030008E5030008E5030008FF
:10014000E5030008E5030008E5030008E5030008EF
:10015000E5030008E5030008E5030008E5030008DF
:10016000E5030008E5030008E5030008E5030008CF
:10017000E5030008E5030008E503000800000000AF
:10018000E5030008E503000800B583B002F022FF94
:10019000384B394A1360394A1360394900E0214627
:1001A000384B99420BD20A684B6801F10C048868FD
:1001B0009842F4D952F8041B43F8041BF8E72E4B7D
:1001C0001A68314B9A4200D0FEE72C4B1A682F4B2D
:1001D0009A42F9D1274B2E4A13602E4A13602E4AB9
:1001E00005E0002043F8040B9A42FAD80A462B4B4C
:1001F0009A4204D2114651F8083B5268F4E7244B66
:100200001B6813B9234B1B6803B1FEE703F0FCF92D
:10021000694601A802F06EFE214C224BE41AA4109C
:10022000002504E01F4B53F8253098470135AC42B8
:10023000F8DC1D4C1D4BE41AA410002504E01B4BF8
:1002400053F8253098470135AC42F8DC0099019805
:100250000DF02EFC0546164C164BE41AA41004E0D3
:10026000013C144B53F824309847002CF8DC284606
:1002700002F013FEBABADECA00000020B835002032
:10028000E8030008000400087856341232547698C7
:10029000C03500208C730120000400081004000801
:1002A00010040008100400081004000810040008DE
:1002B000100400081004000808B5FFF765FF00BE31
:1002C000FEE71EF0040F0CBFEFF30880EFF3098088
:1002D0007146414A10472DE9F04182B004468846F4
:1002E000124B5E6B9F6B9D6A1B6B13F0020F03D06A
:1002F0000E4BDB6A002B0CDB0D4802F00DFECDF837
:1003000000803B4632462946204602F06FFE00BE82
:10031000FEE74BF6AB6102F0E3FE0028ECD0034BA6
:100320004FF00042DA6202B0BDE8F08100ED00E07B
:10033000F40D010800BEFEE71EF0040F0CBFEFF342
:100340000880EFF309807146244A10472DE9F041F7
:1003500082B004468846084B5E6B9F6B9D6A0748D7
:1003600002F0DAFDCDF800803B46324629462046B1
:1003700002F03CFE00BEFEE700ED00E0040E0108C6
:100380001EF0040F0CBFEFF30880EFF309807146F5
:10039000134A10472DE9F04182B004468846084BC5
:1003A0005E6B9F6B9D6A074802F0B6FDCDF800803A
:1003B0003B4632462946204602F018FE00BEFEE7C4
:1003C00000ED00E0100E010800BEFEE700BEFEE7F3
:1003D00000BEFEE770470000D70200084D0300088A
:0803E0009503000800BEFEE7D2
:1003E800BC3C010800000020BC350020BC3C0108D2
:1003F8000000001000000010C0350020907301209C
:080408000000001000000010CC
:1004100008B50B4B1A6842F400721A601A6842F46D
:1004200080621A601A6842F480721A60032000F039
:1004300065FD0F2002F0DCF90DF022FC002008BD64
:10044000003C0240024A136801331360704700BF4A
:10045000BC360020014B1868704700BFBC36002036
:1004600010B582B00190FFF7F5FF0446FFF7F2FFE9
:10047000001B019B9842F9D302B010BD10B5044691
:10048000514B5A6822F440325A605A6841680A4314
:100490005A600268536823F480735360026853689B
:1004A000016943EA012353600268536823F04073F3
:1004B00053600268536881680B4353600268936815
:1004C00023F40063936002689368C1680B439360F0
:1004D000826A3E4B9A425FD00268936823F0706351
:1004E000936002689368816A0B4393600268936823
:1004F00023F04053936002689368C16A0B43936092
:100500002268936823F00203936022689368A169CC
:1005100043EA41039360236A002B4ED0636A013B98
:10052000072B44D82268536843F400635360226861
:10053000536823F460435360636A013B4FF46042A5
:1005400092FAA2F2B2FA82F2934021684A68134307
:100550004B602268D36A23F47003D3622168CB6AAC
:10056000E269013A43EA0253CB622268936823F4BA
:100570000073936022689368216B43EA4123936080
:100580002268936823F480639360226893686169AA
:1005900043EA8123936010BD0268936823F070637F
:1005A00093600268936823F040539360A8E740F299
:1005B0000A61074802F0A6FCB4E72268536823F4F6
:1005C00000635360C5E700BF002301400100000F36
:1005D000CC0A0108002800F0EB8010B5044603683F
:1005E000744A93420CD002F58072934208D002F50F
:1005F0008072934204D040F20D116F4802F082FCE9
:10060000636843B1B3F5803F05D0B3F5003F02D036
:10061000B3F5403F6FD1A36843B1B3F1807F05D0FC
:10062000B3F1007F02D0B3F1407F6AD12369012B7F
:100630006DD8A369012B70D8A36A7BB3B3F1807F17
:100640002CD0B3F1007F29D0B3F1407F26D0B3F195
:10065000806F23D0B3F1A06F20D0B3F1C06F1DD055
:10066000B3F1E06F1AD0B3F1006F17D0B3F1106F90
:1006700014D0B3F1206F11D0B3F1306F0ED0B3F1BD
:10068000406F0BD0B3F1506F08D0B3F1606F05D05D
:10069000B3F1706F02D0494A934244D1E36813B179
:1006A000B3F5006F45D1E369013B0F2B47D8236BAE
:1006B000012B4AD86369022B4DD8236A012B50D8ED
:1006C000A26A3E4B9A420AD0E36A43B1B3F1805F1B
:1006D00005D0B3F1005F02D0B3F1405F47D1236C86
:1006E000002B4AD0236C13F0100F4DD001200023B3
:1006F00084F83C3010BD4FF487712F4802F002FCA3
:1007000089E740F20F112C4802F0FCFB8EE74FF412
:100710008871294802F0F6FB8BE740F21111264858
:1007200002F0F0FB88E74FF48971234802F0EAFBFE
:10073000B4E740F21311204802F0E4FBB3E74FF4B2
:100740008A711D4802F0DEFBB1E740F215111A482C
:1007500002F0D8FBAEE74FF48B71174802F0D2FBE2
:10076000ABE740F21711144802F0CCFBA8E740F2C7
:100770001B11114802F0C6FBB1E7636484F83C30FA
:1007800020460DF02BFBADE7236C23F4885323F0B8
:10079000020343F0020323642046FFF76FFE0020AC
:1007A0006064236C23F0030343F0010323649EE79A
:1007B0000120704700200140CC0A01080100000F11
:1007C00010B582B00446002301938369012B29D818
:1007D000E36A43B1B3F1805F05D0B3F1005F02D0AB
:1007E000B3F1405F24D194F83C30012B6FD001234A
:1007F00084F83C3023689A6812F0010F1ED19A6881
:1008000042F001029A60364B1B68364AA2FB032372
:100810009B0C03EB43030193019B7BB1019B013BC9
:100820000193F9E74FF4DD712F4802F06BFBCFE73E
:1008300040F2BB112C4802F065FBD4E722689368B4
:1008400013F0010F45D0236C23F4E06323F0010380
:1008500043F480732364536813F4806F05D0236CD2
:1008600023F4405343F480532364236C13F4805FD8
:100870001AD0636C23F006036364002384F83C30D1
:1008800023686FF022021A60184B5B6813F01F0F89
:100890000DD123689A6812F0405F1DD19A6842F02A
:1008A00080429A60002015E000236364E5E7236836
:1008B0000F4A934201D000200CE09A6812F0405F8A
:1008C0000CD19A6842F080429A60002002E0022037
:1008D00000E0002002B010BD0020FBE70020F9E797
:1008E0000C00002083DE1B43CC0A010800230140DA
:1008F0000020014003689A6812F4806F03D09B685F
:1009000013F4807F1CD170B50D460446FFF7A2FD9D
:10091000064623681A6812F0020F1AD1B5F1FF3F9C
:10092000F7D025B1FFF796FD801BA842F1D9236CC3
:1009300043F004032364002384F83C3003202DE0BB
:10094000036C43F020030364002380F83C30012053
:1009500070476FF012021A60236C43F40073236433
:1009600023689A6812F0405F17D1A269BAB9DA6AAF
:1009700012F4700F03D09B6813F4806F11D1236CB5
:1009800023F480732364236C13F4805F0BD1236CF6
:1009900043F001032364002000E0002070BD00202C
:1009A000FCE70020FAE70020F8E70368D86C7047FE
:1009B00030B583B005460C46002301930B68122B1B
:1009C0004ED86368013B0F2B50D8A368072B53D830
:1009D00095F83C30012B00F0C780012385F83C30AE
:1009E0002368092B4ED92868C2689BB203EB4303E6
:1009F0001E3B072101FA03F322EA0303C3602868C0
:100A0000C268A168238803EB43031E3B01FA03F38A
:100A10001343C3606368062B4AD82868426B03EB14
:100A20008303053B1F2101FA03F322EA0303436317
:100A30002868426B636803EB8303053B218801FA56
:100A400003F3134343632A68484B9A4260D02A68F1
:100A5000464B9A4265D0002085F83C0003B030BD7B
:100A600040F20451424802F04DFAAAE740F2055123
:100A70003F4802F047FAA8E740F206513C4802F02E
:100A800041FAA5E7286802699BB203EB43030721FB
:100A900001FA03F322EA0303036128680269A168EB
:100AA000238803EB430301FA03F313430361B1E724
:100AB0000C2B16D82868026B03EB8303233B1F2102
:100AC00001FA03F322EA030303632868026B6368F5
:100AD00003EB8303233B218801FA03F313430363EE
:100AE000B1E72868C26A03EB8303413B1F2101FA87
:100AF00003F322EA0303C3622868C26A636803EB54
:100B00008303413B218801FA03F31343C3629AE74D
:100B10002368122B9BD1174A536843F48003536018
:100B200095E72368103B012B95D8124A536843F48C
:100B3000000353602368102B8DD10F4B1B6802F10B
:100B4000467202F52E3202F28332A2FB03239B0C83
:100B500003EB83035A000192019B002B3FF47BAF10
:100B6000019B013B0193F7E7022077E7002001405A
:100B7000CC0A0108002301400C00002038B50546CE
:100B80000C460B68122B00F201816368013B032BBA
:100B900000F20281A368072B00F20481E36983B3AA
:100BA000B3F5803F2DD0B3F5003F2AD0B3F5403FD9
:100BB00027D0B3F5802F24D0B3F5A02F21D0B3F5E3
:100BC000C02F1ED0B3F5E02F1BD0B3F5002F18D0E7
:100BD000B3F5102F15D0B3F5202F12D0B3F5302F69
:100BE0000FD0B3F5402F0CD0B3F5502F09D0B3F58B
:100BF000602F06D0B3F5702F03D0AB4A934240F07C
:100C0000D7802369013B032B00F2D880A369012B15
:100C100000F2DA806369012B00F2DC802B685B68EC
:100C200013F0407303D1E268B2F5805F12D3B3F1E1
:100C3000807F00F0D580B3F1007F00F0D780B3F162
:100C4000407F02D1E3683F2B04D94FF449719748A4
:100C500002F058F9236A944A93420AD04BB1B3F593
:100C6000801F06D0B3F5001F03D0B3F5401F40F03E
:100C7000C28095F83C30012B00F03C81012385F8BF
:100C80003C302368092B40F2BC802868C2689BB2C4
:100C900003EB43031E3B072101FA03F322EA03039C
:100CA000C3602868C268A168238803EB43031E3B26
:100CB00001FA03F31343C3602A68936B23F44013D0
:100CC000936329688B6B2269013A43EA02538B6371
:100CD0002868826B636821695B1ADBB20333DBB27D
:100CE00003EB83031F2101FA03F322EA0303836367
:100CF0002868826B636821695B1ADBB20333DBB25D
:100D000003EB8303218801FA03F313438363E2694E
:100D1000654B9A4200F08B802A68936823F4702315
:100D200093602A689368E1690B4393602A6893682B
:100D300023F4401393602A689368216A0B439360FD
:100D4000A369002B7ED02A68536843F48063536004
:100D50006369002B7CD02A68536843F48053536046
:100D60006368022B00F09280032B00F0A380012B1C
:100D700074D02A68136A23F47F6323F00F0313628D
:100D80002A68136AE1680B43136273E040F21A3178
:100D9000464802F0B7F8F8E640F21B31434802F04B
:100DA000B1F8F7E64FF44771404802F0ABF8F5E6CA
:100DB00040F21D313D4802F0A5F822E740F21E3115
:100DC0003A4802F09FF821E740F21F31374802F01D
:100DD00099F81FE74FF44871344802F093F81DE783
:100DE000E268B2F5806FFFF435AF24E7E268FF2ACE
:100DF0007FF630AF23E740F229312C4802F082F829
:100E000037E7286802699BB203EB4303072101FA25
:100E100003F322EA0303036128680269A1682388B7
:100E200003EB430301FA03F31343036144E72A6826
:100E3000936823F4702393602A68936823F4401323
:100E400093607DE72A68536823F4806353607FE7EB
:100E50002A68536823F48053536081E72A685369F2
:100E600023F47F6323F00F0353612A685369E16819
:100E70000B4353612A680E4B9A4228D02A680C4BC8
:100E80009A422DD0002085F83C0038BD2A6893692D
:100E900023F47F6323F00F0393612A689369E16869
:100EA0000B439361E6E700BF01000F00FC0A010855
:100EB000002001402A68D36923F47F6323F00F03E5
:100EC000D3612A68D369E1680B43D361D2E7236811
:100ED000122BD3D1084A536843F480035360CDE703
:100EE0002368103B012BCDD8034A536843F4000319
:100EF0005360C7E70220C8E70023014010B504464D
:100F0000C31E042B0FD80A4AD36823F4E0631B04E2
:100F10001B0C240204F4E064234343F0BF6343F456
:100F20000033D36010BDA421024801F0EBFFEAE7D3
:100F300000ED00E0300B010870B505460C46164682
:100F40000F2A0FD80F2C12D81B4BDB68C3F30223D8
:100F5000C3F10702042A28BF0422191D06290BD950
:100F6000033B0AE0BC21154801F0CCFFEAE7BD21B4
:100F7000124801F0C7FFE7E700234FF0FF3101FA05
:100F800002F224EA02049C4001FA03F326EA030673
:100F90003443002D08DB2401E4B205F1604505F57A
:100FA000614585F8004370BD05F00F052401E4B2EA
:100FB000034B5C55F7E700BF00ED00E0300B010884
:100FC00014ED00E010B5041E08DB04F01F026409F4
:100FD00001239340044A42F8243010BDD021034835
:100FE00001F090FFF1E700BF00E100E0300B0108E5
:100FF000B8B110B5044602680B4B9A4203D0F021F9
:101000000A4801F07FFF237933B1022323710020C6
:1010100020610123237110BD637120460CF012FF83
:10102000F3E70120704700BF00740040640B010823
:1010300038B504460D4609B110291BD16379012B3F
:1010400033D0012363710222227121680A68AB4008
:1010500013430B60CDB922681168136803F038039D
:1010600011F0040F01D0382B0AD001232371002086
:10107000607138BD4FF4B7710D4801F043FFDDE7F3
:10108000536843F001035360EFE722681168136867
:1010900003F4601311F4802FE7D0B3F5601FE4D19F
:1010A000536843F002035360DFE70220E1E700BF2B
:1010B000640B0108704710B5044603685A6B12F4BC
:1010C000005F05D123685A6B12F0005F11D110BD8B
:1010D00004220271026942F0010202614FF40052DF
:1010E0005A630268136823F480531360FFF7E2FF2A
:1010F000E8E704222271226942F0020222614FF0E5
:1011000000525A632268136823F08053136020460C
:1011100000F056F8DBE7000070B504460E461546B1
:101120000B687BB1242B0DD00C2B0BD0142B09D0CA
:101130001C2B07D0042B05D02C2B03D0342B01D033
:101140003C2B26D173680BB1022B28D10DB1102D89
:101150002BD16379012B2ED00121617102232371E0
:101160002068036840F6FE72AA4023EA0202336850
:1011700076683343AB401343036020680368C022A2
:1011800002FA05F523EA050505602171002060716A
:1011900070BD40F20A31094801F0B4FED2E740F2D6
:1011A0000B31064801F0AEFED0E74FF4437103481F
:1011B00001F0A8FECDE70220EAE700BF640B0108BA
:1011C000704700002DE9F04782B080460E46B84BCC
:1011D000984223D003F5806398421FD003F58063C3
:1011E00098421BD003F58063984217D003F58063C3
:1011F000984213D003F5806398420FD003F58063C3
:1012000098420BD003F58063984207D003F58063C2
:10121000984203D0C521A74801F074FE338833B348
:101220007368012B1ED9112B1CD0022B1AD0122B44
:1012300018D0A14A934215D002F58012934211D0E2
:1012400002F5801293420DD0A2F5F812934209D014
:1012500002F58012934205D002F58012934201D02C
:10126000032B09D1B368022B0BD800244FE0C62111
:10127000904801F047FED3E7C7218E4801F042FEB7
:10128000F0E7C8218B4801F03DFEEEE7D9218948FF
:1012900001F038FE67E0EC21864801F033FE92E071
:1012A000082300E000238B4003430232834941F8C6
:1012B0002230834B1A68FB4303EA0201706810F482
:1012C000803F01D047EA02017D4A1160526803EA7B
:1012D0000201706810F4003F01D047EA0201784A29
:1012E0005160926803EA0201706810F4801F01D017
:1012F00047EA0201724A9160D2681340716811F4A2
:10130000001F01D047EA02036D4AD36001340F2C5D
:1013100000F2CB800125A54037682F40BD42F5D1B2
:101320007368022B01D0122B2DD13369DBB1092B4D
:1013300019D0012B17D0022B15D0032B13D0042B5F
:1013400011D0052B0FD0062B0DD0072B0BD0082B5F
:1013500009D00A2B07D00B2B05D00C2B03D00D2B5B
:1013600001D00F2B92D1E208083258F8220004F085
:10137000070399000F238B4020EA030033698B4059
:10138000034348F82230D8F800204FEA440A4FF0CF
:10139000030909FA0AF96FEA090909EA02027368FE
:1013A00003F0030303FA0AF31343C8F80030736829
:1013B0005A1E012A03D9112B01D0122B18D1F36820
:1013C000032B3FF668AFD8F8082009EA0202F36859
:1013D00003FA0AF31343C8F80830D8F8042022EAC5
:1013E00005027368C3F30015A5401543C8F80450FF
:1013F000D8F80C3009EA0309B36803FA0AF343EAA0
:101400000903C8F80C30736813F0805F3FF47EAFB7
:10141000002301932B4B5A6C42F480425A645B6C5C
:1014200003F480430193019BA208911C234B53F8C2
:10143000210004F0030399000F238B4020EA0300EE
:101440001B4B98453FF42EAF03F5806398451ED0A3
:1014500003F5806398451CD003F5806398451AD046
:1014600003F58063984518D003F58063984516D03E
:1014700003F58063984514D003F58063984512D036
:1014800003F5806398453FF40BAF09230BE7012375
:1014900009E7022307E7032305E7042303E70523FE
:1014A00001E70623FFE60723FDE602B0BDE8F0876B
:1014B00000000240940B01080000111000380140A8
:1014C000003C01400038024038B505460C4621B1C9
:1014D0002B691C4207D0012038BD4FF4C871034866
:1014E00001F010FDF4E70020F6E700BF940B0108BF
:1014F00070B5064615460C4621B1012D08D86DB1D0
:10150000B46170BD40F2B111064801F0FBFCF4E794
:101510004FF4D971034801F0F5FCF0E72404B461FD
:10152000EFE700BF940B010830B583B004460368B1
:101530000F2B29D8236813F0010F3DD06368012BCE
:1015400001D9052B25D1A24B9B6803F00C03042B7A
:1015500029D09F4B9B6803F00C03082B1ED02279E7
:101560009C4B1A706368002B50D0FEF773FF054642
:10157000974B1B6813F4003F1ED1FEF76BFF401B17
:101580006428F5D90320E3E1F521934801F0BAFC82
:10159000D0E7FA21904801F0B5FCD4E78C4B5B68AA
:1015A00013F4800FDBD08A4B1B6813F4003F03D089
:1015B0006368002B00F0C781236813F0020F5CD032
:1015C000E368012B31D823691F2B34D8804B9B68EB
:1015D00013F00C0F3AD07E4B9B6803F00C03082BE2
:1015E0002FD0E368002B73D07C4B01221A60FEF7EA
:1015F00031FF0546764B1B6813F0020F59D1FEF7F9
:1016000029FF401B0228F5D90320A1E1FEF722FFA4
:1016100005466F4B1B6813F4003FCDD0FEF71AFF51
:10162000401B6428F5D9032092E14FF496716A4873
:1016300001F068FCC7E740F22D11674801F062FC39
:10164000C4E7634B5B6813F4800FCAD1604B1B681F
:1016500013F0020F03D0E368012B40F076815C4861
:10166000036823F0F8032169F82292FAA2F2B2FA91
:1016700082F201FA02F213430360236813F0080FA9
:1016800050D06369012B35D86369002B38D0544B97
:1016900001221A60FEF7DEFE05464D4B5B6F13F02C
:1016A000020F3FD1FEF7D6FE401B0228F5D90320DA
:1016B0004EE14748036823F0F8032169F82292FAC3
:1016C000A2F2B2FA82F201FA02F213430360D4E703
:1016D000424B00221A60FEF7BDFE05463C4B1B68DC
:1016E00013F0020FC9D0FEF7B5FE401B0228F5D952
:1016F00003202DE140F26D11374801F003FCC3E7F0
:10170000374B00221A60FEF7A5FE0546304B5B6F93
:1017100013F0020F06D0FEF79DFE401B0228F5D9FC
:10172000032015E1236813F0040F5FD0A368012B99
:1017300001D9052B1FD100230193254B1A6C42F0D0
:1017400080521A641B6C03F080530193019B254A5D
:10175000136843F480731360FEF77CFE0546214B4B
:101760001B6813F4807F0CD1FEF774FE401B022827
:10177000F5D90320ECE040F29711174801F0C2FBC5
:10178000D9E7227A184B1A70A36883B1FEF762FE7C
:1017900005460F4B1B6F13F0020F27D1FEF75AFEC1
:1017A000401B41F288339842F3D90320D0E0FEF782
:1017B00051FE0546064B1B6F13F0020F16D0FEF7C5
:1017C00049FE401B41F288339842F3D90320BFE021
:1017D0000038024002380240D40B010800004742A2
:1017E000800E47420070004070380240A369022B0F
:1017F00039D8A369002B00F0AA80574A926802F0FA
:101800000C02082A00F0A680022B40F08880E369D1
:1018100013B1B3F5800F2CD1236A3F2B2FD8636A05
:10182000323BB3F5BF7F30D8A36A022B05D0042B1F
:1018300003D0062B01D0082B2DD1E36A043B0B2BE0
:101840002FD8464B00221A60FEF704FE0546424B95
:101850001B6813F0007F2AD0FEF7FCFD401B022816
:10186000F5D9032074E04FF4E6713D4801F04AFBDE
:10187000BFE740F2D5113A4801F044FBCCE74FF402
:10188000EB71374801F03EFBC9E740F2D71134480D
:1018900001F038FBC8E74FF4EC71314801F032FB3E
:1018A000CBE740F2D9112E4801F02CFBC9E7E369E0
:1018B000226A1343616A47F6C07292FAA2F2B2FA40
:1018C00082F201FA02F21343A26A5208013A4FF47B
:1018D000403191FAA1F1B1FA81F18A401343E16AF2
:1018E0004FF0706292FAA2F2B2FA82F201FA02F2B8
:1018F0001343194A5360194B01221A60FEF7AAFDDF
:101900000446154B1B6813F0007F06D1FEF7A2FDBD
:10191000001B0228F5D903201AE0002018E00F4B25
:1019200000221A60FEF796FD04460B4B1B6813F06D
:10193000007F06D0FEF78EFD001B0228F5D903209C
:1019400006E0002004E0012002E0012000E0002089
:1019500003B030BD0120FBE7003802406000474281
:10196000D40B0108214B9B6803F00C03042B38D0E7
:10197000082B38D11D4B586800F03F005B6813F40A
:10198000800F1ED01A4AB2FBF0F2184B586847F687
:10199000C073184093FAA3F3B3FA83F3D84000FB63
:1019A00002F0124B5B6803F440334FF4403292FA7A
:1019B000A2F2B2FA82F2D34001335B00B0FBF3F043
:1019C00070470C4AB2FBF0F2084B586847F6C073F8
:1019D000184093FAA3F3B3FA83F3D84000FB02F064
:1019E000DFE7034870470348704700BF00380240F4
:1019F00000127A000024F40070B504460D46036816
:101A0000013B0E2B5ED8072D62D88C4B1B6803F070
:101A10000F03AB4208D2EBB2884A1370136803F08D
:101A20000F03AB4240F00481236813F0020F18D07B
:101A3000A3687BB1802B0DD0902B0BD0A02B09D0AD
:101A4000B02B07D0C02B05D0D02B03D0E02B01D07A
:101A5000F02B43D17A4A936823F0F003A1680B433B
:101A60009360236813F0010F7FD06368032B3BD88A
:101A70006368012B3ED09A1E012A42D9704A12682F
:101A800012F0020F00F0D6806D498A6822F003023E
:101A900013438B60FEF7DEFC06466368012B37D0EC
:101AA000022B44D0032B51D0654B9B6813F00C0FD5
:101AB0005BD0FEF7CFFC801B41F288339842F3D90C
:101AC0000320A8E040F237215E4801F01BFA9AE7B4
:101AD0004FF40E715B4801F015FA96E740F24F2182
:101AE000584801F00FFAB5E740F25621554801F089
:101AF00009FABDE7524A126812F4003FC4D101202E
:101B000089E04F4A126812F0007FBDD1012082E0C7
:101B10004B4B9B6803F00C03042B26D0FEF79AFC7A
:101B2000801B41F288339842F2D9032073E0444B82
:101B30009B6803F00C03082B17D0FEF78BFC801B6F
:101B400041F288339842F2D9032064E03C4B9B6811
:101B500003F00C030C2B08D0FEF77CFC801B41F239
:101B600088339842F2D9032055E0344B1B6803F0C8
:101B70000F03AB4207D9EAB2304B1A701B6803F06F
:101B80000F03AB4258D1236813F0040F14D0E3685D
:101B90005BB1B3F5805F08D0B3F5A05F05D0B3F5B6
:101BA000C05F02D0B3F5E05F36D1254A936823F4D5
:101BB000E053E1680B439360236813F0080F15D0DE
:101BC00023695BB1B3F5805F08D0B3F5A05F05D0A2
:101BD000B3F5C05F02D0B3F5E05F23D1184A936834
:101BE00023F46043216943EAC1039360FFF7BAFE1F
:101BF000134B9B6803F0F003F02292FAA2F2B2FAC0
:101C000082F2D340104AD35CD840104B18600F20AA
:101C100000F0EEFD002070BD4FF42D71094801F079
:101C200071F9C2E740F2BB21064801F06BF9D5E734
:101C30000120F0E70120EEE70120ECE7003C024044
:101C400000380240D40B0108C40B01080C0000202E
:101C5000014B1868704700BF0C00002008B5FFF763
:101C6000F7FF074B9B6803F4E0534FF4E05292FAFE
:101C7000A2F2B2FA82F2D340024AD35CD84008BD45
:101C800000380240C40B010808B5FFF7E1FF074B1D
:101C90009B6803F460434FF4604292FAA2F2B2FAF6
:101CA00082F2D340024AD35CD84008BD00380240DB
:101CB000C40B01080F2303600B4B9A6802F0030268
:101CC00042609A6802F0F00282609A6802F4E05280
:101CD000C2609B68DB0803F4E0530361034B1B689D
:101CE00003F00F030B60704700380240003C0240D5
:101CF00010B4036A046A24F001040462846924F0C5
:101D0000F00444EA021223F00A030B4382610362E7
:101D100010BC704710B4036A23F010030362846997
:101D2000036A24F4704444EA023223F0A00343EA35
:101D300001138261036210BC7047836823F0700353
:101D400041F0070119438160704710B4846824F49E
:101D50007F4442EA03230B432343836010BC704754
:101D600010B504460368234A934237D0B3F1804F3D
:101D700034D0A2F57C42934230D002F58062934287
:101D80002CD002F58062934228D002F58062934203
:101D900024D002F58062934220D002F57042934233
:101DA0001CD002F57052934218D002F58062934223
:101DB00014D002F58062934210D0A2F5983293427B
:101DC0000CD002F58062934208D002F58062934203
:101DD00004D04FF4B271084801F094F82268D36837
:101DE00043F00103D3602268136843F001031360DA
:101DF000002010BD00000140040C010838B590F827
:101E00003830012B00F0D8820D460446012380F8BB
:101E10003830022380F839300B68B3F5805F11D079
:101E2000B3F5005F0ED06BB1102B0BD0202B09D077
:101E3000302B07D0402B05D0502B03D0602B01D086
:101E4000702B52D12268936823F47F4323F07703E9
:101E500093602B68402B00F007824CD9702B00F068
:101E60003A8100F2A780502B00F09C81602B40F05B
:101E70002B812368B74A93421FD0B3F1804F1CD007
:101E8000A2F57C42934218D002F58062934214D0AE
:101E900002F58062934210D002F5784293420CD052
:101EA00002F57052934208D0A2F59432934204D0C6
:101EB00040F6BA71A84801F025F86B68B3F5004FF9
:101EC00005D023B1022B02D00A2B40F0C181EB6870
:101ED0000F2B00F2C381EA6869682068FFF71AFFD8
:101EE00060212068FFF729FFEEE040F66D719A4807
:101EF00001F008F8A6E7102B00F00C822ED9202B59
:101F000000F03182302B40F0DF802368914A934209
:101F10001FD0B3F1804F1CD0A2F57C42934218D061
:101F200002F58062934214D002F58062934210D091
:101F300002F5784293420CD002F57052934208D0D9
:101F4000A2F59432934204D040F6E871824800F042
:101F5000D9FF30212068FFF7F0FEB5E0002B40F0FC
:101F6000B38023687B4A93421FD0B3F1804F1CD0CB
:101F7000A2F57C42934218D002F58062934214D0BD
:101F800002F58062934210D002F5784293420CD061
:101F900002F57052934208D0A2F59432934204D0D5
:101FA00040F6D6716C4800F0ADFF00212068FFF7C5
:101FB000C4FE89E0B3F5805F45D0B3F5005F40F023
:101FC00083802368634A934217D0B3F1804F14D0C3
:101FD000A2F57C42934210D002F5806293420CD06D
:101FE00002F58062934208D002F57842934204D011
:101FF00040F69A71584800F085FF6B68B3F5004FC2
:1020000005D023B1022B02D00A2B40F0B980AB6877
:102010004BB1B3F5805F06D0B3F5005F03D0B3F5E5
:10202000405F40F0B380EB680F2B00F2B580EB68A7
:102030006A68A9682068FFF788FE2268936843F4FD
:102040008043936040E02368424A934237D0B3F123
:10205000804F34D0A2F57C42934230D002F58062AA
:1020600093422CD002F58062934228D002F5806220
:10207000934224D002F58062934220D002F5704250
:1020800093421CD002F57052934218D002F5806240
:10209000934214D002F58062934210D0A2F5983298
:1020A00093420CD002F58062934208D002F5806220
:1020B000934204D040F67971274800F023FF22684C
:1020C000936823F007039360012384F839300020DC
:1020D00084F8380038BD23681E4A934217D0B3F104
:1020E000804F14D0A2F57C42934210D002F580625A
:1020F00093420CD002F58062934208D002F57842F8
:10210000934204D040F68271134800F0FBFE6B68E6
:10211000B3F5004F04D01BB1022B01D00A2B1DD107
:10212000AB6843B1B3F5805F05D0B3F5005F02D073
:10213000B3F5405F18D1EB680F2B1BD8EB686A68CA
:10214000A9682068FFF701FE2268936843F07703CF
:102150009360B9E700000140040C010840F6847167
:10216000964800F0CFFEDBE740F68571934800F01B
:10217000C9FEE0E740F68671904800F0C3FEDDE757
:1021800040F69C718D4800F0BDFE40E740F69D7121
:102190008A4800F0B7FE46E740F69E71874800F097
:1021A000B1FE44E72368864A93422FD0B3F1804FB3
:1021B0002CD0A2F57C42934228D002F58062934253
:1021C00024D002F58062934220D002F578429342F7
:1021D0001CD002F57052934218D002F580629342EF
:1021E00014D002F58062934210D0A2F59832934247
:1021F0000CD002F58062934208D002F580629342CF
:1022000004D040F6AC716D4800F07CFE6B68B3F50D
:10221000004F04D01BB1022B01D00A2B0CD1EB686C
:102220000F2B0FD8EA6869682068FFF761FD50211D
:102230002068FFF782FD47E740F6AF715F4800F086
:1022400061FEECE74FF47B615C4800F05BFEE9E780
:1022500040F6BD71594800F055FE38E640F6BE71B3
:10226000564800F04FFE36E62368554A93422FD079
:10227000B3F1804F2CD0A2F57C42934228D002F5D6
:102280008062934224D002F58062934220D002F50E
:10229000784293421CD002F57052934218D002F556
:1022A0008062934214D002F58062934210D0A2F56E
:1022B000983293420CD002F58062934208D002F526
:1022C0008062934204D040F6C8713C4800F01AFE88
:1022D0006B68B3F5004F04D01BB1022B01D00A2B61
:1022E0000CD1EB680F2B0FD8EA6869682068FFF7FC
:1022F000FFFC40212068FFF720FDE5E640F6CB71AA
:102300002E4800F0FFFDECE740F6CC712B4800F0C2
:10231000F9FDE9E723682A4A93421FD0B3F1804FC1
:102320001CD0A2F57C42934218D002F58062934201
:1023300014D002F58062934210D002F578429342A5
:102340000CD002F57052934208D0A2F59432934219
:1023500004D040F6DC71194800F0D4FD102120684B
:10236000FFF7EBFCB0E62368154A93421FD0B3F1A8
:10237000804F1CD0A2F57C42934218D002F58062B7
:10238000934214D002F58062934210D002F5784255
:1023900093420CD002F57052934208D0A2F59432C9
:1023A000934204D040F6E271044800F0ABFD2021D6
:1023B0002068FFF7C2FC87E602208BE6040C0108C8
:1023C00000000140704770477047704710B50446E1
:1023D00003681A6912F0020F11D0DA6812F0020FC6
:1023E0000DD06FF002021A610123037603689B6926
:1023F00013F0030F70D0FFF7E6FF00232376236866
:102400001A6912F0040F12D0DA6812F0040F0ED01D
:102410006FF004021A610223237623689B6913F488
:10242000407F5FD02046FFF7CEFF0023237623684E
:102430001A6912F0080F12D0DA6812F0080F0ED0E5
:102440006FF008021A61042323762368DB6913F016
:10245000030F4ED02046FFF7B6FF002323762368F4
:102460001A6912F0100F12D0DA6812F0100F0ED0A5
:102470006FF010021A61082323762368DB6913F4D6
:10248000407F3DD02046FFF79EFF00232376236840
:102490001A6912F0010F03D0DA6812F0010F36D179
:1024A00023681A6912F0800F03D0DA6812F0800FE7
:1024B00034D123681A6912F0400F03D0DA6812F0A1
:1024C000400F32D123681A6912F0200F03D0DA6866
:1024D00012F0200F30D110BDFFF774FF2046FFF738
:1024E00073FF8AE72046FFF76DFF2046FFF76CFF7A
:1024F0009BE72046FFF766FF2046FFF765FFACE746
:102500002046FFF75FFF2046FFF75EFFBDE76FF055
:1025100001021A61204600F0AFF9C1E76FF08002B6
:102520001A61204600F063F9C3E76FF040021A61B8
:102530002046FFF74AFFC5E76FF020021A612046E8
:1025400000F054F9C7E7000003682E4A904212D009
:10255000B0F1804F0FD0A2F57C4290420BD002F533
:102560008062904207D002F58062904203D002F56B
:102570007842904203D123F070034A681343214A02
:1025800090422AD0B0F1804F27D0A2F57C429042F1
:1025900023D002F5806290421FD002F58062904203
:1025A0001BD002F57842904217D002F5705290424B
:1025B00013D002F5806290420FD002F58062904203
:1025C0000BD0A2F59832904207D002F5806290427B
:1025D00003D002F58062904203D123F44073CA68AD
:1025E000134303608B68C3620B688362054B984298
:1025F00003D003F58063984201D10B690363012383
:10260000436170470000014000286ED010B50446B9
:102610000368374A934236D0B3F1804F33D0A2F5E6
:102620007C4293422FD002F5806293422BD002F578
:102630008062934227D002F58062934223D002F554
:10264000806293421FD002F5704293421BD002F584
:102650007052934217D002F58062934213D002F574
:10266000806293420FD0A2F5983293420BD002F5CC
:102670008062934207D002F58062934203D0D92151
:102680001C4800F03FFCA3683BB1102B05D0202B69
:1026900003D0402B01D0602B17D123692BB1B3F5A8
:1026A000807F02D0B3F5007F14D194F83930B3B1F4
:1026B000022384F83930214651F8040BFFF744FF18
:1026C000012384F83930002010BDDA21094800F0D8
:1026D00019FCE2E7DB21074800F014FCE5E784F889
:1026E000383020460BF0CEFAE2E70120704700BFF9
:1026F00000000140040C010838B504460D4603688B
:10270000384A934227D0B3F1804F24D0A2F57C42BF
:10271000934220D002F5806293421CD002F5806281
:10272000934218D002F58062934214D002F5806281
:10273000934210D002F5704293420CD002F57052D1
:10274000934208D0A2F59432934204D04FF4CB6167
:10275000254800F0D7FB2B686BB1102B0BD0202B3A
:1027600009D0302B07D0402B05D0502B03D0602B45
:1027700001D0702B27D16B68802B00D04BBB94F815
:102780003830012B2BD0012284F83820022384F822
:10279000393021684B6823F070034B6021684B6827
:1027A000286803434B6021688B6823F080038B60AB
:1027B00021688B68686803438B6084F839200020A7
:1027C00084F8380038BD40F25961074800F09AFBA0
:1027D000D1E740F25A61044800F094FBCFE70220B1
:1027E000F0E700BF00000140340C0108704770475B
:1027F00000B589B0002201463620FEF79DFB362049
:10280000FEF7E0FB00230193174B1A6C42F0100215
:102810001A641B6C03F010030193019B02A903A827
:10282000FFF748FA069BBBB9FFF718FA0F4BA3FB5B
:1028300000239B0C013B0E480E4A026040F2E73237
:10284000C2604360002303618360FFF7DDFE38B19F
:10285000012009B05DF804FBFFF700FA4000E5E74E
:102860000348FFF77DFAF4E70038024083DE1B439C
:10287000C03600200010004008B5FDF7E3FD08BD9C
:1028800008B50348FFF7A2FD0248FEF714FC08BD97
:10289000C0360020883700202DE9F84304464268FE
:1028A000B44B9A4200F29C80E3681BB1B3F5005F21
:1028B00040F09C80236933B1B3F5806F03D0B3F54A
:1028C000C06F40F0998063694FF6F372134200D1F4
:1028D00023B940F25271A84800F014FB21680A693C
:1028E00022F44052E36813430B612168CA6822F462
:1028F000164222F00C02A368206903436069034377
:10290000E06903431343CB6021684A6922F44072B3
:10291000A36913434B61E369B3F5004F72D0236899
:10292000964A934200F02E8102F58062934200F0B5
:102930002981FFF793F900EB800000EB80006568C8
:10294000AD00B0FBF5F58E4FA7FB05356D092E01E7
:10295000FFF784F900EB800000EB80006568AD00B4
:10296000B0FBF5F9FFF77AF900EB800000EB80008F
:102970006568AD00B0FBF5F5A7FB05356D094FF0B7
:10298000640808FB15952D013235A7FB05356D0947
:1029900005F0F0053544FFF761F900EB800000EB2E
:1029A00080006668B600B0FBF6F6FFF757F900EB5B
:1029B000800000EB800063689B00B0FBF3F0A7FB96
:1029C0000030400908FB10684FEA081808F1320887
:1029D000A7FB0837C7F3431723682F449F6027E1FD
:1029E00040F24F71644800F08DFA5DE74FF4EA6100
:1029F000614800F087FA5DE740F251715E4800F0EF
:102A000081FA60E723685D4A93425BD002F58062F9
:102A1000934257D0FFF722F900EB800000EB8000D3
:102A200065686D00B0FBF5F5554FA7FB05356D09E1
:102A30002E01FFF713F900EB800000EB80006568C2
:102A40006D00B0FBF5F9FFF709F900EB800000EB32
:102A5000800065686D00B0FBF5F5A7FB05356D09D5
:102A60004FF0640808FB1595ED003235A7FB0535DE
:102A70006D096D0005F4F8753544FFF7EFF800EBCC
:102A8000800000EB800066687600B0FBF6F6FFF78A
:102A9000E5F800EB800000EB800063685B00B0FBB2
:102AA000F3F3A7FB03235B0908FB13684FEAC8088D
:102AB00008F13208A7FB0837C7F3421723682F44F1
:102AC0009F60B5E0FFF7E0F800EB800000EB8000CE
:102AD00065686D00B0FBF5F5294FA7FB05356D095D
:102AE0002E01FFF7D1F800EB800000EB8000656855
:102AF0006D00B0FBF5F9FFF7C7F800EB800000EBC5
:102B0000800065686D00B0FBF5F5A7FB05356D0924
:102B10004FF0640808FB1595ED003235A7FB05352D
:102B20006D096D0005F4F8753544FFF7ADF800EB5D
:102B3000800000EB800066687600B0FBF6F6FFF7D9
:102B4000A3F800EB800000EB800063685B00B0FB43
:102B5000F3F3A7FB03235B0908FB13684FEAC808DC
:102B600008F13208A7FB0837C7F3421723682F4440
:102B70009F605DE0A037A000680C010800100140D4
:102B80001F85EB51FFF780F800EB800000EB800021
:102B90006568AD00B0FBF5F5264FA7FB05356D095F
:102BA0002E01FFF771F800EB800000EB80006568F4
:102BB000AD00B0FBF5F9FFF767F800EB800000EB24
:102BC00080006568AD00B0FBF5F5A7FB05356D0924
:102BD0004FF0640808FB15952D013235A7FB05352C
:102BE0006D0905F0F0053544FFF74EF800EB800065
:102BF00000EB80006668B600B0FBF6F6FFF744F81D
:102C000000EB800000EB800063689B00B0FBF3F0FA
:102C1000A7FB0030400908FB10684FEA081808F1CC
:102C20003208A7FB0837C7F3431723682F449F6078
:102C3000BDE8F8831F85EB512DE9F04105460F46AD
:102C400016469846069C2B681B6837EA03030CBFA0
:102C500001230023B3421DD1B4F1FF3FF3D02CB1C7
:102C6000FDF7F8FBA0EB0800A042ECD92A68D36876
:102C700023F4D073D3602A68536923F001035361AE
:102C8000202385F8393085F83A30002385F838302C
:102C9000032000E00020BDE8F0810000002800F0E3
:102CA000898010B504468369002B53D00368424ADB
:102CB00093420FD0A2F54C4293420BD002F58062B2
:102CC000934207D002F54C42934203D0FE213B4889
:102CD00000F018F9A36943B1B3F5807F05D0B3F5CF
:102CE000007F02D0B3F5407F2FD1A36813B1B3F5B5
:102CF000805F4DD1E36913B1B3F5004F4ED194F825
:102D00003930002B50D0242384F839302268D3681E
:102D100023F40053D3602046FFF7BEFD22681369F9
:102D200023F4904313612268536923F02A0353610B
:102D30002268D36843F40053D3600020E06320236B
:102D400084F8393084F83A3010BDFF211B4800F078
:102D5000D9F8CAE70368184A9342C6D0A2F54C4294
:102D60009342C2D002F580629342BED002F58062E7
:102D70009342BAD002F580629342B6D002F5444243
:102D80009342B2D040F203110C4800F0BBF8ACE71C
:102D900040F20511094800F0B5F8ABE74FF4837134
:102DA000064800F0AFF8AAE784F8383020460AF069
:102DB000DBFFA8E70120704700100140680C010804
:102DC0002DE9F04182B01E4690F83930DBB2202B5D
:102DD00052D104460D469046002952D0002A52D0C6
:102DE00090F83830012B50D0012380F83830002380
:102DF000C363212380F83930FDF72CFB0746A4F884
:102E00002480A4F8268010E000963B460022802112
:102E10002046FFF711FF002839D12B882268C3F321
:102E2000080353602369ABB90235E38CA3B1013BBE
:102E3000E384A368B3F5805FE6D000963B460022AA
:102E400080212046FFF7F8FE18BB15F8012B2368F8
:102E50005A60EAE70135E8E700963B460022402148
:102E60002046FFF7E9FE0346A8B9202284F839205E
:102E7000002284F8382000E00223184602B0BDE8A2
:102E8000F0810123F9E70123F7E70223F5E70323A4
:102E9000F3E70323F1E70323EFE7FEE708B5034871
:102EA00000F054F80120FFF7F8FF00BF980C01086C
:102EB00008B503460C4A12685AB10B4A106803332E
:102EC00023F003030344094A934206D8064A1360D9
:102ED00008BD054A06491160EFE70DF027F90C23FC
:102EE00003604FF0FF30F3E7C435002000FC012001
:102EF0009073012001230360014B0B60704700BFFA
:102F00000400002008B50A460146024800F004F813
:102F1000FFF7C4FFAC0C01080FB400B583B004ABDD
:102F200053F8042B0193802107480DF07FF9002806
:102F300004DC03B05DF804EB04B0704701460248BE
:102F400000F044F8F5E700BFCC35002010B504468A
:102F50000DF038F90146204600F038F8012102480A
:102F600000F034F810BD00BF380E01082DE9F04321
:102F700085B004460F46435633BB042528462146F8
:102F8000ABBE0446384605B0BDE8F08304AA13443E
:102F9000002203F8102C4FF00408E9464046494649
:102FA000ABBE8046761B002EECD03546102E28BFD7
:102FB00010250023AB42E9D214F9011B04AA1A44DC
:102FC00002F8101C0133F5E70E46ECE708B5FFF7F1
:102FD000CDFF08BD08B500F093F8024A024B9A6095
:102FE00008BD00BF0000000800ED00E0F8B5044691
:102FF0000D4617461E462748FFF78EFF21682648D4
:10300000FFF78AFF61682548FFF786FFA16824481B
:10301000FFF782FFE1682348FFF77EFF216922481E
:10302000FFF77AFF61692148FFF776FFA169204821
:10303000FFF772FFE1691F48FFF76EFF1E48FFF7B9
:103040006BFF29461D48FFF767FF1D4CE16A1D48CD
:10305000FFF762FF216B1C48FFF75EFFE16B1B4827
:10306000FFF75AFF15F0800F0AD115F4004F0CD16D
:103070001748FFF751FF06991648FFF74DFFF8BDB7
:1030800039461548FFF748FFEFE731461348FFF789
:1030900043FFEDE7D80C0108E80C0108F80C010823
:1030A000080D0108180D0108280D0108380D010848
:1030B000480D0108580D0108680D0108740D01083C
:1030C00000ED00E0840D0108940D0108A40D010835
:1030D000D40D0108DC0D0108B40D0108C40D010870
:1030E00083691A888A4201D0002070470268033A37
:1030F000012A01D900207047023383610120704703
:103100000C4B1A6842F001021A60002199601A689B
:1031100022F0847222F480321A60074A5A601A68D8
:1031200022F480221A60D960044B4FF000629A604A
:10313000704700BF003802401030002400ED00E06E
:10314000224B9B6803F00C03042B14D0082B16D0E1
:103150001BB11F4B1F4A1A6002E01D4B1D4A1A602B
:103160001A4B9B68C3F303131B4AD15C184A1368BC
:10317000CB4013607047164B184A1A60F0E7134BA8
:103180005A685B6803F03F0312F4800F13D0134AB0
:10319000B2FBF3F20D4B5B68C3F3881303FB02F33E
:1031A0000A4A5268C2F3014201325200B3FBF2F301
:1031B000074A1360D4E7074AB2FBF3F2034B5B689C
:1031C000C3F3881303FB02F3EAE700BF00380240B1
:1031D0000C0000200024F400200E010800127A00E8
:1031E0000A4B1B680A4AA2FB03239B0C013BB3F169
:1031F000807F09D2074A5360074BF02183F82310E0
:103200000023936007231360704700BF0C00002069
:1032100083DE1B4310E000E000ED00E008B5FDF7A1
:1032200011F9064B1B6813B1012B03D008BD0AF03E
:103230007FFCFBE70AF01CFDF8E700BF60360020CA
:1032400010B51348FDF7BCFA124A536983F0010325
:10325000536164210E48FDF74DFB0028F9D10D4A5A
:10326000536983F0010353610948FDF79EFB81B266
:10327000094C21800948FFF74FFE4FF6FF730222E9
:1032800021460748FFF79CFD0648FFF79FF810BD51
:10329000003700200010024050360020300E010898
:1032A00048370020D83700202DE9F0478CB00024A3
:1032B0000794089409940A940B940194474B1A6B51
:1032C00042F004021A631A6B02F004020192019A9E
:1032D00002941A6B42F080021A631A6B02F08002A9
:1032E0000292029A03941A6B42F001021A631A6B5B
:1032F00002F001020392039A04941A6B42F0100246
:103300001A631A6B02F010020492049A05941A6B65
:1033100042F008021A631A6B02F008020592059A3D
:1033200006941A6B42F002021A631B6B03F002034D
:103330000693069B2A4F22464EF22D013846FEF791
:10334000D7F8DFF8A0A022464FF47C415046FEF7A4
:10335000CFF8DFF8949022464FF4E0714846FEF72C
:10336000C7F8DFF8888022464FF47F414046FEF7D9
:10337000BFF84EF22D030793012608960994032502
:103380000A9507A93846FDF71DFF502307930894B7
:10339000099407A93846FDF715FF4FF47C430793BE
:1033A000089609940A9507A95046FDF70BFF4FF4BC
:1033B000E0730793089609940A9507A94846FDF714
:1033C00001FF4FF47F430793089609940A9507A9D4
:1033D0004046FDF7F7FE0CB0BDE8F087003802402C
:1033E000001002400004024000080240000C0240AD
:1033F00072B6FEE700B595B03022002108A80CF0A7
:10340000A9FE002303930493059306930793019366
:103410001F4A116C41F080511164126C02F080520D
:103420000192019A02931B4B1A6842F480421A607F
:103430001B6803F480430293029B012308930993C2
:1034400002230E934FF480020F9204221092A822BE
:10345000119212930723139308A8FEF765F898B901
:103460000F23039302230493002305934FF4A053E7
:1034700006934FF480530793052103A8FEF7BCFA87
:1034800020B915B05DF804FBFFF7B2FFFFF7B0FFFE
:10349000003802400070004008B50A480A4B03603B
:1034A0004FF4E133436000238360C36003610C2267
:1034B00042618361C361FFF7F1FB00B908BDFFF70B
:1034C00097FF00BF483700200010014010B58EB0B4
:1034D00000240A940B940C940D942422214601A8F4
:1034E0000CF038FE1B481C4B036044608460046190
:1034F000012383610462C462184A8262C460C361AA
:1035000004634461FDF766F8E8B900230A930122D9
:103510000B920C930AA90F48FDF74AFAA8B90023A9
:1035200001930122029205920393099302F57022FE
:10353000089207930693049301A90648FDF71EFB22
:1035400028B90EB010BDFFF753FFFFF751FFFFF78B
:103550004FFF00BF00370020002001400100000F96
:1035600000B587B00023029303930493059300935F
:1035700001931448144A02604FF47A7242608360E7
:103580004FF6FF72C26003614361FFF73DF890B9E7
:103590004FF48053029302A90A48FEF72FFC60B94A
:1035A00000230093019369460648FFF7A5F830B958
:1035B00007B05DF804FBFFF71BFFFFF719FFFFF7EC
:1035C00017FF00BFD83700200000014000B583B0CE
:1035D0000023009301930A480A4B0360FDF708FD9E
:1035E00050B900220092019269460548FDF794FD0A
:1035F00020B903B05DF804FBFFF7FAFEFFF7F8FE11
:10360000883700200074004008B5FCF701FFFFF781
:10361000F1FEFFF795FDFFF747FEFFF7A1FFFFF76C
:103620003BFFFFF753FFFFF7D1FF08BD70B5DEB0DA
:103630000446244D7C26324629463FA80CF07CFDEA
:103640003246A91920A80CF077FD01AB10221A60B0
:103650005A609A600821D96019615A6199611A48C3
:103660000568DD611A621948006858629862DA627A
:103670001A635A639963DA63154E36681E645A6496
:103680009964D9641A655A659A65D96500211966E5
:1036900058669D66DA661A675A6798675EAA02EBF3
:1036A000840252F87C0C0B49086052F8F81C0A4A54
:1036B000116053F82420094B1A60094B1C605EB05E
:1036C00070BD00BF3C0E01086C300020703000203F
:1036D0004C3000206C73012034380020786F0020BB
:1036E000FC5D0020F8B504460E46854B0022198883
:1036F0005868FDF7FDFE834B002219885868FDF7D6
:10370000F7FE814B002219885868FDF7F1FE7F4BC8
:10371000002219885868FDF7EBFE7D4B00221988BE
:103720005868FDF7E5FE7B4B002219885868FDF7C5
:10373000DFFE794B002219885868FDF7D9FE774BD8
:10374000002219885868FDF7D3FE754B00221988AE
:103750005868FDF7CDFE734B002219885868FDF7B5
:10376000C7FE714B002219885868FDF7C1FE6F4BE8
:10377000002219885868FDF7BBFE6D4B002219889E
:103780005868FDF7B5FE6B4B002219885868FDF7A5
:10379000AFFE694B002219885868FDF7A9FE674BF8
:1037A000002219885868FDF7A3FEF5B215F0400F06
:1037B00036D1E4B214F0020F39D114F004073DD130
:1037C00014F0010F41D115F0010F45D115F0020F92
:1037D00049D115F0040F4DD115F0080F51D115F056
:1037E000100F55D115F0200F59D1002E5EDB14F0CB
:1037F000080562D114F0100F66D114F0200F6AD1C1
:10380000002F6FD1002D74D14D4C012221886068AA
:10381000FDF76EFE002221886068FDF769FEF8BDA5
:10382000374B012219885868FDF762FEC1E7354B16
:10383000012219885868FDF75BFEBEE7324B012272
:1038400019885868FDF754FEBAE7304B01221988F1
:103850005868FDF74DFEB6E72D4B012219885868D0
:10386000FDF746FEB2E72B4B012219885868FDF799
:103870003FFEAEE7284B012219885868FDF738FE55
:10388000AAE7264B012219885868FDF731FEA6E702
:10389000234B012219885868FDF72AFEA2E7214B25
:1038A000012219885868FDF723FE9EE71E4B01226E
:1038B00019885868FDF71CFE99E71C4B01221988EE
:1038C0005868FDF715FE95E7194B012219885868CD
:1038D000FDF70EFE91E7174B012219885868FDF796
:1038E00007FE8DE7144B012219885868FDF700FE8A
:1038F00088E7124B012219885868FDF7F9FD83E724
:10390000740C00208C0C0020240C0020840C00205F
:10391000140C00201C0C0020540C00205C0C002017
:10392000640C00206C0C00207C0C00202C0C00206F
:10393000340C00203C0C0020440C00204C0C0020D7
:103940002435002010B50446064B0122198858681A
:10395000FDF7CEFD044B1A7821460020FFF7C2FE8A
:1039600010BD00BF60300020786F002010B5044605
:10397000064B002219885868FDF7BAFD044B1A78E7
:1039800021460020FFF7AEFE10BD00BF60300020D2
:10399000786F002038B504460D46064B0122198881
:1039A0005868FDF7A5FD044B1A7829462046FFF715
:1039B00099FE38BD60300020786F0020F8B50446CD
:1039C0000D461646B64B002219885868FDF790FD43
:1039D000B44B002219885868FDF78AFDB24B0022CB
:1039E00019885868FDF784FDB04B00221988586883
:1039F000FDF77EFDAE4B002219885868FDF778FD73
:103A0000AC4B002219885868FDF772FDAA4B0022C2
:103A100019885868FDF76CFDA84B00221988586872
:103A2000FDF766FDA64B002219885868FDF760FD7A
:103A3000A44B002219885868FDF75AFDA24B0022BA
:103A400019885868FDF754FDA04B00221988586862
:103A5000FDF74EFD9E4B002219885868FDF748FD82
:103A60009C4B002219885868FDF742FD9A4B0022B2
:103A700019885868FDF73CFD984B00221988586852
:103A8000FDF736FD15F0400F40F0E68014F0020F10
:103A900040F0E98014F0040740F0EC8014F0010FCE
:103AA00040F0EF8015F0010F40F0F28015F0020FAA
:103AB00040F0188115F0040F40F01B8115F0080F3D
:103AC00040F01E8115F0100F40F0218115F0200FFD
:103AD00040F0248115F0800F40F0278114F0080594
:103AE00040F02A8114F0100F40F02D8114F0200FC7
:103AF00040F03081002F40F03481002D40F03881BB
:103B00003746002EC0F23B813F110025BD4280F2B6
:103B10003981734C002221886068FDF7E9FC01229D
:103B200021886068FDF7E4FC002221886068FDF7C9
:103B3000DFFC012221886068FDF7DAFC0022218881
:103B40006068FDF7D5FC012221886068FDF7D0FC94
:103B5000002221886068FDF7CBFC01222188606883
:103B6000FDF7C6FC002221886068FDF7C1FC012238
:103B700021886068FDF7BCFC002221886068FDF7A1
:103B8000B7FC012221886068FDF7B2FC0022218881
:103B90006068FDF7ADFC012221886068FDF7A8FC94
:103BA000002221886068FDF7A3FC0122218860685B
:103BB000FDF79EFC002221886068FDF799FC012238
:103BC00021886068FDF794FC002221886068FDF779
:103BD0008FFC012221886068FDF78AFC0022218881
:103BE0006068FDF785FC012221886068FDF780FC94
:103BF000002221886068FDF77BFC01222188606833
:103C0000FDF776FC002221886068FDF771FC012237
:103C100021886068FDF76CFC002221886068FDF750
:103C200067FC012221886068FDF762FC0022218880
:103C30006068FDF75DFC012221886068FDF758FC93
:103C4000002221886068FDF753FC0122218860680A
:103C5000FDF74EFC013559E7114B012219885868D0
:103C6000FDF746FC12E70F4B012219885868FDF753
:103C70003FFC0FE70C4B012219885868FDF738FC10
:103C80000CE70A4B012219885868FDF731FC09E757
:103C9000074B012219885868FDF72AFC06E700BF88
:103CA000740C00208C0C0020240C0020840C0020BC
:103CB000140C00201C0C0020540C00205C0C002074
:103CC000640C00206C0C00207C0C00202C0C0020CC
:103CD000340C00203C0C0020440C00204C0C002034
:103CE00024350020354B012219885868FDF700FC67
:103CF000E0E6334B012219885868FDF7F9FBDDE651
:103D0000304B012219885868FDF7F2FBDAE62E4B9A
:103D1000012219885868FDF7EBFBD7E62B4B0122EF
:103D200019885868FDF7E4FBD4E6294B012219886D
:103D30005868FDF7DDFBD1E6264B0122198858684B
:103D4000FDF7D6FBCEE6244B012219885868FDF713
:103D5000CFFBCBE6214B012219885868FDF7C8FB41
:103D6000C8E61F4B012219885868FDF7C1FBC4E65D
:103D70001C4B012219885868FDF7BAFBC0E606F112
:103D80000F07C1E616F00F0F16D1F8BD164C002232
:103D900021886068FDF7ACFB012221886068FDF78F
:103DA000A7FB0135724206F00F0302F00F0258BF65
:103DB0005342AB42EADAE8E70025F3E71C0C0020A7
:103DC000540C00205C0C0020640C00206C0C0020C3
:103DD0007C0C00202C0C0020340C00203C0C00201B
:103DE000440C00204C0C002024350020F8B505467A
:103DF0000F4614461E461A4B1A781A4B1B789A42E5
:103E000025D02A20FFF7B2FD47F30720FFF79AFDE0
:103E100078B2FFF797FD46F30720FFF793FD70B2E6
:103E2000FFF790FD2B20FFF7A1FD45F30720FFF7DB
:103E300089FD68B2FFF786FD44F30720FFF782FD96
:103E400060B2FFF77FFD2C20FFF790FDF8BD064B19
:103E50001B681A1B34461E1A0D461746D1E700BFD1
:103E600040350020483000203438002008B50C4B85
:103E70001A780C4B1B789A4208D00B4B1B680B4AE4
:103E8000126800210846FFF7B1FF08BD074B1B6809
:103E9000054A126800210846FFF7A8FFF5E700BFB2
:103EA000403500205C3600206C730120343800203F
:103EB00010B5264B002219885868FDF719FBFFF74B
:103EC000D5FF234B1B68012B05D1214B1B68102B01
:103ED00008D0002420E01F4B012219885868FDF704
:103EE00007FBF2E71C4B1B681C4A1268013203FBFC
:103EF000022200210846FFF761FD144B01221988B8
:103F00005868FDF7F5FAFFF7B1FF10BDD2B20021F6
:103F10000846FFF7E7FB01340F4B1A680F4B1B688D
:103F2000013302FB0333A342E7DD094B1A68012A80
:103F3000ECD1D2B200210120FFF7D4FB044B1A7858
:103F400000210120FFF7CEFBE5E700BF040C0020B5
:103F5000786F0020603000206C730120343800201E
:103F6000054B186002781A7142785A7182789A71FA
:103F7000C278DA71704700BFD817012008B56FF01A
:103F80001D00FFF7F3FC2320FFF7DCFC0220FFF706
:103F9000D9FC0420FFF7D6FC6FF01F00FFF7E6FC0A
:103FA0000120FFF7CFFC6FF01F00FFF7DFFC0320BD
:103FB000FFF7C8FC0120FFF7D9FC6FF01900FFF7ED
:103FC000D5FC0420FFF7BEFC6FF06C00FFF7BAFCD5
:103FD0006FF01F00FFF7B6FC6FF04F00FFF7C6FC55
:103FE0000020FFF7AFFC0020FFF7ACFC0320FFF739
:103FF000A9FC1F20FFF7A6FC0120FFF7A3FC6FF030
:104000002000FFF79FFC0020FFF79CFC6FF04B00A7
:10401000FFF7ACFC0320FFF795FC6FF05F00FFF7A4
:1040200091FC0020FFF78EFC2E20FFF78BFC302048
:10403000FFF788FC0020FFF785FC0F20FFF782FCCC
:104040000020FFF77FFC6FF04900FFF78FFC022094
:10405000FFF778FC0D20FFF775FC0020FFF772FCDE
:104060001020FFF76FFC1020FFF76CFC0020FFF71B
:1040700069FC0820FFF766FC6FF04500FFF776FC4F
:104080000520FFF75FFC6FF04700FFF76FFC07208C
:10409000FFF758FC0120FFF755FC3620FFF766FCC0
:1040A0002220FFF74FFC6FF00F00FFF75FFC0320AB
:1040B000FFF748FC40F2DF1340F21F3200210846B0
:1040C000FFF794FE2920FFF751FC6FF04100FFF746
:1040D0004DFC0620FFF736FC6FF00F00FFF732FCB7
:1040E0000120FFF72FFC6FF00F00FFF72BFC0020E3
:1040F000FFF728FC0020FFF725FC6FF02F00FFF7EB
:1041000035FC0D20FFF71EFC2C20FFF72FFC08BD0F
:1041100000F0F80040B240EA5110054B1870C90099
:1041200021F01F0149B241EAD202024B1A707047D6
:1041300020380020283800200212024B1A70024B4F
:1041400018707047203800202838002000F0F80050
:1041500040B240EA5110054B1870C90021F01F0110
:1041600049B241EAD202024B1A707047203800204F
:104170002838002000F0F80040B240EA5110074B08
:104180001870C90021F01F0149B241EAD202044B64
:104190001A70044B00221A70704700BF18AA002042
:1041A000289D002068C9002010B51A4B18701A4BC2
:1041B0001B68012B27D1194C002221886068FDF76C
:1041C00097F9012221886068FDF792F9144C0022CA
:1041D00021886068FDF78CF9FFF7D0FE0122218865
:1041E0006068FDF785F9FF2211461046FFF790FF42
:1041F000002211461046FFF7BDFF0023094A136055
:10420000094A137010BD054B012219885868FDF743
:104210006FF9D0E740350020786F0020583000203B
:10422000040C0020D817012068C90020B0F1FF3F1E
:1042300008D0020A054B1A70054B1870054B002276
:104240001A707047034B01221A70704718AA002099
:10425000289D002068C9002070B504460E46151E32
:1042600018DB154B002219885868FDF741F93346D1
:10427000621931462046FFF7B9FD104B1B68102B21
:104280000BD00D4B012219885868FDF731F9FFF763
:10429000EDFD70BD2C446D42E3E7094B0122198806
:1042A0005868FDF725F92A46064B1978064B187809
:1042B000FFF784FBE5E700BF040C0020786F0020C7
:1042C00060300020283800202038002070B50646D5
:1042D0000C46151E18DB154B002219885868FDF78F
:1042E00007F96319324621463046FFF77FFD104B30
:1042F0001B68102B0BD00D4B012219885868FDF755
:10430000F7F8FFF7B3FD70BD2C446D42E3E7094BAE
:10431000012219885868FDF7EBF82A46064B1978F0
:10432000064B1878FFF74AFBE5E700BF040C0020B6
:10433000786F0020603000202838002020380020CE
:104340002DE9F84F05460C469146994235D01E4658
:10435000824239D082423BDD171AA9453ADD4FF03F
:10436000010AB44239DAA6EB0408B44238DA4FF055
:10437000010B294B002219885868FDF7B9F8474509
:1043800031D24FEA5809C9F1000923462A4621468D
:104390002846FFF72BFD214B93F90010204B93F992
:1043A0000000FFF7F7FAB4420CD05C4419EB0709A0
:1043B000EBD45544A9EB0809E7E7121AFFF74CFFC5
:1043C000FFF754FDBDE8F88F5A1AFFF77FFFF7E7B4
:1043D000871AC2E74FF0FF3AC3E7A4EB0608C4E729
:1043E0004FF0FF3BC5E77E08764223462A4621462A
:1043F0002846FFF7FBFC094B93F90010084B93F993
:104400000000FFF7C7FA4D45DCD0554416EB08060F
:10441000EBD45C44F61BE8E7040C002028380020AD
:104420002038002008B541B240F30720FFF7B2FA68
:1044300008BD000070B505460E460E4C00222188CE
:104440006068FDF755F833462A4631462846FFF79F
:10445000CDFC094B1878094B1B7843EA0020FFF785
:10446000E1FF012221886068FDF742F8FFF7FEFCBA
:1044700070BD00BF040C0020203800202838002028
:104480002DE9F047044688469146764B002219886C
:104490005868FDF72DF8744B1B78002B40F0968080
:1044A000724B1A78724B1B789A420DD0714A9779E9
:1044B000E41B1379DB08577907FB03F707FB04F7C5
:1044C00004374FF0000A6AE06A4D2A7942446B795A
:1044D0004B44013B013A49464046FFF787FCAE7921
:1044E000A41B2B79DB086E7906FB03F606FB04F6AA
:1044F000043600271DE0604B1878604B1B7843EAB8
:104500000020FFF78FFF0134E4B2072C0FD8C4F16D
:10451000070345FA03F313F0010FECD0584B18785A
:10452000584B1B7843EA0020FFF77CFFEBE701368E
:10453000013750490B79DA084B7903FB02F3BB4290
:1045400040F386804B4B1B689D5D0024DDE74A4BA2
:1045500018784A4B1B7843EA0020FFF763FF0134C9
:10456000E4B2072C0DD845FA04F313F0010FEED096
:10457000434B1878434B1B7843EA0020FFF752FF68
:10458000EDE7013E002E05DB3A4B1A68BB19D55CFE
:104590000024E6E7374B1B79DB081F449A44354972
:1045A0000A79D308497901FB03F1514550DD9AFBA3
:1045B000F3F303EB090142440B46013A4046FFF78F
:1045C00015FC2C4B1E79F608013EDBE7294A93794E
:1045D000E41A1379DB0892F805A00AFB03FA0AFB38
:1045E00004F404F1040A00272CE004EB080000EBBB
:1045F000C60007EB09014B1C421CFFF7F7FB204BE1
:104600001878204B1B7843EA0020FFF70BFF01349A
:10461000E4B2072C07D8C4F1070345FA03F313F0FB
:10462000010FF4D0E1E70136124B1B79DB08B342EE
:1046300006DD104B1A680AEB0603D55C0024E8E798
:104640009A4401370B4B5B79BB4201DD0026EBE757
:10465000044B012219885868FCF74AFFFFF706FC53
:10466000BDE8F087040C002068C900204035002018
:104670005C360020D817012018AA0020289D0020B1
:1046800020380020283800202DE9F04107460C464C
:1046900016461D46904201DC06461746AC4202DC37
:1046A0002B4625461C46A7EB0608424629463046BF
:1046B000FFF7D2FD424621463046FFF7CDFD641B91
:1046C000224629463046FFF701FE22462946384653
:1046D000FFF7FCFDBDE8F0812DE9F04F83B0064601
:1046E0000F4614461D46904201DC04461646AF4272
:1046F00002DC2B463D461F46A6EB0408B8F1040F2A
:1047000004DDA7EB0509B9F1040F02DC03B0BDE835
:10471000F08F04F1010B05F1010A51465846FFF7ED
:1047200089FE731E514601931846FFF783FE07F179
:10473000FF3A51465846FFF77DFE51460198FFF774
:1047400079FE04F1020AA8F10408424629465046BF
:10475000FFF782FD424639465046FFF77DFD0235A0
:10476000A9F104094A4629462046FFF7AFFD4A460B
:1047700029463046FFF7AAFDC8E72DE9F84F8846DD
:1047800016469946904201DC06461046C84502DCB2
:104790004B46C1469846851B042D03DDA8EB09074F
:1047A000042F39DCBDE8F88F06F1020AA5F1040BED
:1047B0005A4609EB04015046FFF74EFD5A46A8EB56
:1047C00004015046FFF748FD013407EBD773B4EB03
:1047D000630FE7DC002CE7D0012C0CD02A4609EB54
:1047E00004013046FFF738FD2A46A8EB04013046A5
:1047F000FFF732FDE8E706F1010AA5F1020B5A4680
:1048000009EB04015046FFF727FD5A46A8EB0401C7
:104810005046FFF721FDD7E70024D6E7000000004F
:104820002DE9F04F8BB004460791914698461498B5
:104830000AF062FF6CA3D3E900230AF0C7FFCDE9B9
:1048400000016B4B002219885868FCF751FE69493A
:104850008B79E41A0B79DA084B7903FB02F303FB3B
:1048600004F30433099300230693CDF82090C14646
:10487000A6E0614B1878614B1B7843EA0020FFF7F4
:10488000D1FD09F101095FFA89F9B9F1070F7FD864
:1048900009EBCA04574D95F804800BFB0848DDE985
:1048A000000109F009FB06460F4640460AF024FFC6
:1048B00032463B460AF08AFF06460F4606980AF043
:1048C0001BFFCDE90201DDE9000109F03DFB0246D5
:1048D0000B46DDE902010AF079FF02460B4630463D
:1048E00039460AF0BBFD06460F4607980AF004FF5A
:1048F00032463B460AF0B4FD0BF018FA0646DDE9F5
:10490000000109F0D9FA02460B46DDE902010AF07E
:104910005DFFCDE902012F790BFB0747DDE90001BF
:1049200009F012FB04460D4638460AF0E5FE224621
:104930002B460AF04BFF02460B46DDE902010AF066
:104940008FFD04460D4608980AF0D6FE22462B46F7
:104950000AF086FD0BF0EAF90146431C721C304652
:10496000FFF744FAC9F10703059A42FA03F313F07B
:10497000010F7FF47EAF224B1B78002B81D1214B9E
:104980001878214B1B7843EA0020FFF74BFD78E7AE
:104990000AF1010A174B1B79DB08534508DD154B5B
:1049A0001A68099B5344D65C4FF0000905966CE7E2
:1049B000D946099A1A440992069B0133DBB2069341
:1049C0000C4B5B79069A934203D90026B246CB463C
:1049D000E0E7074B012219885868FCF789FDFFF7CB
:1049E00045FA0BB0BDE8F08FEC51B81E85EB913F56
:1049F000040C0020D817012020380020283800207F
:104A000068C9002018AA0020289D00202DE9F04345
:104A100083B004460E4691461F460BF0D3FB8046FA
:104A20002C4B1A782C4B1B789A4209D042F20F7308
:104A30009E4220D042F20E739E4224D0002537E0E1
:104A400042F20F739E420ED042F20E739E42F5D197
:104A5000224B1B680133224A167908FB163606EBF7
:104A6000D6767610EAE71D4B1B6801331C4A16798F
:104A700000FB1636E8E71B4B1B680133184A167912
:104A800000FB1636D6E7174B1B680133144A16791C
:104A900008FB163606EBD6767610CFE714F9010B35
:104AA00000972B464A463146C0B2FFF7B9FE0135A2
:104AB00045450CDA002FF1D114F9010B084B197997
:104AC0004A4605FB0161C0B2FFF7DAFCEFE703B02D
:104AD000BDE8F083403500205C3600206C73012077
:104AE000D8170120343800202DE9F04383B0044664
:104AF0000E4691461F460BF065FB80462C4B1A78FC
:104B00002C4B1B789A4209D042F20F739E4220D060
:104B100042F20E739E4224D0002537E042F20F731A
:104B20009E420ED042F20E739E42F5D1224B1B687C
:104B30000133224A167908FB163606EBD676761034
:104B4000EAE71D4B1B6801331C4A167900FB163639
:104B5000E8E71B4B1B680133184A167900FB163631
:104B6000D6E7174B1B680133144A167908FB163633
:104B700006EBD6767610CFE714F9010B00972B469B
:104B80004A463146C0B2FFF74BFE013545450CDAC7
:104B9000002FF1D114F9010B084B19794A4605FB96
:104BA0000161C0B2FFF76CFCEFE703B0BDE8F08332
:104BB000403500205C3600206C730120D81701209E
:104BC000343800202DE9F0418EB09DF95070E8B9DD
:104BD00033B930238DF8003000238DF8013071E0B7
:104BE00000205C1E844205DD0EAC044404F8387CD1
:104BF0000130F6E70EAB0344302403F8384C0130A3
:104C00000EAB1844002300F8383C5BE00446002853
:104C10001FDB4FF0000C0025002C1EDD2D4E86FB07
:104C2000040EE017C0EBAE0000EB80004FEA400E30
:104C3000A4EB0E0000F130080DF1380EAE440EF872
:104C40001C8C0135201A86FB0064C017C0EBA4043D
:104C5000E2E744424FF0010CDDE700240EA82844AF
:104C600000F81C4CBCF1000F02D02D208DF8000084
:104C70006646AC449C451DDB00240027BD421BDD7D
:104C8000E81B0138F31923440DF1380E704410F974
:104C90001C0C734403F8380C0137EFE730190DF1A1
:104CA000380E704400F8387C0134581B801BA04239
:104CB000F4DCE2E70024F8E764440EAB1C44002374
:104CC00004F8383C00236846FFF7A0FE0EB0BDE8AC
:104CD000F08100BF676666662DE9F04186B08046C8
:104CE00016461F469DF83420224B93E8030003909C
:104CF000ADF810100024CDF81240752300930194F4
:104D0000ADF8084015461C4968460BF02BFA2346BF
:104D100001249D4204D004EB840254000133F8E7DF
:104D2000164968460BF03EFA694603A80BF03AFABA
:104D3000304639460AF0FAFF05460AF0DDFC024625
:104D40000B46304639460AF089FB06460F46204698
:104D50000AF0D2FC32463B460AF038FD0AF0E6FF84
:104D600003462A4603A940460BF0FCF906B0BDE80D
:104D7000F08100BF340F01084C0F0108500F0108EB
:104D80002DE9F0478AB0804689461E469DF94C5071
:104D90009DF954402AB19246052A04D94FF0050ADC
:104DA00001E04FF0010A00220023404649460AF084
:104DB0007FFF68B90027CDF804A0149B00934246FA
:104DC0004B4603A8FFF788FF2E2D11D0002302E0E9
:104DD0000127F0E701331A2B0AD80AAA1A4412F95C
:104DE0001C2C2E2AF6D10AAA1A4402F81C5CF1E700
:104DF000202C25D017B32D238DF80C30012304E08F
:104E00000AAA1A4402F81C4C01331A2B18D80AAA11
:104E10001A4412F91C2C202AF2D02D2AF4D1EFE7E3
:104E200001331A2B0CD80AAA1A4412F91C2C202A76
:104E3000F6D10AAA1A4402F81C4CF1E70023F0E765
:104E40000023129A314603A8FFF7E0FD0AB0BDE83F
:104E5000F0870000034B1878034B1B7843EA0020CF
:104E6000704700BF2038002028380020034B1878F6
:104E7000034B1B7843EA0020704700BF18AA0020AC
:104E8000289D0020014B1868704700BFD8170120EB
:104E90002DE9F04F85B00190029191460393DDF822
:104EA00038A00F9D012D0ED0704B1A78704B1B78D7
:104EB0009A425FD06F4B002219885868FCF718FBA4
:104EC0004FF0000BC1E0694B1A78694B1B789A428E
:104ED00007D0684B002219885868FCF709FB0025A9
:104EE00032E0644B002219885868FCF701FB0198F6
:104EF00000EB09020299039BCB18013B013AFEF734
:104F000075FF002407E03AF8140041B240F307208F
:104F1000FEF740FD0134039B03FB09F3A342F2DCDF
:104F2000544B012219885868FCF7E2FA99E009FB12
:104F300005433AF8130041B240F30720FEF72AFD7B
:104F4000013C002CF3DA0135039B9D420BDA029BF6
:104F5000E918019800EB09020B46013AFEF746FFFB
:104F600009F1FF34EDE7434B012219885868FCF73B
:104F7000BFFA76E03F4B002219885868FCF7B8FA70
:104F80004FF0000B1DE071B247F30720FEF702FD62
:104F90000134AC42F7DB08F10108C84506DA09FB29
:104FA0000B833AF8136037460024F2E7009B013385
:104FB0000093009BAB4202DA4FF00008EDE70BF1E3
:104FC000010B039B9B450DDA029B05FB0B3109FB93
:104FD00005F2013A4B1901980244FEF707FF00233E
:104FE0000093E6E7234B012219885868FCF780FA02
:104FF00037E008F1FF38B8F1000F0EDB09FB0B8337
:105000003AF8136037460024AC42F2DA71B247F343
:105010000720FEF7BFFC0134F6E7009B0133009345
:10502000009BAB420FDA029B05FB0B31009B19443E
:1050300009FB05F2013A0B4601980244FEF7D6FE41
:1050400009F1FF38D7E70BF1010B039B9B4502DA0F
:1050500000230093E4E7074B012219885868FCF706
:1050600047FAFEF703FF05B0BDE8F08F403500209A
:105070005C360020040C0020014B1879704700BFFB
:10508000D8170120014B5879704700BFD81701206D
:1050900010B5194B18700124184B1C60184B3F2297
:1050A0001A60184B4FF47C621A60174B40F20A22C8
:1050B0001A60164B40F662721A60154B40F21F32AE
:1050C0001A60144B40F2DF121A60134B0A221A7056
:1050D000124B224619885868FCF70AFA104B2246F0
:1050E00019885868FCF704FA0E4B2246198858684C
:1050F000FCF7FEF910BD00BF40350020DC7D00202C
:10510000789D0020F85D0020B0E800202C380020B9
:105110000C5E002070730120285E0020F434002013
:10512000EC340020FC34002008B5044B1988586882
:10513000FCF7CAF9B0FA80F0400908BD0C35002030
:10514000274BB3F90000B0F1FF3F47D0254BB3F92F
:105150000030B3F1FF3F40D0234B1A78234B1B683C
:105160009A4217D053BB224B1968401A214B1B6837
:105170005A4202FB00F0204A1268521A90FBF2F0E9
:105180000344002B27DB1B4A1068984200DB1846BB
:1051900000B27047194B1968431A194A106800FB8E
:1051A00003F3184A1268521A93FBF2F3002B03DB45
:1051B0009842EDDB1846EBE70023F9E70C4B1A6841
:1051C000801A0C4B1B6803FB00F00B4B1B689B1AEF
:1051D00090FBF3F3D5E70023D5E71846704700BFEF
:1051E000E01F0120429D002040350020DC7D002092
:1051F000B0E80020707301202C380020789D00203A
:105200000C5E0020F85D0020264BB3F90000B0F1E1
:10521000FF3F20D0244BB3F90000B0F1FF3F1AD07C
:10522000224B1A78224B1B689A4215D043BB214B64
:105230001A68801A204B1B6803FB00F01F4B1B6889
:105240009B1A90FBF3F3002B29DB1B4A1068984252
:1052500000DB184600B27047194B1968431A194A07
:10526000106800FB03F3184A1268521A93FBF2F31A
:10527000002B03DB9842EDDB1846EBE70023F9E750
:105280000C4B1968401A0C4B1B685A4202FB00F089
:105290000A4A1268521A90FBF2F00344D3E7002343
:1052A000D3E700BFE01F0120429D002040350020D1
:1052B000DC7D0020789D00200C5E0020F85D002041
:1052C000B0E80020707301202C380020013803283A
:1052D00013D8DFE800F002060A0E0A4B01221A700A
:1052E0007047084B0C221A707047064B1B221A702D
:1052F0007047044B66221A707047024B0C221A70DA
:10530000704700BF285E002070B50546174B00228D
:1053100019885868FCF7ECF800241AE0144B0122B5
:1053200019885868FCF7E4F86D00EDB20F4E0022C2
:1053300031887068FCF7DCF800BF00BF00BF00BF19
:1053400000BF00BF012231887068FCF7D1F801343A
:10535000E4B2072C09D815F0800FDFD1044B0022EE
:1053600019885868FCF7C4F8DEE770BDEC340020FB
:10537000FC34002070B50024264601E00134E4B27C
:105380000B2C1AD876000E4D012229886868FCF78C
:10539000AFF800BF00BF00BF00BF00BF00BF0022CA
:1053A00029886868FCF7A4F8064B19885868FCF748
:1053B0008BF80028E2D00136E0E7304670BD00BF30
:1053C000EC340020043500202DE9F04F83B04E4B23
:1053D000002219885868FCF78BF8002427460194AE
:1053E000DFF844A10094D346A046A14601E001376E
:1053F0000134464B1B78A3424BDD454B1988586856
:10540000FCF762F80028F3D19020FFF77DFF414DB3
:10541000012229886868FCF76BF80220FBF720F866
:10542000002229886868FCF763F8FFF7A3FF0646A7
:10543000D020FFF769FF012229886868FCF758F837
:105440000220FBF70DF8002229886868FCF750F865
:10545000FFF790FF721E40F6FE739A42C8D80028EC
:10546000C6D0B0F5805FC3D2B1448044274B1B78CF
:10547000052BBCD9B34500D9B346009BB34200D23B
:105480000096824500D98246019B8342AFD20190AB
:10549000ADE7052B08D9009B9B44A9EB0B09019BA9
:1054A0009A44A8EB0A08023F174B01221988586852
:1054B000FCF71EF8154B1B78023BBB420AD0012FAC
:1054C00008D04FF6FF73144A1380144A138003B0B8
:1054D000BDE8F08F124B1A78124B1B689A4209D024
:1054E000B9FBF7F90C4BA3F80090B8FBF7F70B4B9F
:1054F0001F80ECE7B8FBF7F8074BA3F80080B9FB77
:10550000F7F7064B1F80E2E7F4340020285E002006
:105510000C350020EC340020E01F0120429D0020CB
:1055200040350020DC7D00209F860100F0B4064657
:10553000002000E0013000EB8004A5000F4C2C445B
:10554000B4F90840002C01DB1328F3DD142811D036
:105550000A4F84000444A5007C197E536180A28018
:10556000E380BDF814302381049BE36000232361B2
:10557000F0BC70474FF0FF30FAE700BFE0170120A2
:105580002DE9F04F85B00446FFF77CFC0746FFF796
:1055900061FC0646FFF76AFC039004EB84039A0063
:1055A000894B13441B8913F0080F37D0864D1046E2
:1055B00005EB020801230193D8F810300093B8F8E6
:1055C0000630B8F80420B8F80210285AFFF760FC3B
:1055D000B8F8083013F0100F40F0998013F0010F65
:1055E00004D07A4B1868FEF7A7FD90E0784B186856
:1055F000FEF7A2FD744B4FEA840C0CEB04018A0009
:1056000003EB020E985ABEF80210BEF80420BEF852
:1056100006300B440244FFF737F878E06D4B18680A
:10562000FEF78AFD684DA30023444FEA830905EB8A
:10563000090835F80900B8F80210B8F80420B8F8DD
:1056400006300B440244FFF798F8614B1868FEF7E8
:1056500073FD35F80900B8F80210B8F80420B8F85E
:1056600006300B440244FFF737F8B8F8083013F05F
:10567000010F58D0554B1868FEF75EFD04EB84030C
:105680009A00514B13441B8913F0020F50D0524B18
:105690001868FEF765FC4C4DA30023444FEA8308CD
:1056A00005EB0809B9F804A04FEA5A0AFFF7E4FC31
:1056B000C0F34700AAEB000A35F808008244B9F8A5
:1056C00006804FEA5808FFF7DDFCC0F34700A8EB5F
:1056D0000008B9F8020080443E4B1868FEF7A6FDAA
:1056E0003E4B1868FEF728FDA30023444FEA8309C8
:1056F000354B9944002342465146D9F80C00FFF738
:1057000085F9B9F8083003F00603062B3BD038467C
:10571000FEF726FC3046FEF70FFD0398FEF786FDE8
:1057200005B0BDE8F08F2D4B1868FEF705FDA5E725
:105730002B4B1868FEF714FCDFF88CB0A300234451
:105740004FEA83090BEB0908B8F804004508D8F8BC
:105750000C000AF037FD8246FFF78EFC00FB0AFAC8
:10576000A5EB5A0A3BF809008244B8F806904FEAC4
:105770005909FFF787FCC0F34700A9EB0009B8F807
:105780000280C844A8E7FFF777FCDFF83CB04FEA97
:10579000840909EB040293000BEB030C002342463F
:1057A000AAEB0001DCF80C00FFF730F9FFF764FC0E
:1057B0004C44A3009B440023424600EB0A01DBF863
:1057C0000C00FFF723F9A2E7E0170120D87D0020A5
:1057D0007C6F00203C9D00200C200120F41F012044
:1057E000D0A3002010B5002400E00134132C0CDC01
:1057F00004EB84039A00054B1344B3F90830002BE3
:10580000F3DB2046FFF7BCFEEFE710BDE0170120F9
:1058100010B500EB80039C00064B2344B3F908301D
:10582000002B03DB034B2344D96002B910BDFFF703
:10583000A7FEFBE7E01701200022132A14DC10B4B6
:105840000A4C9300134498002318002121525980D8
:105850009980D9804FF4004119810549D9600132FE
:10586000132AEDDD10BC7047704700BFE017012020
:10587000F40C010808B5FFF7DFFF4FF6FF730A4A83
:1058800013600A4A48F210411160094A1F21116051
:10589000084A1360084B4FF478421A600023074A05
:1058A0001360074A136008BDF41F0120D87D002053
:1058B0003C9D00207C6F00201CAA0020D0A300206B
:1058C0000C20012010B4064C2060064801600198AD
:1058D0000549086005490A60054A136010BC704715
:1058E000F41F0120D87D00203C9D00207C6F00200B
:1058F0001CAA0020014B1860704700BFD0A30020F5
:10590000014B1860704700BF0C200120F8B5FFF76D
:105910000BFC002800F0AB80FFF756FDFFF710FCF2
:105920000546FFF771FC0746FFF794FA0646002389
:105930004FF0FF3400E00133132B2BDC03EB830229
:1059400091004C4A0A44128912F4004FF3D112F02C
:10595000010FF0D1B4F1FF3FEDD103EB83018A00D9
:1059600044498A5AAA42E6DC03EB83018800414994
:10597000014489880A44AA42DDDB3E4A0244528837
:10598000BA42D8DC3B490144C9880A44BA42D2DB56
:105990001C46D0E7B4F1FF3F08D004EB84039A0023
:1059A000344B13441B8913F0100F14D0FFF7BCFBCA
:1059B0000028FBD1B4F1FF3F08D004EB84039A0028
:1059C0002C4B13441B8913F0100F2AD03046FEF7DE
:1059D000B3FB2046F8BD284B1868FEF7ADFB04EB7F
:1059E00084039A00234B13441B8913F0080F0AD039
:1059F00020498B18885A59889A88DB880B440244BE
:105A0000FEF742FED2E71B49A30023449A008B18FD
:105A1000885A59889A88DB880B440244FEF75CFE5A
:105A2000C4E7164B1868FEF787FB04EB84039A0063
:105A3000104B13441B8913F0080F0AD00D498B1823
:105A4000885A59889A88DB880B440244FEF71CFE6A
:105A5000BCE70849A30023449A008B18885A598848
:105A60009A88DB880B440244FEF736FEAEE74FF01F
:105A7000FF34AEE7E01701201CAA00207C6F002055
:105A8000F8B506460F4601252C4616E00022154BB8
:105A9000304639460AF016F9F0B9601E4FF4B47377
:105AA00003FB00F009F028FE02460B46304639465B
:105AB00009F0D4FC06460F4600257DB14FF4B470C2
:105AC00000FB04F009F018FE32463B460AF0F0F8FD
