:020000040800F2
:1000000000000220B9020008BF020008C302000875
:1000100035030008390300088103000800000000D0
:10002000000000000000000000000000C9030008FC
:10003000CD03000800000000D10300085D2C00087B
:10004000E5030008E5030008E5030008E5030008F0
:10005000E5030008E5030008E5030008E5030008E0
:10006000E5030008E5030008E5030008E5030008D0
:10007000E5030008E5030008E5030008E5030008C0
:10008000E5030008E5030008E5030008E5030008B0
:10009000E5030008E5030008E5030008E5030008A0
:1000A000E5030008692C0008E5030008E5030008E3
:1000B000E5030008E5030008E5030008E503000880
:1000C000E5030008E5030008E5030008E503000870
:1000D000E5030008E5030008E5030008E503000860
:1000E000E5030008E5030008E5030008E503000850
:1000F000E5030008E5030008E5030008E503000840
:10010000E5030008E5030008E5030008E50300082F
:10011000E5030008E503000805230008E5030008DF
:10012000E5030008E5030008E5030008E50300080F
:10013000E5030008E5030008E5030008E5030008FF
:10014000E5030008E5030008E5030008E5030008EF
:10015000E5030008E5030008E5030008E5030008DF
:10016000E5030008E5030008E5030008E5030008CF
:10017000E5030008E5030008E503000800000000AF
:10018000E5030008E503000800B583B002F060FC59
:10019000384B394A1360394A1360394900E0214627
:1001A000384B99420BD20A684B6801F10C048868FD
:1001B0009842F4D952F8041B43F8041BF8E72E4B7D
:1001C0001A68314B9A4200D0FEE72C4B1A682F4B2D
:1001D0009A42F9D1274B2E4A13602E4A13602E4AB9
:1001E00005E0002043F8040B9A42FAD80A462B4B4C
:1001F0009A4204D2114651F8083B5268F4E7244B66
:100200001B6813B9234B1B6803B1FEE702F090FE95
:10021000694601A802F0ACFB214C224BE41AA41061
:10022000002504E01F4B53F8253098470135AC42B8
:10023000F8DC1D4C1D4BE41AA410002504E01B4BF8
:1002400053F8253098470135AC42F8DC0099019805
:1002500004F0BEF90546164C164BE41AA41004E04F
:10026000013C144B53F824309847002CF8DC284606
:1002700002F051FBBABADECA00000020140D0020C3
:10028000E8030008000400087856341232547698C7
:10029000180D00204C0F0020000400081004000876
:1002A00010040008100400081004000810040008DE
:1002B000100400081004000808B5FFF765FF00BE31
:1002C000FEE71EF0040F0CBFEFF30880EFF3098088
:1002D0007146414A10472DE9F04182B004468846F4
:1002E000124B5E6B9F6B9D6A1B6B13F0020F03D06A
:1002F0000E4BDB6A002B0CDB0D4802F04BFBCDF8FC
:1003000000803B4632462946204602F0ADFB00BE47
:10031000FEE74BF6AB6102F021FC0028ECD0034B6A
:100320004FF00042DA6202B0BDE8F08100ED00E07B
:100330002072000800BEFEE71EF0040F0CBFEFF3B2
:100340000880EFF309807146244A10472DE9F041F7
:1003500082B004468846084B5E6B9F6B9D6A0748D7
:1003600002F018FBCDF800803B4632462946204675
:1003700002F07AFB00BEFEE700ED00E030720008FC
:100380001EF0040F0CBFEFF30880EFF309807146F5
:10039000134A10472DE9F04182B004468846084BC5
:1003A0005E6B9F6B9D6A074802F0F4FACDF80080FF
:1003B0003B4632462946204602F056FB00BEFEE789
:1003C00000ED00E03C72000800BEFEE700BEFEE764
:1003D00000BEFEE770470000D70200084D0300088A
:0803E0009503000800BEFEE7D2
:1003E800B475000800000020180D0020B47500083E
:1003F8000000001000000010180D0020500F002011
:080408000000001000000010CC
:1004100008B50B4B1A6842F400721A601A6842F46D
:1004200080621A601A6842F480721A60032000F039
:10043000A5FB0F2001F01EFF04F0BAF9002008BD53
:10044000003C0240024A136801331360704700BF4A
:10045000B40D0020014B1868704700BFB40D002098
:1004600010B582B00190FFF7F5FF0446FFF7F2FFE9
:10047000001B019B9842F9D302B010BD10B5044691
:10048000514B5A6822F440325A605A6841680A4314
:100490005A600268536823F480735360026853689B
:1004A000016943EA012353600268536823F04073F3
:1004B00053600268536881680B4353600268936815
:1004C00023F40063936002689368C1680B439360F0
:1004D000826A3E4B9A425FD00268936823F0706351
:1004E000936002689368816A0B4393600268936823
:1004F00023F04053936002689368C16A0B43936092
:100500002268936823F00203936022689368A169CC
:1005100043EA41039360236A002B4ED0636A013B98
:10052000072B44D82268536843F400635360226861
:10053000536823F460435360636A013B4FF46042A5
:1005400092FAA2F2B2FA82F2934021684A68134307
:100550004B602268D36A23F47003D3622168CB6AAC
:10056000E269013A43EA0253CB622268936823F4BA
:100570000073936022689368216B43EA4123936080
:100580002268936823F480639360226893686169AA
:1005900043EA8123936010BD0268936823F070637F
:1005A00093600268936823F040539360A8E740F299
:1005B0000A61074802F0E4F9B4E72268536823F4BB
:1005C00000635360C5E700BF002301400100000F36
:1005D0005C6F0008002800F0EB8010B5044603684B
:1005E000744A93420CD002F58072934208D002F50F
:1005F0008072934204D040F20D116F4802F0C0F9AE
:10060000636843B1B3F5803F05D0B3F5003F02D036
:10061000B3F5403F6FD1A36843B1B3F1807F05D0FC
:10062000B3F1007F02D0B3F1407F6AD12369012B7F
:100630006DD8A369012B70D8A36A7BB3B3F1807F17
:100640002CD0B3F1007F29D0B3F1407F26D0B3F195
:10065000806F23D0B3F1A06F20D0B3F1C06F1DD055
:10066000B3F1E06F1AD0B3F1006F17D0B3F1106F90
:1006700014D0B3F1206F11D0B3F1306F0ED0B3F1BD
:10068000406F0BD0B3F1506F08D0B3F1606F05D05D
:10069000B3F1706F02D0494A934244D1E36813B179
:1006A000B3F5006F45D1E369013B0F2B47D8236BAE
:1006B000012B4AD86369022B4DD8236A012B50D8ED
:1006C000A26A3E4B9A420AD0E36A43B1B3F1805F1B
:1006D00005D0B3F1005F02D0B3F1405F47D1236C86
:1006E000002B4AD0236C13F0100F4DD001200023B3
:1006F00084F83C3010BD4FF487712F4802F040F968
:1007000089E740F20F112C4802F03AF98EE74FF4D6
:100710008871294802F034F98BE740F2111126481C
:1007200002F02EF988E74FF48971234802F028F986
:10073000B4E740F21311204802F022F9B3E74FF476
:100740008A711D4802F01CF9B1E740F215111A48F0
:1007500002F016F9AEE74FF48B71174802F010F96A
:10076000ABE740F21711144802F00AF9A8E740F28B
:100770001B11114802F004F9B1E7636484F83C30BE
:10078000204604F0C3F8ADE7236C23F4885323F02C
:10079000020343F0020323642046FFF76FFE0020AC
:1007A0006064236C23F0030343F0010323649EE79A
:1007B00001207047002001405C6F00080100000F1D
:1007C00010B582B00446002301938369012B29D818
:1007D000E36A43B1B3F1805F05D0B3F1005F02D0AB
:1007E000B3F1405F24D194F83C30012B6FD001234A
:1007F00084F83C3023689A6812F0010F1ED19A6881
:1008000042F001029A60364B1B68364AA2FB032372
:100810009B0C03EB43030193019B7BB1019B013BC9
:100820000193F9E74FF4DD712F4802F0A9F8CFE703
:1008300040F2BB112C4802F0A3F8D4E72268936879
:1008400013F0010F45D0236C23F4E06323F0010380
:1008500043F480732364536813F4806F05D0236CD2
:1008600023F4405343F480532364236C13F4805FD8
:100870001AD0636C23F006036364002384F83C30D1
:1008800023686FF022021A60184B5B6813F01F0F89
:100890000DD123689A6812F0405F1DD19A6842F02A
:1008A00080429A60002015E000236364E5E7236836
:1008B0000F4A934201D000200CE09A6812F0405F8A
:1008C0000CD19A6842F080429A60002002E0022037
:1008D00000E0002002B010BD0020FBE70020F9E797
:1008E0000C00002083DE1B435C6F000800230140E6
:1008F0000020014003689A6812F4806F03D09B685F
:1009000013F4807F1CD170B50D460446FFF7A2FD9D
:10091000064623681A6812F0020F1AD1B5F1FF3F9C
:10092000F7D025B1FFF796FD801BA842F1D9236CC3
:1009300043F004032364002384F83C3003202DE0BB
:10094000036C43F020030364002380F83C30012053
:1009500070476FF012021A60236C43F40073236433
:1009600023689A6812F0405F17D1A269BAB9DA6AAF
:1009700012F4700F03D09B6813F4806F11D1236CB5
:1009800023F480732364236C13F4805F0BD1236CF6
:1009900043F001032364002000E0002070BD00202C
:1009A000FCE70020FAE70020F8E70368D86C7047FE
:1009B00030B583B005460C46002301930B68122B1B
:1009C0004ED86368013B0F2B50D8A368072B53D830
:1009D00095F83C30012B00F0C780012385F83C30AE
:1009E0002368092B4ED92868C2689BB203EB4303E6
:1009F0001E3B072101FA03F322EA0303C3602868C0
:100A0000C268A168238803EB43031E3B01FA03F38A
:100A10001343C3606368062B4AD82868426B03EB14
:100A20008303053B1F2101FA03F322EA0303436317
:100A30002868426B636803EB8303053B218801FA56
:100A400003F3134343632A68484B9A4260D02A68F1
:100A5000464B9A4265D0002085F83C0003B030BD7B
:100A600040F20451424801F08BFFAAE740F20551E1
:100A70003F4801F085FFA8E740F206513C4801F0ED
:100A80007FFFA5E7286802699BB203EB43030721B8
:100A900001FA03F322EA0303036128680269A168EB
:100AA000238803EB430301FA03F313430361B1E724
:100AB0000C2B16D82868026B03EB8303233B1F2102
:100AC00001FA03F322EA030303632868026B6368F5
:100AD00003EB8303233B218801FA03F313430363EE
:100AE000B1E72868C26A03EB8303413B1F2101FA87
:100AF00003F322EA0303C3622868C26A636803EB54
:100B00008303413B218801FA03F31343C3629AE74D
:100B10002368122B9BD1174A536843F48003536018
:100B200095E72368103B012B95D8124A536843F48C
:100B3000000353602368102B8DD10F4B1B6802F10B
:100B4000467202F52E3202F28332A2FB03239B0C83
:100B500003EB83035A000192019B002B3FF47BAF10
:100B6000019B013B0193F7E7022077E7002001405A
:100B70005C6F0008002301400C00002010B5044603
:100B8000C31E042B0FD80A4AD36823F4E0631B0466
:100B90001B0C240204F4E064234343F0BF6343F4DA
:100BA0000033D36010BDA421024801F0E9FEEAE75A
:100BB00000ED00E08C6F000870B505460C46164647
:100BC0000F2A0FD80F2C12D81B4BDB68C3F302235C
:100BD000C3F10702042A28BF0422191D06290BD9D4
:100BE000033B0AE0BC21154801F0CAFEEAE7BD213B
:100BF000124801F0C5FEE7E700234FF0FF3101FA8C
:100C000002F224EA02049C4001FA03F326EA0306F6
:100C10003443002D08DB2401E4B205F1604505F5FD
:100C2000614585F8004370BD05F00F052401E4B26D
:100C3000034B5C55F7E700BF00ED00E08C6F000848
:100C400014ED00E010B5041E08DB04F01F02640977
:100C500001239340044A42F8243010BDD0210348B8
:100C600001F08EFEF1E700BF00E100E08C6F0008AC
:100C70002DE9F04782B080460E46B84B984223D00B
:100C800003F5806398421FD003F5806398421BD020
:100C900003F58063984217D003F58063984213D020
:100CA00003F5806398420FD003F5806398420BD020
:100CB00003F58063984207D003F58063984203D020
:100CC000C521A74801F05CFE338833B37368012B5C
:100CD0001ED9112B1CD0022B1AD0122B18D0A14ACE
:100CE000934215D002F58012934211D002F5801282
:100CF00093420DD0A2F5F812934209D002F580126A
:100D0000934205D002F58012934201D0032B09D102
:100D1000B368022B0BD800244FE0C621904801F0A5
:100D20002FFED3E7C7218E4801F02AFEF0E7C82145
:100D30008B4801F025FEEEE7D921894801F020FE1D
:100D400067E0EC21864801F01BFE92E0082300E0FA
:100D500000238B4003430232834941F82230834B06
:100D60001A68FB4303EA0201706810F4803F01D067
:100D700047EA02017D4A1160526803EA0201706885
:100D800010F4003F01D047EA0201784A51609268AE
:100D900003EA0201706810F4801F01D047EA0201E3
:100DA000724A9160D2681340716811F4001F01D03B
:100DB00047EA02036D4AD36001340F2C00F2CB8066
:100DC0000125A54037682F40BD42F5D17368022B3D
:100DD00001D0122B2DD13369DBB1092B19D0012B96
:100DE00017D0022B15D0032B13D0042B11D0052BB9
:100DF0000FD0062B0DD0072B0BD0082B09D00A2BB8
:100E000007D00B2B05D00C2B03D00D2B01D00F2BB3
:100E100092D1E208083258F8220004F00703990042
:100E20000F238B4020EA030033698B40034348F8CB
:100E30002230D8F800204FEA440A4FF0030909FA9B
:100E40000AF96FEA090909EA0202736803F0030369
:100E500003FA0AF31343C8F8003073685A1E012AD4
:100E600003D9112B01D0122B18D1F368032B3FF6B5
:100E700068AFD8F8082009EA0202F36803FA0AF317
:100E80001343C8F80830D8F8042022EA0502736832
:100E9000C3F30015A5401543C8F80450D8F80C302A
:100EA00009EA0309B36803FA0AF343EA0903C8F835
:100EB0000C30736813F0805F3FF47EAF0023019322
:100EC0002B4B5A6C42F480425A645B6C03F48043AF
:100ED0000193019BA208911C234B53F8210004F0BD
:100EE000030399000F238B4020EA03001B4B984516
:100EF0003FF42EAF03F5806398451ED003F5806361
:100F000098451CD003F5806398451AD003F580639B
:100F1000984518D003F58063984516D003F5806393
:100F2000984514D003F58063984512D003F580638B
:100F300098453FF40BAF09230BE7012309E7022390
:100F400007E7032305E7042303E7052301E7062357
:100F5000FFE60723FDE602B0BDE8F087000002408F
:100F6000C06F00080000111000380140003C014033
:100F70000038024070B5064615460C4621B1012DD9
:100F800008D86DB1B46170BD40F2B111064801F0EE
:100F9000F7FCF4E74FF4D971034801F0F1FCF0E7F6
:100FA0002404B461EFE700BFC06F000830B583B020
:100FB000044603680F2B29D8236813F0010F3DD096
:100FC0006368012B01D9052B25D1A24B9B6803F047
:100FD0000C03042B29D09F4B9B6803F00C03082BB8
:100FE0001ED022799C4B1A706368002B50D0FFF7FB
:100FF00031FA0546974B1B6813F4003F1ED1FFF7EB
:1010000029FA401B6428F5D90320E3E1F521934830
:1010100001F0B6FCD0E7FA21904801F0B1FCD4E72A
:101020008C4B5B6813F4800FDBD08A4B1B6813F486
:10103000003F03D06368002B00F0C781236813F0E2
:10104000020F5CD0E368012B31D823691F2B34D801
:10105000804B9B6813F00C0F3AD07E4B9B6803F0DB
:101060000C03082B2FD0E368002B73D07C4B01229C
:101070001A60FFF7EFF90546764B1B6813F0020F75
:1010800059D1FFF7E7F9401B0228F5D90320A1E168
:10109000FFF7E0F905466F4B1B6813F4003FCDD016
:1010A000FFF7D8F9401B6428F5D9032092E14FF4EB
:1010B00096716A4801F064FCC7E740F22D11674859
:1010C00001F05EFCC4E7634B5B6813F4800FCAD188
:1010D000604B1B6813F0020F03D0E368012B40F054
:1010E00076815C48036823F0F8032169F82292FABC
:1010F000A2F2B2FA82F201FA02F213430360236809
:1011000013F0080F50D06369012B35D86369002BA9
:1011100038D0544B01221A60FFF79CF905464D4B1D
:101120005B6F13F0020F3FD1FFF794F9401B0228C9
:10113000F5D903204EE14748036823F0F8032169FD
:10114000F82292FAA2F2B2FA82F201FA02F2134300
:101150000360D4E7424B00221A60FFF77BF9054693
:101160003C4B1B6813F0020FC9D0FFF773F9401B0B
:101170000228F5D903202DE140F26D11374801F026
:10118000FFFBC3E7374B00221A60FFF763F9054600
:10119000304B5B6F13F0020F06D0FFF75BF9401B7B
:1011A0000228F5D9032015E1236813F0040F5FD05E
:1011B000A368012B01D9052B1FD100230193254BD7
:1011C0001A6C42F080521A641B6C03F08053019336
:1011D000019B254A136843F480731360FFF73AF9C3
:1011E0000546214B1B6813F4807F0CD1FFF732F9C1
:1011F000401B0228F5D90320ECE040F29711174874
:1012000001F0BEFBD9E7227A184B1A70A36883B1AC
:10121000FFF720F905460F4B1B6F13F0020F27D184
:10122000FFF718F9401B41F288339842F3D90320A5
:10123000D0E0FFF70FF90546064B1B6F13F0020FC6
:1012400016D0FFF707F9401B41F288339842F3D9D3
:101250000320BFE00038024002380240007000085E
:1012600000004742800E4742007000407038024044
:10127000A369022B39D8A369002B00F0AA80574A32
:10128000926802F00C02082A00F0A680022B40F0BF
:101290008880E36913B1B3F5800F2CD1236A3F2B0B
:1012A0002FD8636A323BB3F5BF7F30D8A36A022BD5
:1012B00005D0042B03D0062B01D0082B2DD1E36AD7
:1012C000043B0B2B2FD8464B00221A60FFF7C2F8C5
:1012D0000546424B1B6813F0007F2AD0FFF7BAF88F
:1012E000401B0228F5D9032074E04FF4E6713D4815
:1012F00001F046FBBFE740F2D5113A4801F040FB50
:10130000CCE74FF4EB71374801F03AFBC9E740F204
:10131000D711344801F034FBC8E74FF4EC71314881
:1013200001F02EFBCBE740F2D9112E4801F028FB4B
:10133000C9E7E369226A1343616A47F6C07292FA09
:10134000A2F2B2FA82F201FA02F21343A26A52083E
:10135000013A4FF4403191FAA1F1B1FA81F18A409A
:101360001343E16A4FF0706292FAA2F2B2FA82F28B
:1013700001FA02F21343194A5360194B01221A6011
:10138000FFF768F80446154B1B6813F0007F06D181
:10139000FFF760F8001B0228F5D903201AE00020AF
:1013A00018E00F4B00221A60FFF754F804460B4B6D
:1013B0001B6813F0007F06D0FFF74CF8001B0228D3
:1013C000F5D9032006E0002004E0012002E001201E
:1013D00000E0002003B030BD0120FBE700380240F0
:1013E0006000474200700008214B9B6803F00C032B
:1013F000042B38D0082B38D11D4B586800F03F0023
:101400005B6813F4800F1ED01A4AB2FBF0F2184B3F
:10141000586847F6C073184093FAA3F3B3FA83F3FE
:10142000D84000FB02F0124B5B6803F440334FF4EA
:10143000403292FAA2F2B2FA82F2D34001335B0058
:10144000B0FBF3F070470C4AB2FBF0F2084B58685F
:1014500047F6C073184093FAA3F3B3FA83F3D84066
:1014600000FB02F0DFE7034870470348704700BF06
:101470000038024000127A000024F40070B50446DF
:101480000D460368013B0E2B5ED8072D62D88C4BAE
:101490001B6803F00F03AB4208D2EBB2884A13700B
:1014A000136803F00F03AB4240F00481236813F08C
:1014B000020F18D0A3687BB1802B0DD0902B0BD0DE
:1014C000A02B09D0B02B07D0C02B05D0D02B03D038
:1014D000E02B01D0F02B43D17A4A936823F0F0033C
:1014E000A1680B439360236813F0010F7FD06368FA
:1014F000032B3BD86368012B3ED09A1E012A42D9A8
:10150000704A126812F0020F00F0D6806D498A68A6
:1015100022F0030213438B60FEF79CFF06466368CC
:10152000012B37D0022B44D0032B51D0654B9B6845
:1015300013F00C0F5BD0FEF78DFF801B41F2883358
:101540009842F3D90320A8E040F237215E4801F029
:1015500017FA9AE74FF40E715B4801F011FA96E71B
:1015600040F24F21584801F00BFAB5E740F25621FE
:10157000554801F005FABDE7524A126812F4003FDF
:10158000C4D1012089E04F4A126812F0007FBDD11A
:10159000012082E04B4B9B6803F00C03042B26D008
:1015A000FEF758FF801B41F288339842F2D903209E
:1015B00073E0444B9B6803F00C03082B17D0FEF735
:1015C00049FF801B41F288339842F2D9032064E03E
:1015D0003C4B9B6803F00C030C2B08D0FEF73AFF42
:1015E000801B41F288339842F2D9032055E0344BF6
:1015F0001B6803F00F03AB4207D9EAB2304B1A70F5
:101600001B6803F00F03AB4258D1236813F0040F9B
:1016100014D0E3685BB1B3F5805F08D0B3F5A05F89
:1016200005D0B3F5C05F02D0B3F5E05F36D1254AEF
:10163000936823F4E053E1680B439360236813F04D
:10164000080F15D023695BB1B3F5805F08D0B3F5FF
:10165000A05F05D0B3F5C05F02D0B3F5E05F23D142
:10166000184A936823F46043216943EAC1039360F5
:10167000FFF7BAFE134B9B6803F0F003F02292FAD7
:10168000A2F2B2FA82F2D340104AD35CD840104B97
:1016900018600F2000F0EEFD002070BD4FF42D719A
:1016A000094801F06DF9C2E740F2BB21064801F09C
:1016B00067F9D5E70120F0E70120EEE70120ECE72C
:1016C000003C02400038024000700008F06F000843
:1016D0000C000020014B1868704700BF0C00002070
:1016E00008B5FFF7F7FF074B9B6803F4E0534FF48F
:1016F000E05292FAA2F2B2FA82F2D340024AD35CEA
:10170000D84008BD00380240F06F000808B5FFF768
:10171000E1FF074B9B6803F460434FF4604292FA89
:10172000A2F2B2FA82F2D340024AD35CD84008BD9A
:1017300000380240F06F00080F2303600B4B9A68DB
:1017400002F0030242609A6802F0F00282609A6836
:1017500002F4E052C2609B68DB0803F4E0530361CB
:10176000034B1B6803F00F030B6070470038024007
:10177000003C024010B4036A046A24F001040462CD
:10178000846924F0F00444EA021223F00A030B43B4
:101790008261036210BC704710B4036A23F0100327
:1017A00003628469036A24F4704444EA023223F039
:1017B000A00343EA01138261036210BC704783688F
:1017C00023F0700341F0070119438160704710B4A2
:1017D000846824F47F4442EA03230B432343836059
:1017E00010BC704710B504460368234A934237D0B3
:1017F000B3F1804F34D0A2F57C42934230D002F551
:10180000806293422CD002F58062934228D002F588
:101810008062934224D002F58062934220D002F588
:10182000704293421CD002F57052934218D002F5D8
:101830008062934214D002F58062934210D0A2F5E8
:10184000983293420CD002F58062934208D002F5A0
:101850008062934204D04FF4B271084801F090F8CE
:101860002268D36843F00103D3602268136843F011
:1018700001031360002010BD00000140307000081B
:1018800038B590F83830012B00F0D8820D46044668
:10189000012380F83830022380F839300B68B3F523
:1018A000805F11D0B3F5005F0ED06BB1102B0BD061
:1018B000202B09D0302B07D0402B05D0502B03D044
:1018C000602B01D0702B52D12268936823F47F43A0
:1018D00023F0770393602B68402B00F007824CD9EC
:1018E000702B00F03A8100F2A780502B00F09C8111
:1018F000602B40F02B812368B74A93421FD0B3F18D
:10190000804F1CD0A2F57C42934218D002F5806231
:10191000934214D002F58062934210D002F57842CF
:1019200093420CD002F57052934208D0A2F5943243
:10193000934204D040F6BA71A84801F021F86B68D0
:10194000B3F5004F05D023B1022B02D00A2B40F093
:10195000C181EB680F2B00F2C381EA6869682068D7
:10196000FFF71AFF60212068FFF729FFEEE040F63D
:101970006D719A4801F004F8A6E7102B00F00C8274
:101980002ED9202B00F03182302B40F0DF802368ED
:10199000914A93421FD0B3F1804F1CD0A2F57C42F4
:1019A000934218D002F58062934214D002F580620F
:1019B000934210D002F5784293420CD002F5705257
:1019C000934208D0A2F59432934204D040F6E871D5
:1019D000824800F0D5FF30212068FFF7F0FEB5E027
:1019E000002B40F0B38023687B4A93421FD0B3F1B1
:1019F000804F1CD0A2F57C42934218D002F5806241
:101A0000934214D002F58062934210D002F57842DE
:101A100093420CD002F57052934208D0A2F5943252
:101A2000934204D040F6D6716C4800F0A9FF002123
:101A30002068FFF7C4FE89E0B3F5805F45D0B3F5B9
:101A4000005F40F083802368634A934217D0B3F16C
:101A5000804F14D0A2F57C42934210D002F58062F0
:101A600093420CD002F58062934208D002F578428E
:101A7000934204D040F69A71584800F081FF6B6899
:101A8000B3F5004F05D023B1022B02D00A2B40F052
:101A9000B980AB684BB1B3F5805F06D0B3F5005F9A
:101AA00003D0B3F5405F40F0B380EB680F2B00F23A
:101AB000B580EB686A68A9682068FFF788FE22682D
:101AC000936843F48043936040E02368424A934222
:101AD00037D0B3F1804F34D0A2F57C42934230D05E
:101AE00002F5806293422CD002F58062934228D0A6
:101AF00002F58062934224D002F58062934220D0A6
:101B000002F5704293421CD002F57052934218D0F5
:101B100002F58062934214D002F58062934210D0A5
:101B2000A2F5983293420CD002F58062934208D01D
:101B300002F58062934204D040F67971274800F0A4
:101B40001FFF2268936823F007039360012384F842
:101B50003930002084F8380038BD23681E4A93428B
:101B600017D0B3F1804F14D0A2F57C42934210D02D
:101B700002F5806293420CD002F58062934208D055
:101B800002F57842934204D040F68271134800F087
:101B9000F7FE6B68B3F5004F04D01BB1022B01D0E8
:101BA0000A2B1DD1AB6843B1B3F5805F05D0B3F507
:101BB000005F02D0B3F5405F18D1EB680F2B1BD844
:101BC000EB686A68A9682068FFF701FE22689368DD
:101BD00043F077039360B9E70000014030700008DC
:101BE00040F68471964800F0CBFEDBE740F6857145
:101BF000934800F0C5FEE0E740F68671904800F09B
:101C0000BFFEDDE740F69C718D4800F0B9FE40E76D
:101C100040F69D718A4800F0B3FE46E740F69E719B
:101C2000874800F0ADFE44E72368864A93422FD0F0
:101C3000B3F1804F2CD0A2F57C42934228D002F51C
:101C40008062934224D002F58062934220D002F554
:101C5000784293421CD002F57052934218D002F59C
:101C60008062934214D002F58062934210D0A2F5B4
:101C7000983293420CD002F58062934208D002F56C
:101C80008062934204D040F6AC716D4800F078FE5B
:101C90006B68B3F5004F04D01BB1022B01D00A2BA7
:101CA0000CD1EB680F2B0FD8EA6869682068FFF742
:101CB00061FD50212068FFF782FD47E740F6AF71D4
:101CC0005F4800F05DFEECE74FF47B615C4800F09C
:101CD00057FEE9E740F6BD71594800F051FE38E67D
:101CE00040F6BE71564800F04BFE36E62368554A72
:101CF00093422FD0B3F1804F2CD0A2F57C42934277
:101D000028D002F58062934224D002F5806293428B
:101D100020D002F5784293421CD002F570529342D3
:101D200018D002F58062934214D002F5806293428B
:101D300010D0A2F5983293420CD002F58062934203
:101D400008D002F58062934204D040F6C8713C4846
:101D500000F016FE6B68B3F5004F04D01BB1022BE8
:101D600001D00A2B0CD1EB680F2B0FD8EA686968F9
:101D70002068FFF7FFFC40212068FFF720FDE5E623
:101D800040F6CB712E4800F0FBFDECE740F6CC713D
:101D90002B4800F0F5FDE9E723682A4A93421FD05B
:101DA000B3F1804F1CD0A2F57C42934218D002F5CB
:101DB0008062934214D002F58062934210D002F503
:101DC000784293420CD002F57052934208D0A2F5AB
:101DD0009432934204D040F6DC71194800F0D0FDF3
:101DE00010212068FFF7EBFCB0E62368154A934208
:101DF0001FD0B3F1804F1CD0A2F57C42934218D083
:101E000002F58062934214D002F58062934210D0B2
:101E100002F5784293420CD002F57052934208D0FA
:101E2000A2F59432934204D040F6E271044800F0E7
:101E3000A7FD20212068FFF7C2FC87E602208BE681
:101E400030700008000001407047704770477047CD
:101E500010B5044603681A6912F0020F11D0DA684F
:101E600012F0020F0DD06FF002021A610123037607
:101E700003689B6913F0030F70D0FFF7E6FF0023A0
:101E8000237623681A6912F0040F12D0DA6812F070
:101E9000040F0ED06FF004021A6102232376236828
:101EA0009B6913F4407F5FD02046FFF7CEFF0023ED
:101EB000237623681A6912F0080F12D0DA6812F03C
:101EC000080F0ED06FF008021A61042323762368EE
:101ED000DB6913F0030F4ED02046FFF7B6FF002357
:101EE000237623681A6912F0100F12D0DA6812F004
:101EF000100F0ED06FF010021A61082323762368AA
:101F0000DB6913F4407F3DD02046FFF79EFF00239E
:101F1000237623681A6912F0010F03D0DA6812F0F1
:101F2000010F36D123681A6912F0800F03D0DA68E6
:101F300012F0800F34D123681A6912F0400F03D0D9
:101F4000DA6812F0400F32D123681A6912F0200FBC
:101F500003D0DA6812F0200F30D110BDFFF774FF04
:101F60002046FFF773FF8AE72046FFF76DFF204604
:101F7000FFF76CFF9BE72046FFF766FF2046FFF761
:101F800065FFACE72046FFF75FFF2046FFF75EFFE7
:101F9000BDE76FF001021A61204600F0AFF9C1E71A
:101FA0006FF080021A61204600F063F9C3E76FF01A
:101FB00040021A612046FFF74AFFC5E76FF0200292
:101FC0001A61204600F054F9C7E7000003682E4A62
:101FD000904212D0B0F1804F0FD0A2F57C429042D7
:101FE0000BD002F58062904207D002F580629042E9
:101FF00003D002F57842904203D123F070034A687F
:102000001343214A90422AD0B0F1804F27D0A2F545
:102010007C42904223D002F5806290421FD002F5AC
:10202000806290421BD002F57842904217D002F5B0
:102030007052904213D002F5806290420FD002F5A8
:10204000806290420BD0A2F59832904207D002F500
:102050008062904203D002F58062904203D123F463
:102060004073CA68134303608B68C3620B68836262
:10207000054B984203D003F58063984201D10B6968
:1020800003630123436170470000014000286ED0C4
:1020900010B504460368374A934236D0B3F1804FF7
:1020A00033D0A2F57C4293422FD002F58062934256
:1020B0002BD002F58062934227D002F580629342D2
:1020C00023D002F5806293421FD002F57042934202
:1020D0001BD002F57052934217D002F580629342F2
:1020E00013D002F5806293420FD0A2F5983293424A
:1020F0000BD002F58062934207D002F580629342D2
:1021000003D0D9211C4800F03BFCA3683BB1102B45
:1021100005D0202B03D0402B01D0602B17D1236991
:102120002BB1B3F5807F02D0B3F5007F14D194F8C2
:102130003930B3B1022384F83930214651F8040B09
:10214000FFF744FF012384F83930002010BDDA2165
:10215000094800F015FCE2E7DB21074800F010FC1D
:10216000E5E784F83830204602F024FBE2E701205E
:10217000704700BF000001403070000838B50446C9
:102180000D460368384A934227D0B3F1804F24D0DC
:10219000A2F57C42934220D002F5806293421CD08B
:1021A00002F58062934218D002F58062934214D007
:1021B00002F58062934210D002F5704293420CD037
:1021C00002F57052934208D0A2F59432934204D0A3
:1021D0004FF4CB61254800F0D3FB2B686BB1102B7B
:1021E0000BD0202B09D0302B07D0402B05D0502B03
:1021F00003D0602B01D0702B27D16B68802B00D0CF
:102200004BBB94F83830012B2BD0012284F83820B6
:10221000022384F8393021684B6823F070034B6047
:1022200021684B68286803434B6021688B6823F062
:1022300080038B6021688B68686803438B6084F837
:102240003920002084F8380038BD40F25961074831
:1022500000F096FBD1E740F25A61044800F090FB91
:10226000CFE70220F0E700BF0000014060700008E7
:102270007047704700B589B0002201463620FEF74E
:102280009BFC3620FEF7DEFC00230193174B1A6CF3
:1022900042F010021A641B6C03F010030193019BBF
:1022A00002A903A8FFF748FA069BBBB9FFF718FA83
:1022B0000F4BA3FB00239B0C013B0E480E4A026010
:1022C00040F2E732C2604360002303618360FFF79E
:1022D000DDFE38B1012009B05DF804FBFFF700FA1C
:1022E0004000E5E70348FFF77DFAF4E700380240D5
:1022F00083DE1B43B80D00200010004008B5FEF738
:10230000A1F808BD08B50248FFF7A2FD08BD00BF4F
:10231000B80D00202DE9F84304464268B44B9A42B8
:1023200000F29C80E3681BB1B3F5005F40F09C8035
:10233000236933B1B3F5806F03D0B3F5C06F40F0BC
:10234000998063694FF6F372134200D123B940F2CA
:102350005271A84800F014FB21680A6922F4405227
:10236000E36813430B612168CA6822F4164222F025
:102370000C02A3682069034360690343E0690343D7
:102380001343CB6021684A6922F44072A369134366
:102390004B61E369B3F5004F72D02368964A9342CC
:1023A00000F02E8102F58062934200F02981FFF750
:1023B00097F900EB800000EB80006568AD00B0FB92
:1023C000F5F58E4FA7FB05356D092E01FFF788F94E
:1023D00000EB800000EB80006568AD00B0FBF5F914
:1023E000FFF77EF900EB800000EB80006568AD0030
:1023F000B0FBF5F5A7FB05356D094FF0640808FB48
:1024000015952D013235A7FB05356D0905F0F00551
:102410003544FFF765F900EB800000EB800066684B
:10242000B600B0FBF6F6FFF75BF900EB800000EBBF
:10243000800063689B00B0FBF3F0A7FB003040090D
:1024400008FB10684FEA081808F13208A7FB0837A4
:10245000C7F3431723682F449F6027E140F24F7171
:10246000644800F08DFA5DE74FF4EA61614800F0DE
:1024700087FA5DE740F251715E4800F081FA60E74B
:1024800023685D4A93425BD002F58062934257D045
:10249000FFF726F900EB800000EB800065686D0017
:1024A000B0FBF5F5554FA7FB05356D092E01FFF77C
:1024B00017F900EB800000EB800065686D00B0FB51
:1024C000F5F9FFF70DF900EB800000EB800065687F
:1024D0006D00B0FBF5F5A7FB05356D094FF06408FD
:1024E00008FB1595ED003235A7FB05356D096D002C
:1024F00005F4F8753544FFF7F3F800EB800000EBC6
:10250000800066687600B0FBF6F6FFF7E9F800EBAE
:10251000800000EB800063685B00B0FBF3F3A7FB77
:1025200003235B0908FB13684FEAC80808F1320867
:10253000A7FB0837C7F3421723682F449F60B5E015
:10254000FFF7E4F800EB800000EB800065686D00A9
:10255000B0FBF5F5294FA7FB05356D092E01FFF7F7
:10256000D5F800EB800000EB800065686D00B0FBE3
:10257000F5F9FFF7CBF800EB800000EB8000656811
:102580006D00B0FBF5F5A7FB05356D094FF064084C
:1025900008FB1595ED003235A7FB05356D096D007B
:1025A00005F4F8753544FFF7B1F800EB800000EB57
:1025B000800066687600B0FBF6F6FFF7A7F800EB40
:1025C000800000EB800063685B00B0FBF3F3A7FBC7
:1025D00003235B0908FB13684FEAC80808F13208B7
:1025E000A7FB0837C7F3421723682F449F605DE0BD
:1025F000A037A00094700008001001401F85EB5127
:10260000FFF784F800EB800000EB80006568AD0008
:10261000B0FBF5F5264FA7FB05356D092E01FFF739
:1026200075F800EB800000EB80006568AD00B0FB42
:10263000F5F9FFF76BF800EB800000EB80006568B0
:10264000AD00B0FBF5F5A7FB05356D094FF064084B
:1026500008FB15952D013235A7FB05356D0905F0F1
:10266000F0053544FFF752F800EB800000EB8000E6
:102670006668B600B0FBF6F6FFF748F800EB80009E
:1026800000EB800063689B00B0FBF3F0A7FB003019
:10269000400908FB10684FEA081808F13208A7FB48
:1026A0000837C7F3431723682F449F60BDE8F883BA
:1026B0001F85EB512DE9F04105460F461646984619
:1026C000069C2B681B6837EA03030CBF0123002319
:1026D000B3421DD1B4F1FF3FF3D02CB1FDF7BAFEE8
:1026E000A0EB0800A042ECD92A68D36823F4D07389
:1026F000D3602A68536923F001035361202385F8CE
:10270000393085F83A30002385F83830032000E06E
:102710000020BDE8F0810000002800F0898010B59D
:1027200004468369002B53D00368424A93420FD07A
:10273000A2F54C4293420BD002F58062934207D03F
:1027400002F54C42934203D0FE213B4800F018F9B9
:10275000A36943B1B3F5807F05D0B3F5007F02D004
:10276000B3F5407F2FD1A36813B1B3F5805F4DD18E
:10277000E36913B1B3F5004F4ED194F83930002B13
:1027800050D0242384F839302268D36823F40053CE
:10279000D3602046FFF7BEFD2268136923F49043FF
:1027A00013612268536923F02A0353612268D368B6
:1027B00043F40053D3600020E063202384F83930D1
:1027C00084F83A3010BDFF211B4800F0D9F8CAE761
:1027D0000368184A9342C6D0A2F54C429342C2D035
:1027E00002F580629342BED002F580629342BAD075
:1027F00002F580629342B6D002F544429342B2D0D1
:1028000040F203110C4800F0BBF8ACE740F20511B0
:10281000094800F0B5F8ABE74FF48371064800F0C3
:10282000AFF8AAE784F83830204602F035F8A8E778
:102830000120704700100140947000082DE9F0411C
:1028400082B01E4690F83930DBB2202B52D10446BC
:102850000D469046002952D0002A52D090F83830C8
:10286000012B50D0012380F838300023C36321238B
:1028700080F83930FDF7EEFD0746A4F82480A4F86F
:10288000268010E000963B46002280212046FFF77C
:1028900011FF002839D12B882268C3F30803536045
:1028A0002369ABB90235E38CA3B1013BE384A36890
:1028B000B3F5805FE6D000963B460022802120469B
:1028C000FFF7F8FE18BB15F8012B23685A60EAE7FA
:1028D0000135E8E700963B46002240212046FFF7FD
:1028E000E9FE0346A8B9202284F83920002284F8A2
:1028F000382000E00223184602B0BDE8F081012331
:10290000F9E70123F7E70223F5E70323F3E70323BE
:10291000F1E70323EFE7FEE708B5034800F054F8BA
:102920000120FFF7F8FF00BFC470000808B5034698
:102930000C4A12685AB10B4A1068033323F00303A0
:102940000344094A934206D8064A136008BD054A63
:1029500006491160EFE703F033FE0C2303604FF0EC
:10296000FF30F3E71C0D002000FC0120500F002079
:1029700001230360014B0B60704700BF040000207F
:1029800008B50A460146024800F004F8FFF7C4FF04
:10299000D87000080FB400B583B004AB53F8042B13
:1029A00001938021074803F08BFE002804DC03B06C
:1029B0005DF804EB04B070470146024800F044F8AB
:1029C000F5E700BF240D002010B5044603F044FED7
:1029D0000146204600F038F80121024800F034F8A2
:1029E00010BD00BF647200082DE9F04385B00446B5
:1029F0000F46435633BB042528462146ABBE04464A
:102A0000384605B0BDE8F08304AA1344002203F859
:102A1000102C4FF00408E94640464946ABBE8046BC
:102A2000761B002EECD03546102E28BF1025002333
:102A3000AB42E9D214F9011B04AA1A4402F8101C93
:102A40000133F5E70E46ECE708B5FFF7CDFF08BD0B
:102A500008B500F093F8024A024B9A6008BD00BF27
:102A60000000000800ED00E0F8B504460D461746EA
:102A70001E462748FFF78EFF21682648FFF78AFF8A
:102A800061682548FFF786FFA1682448FFF782FFA9
:102A9000E1682348FFF77EFF21692248FFF77AFFAC
:102AA00061692148FFF776FFA1692048FFF772FFAF
:102AB000E1691F48FFF76EFF1E48FFF76BFF2946CD
:102AC0001D48FFF767FF1D4CE16A1D48FFF762FFD5
:102AD000216B1C48FFF75EFFE16B1B48FFF75AFFB5
:102AE00015F0800F0AD115F4004F0CD11748FFF7ED
:102AF00051FF06991648FFF74DFFF8BD39461548B6
:102B0000FFF748FFEFE731461348FFF743FFEDE7D4
:102B10000471000814710008247100083471000861
:102B20004471000854710008647100087471000851
:102B30008471000894710008A071000800ED00E0A5
:102B4000B0710008C0710008D07100080072000860
:102B500008720008E0710008F071000883691A88A3
:102B60008A4201D0002070470268033A012A01D945
:102B70000020704702338361012070470C4B1A68B4
:102B800042F001021A60002199601A6822F08472F2
:102B900022F480321A60074A5A601A6822F48022AE
:102BA0001A60D960044B4FF000629A60704700BF12
:102BB000003802401030002400ED00E0224B9B68FA
:102BC00003F00C03042B14D0082B16D01BB11F4BA1
:102BD0001F4A1A6002E01D4B1D4A1A601A4B9B687F
:102BE000C3F303131B4AD15C184A1368CB4013602C
:102BF0007047164B184A1A60F0E7134B5A685B6827
:102C000003F03F0312F4800F13D0134AB2FBF3F228
:102C10000D4B5B68C3F3881303FB02F30A4A526847
:102C2000C2F3014201325200B3FBF2F3074A1360D0
:102C3000D4E7074AB2FBF3F2034B5B68C3F3881394
:102C400003FB02F3EAE700BF003802400C0000205B
:102C50000024F4004C72000800127A0008B5FDF759
:102C6000F1FB01F07BFD08BD10B51348FDF7A8FD91
:102C7000124A536983F00103536164210E48FDF742
:102C800039FE0028F9D10D4A536983F001035361DD
:102C90000948FDF78AFE81B2094C21800948FFF7F7
:102CA00079FE4FF6FF73022221460748FFF7C6FD63
:102CB0000648FFF7CDF810BDF80D002000100240C7
:102CC000A40D00205C720008400E0020800E002041
:102CD000F0B58BB0002405940694079408940994E9
:102CE0000194264B1A6B42F004021A631A6B02F02D
:102CF00004020192019A02941A6B42F080021A6354
:102D00001A6B02F080020292029A03941A6B42F04C
:102D100001021A631A6B02F001020392039A0494EF
:102D20001A6B42F010021A631B6B03F0100304933A
:102D3000049B134E224601213046FEF71BF9012564
:102D40000595069507940327089705A93046FDF7D2
:102D50008FFFA6F5006622464FF4E0713046FEF77D
:102D600009F94FF4E073059306950794089705A9B0
:102D70003046FDF77DFF0BB0F0BD00BF00380240CC
:102D80000010024072B6FEE700B595B03022002177
:102D900008A803F029FC00230393049305930693EA
:102DA000079301931F4A116C41F080511164126C1A
:102DB00002F080520192019A02931B4B1A6842F46E
:102DC00080421A601B6803F480430293029B012334
:102DD0000893099302230E934FF480020F9204226A
:102DE0001092A822119212930723139308A8FEF7BA
:102DF000DDF898B90F23039302230493002305936E
:102E00004FF4A05306934FF480530793052103A872
:102E1000FEF734FB20B915B05DF804FBFFF7B2FFF5
:102E2000FFF7B0FF003802400070004008B50A48C4
:102E30000A4B03604FF4E133436000238360C360B7
:102E400003610C2242618361C361FFF765FC00B935
:102E500008BDFFF797FF00BF400E002000100140A3
:102E600000B585B0002300930193029303931248A9
:102E7000124A02604360836003610122826103623F
:102E8000C3620F498162C360C26103634261FDF79F
:102E9000A1FB60B9002300930122019202936946CD
:102EA0000548FDF785FD20B905B05DF804FBFFF787
:102EB00069FFFFF767FF00BFF80D00200020014009
:102EC0000100000F00B587B0002302930393049321
:102ED0000593009301931448144A02604FF47A72E8
:102EE000426083604FF6FF72C26003614361FFF787
:102EF000CDF890B94FF48053029302A90A48FEF727
:102F0000BFFC60B900230093019369460648FFF7B0
:102F100035F930B907B05DF804FBFFF733FFFFF771
:102F200031FFFFF72FFF00BF800E0020000001409F
:102F300008B5FDF76DFAFFF727FFFFF73FFEFFF734
:102F4000C7FEFFF7BFFFFFF771FFFFF789FF08BD5F
:102F500070B5DEB00446244D7C26324629463FA893
:102F600003F034FB3246A91920A803F02FFB01AB74
:102F700010221A605A609A600821D96019615A615A
:102F800099611A480568DD611A621948006858623B
:102F90009862DA621A635A639963DA63154E366887
:102FA0001E645A649964D9641A655A659A65D9652C
:102FB0000021196658669D66DA661A675A6798672F
:102FC0005EAA02EB840252F87C0C0B49086052F8AE
:102FD000F81C0A4A116053F82420094B1A60094B67
:102FE0001C605EB070BD00BF687200089C0C0020C1
:102FF000A00C0020880C0020380F0020C80E0020F4
:10300000E00E0020DC0E0020F8B504460E46854B8D
:10301000002219885868FDF7ADFF834B00221988FC
:103020005868FDF7A7FF814B002219885868FDF703
:10303000A1FF7F4B002219885868FDF79BFF7D4B4D
:10304000002219885868FDF795FF7B4B00221988EC
:103050005868FDF78FFF794B002219885868FDF7F3
:1030600089FF774B002219885868FDF783FF754B5D
:10307000002219885868FDF77DFF734B00221988DC
:103080005868FDF777FF714B002219885868FDF7E3
:1030900071FF6F4B002219885868FDF76BFF6D4B6D
:1030A000002219885868FDF765FF6B4B00221988CC
:1030B0005868FDF75FFF694B002219885868FDF7D3
:1030C00059FF674B002219885868FDF753FFF5B286
:1030D00015F0400F36D1E4B214F0020F39D114F0DC
:1030E00004073DD114F0010F41D115F0010F45D176
:1030F00015F0020F49D115F0040F4DD115F0080F4E
:1031000051D115F0100F55D115F0200F59D1002EC7
:103110005EDB14F0080562D114F0100F66D114F0D4
:10312000200F6AD1002F6FD1002D74D14D4C012298
:1031300021886068FDF71EFF002221886068FDF786
:1031400019FFF8BD374B012219885868FDF712FFA7
:10315000C1E7354B012219885868FDF70BFFBEE720
:10316000324B012219885868FDF704FFBAE7304B4B
:10317000012219885868FDF7FDFEB6E72D4B0122A4
:1031800019885868FDF7F6FEB2E72B4B0122198823
:103190005868FDF7EFFEAEE7284B01221988586802
:1031A000FDF7E8FEAAE7264B012219885868FDF7CB
:1031B000E1FEA6E7234B012219885868FDF7DAFEE5
:1031C000A2E7214B012219885868FDF7D3FE9EE73C
:1031D0001E4B012219885868FDF7CCFE99E71C4B5D
:1031E000012219885868FDF7C5FE95E7194B0122A1
:1031F00019885868FDF7BEFE91E7174B0122198820
:103200005868FDF7B7FE8DE7144B012219885868FE
:10321000FDF7B0FE88E7124B012219885868FDF7C8
:10322000A9FE83E7600C0020780C0020100C002021
:10323000700C0020000C0020080C0020400C002026
:10324000480C0020500C0020580C0020680C002076
:10325000180C0020200C0020280C0020300C00202E
:10326000380C0020A40C002010B50446064B0122A7
:1032700019885868FDF77EFE044B1A782146002015
:10328000FFF7C2FE10BD00BF940C0020E00E00202E
:1032900010B50446064B002219885868FDF76AFEEF
:1032A000044B1A7821460020FFF7AEFE10BD00BF88
:1032B000940C0020E00E002038B504460D46064B65
:1032C000012219885868FDF755FE044B1A782946E3
:1032D0002046FFF799FE38BD940C0020E00E002038
:1032E000F8B504460D461646B64B002219885868B4
:1032F000FDF740FEB44B002219885868FDF73AFEEE
:10330000B24B002219885868FDF734FEB04B0022FA
:1033100019885868FDF72EFEAE4B002219885868B0
:10332000FDF728FEAC4B002219885868FDF722FEF5
:10333000AA4B002219885868FDF71CFEA84B0022F2
:1033400019885868FDF716FEA64B002219885868A0
:10335000FDF710FEA44B002219885868FDF70AFEFD
:10336000A24B002219885868FDF704FEA04B0022EA
:1033700019885868FDF7FEFD9E4B00221988586891
:10338000FDF7F8FD9C4B002219885868FDF7F2FD07
:103390009A4B002219885868FDF7ECFD984B0022E3
:1033A00019885868FDF7E6FD15F0400F40F0E680FB
:1033B00014F0020F40F0E98014F0040740F0EC80B4
:1033C00014F0010F40F0EF8015F0010F40F0F28093
:1033D00015F0020F40F0188115F0040F40F01B812A
:1033E00015F0080F40F01E8115F0100F40F02181FC
:1033F00015F0200F40F0248115F0800F40F0278158
:1034000014F0080540F02A8114F0100F40F02D81CF
:1034100014F0200F40F03081002F40F03481002D57
:1034200040F038813746002EC0F23B813F11002525
:10343000BD4280F23981734C002221886068FDF71B
:1034400099FD012221886068FDF794FD0022218802
:103450006068FDF78FFD012221886068FDF78AFD15
:10346000002221886068FDF785FD012221886068BF
:10347000FDF780FD002221886068FDF77BFD0122B9
:1034800021886068FDF776FD002221886068FDF7DD
:1034900071FD012221886068FDF76CFD0022218802
:1034A0006068FDF767FD012221886068FDF762FD15
:1034B000002221886068FDF75DFD01222188606897
:1034C000FDF758FD002221886068FDF753FD0122B9
:1034D00021886068FDF74EFD002221886068FDF7B5
:1034E00049FD012221886068FDF744FD0022218802
:1034F0006068FDF73FFD012221886068FDF73AFD15
:10350000002221886068FDF735FD0122218860686E
:10351000FDF730FD002221886068FDF72BFD0122B8
:1035200021886068FDF726FD002221886068FDF78C
:1035300021FD012221886068FDF71CFD0022218801
:103540006068FDF717FD012221886068FDF712FD14
:10355000002221886068FDF70DFD01222188606846
:10356000FDF708FD002221886068FDF703FD0122B8
:1035700021886068FDF7FEFC013559E7114B0122F7
:1035800019885868FDF7F6FC12E70F4B01221988DD
:103590005868FDF7EFFC0FE70C4B012219885868BB
:1035A000FDF7E8FC0CE70A4B012219885868FDF783
:1035B000E1FC09E7074B012219885868FDF7DAFC9E
:1035C00006E700BF600C0020780C0020100C0020E3
:1035D000700C0020000C0020080C0020400C002083
:1035E000480C0020500C0020580C0020680C0020D3
:1035F000180C0020200C0020280C0020300C00208B
:10360000380C0020A40C0020354B01221988586882
:10361000FDF7B0FCE0E6334B012219885868FDF74E
:10362000A9FCDDE6304B012219885868FDF7A2FCA1
:10363000DAE62E4B012219885868FDF79BFCD7E685
:103640002B4B012219885868FDF794FCD4E6294BCE
:10365000012219885868FDF78DFCD1E6264B01221E
:1036600019885868FDF786FCCEE6244B012219889C
:103670005868FDF77FFCCBE6214B0122198858687A
:10368000FDF778FCC8E61F4B012219885868FDF742
:1036900071FCC4E61C4B012219885868FDF76AFCCE
:1036A000C0E606F10F07C1E616F00F0F16D1F8BD00
:1036B000164C002221886068FDF75CFC01222188FD
:1036C0006068FDF757FC0135724206F00F0302F007
:1036D0000F0258BF5342AB42EADAE8E70025F3E7AE
:1036E000080C0020400C0020480C0020500C00204A
:1036F000580C0020680C0020180C0020200C002022
:10370000280C0020300C0020380C0020A40C0020D5
:10371000F8B505460F4614461E461A4B1A781A4B42
:103720001B789A4225D02A20FFF7B2FD47F30720E5
:10373000FFF79AFD78B2FFF797FD46F30720FFF7F2
:1037400093FD70B2FFF790FD2B20FFF7A1FD45F32D
:103750000720FFF789FD68B2FFF786FD44F30720D5
:10376000FFF782FD60B2FFF77FFD2C20FFF790FD91
:10377000F8BD064B1B681A1B34461E1A0D46174629
:10378000D1E700BFAC0C0020840C0020C80E002044
:1037900008B50C4B1A780C4B1B789A4208D00B4B8F
:1037A0001B680B4A126800210846FFF7B1FF08BDED
:1037B000074B1B68054A126800210846FFF7A8FF5F
:1037C000F5E700BFAC0C0020A60D0020380F00204C
:1037D000C80E002010B5264B002219885868FDF746
:1037E000C9FBFFF7D5FF234B1B68012B05D1214BEC
:1037F0001B68102B08D0002420E01F4B01221988E1
:103800005868FDF7B7FBF2E71C4B1B681C4A1268AF
:10381000013203FB022200210846FFF761FD144B31
:10382000012219885868FDF7A5FBFFF7B1FF10BD0D
:10383000D2B200210846FFF7E7FB01340F4B1A68AC
:103840000F4B1B68013302FB0333A342E7DD094B37
:103850001A68012AECD1D2B200210120FFF7D4FB73
:10386000044B1A7800210120FFF7CEFBE5E700BFEB
:10387000F40B0020E00E0020940C0020380F0020F4
:10388000C80E0020054B186002781A7142785A71F0
:1038900082789A71C278DA71704700BF180F0020E1
:1038A00008B56FF01D00FFF7F3FC2320FFF7DCFCE9
:1038B0000220FFF7D9FC0420FFF7D6FC6FF01F00B1
:1038C000FFF7E6FC0120FFF7CFFC0120FCF7C8FD65
:1038D0006FF01F00FFF7DCFC0320FFF7C5FC0120A1
:1038E000FCF7BEFD0120FFF7D3FC0520FCF7B8FD77
:1038F0006FF01900FFF7CCFC0420FFF7B5FC6FF068
:103900006C00FFF7B1FC6FF01F00FFF7ADFC6FF02C
:103910004F00FFF7BDFC0020FFF7A6FC0020FFF7DB
:10392000A3FC0320FFF7A0FC1F20FFF79DFC012054
:10393000FFF79AFC6FF02000FFF796FC0020FFF7DE
:1039400093FC6FF04B00FFF7A3FC0320FFF78CFC08
:103950006FF05F00FFF788FC0020FFF785FC2E204A
:10396000FFF782FC3020FFF77FFC0020FFF77CFC94
:103970000F20FFF779FC0020FFF776FC6FF049007D
:10398000FFF786FC0220FFF76FFC0D20FFF76CFCB1
:103990000020FFF769FC1020FFF766FC1020FFF7FE
:1039A00063FC0020FFF760FC0820FFF75DFC6FF070
:1039B0004500FFF76DFC0520FFF756FC6FF0470050
:1039C000FFF766FC0720FFF74FFC0120FFF74CFCD8
:1039D0003620FFF75DFC2220FFF746FC6FF00F005A
:1039E000FFF756FC0320FFF73FFC0120FCF738FDF2
:1039F00040F2DF1340F21F3200210846FFF788FE35
:103A00002920FFF745FC6FF04100FFF741FC06203D
:103A1000FFF72AFC6FF00F00FFF726FC0120FFF7ED
:103A200023FC6FF00F00FFF71FFC0020FFF71CFCCA
:103A30000020FFF719FC6FF02F00FFF729FC0D2085
:103A4000FFF712FC2C20FFF723FC08BD00F0F80064
:103A500040B240EA5110054B1870C90021F01F0117
:103A600049B241EAD202024B1A707047BC0E0020E4
:103A7000C40E00200212024B1A70024B18707047DD
:103A8000BC0E0020C40E002000F0F80040B240EA56
:103A90005110074B1870C90021F01F0149B241EACB
:103AA000D202044B1A70044B00221A70704700BFF8
:103AB000040F0020F80E0020050F002010B51F4B4A
:103AC00018701F4B1B68012B30D10120FCF7C8FC7C
:103AD0001C4C002221886068FDF74CFA0120FCF79D
:103AE000BFFC012221886068FDF744FA0120FCF741
:103AF000B7FC154C002221886068FDF73BFAFFF700
:103B0000CFFE012221886068FDF734FAFF221146BA
:103B10001046FFF79BFF002211461046FFF7B4FF47
:103B200000230A4A13600A4A137010BD054B012294
:103B300019885868FDF71EFAC7E700BFAC0C0020D3
:103B4000E00E00208C0C0020F40B0020180F002049
:103B5000050F002070B504460E46151E18DB154BE8
:103B6000002219885868FDF705FA33466219314674
:103B70002046FFF7CDFD104B1B68102B0BD00D4BD3
:103B8000012219885868FDF7F5F9FFF701FE70BDAD
:103B90002C446D42E3E7094B012219885868FDF770
:103BA000E9F92A46064B1978064B1878FFF798FB77
:103BB000E5E700BFF40B0020E00E0020940C00208D
:103BC000C40E0020BC0E002070B506460C46151E23
:103BD00018DB154B002219885868FDF7CBF96319DB
:103BE000324621463046FFF793FD104B1B68102BE1
:103BF0000BD00D4B012219885868FDF7BBF9FFF770
:103C0000C7FD70BD2C446D42E3E7094B01221988C2
:103C10005868FDF7AFF92A46064B1978064B187815
:103C2000FFF75EFBE5E700BFF40B0020E00E00208D
:103C3000940C0020C40E0020BC0E00202DE9F84F8B
:103C400005460C469146994235D01E46824239D0EF
:103C500082423BDD171AA9453ADD4FF0010AB44212
:103C600039DAA6EB0408B44238DA4FF0010B294BDD
:103C7000002219885868FDF77DF9474531D24FEA8F
:103C80005809C9F1000923462A4621462846FFF76C
:103C90003FFD214B93F90010204B93F90000FFF7F3
:103CA0000BFBB4420CD05C4419EB0709EBD4554430
:103CB000A9EB0809E7E7121AFFF74CFFFFF768FDC9
:103CC000BDE8F88F5A1AFFF77FFFF7E7871AC2E7B8
:103CD0004FF0FF3AC3E7A4EB0608C4E74FF0FF3B01
:103CE000C5E77E08764223462A4621462846FFF746
:103CF0000FFD094B93F90010084B93F90000FFF7F3
:103D0000DBFA4D45DCD0554416EB0806EBD45C4499
:103D1000F61BE8E7F40B0020C40E0020BC0E0020C8
:103D200008B541B240F30720FFF7C6FA08BD00000E
:103D300070B505460E460E4C002221886068FDF7DE
:103D400019F933462A4631462846FFF7E1FC094B6C
:103D50001878094B1B7843EA0020FFF7E1FF0122A6
:103D600021886068FDF706F9FFF712FD70BD00BFFE
:103D7000F40B0020BC0E0020C40E00202DE9F047FB
:103D8000044688469146764B002219885868FDF70C
:103D9000F1F8744B1B78002B40F09680724B1A7828
:103DA000724B1B789A420DD0714A9779E41B1379B4
:103DB000DB08577907FB03F707FB04F704374FF0DD
:103DC000000A6AE06A4D2A7942446B794B44013B10
:103DD000013A49464046FFF79BFCAE79A41B2B797C
:103DE000DB086E7906FB03F606FB04F604360027B3
:103DF0001DE0604B1878604B1B7843EA0020FFF70A
:103E00008FFF0134E4B2072C0FD8C4F1070345FA41
:103E100003F313F0010FECD0584B1878584B1B7874
:103E200043EA0020FFF77CFFEBE7013601375049FA
:103E30000B79DA084B7903FB02F3BB4240F386802F
:103E40004B4B1B689D5D0024DDE74A4B18784A4BBD
:103E50001B7843EA0020FFF763FF0134E4B2072C2C
:103E60000DD845FA04F313F0010FEED0434B187848
:103E7000434B1B7843EA0020FFF752FFEDE7013E7A
:103E8000002E05DB3A4B1A68BB19D55C0024E6E727
:103E9000374B1B79DB081F449A4435490A79D3080C
:103EA000497901FB03F1514550DD9AFBF3F303EB34
:103EB000090142440B46013A4046FFF729FC2C4BCE
:103EC0001E79F608013EDBE7294A9379E41A137953
:103ED000DB0892F805A00AFB03FA0AFB04F404F1DC
:103EE000040A00272CE004EB080000EBC60007EBF7
:103EF00009014B1C421CFFF70BFC204B1878204B90
:103F00001B7843EA0020FFF70BFF0134E4B2072CD3
:103F100007D8C4F1070345FA03F313F0010FF4D0F7
:103F2000E1E70136124B1B79DB08B34206DD104B8B
:103F30001A680AEB0603D55C0024E8E79A440137C7
:103F40000B4B5B79BB4201DD0026EBE7044B012202
:103F500019885868FDF70EF8FFF71AFCBDE8F087DE
:103F6000F40B0020050F0020AC0C0020A60D002053
:103F7000180F0020040F0020F80E0020BC0E0020B7
:103F8000C40E00202DE9F04107460C4616461D469A
:103F9000904201DC06461746AC4202DC2B46254621
:103FA0001C46A7EB0608424629463046FFF7D2FDDD
:103FB000424621463046FFF7CDFD641B2246294686
:103FC0003046FFF701FE224629463846FFF7FCFD42
:103FD000BDE8F0812DE9F04F83B006460F46144648
:103FE0001D46904201DC04461646AF4202DC2B46D9
:103FF0003D461F46A6EB0408B8F1040F04DDA7EB0D
:104000000509B9F1040F02DC03B0BDE8F08F04F13B
:10401000010B05F1010A51465846FFF789FE731E50
:10402000514601931846FFF783FE07F1FF3A5146C8
:104030005846FFF77DFE51460198FFF779FE04F1DF
:10404000020AA8F10408424629465046FFF782FDBD
:10405000424639465046FFF77DFD0235A9F1040975
:104060004A4629462046FFF7AFFD4A4629463046D4
:10407000FFF7AAFDC8E700002DE9F04F8BB004461A
:10408000079191469846149801F06EFF6CA3D3E90E
:10409000002301F0D3FFCDE900016B4B002219880A
:1040A0005868FCF767FF69498B79E41A0B79DA08DD
:1040B0004B7903FB02F303FB04F30433099300235E
:1040C0000693CDF82090C146A6E0614B1878614B6D
:1040D0001B7843EA0020FFF723FE09F101095FFA8C
:1040E00089F9B9F1070F7FD809EBCA04574D95F844
:1040F00004800BFB0848DDE9000100F03BFC0646AC
:104100000F46404601F030FF32463B4601F096FF35
:1041100006460F46069801F027FFCDE90201DDE9CA
:10412000000100F06FFC02460B46DDE9020101F0E0
:1041300085FF02460B463046394601F0C7FD06466C
:104140000F46079801F010FF32463B4601F0C0FDD4
:1041500002F00EFA0646DDE9000100F00BFC024613
:104160000B46DDE9020101F069FFCDE902012F797B
:104170000BFB0747DDE9000100F044FC04460D4657
:10418000384601F0F1FE22462B4601F057FF024669
:104190000B46DDE9020101F09BFD04460D4608983F
:1041A00001F0E2FE22462B4601F092FD02F0E0F91A
:1041B0000146431C721C3046FFF7AAFAC9F10703F7
:1041C000059A42FA03F313F0010F7FF47EAF224BFE
:1041D0001B78002B81D1214B1878214B1B7843EAA7
:1041E0000020FFF79DFD78E70AF1010A174B1B79C4
:1041F000DB08534508DD154B1A68099B5344D65C10
:104200004FF0000905966CE7D946099A1A440992BD
:10421000069B0133DBB206930C4B5B79069A934203
:1042200003D90026B246CB46E0E7074B01221988A6
:104230005868FCF79FFEFFF7ABFA0BB0BDE8F08FB4
:10424000EC51B81E85EB913FF40B0020180F0020B5
:10425000BC0E0020C40E0020050F0020040F00201B
:10426000F80E00202DE9F04383B004460E46914637
:104270001F4602F0F1F980462C4B1A782C4B1B7824
:104280009A4209D042F20F739E4220D042F20E733E
:104290009E4224D0002537E042F20F739E420ED09A
:1042A00042F20E739E42F5D1224B1B680133224A23
:1042B000167908FB163606EBD6767610EAE71D4B24
:1042C0001B6801331C4A167900FB1636E8E71B4BC6
:1042D0001B680133184A167900FB1636D6E7174BD0
:1042E0001B680133144A167908FB163606EBD6769E
:1042F0007610CFE714F9010B00972B464A4631465A
:10430000C0B2FFF7B9FE013545450CDA002FF1D1F7
:1043100014F9010B084B19794A4605FB0161C0B23B
:10432000FFF72CFDEFE703B0BDE8F083AC0C0020F5
:10433000A60D0020380F0020180F0020C80E002006
:104340002DE9F0418EB09DF95070E8B933B93023B2
:104350008DF8003000238DF8013071E000205C1EE4
:10436000844205DD0EAC044404F8387C0130F6E7E5
:104370000EAB0344302403F8384C01300EAB184424
:10438000002300F8383C5BE0044600281FDB4FF0B8
:10439000000C0025002C1EDD2D4E86FB040EE017C0
:1043A000C0EBAE0000EB80004FEA400EA4EB0E0025
:1043B00000F130080DF1380EAE440EF81C8C0135BA
:1043C000201A86FB0064C017C0EBA404E2E7444255
:1043D0004FF0010CDDE700240EA8284400F81C4C27
:1043E000BCF1000F02D02D208DF800006646AC44D1
:1043F0009C451DDB00240027BD421BDDE81B013866
:10440000F31923440DF1380E704410F91C0C734459
:1044100003F8380C0137EFE730190DF1380E70440E
:1044200000F8387C0134581B801BA042F4DCE2E722
:104430000024F8E764440EAB1C44002304F8383C25
:1044400000236846FFF70EFF0EB0BDE8F08100BF05
:10445000676666662DE9F04186B0804616461F46BF
:104460009DF83420224B93E803000390ADF8101020
:104470000024CDF81240752300930194ADF8084054
:1044800015461C49684602F0B7F8234601249D42B0
:1044900004D004EB840254000133F8E7164968465F
:1044A00002F0CAF8694603A802F0C6F83046394659
:1044B00002F05EF8054601F057FD02460B46304615
:1044C000394601F003FC06460F46204601F04CFD3C
:1044D00032463B4601F0B2FD02F04AF803462A4656
:1044E00003A9404602F088F806B0BDE8F08100BF9D
:1044F000607300086C730008707300082DE9F047C2
:104500008AB0804689461E469DF94C509DF954401C
:104510002AB19246052A04D94FF0050A01E04FF06E
:10452000010A002200234046494601F0F9FF68B91C
:104530000027CDF804A0149B009342464B4603A8E5
:10454000FFF788FF2E2D11D0002302E00127F0E7AE
:1045500001331A2B0AD80AAA1A4412F91C2C2E2A43
:10456000F6D10AAA1A4402F81C5CF1E7202C25D0E7
:1045700017B32D238DF80C30012304E00AAA1A4446
:1045800002F81C4C01331A2B18D80AAA1A4412F943
:104590001C2C202AF2D02D2AF4D1EFE701331A2B5C
:1045A0000CD80AAA1A4412F91C2C202AF6D10AAAFD
:1045B0001A4402F81C4CF1E70023F0E70023129A9A
:1045C000314603A8FFF74EFE0AB0BDE8F0870000B1
:1045D00000B585B05848FEF7F7F9584B19685848A8
:1045E000FEF7D8F9292300932823272226215548AE
:1045F0000068FEF7ADFC544B1878FFF75FFA53489C
:10460000FFF740F9FFF7E6F84FF47A70FBF728FF61
:104610004F4B504A1A604FF48060FFF72BFA4FF46B
:10462000EB714FF4BE70FFF783FB4FF4FA70FBF7AA
:1046300017FFC82264210846FFF7C6FA4FF4FA7044
:10464000FBF70EFF4FF4C87264210846FFF782FAA9
:104650004FF4FA70FBF704FF4FF6FF70FFF70AFA0A
:10466000C8234FF4C87219461846FFF7E7FA4FF40B
:10467000FA70FBF7F5FE4FF47840FFF7FBF933488B
:10468000FFF700F94FF4AF724FF496716120FFF716
:1046900075FB4FF4FA70FBF7E3FEC8234FF4FA7290
:1046A00064211846FFF76EFC4FF4FA70FBF7D8FE52
:1046B0004FF4C8734FF4FA724FF49671C820FFF7A5
:1046C00089FC4FF4FA70FBF7CBFE5A234FF4C87203
:1046D0004FF496712048FFF7C5FD4FF4FA70FBF7D1
:1046E000BFFE0023009302234FF4C8724FF42F71D2
:1046F0000C20FFF725FE4FF4FA70FBF7B1FE144BC8
:10470000186801F043FC20230393042202922E2315
:1047100001934FF4C873009340F22623FFF7EEFE97
:104720004FF4FA70FBF79CFEFFF754F84FF4FA7061
:10473000FBF796FE6FE700BF747300080C000020C3
:1047400088730008FC0B0020840C0020100000205F
:10475000EC0E00203333D33FA073000808B50F4A96
:104760001368013313600E4A11680E4AB2FBF1F26E
:10477000934200D208BD094B00221A600A48FCF798
:104780001FF8FF210848FCF7B5F80028F9D10648C2
:10479000FCF70BF9054B1880ECE700BFA80D0020D3
:1047A000800C002040420F00F80D0020A40D0020D6
:1047B0007047000010B584B00368334A93420AD0B2
:1047C000B3F1804F24D0314A934235D0304A9342DE
:1047D00046D004B010BD002400942E4B5A6C42F019
:1047E00001025A645B6C03F001030093009B2246B4
:1047F00021461920FCF7E0F91920FCF723FA22469C
:1048000021461A20FCF7D8F91A20FCF71BFAE0E73A
:104810000021019103F50E331A6C42F001021A6473
:104820001B6C03F0010301930A461C20FCF7C4F93A
:104830001C20FCF707FACCE700210291154B1A6CFB
:1048400042F010021A641B6C03F010030293029BE7
:104850000A463620FCF7B0F93620FCF7F3F9B8E742
:10486000002103910B4B1A6C42F480721A641B6C8A
:1048700003F480730393039B0A462D20FCF79CF9F5
:104880002D20FCF7DFF9A4E70000014000100040F4
:10489000002000400038024000B589B00023039397
:1048A0000493059306930793026803F1804303F58D
:1048B00088339A4202D009B05DF804FB00210191CF
:1048C00003F594335A6C42F010025A645A6C02F0A9
:1048D00010020192019A02911A6B42F001021A63CE
:1048E0001B6B03F001030293029B4FF4C06303931D
:1048F00002230493032306930723079303A9024883
:10490000FCF7B6F9D7E700BF0000024000B589B058
:10491000002303930493059306930793026803F11E
:10492000804303F590339A4202D009B05DF804FB4E
:104930000021019103F58C335A6C42F480725A6461
:104940005A6C02F480720192019A02911A6B42F041
:1049500001021A631B6B03F001030293029B012304
:1049600003930323049303A90148FCF781F9DCE7CF
:104970000000024030B5214A21F00043934287B045
:104980001BDD1F4A934205DD02460B4601F09EF9EE
:1049900007B030BD02AA00F07FF800F00300012844
:1049A00011D0022820D0C0B101230093DDE902011B
:1049B000DDE9042300F0CCFFEAE70022002300F049
:1049C00087FA07B030BD0090DDE90423DDE902017C
:1049D00000F0BEFF01F10041DAE7DDE90423DDE983
:1049E000020100F075FAD3E7DDE90423DDE90201F5
:1049F00000F06EFA01F10041CAE700BFFB21E93F78
:104A0000FFFFEF7F30B5224A21F00043934287B089
:104A10001BDD204A934205DD02460B4601F056F9A4
:104A200007B030BD02AA00F037F800F003000128FB
:104A300013D0022821D0B8B1DDE90423DDE9020159
:104A400000F046FA01F10041EAE70023009300225A
:104A5000002300F07DFF07B030BDDDE90423DDE970
:104A6000020100F035FADBE701230093DDE90201E2
:104A7000DDE9042300F06CFFD2E701230093DDE9B8
:104A80000201DDE9042300F063FF01F10041C7E703
:104A9000FB21E93FFFFFEF7F2DE9F04FBE4C21F0F6
:104AA0000045A5428FB040F382801446BB4A954230
:104AB0000E4626DC0029AEA3D3E9002340F3B381E0
:104AC00001F004F9B64B9D4206460F4600F0848083
:104AD000A9A3D3E9002301F0F9F802460B46C4E983
:104AE00000233946304601F0F1F8A3A3D3E90023AF
:104AF00001F0ECF8C4E90201012738460FB0BDE827
:104B0000F08FA84A954240F38780A74A954259DC26
:104B10002F15A7F21647A5EB07518946804601F0ED
:104B200027FD01F021FA82468B464046494652460F
:104B30005B46CDE908AB01F0C9F800229B4B01F0C0
:104B40007DFA8946804601F013FD054601F00CFA16
:104B500002460B4640464946CDE90A2301F0B6F825
:104B60000022924B01F06AFA00220023CDE90C01E9
:104B700001F0CCFC002800F0F680002D0CBF0123D2
:104B800002238B4A019202213A46009108A821464D
:104B900000F0C2FA002E0746AFDA6268E36802F15D
:104BA000004203F1004347426260E360A5E700274B
:104BB00000240025C2E900013846C2E902450FB0D1
:104BC000BDE8F08F02460B4601F080F80027C4E9EB
:104BD0000201C4E9000190E769A3D3E9002301F0D1
:104BE00075F869A3D3E9002306460F4601F06EF875
:104BF00002460B46C4E900233046394601F066F808
:104C000061A3D3E9002301F061F80127C4E902019F
:104C100038460FB0BDE8F08F00F050FF5CA3D3E939
:104C200000238046894601F009FA0022614B01F019
:104C30004FF801F09DFC074601F096F94CA3D3E92B
:104C4000002382468B46CDE904AB01F0F7F902461A
:104C50000B464046494601F039F847A3D3E9002303
:104C6000CDE902015046594601F0E8F91F2F804670
:104C7000894602460B46DDE9020128DC01F026F8F0
:104C80004D4B7A1E834653F82230AB428A4622D0DF
:104C90005A465346C4E900235A465346DDE9020109
:104CA00001F014F842464B4601F010F8002E02467F
:104CB0000B46C4E90223BFF620AF0AF1004301F11D
:104CC0000041C4E900B3C4E902017F4215E700F0E6
:104CD000FDFF83468A462D15CAF30A53EB1A102BA3
:104CE000D6DD27A3D3E90023DDE9040101F0A6F90D
:104CF0008046894602460B46DDE9020100F0E6FFE8
:104D000082468B4602460B46DDE9020100F0DEFFDB
:104D100042464B4600F0DAFF1BA3D3E9002380464E
:104D20008946DDE9040101F089F942464B4600F06D
:104D3000CDFF0B4602468046894650465946CDE98E
:104D400006AB00F0C3FFC1F30A53ED1A312D8346C1
:104D50008A4633DC02460B46C4E90023DDE906231C
:104D6000CDE9022398E703230BE700BFAFF30080F0
:104D700000004054FB21F93F3163621A61B4D03D19
:104D80000000601A61B4D03D7370032E8A19A33BF2
:104D900083C8C96D305FE43FFB21E93F7BD9024006
:104DA000FB21F93FFB213941FFFFEF7F00007041FC
:104DB000287400080000E03FA873000838A3D3E976
:104DC0000023DDE9040101F039F9804689460246F5
:104DD0000B46DDE9060100F079FF82468B4602466C
:104DE0000B46DDE90601CDE902AB00F06FFF42465C
:104DF0004B4600F06BFF2CA3D3E900238046894685
:104E0000DDE9040101F01AF942464B4600F05EFF6D
:104E100002460B46804689465046594600F056FFEA
:104E200083468A4634E700F053FF274B9D420646EF
:104E30000F4616D01EA3D3E9002300F049FF024617
:104E40000B46C4E900233946304600F03FFF18A363
:104E5000D3E9002300F03CFF4FF0FF37C4E9020123
:104E60004BE615A3D3E9002300F032FF14A3D3E9E6
:104E700000230F46064600F02BFF02460B46C4E90E
:104E800000233946304600F021FF0DA3D3E900236B
:104E900000F01EFF4FF0FF37C4E902012DE600BF0E
:104EA0000000002E8A19A33BC14920259A837B3933
:104EB0003163621A61B4D03D0000601A61B4D03D24
:104EC0007370032E8A19A33BFB21F93F00000000F9
:104ED0002DE9F04F21F00046B6F1795F85B00C4620
:104EE00092469B4605466BDA01F042FB002800F033
:104EF000E8802A4623462846214601F09FF874A3FD
:104F0000D3E900238046894601F098F872A3D3E9DB
:104F1000002300F0DDFE42464B4601F08FF870A3FF
:104F2000D3E9002300F0D2FE42464B4601F086F85A
:104F30006DA3D3E9002300F0CBFE42464B4601F0BF
:104F40007DF86BA3D3E9002300F0C0FE42464B4638
:104F500001F074F868A3D3E9002300F0B9FE4246DB
:104F60004B4601F06BF8CDE900010022644B40464E
:104F7000494601F063F8DDE9002306460F46404646
:104F8000494601F05BF85246804689465B46284612
:104F9000214601F053F802460B464046494600F0D0
:104FA00095FE02460B463046394600F08FFE02461B
:104FB0000B460020534900F089FE05B0BDE8F08F94
:104FC00002460B4601F03AF841A3D3E9002380469C
:104FD000894601F033F840A3D3E9002300F078FEBE
:104FE00042464B4601F02AF83DA3D3E9002300F0E6
:104FF0006DFE42464B4601F021F83BA3D3E9002366
:1050000000F066FE42464B4601F018F838A3D3E99B
:10501000002300F05BFE42464B4601F00FF836A33A
:10502000D3E9002300F054FE4B46424601F006F857
:10503000354B9E42CDE9000197DD344B9E424FF047
:10504000000238DCA6F5001300202E4916461F4644
:1050500000F03CFECDE902010022294B40464946C2
:1050600000F0ECFF32463B4600F030FEDDE9002365
:1050700006460F464046494600F0E0FF524680464D
:1050800089465B462846214600F0D8FF02460B467B
:105090004046494600F01AFE02460B463046394665
:1050A00000F014FE02460B46DDE9020100F00EFEA0
:1050B00005B0BDE8F08F164B164FCDE90223002650
:1050C000CAE71049002005B0BDE8F08FAFF30080BB
:1050D000D43888BEE9FAA8BDC4B1B4BD9EEE213E65
:1050E000AD529C804F7E923E9015CB19A001FA3EA6
:1050F0007751C1166CC1563F4C5555555555A53F76
:105100000000E03F0000F03F3233D33F0000E93FB2
:105110000000E73F0000D23F2DE9F04FADF5197DCB
:10512000B64CA29D089354F825400594013B12F11A
:10513000140F06460B910393C0F2C882B049D31EE8
:1051400081FB0301DB17C3EBA10307930133A3EB3F
:105150008303DB00D3180693079A039BD41A059A9E
:10516000D7181BD40137274420AD4FF000084FF06B
:105170000009DDF88CA208E05AF8240000F0F4FEE3
:105180000134BC42E5E8020108D0002CF4DA013415
:1051900040464946BC42E5E80201F6D1059B002B9A
:1051A000C0F2B583089BA6F10802DB0002EB0308FE
:1051B000049220AA02EB030A0193059B72AA02EB58
:1051C000C30B0DF5E079039B002BC0F29A81049C80
:1051D00055460026002775E90223F4E9020100F094
:1051E0002DFF02460B463046394600F071FD44451E
:1051F00006460F46EFD1E9E80267D9450AF1080AE9
:10520000E1D10198049C0599019120448B008346CB
:105210000BA8A3F10802C3180A930CAB134409931B
:10522000019A98A901EBC203002A53E9284529DD18
:105230000DF5E07A0AEBC2080DF130090022714B3E
:105240002046294600F0FAFE01F092F900F08CFEAB
:1052500000226D4B06460F4600F0F0FE02460B465C
:105260002046294600F032FD01F082F978E9022358
:1052700049F8040B3946304600F02AFDD045044673
:105280000D46DBD1DDF81890204629464A4600F04D
:105290009FFC00224FF07F5304460D4600F0CEFEE7
:1052A00000F012FC0022594B00F0C8FE02460B46EB
:1052B0002046294600F00AFD0D46044601F058F943
:1052C000804600F051FE0B4602462946204600F07B
:1052D000FDFC4B46002B06460F4640F39980019A91
:1052E0000CA9013AC9F1180351F8225045FA03F10B
:1052F00001FA03F3EB1AC9F117050CA843FA05F5F7
:10530000002D40F82230884400F38C8000220023D6
:105310003046394601F0FAF8002800F09C82019BE3
:10532000059A03F1FF394A4510DC03F180430CAACA
:10533000013B0A9802EB8303002253F804198342CD
:1053400042EA0102F9D1002A40F0E580059B0CAA4F
:10535000013B52F82330002B40F0CE80099A012304
:1053600052F8041901330029FAD001994A1CCB18CC
:1053700002939146079B089902EB030A019B0B4499
:105380001D4620AB0AF1804A03EBC505A39B0AF139
:10539000FF3A03EB8A0A70AB03EBC20301935AF89E
:1053A000040F00F0E1FD039BA846002BE8E8020192
:1053B00020DB083D049C0026002701E075E802017F
:1053C000F4E9022300F03AFE02460B463046394625
:1053D00000F07EFC5C4506460F46EFD1019BE3E8FA
:1053E00002670193029B09F1010999454546D6DD03
:1053F000019315E700260027F0E700BF707500084D
:10540000ABAAAA2A0000703E0000704100002040B4
:1054100069D1019B0CAA013B52F82350ED15002DD8
:105420007FF774AF019B002B08F1010840F3118254
:105430000C9C002C3AD1019B012B09D00CA9012214
:1054400051F8044F531C9CBB1A46019B9342F7D161
:10545000069B002B0EDD012B00F01B81022B09D1D6
:10546000019B5A1E0CAB0CA953F82230C3F3150351
:1054700041F82230022D7FF449AF32463B460020EE
:10548000974900F023FC06460F46002C3FF43EAF40
:10549000069A9349002000F09BFB02460B463046DB
:1054A000394600F013FC06460F462FE70123002281
:1054B0000CA9C4F1807441F822400199994210DD91
:1054C0000CAA0CA852F8232000EB830300EB810008
:1054D0006FF07F4100E01A688A1A43F8042B834278
:1054E000F9D10124B4E700227E4B01F02DF8002809
:1054F00040F0DA80054609E7019B5A1C914602926A
:1055000038E700260027E9E80267D9450AF1080ACA
:105510007FF459AE75E60CAB069A53F82930CDF8F6
:105520001C80183A0495069273B9019B03F18043DD
:10553000023B0CA901EB830353F8041909F1FF396D
:10554000183A0029F8D00692069A6549002000F022
:105550003FFBB9F1000F04460D46C0F2DF814FEA70
:10556000C90370AA02EB0308069309F101060CAB0C
:10557000DFF874B108F1080703EB86064FF0000A64
:1055800056F8040D00F0F0FC22462B4600F056FDC4
:105590005B4667E9020152462046294600F04EFD6F
:1055A0000CAB9E4204460D46EAD1CDF80890DDF8DA
:1055B000149048ABB9F1000F0393C34601934FF029
:1055C000000A2BDBDFF824815D4643A3D3E90023E7
:1055D00000260027002403E0544510DCF8E80223ED
:1055E000F5E8020100F02AFD02460B463046394636
:1055F00000F06EFB0134A14506460F46ECDA019B34
:10560000029AE3E8026792450193ABF1080B0AF1B5
:10561000010306D0B9F1000F9A46D3DA002600271D
:10562000EDE7A29BDDF80890032B2BD8DFE813F001
:10563000F100E000E000620000252C4623462A46E7
:10564000DDE9480100F042FB049B002B40F03F8164
:1056500023460B9C2A46B9F1000FC4E900230CDD58
:1056600048AD0124F5E90223013400F031FBA145E6
:10567000F8DA049B0BB101F100410B460B9902468D
:10568000C1E90223079B03F007000DF5197DBDE872
:10569000F08F019B5A1E0CAB0CA953F82230C3F3B8
:1056A000160341F82230E5E6019B002B08F10108C2
:1056B000C8BF02253FF7BCAE32463B460020084932
:1056C00000F004FB022506460F461FE600216FF09E
:1056D000170307913EE500BF00000040FB21F93FA2
:1056E0000000F03F0000E03F0000703E3875000809
:1056F00048AB0393B9F1000F40F32381039A4FEABB
:10570000C90302EB0308D8E900AB019358E902672B
:1057100052465B463046394600F0DAFA04460D46FA
:1057200002460B463046394600F0D0FA5B465246F8
:1057300000F0CEFAC8E9000168E90245039B434541
:10574000A246AB46E2D1B9F1010F40F3FA80019BCA
:10575000039A1344D3E900AB1C461D4655E9028960
:1057600052465B464046494600F0B2FA06460F46AE
:1057700002460B464046494600F0A8FA5B465246B0
:1057800000F0A6FAC5E9000165E902674AABAB4241
:10579000B246BB46E2D10399002308341A4601F110
:1057A00010051846114674E9022300F091FAA5424B
:1057B00003460A46F5D10399D1E9008CD1E902E903
:1057C0000499002940F08D8018460B9B464674468C
:1057D00067464D461146C3E90401C3E90067C3E9C2
:1057E0000245079B03F007000DF5197DBDE8F08F1A
:1057F000069E039F083600253E442C462846214637
:1058000076E9022300F064FAB74205460C46F5D16A
:1058100014E7069C039D083400222C4413461046CE
:10582000194674E9022300F053FAA54202460B46DA
:10583000F5D1049909B103F1004319460B9B1046B9
:10584000C3E90001079B03F007000DF5197DBDE8D2
:10585000F08F0024FCE53946069F04957A423046D5
:10586000CDF81C8000F0B4F90022374B04460D46F9
:1058700000F06AFE08B30022344B2046294600F0AF
:10588000DDFB00F075FE064600F06EFB00222E4B9D
:1058900000F0D4FB02460B462046294600F016FADB
:1058A00000F066FE019B0CAA03F10109183742F8CB
:1058B0002300069742F8296046E62046294600F074
:1058C00057FE019B0CAA994642F823003CE60B9B2D
:1058D00004F10044B9F1000FC3E900543FF7C0AE32
:1058E000C9E60B9C2361079BC4F800800CF10040C3
:1058F00009F1004102F10042606003F00700E1603D
:105900006261C4F808E00DF5197DBDE8F08FA6F1DD
:1059100008030493089BDB00019372E4A29B032B12
:105920003FF6B0AE01A252F823F000BF3D59000887
:105930003956000839560008F1560008002213466F
:1059400077E700231A4636E7000070410000703EFA
:105950002DE9F04F21F00046B6F1795F85B00C4695
:1059600090469946054604DA00F002FE002800F051
:1059700085802A4623462846214600F05FFB0646DE
:105980000F4602460B462846214600F057FB3EA331
:10599000D3E9002382468B463046394600F04EFB61
:1059A0003BA3D3E9002300F091F932463B4600F0D7
:1059B00045FB39A3D3E9002300F08AF932463B4680
:1059C00000F03CFB36A3D3E9002300F07FF9324618
:1059D0003B4600F033FB34A3D3E9002300F078F911
:1059E0000E9BCDE900019BB30022334B4046494654
:1059F00000F024FBDDE90023CDE9020150465946C1
:105A000000F01CFB02460B46DDE9020100F05EF9E6
:105A100032463B4600F012FB42464B4600F056F938
:105A200023A3D3E9002306460F465046594600F00B
:105A300005FB02460B463046394600F049F902465E
:105A40000B462846214600F041F905B0BDE8F08F2D
:105A500002460B463046394600F0F0FA14A3D3E96B
:105A6000002300F033F952465B4600F0E7FA2A467D
:105A7000234600F02DF905B0BDE8F08F28462146F9
:105A800005B0BDE8F08F00BF7CD5CF5A3AD9E53DCF
:105A9000EB9C2B8AE6E55A3E7DFEB157E31DC73EDF
:105AA000D561C119A0012A3FA6F810111111813F3B
:105AB000495555555555C53F0000E03F21F000437D
:105AC0001946704700000000C1F30A522DE9F04169
