:020000040800F2
:1000000000000220B9020008BF020008C302000875
:1000100035030008390300088103000800000000D0
:10002000000000000000000000000000C9030008FC
:10003000CD03000800000000D10300087D2C00085B
:10004000E5030008E5030008E5030008E5030008F0
:10005000E5030008E5030008E5030008E5030008E0
:10006000E5030008E5030008E5030008E5030008D0
:10007000E5030008E5030008E5030008E5030008C0
:10008000E5030008E5030008E5030008E5030008B0
:10009000E5030008E5030008E5030008E5030008A0
:1000A000E5030008892C0008E5030008E5030008C3
:1000B000E5030008E5030008E5030008E503000880
:1000C000E5030008E5030008E5030008E503000870
:1000D000E5030008E5030008E5030008E503000860
:1000E000E5030008E5030008E5030008E503000850
:1000F000E5030008E5030008E5030008E503000840
:10010000E5030008E5030008E5030008E50300082F
:10011000E5030008E5030008E9220008E5030008FC
:10012000E5030008E5030008E5030008E50300080F
:10013000E5030008E5030008E5030008E5030008FF
:10014000E5030008E5030008E5030008E5030008EF
:10015000E5030008E5030008E5030008E5030008DF
:10016000E5030008E5030008E5030008E5030008CF
:10017000E5030008E5030008E503000800000000AF
:10018000E5030008E503000800B583B002F052FC67
:10019000384B394A1360394A1360394900E0214627
:1001A000384B99420BD20A684B6801F10C048868FD
:1001B0009842F4D952F8041B43F8041BF8E72E4B7D
:1001C0001A68314B9A4200D0FEE72C4B1A682F4B2D
:1001D0009A42F9D1274B2E4A13602E4A13602E4AB9
:1001E00005E0002043F8040B9A42FAD80A462B4B4C
:1001F0009A4204D2114651F8083B5268F4E7244B66
:100200001B6813B9234B1B6803B1FEE702F0A0FE85
:10021000694601A802F09EFB214C224BE41AA4106F
:10022000002504E01F4B53F8253098470135AC42B8
:10023000F8DC1D4C1D4BE41AA410002504E01B4BF8
:1002400053F8253098470135AC42F8DC0099019805
:1002500002F08EFE0546164C164BE41AA41004E07C
:10026000013C144B53F824309847002CF8DC284606
:1002700002F043FBBABADECA000000208000002072
:10028000E8030008000400087856341232547698C7
:10029000840000203402002000040008100400083C
:1002A00010040008100400081004000810040008DE
:1002B000100400081004000808B5FFF765FF00BE31
:1002C000FEE71EF0040F0CBFEFF30880EFF3098088
:1002D0007146414A10472DE9F04182B004468846F4
:1002E000124B5E6B9F6B9D6A1B6B13F0020F03D06A
:1002F0000E4BDB6A002B0CDB0D4802F03DFBCDF80A
:1003000000803B4632462946204602F09FFB00BE55
:10031000FEE74BF6AB6102F013FC0028ECD0034B78
:100320004FF00042DA6202B0BDE8F08100ED00E07B
:10033000CC3D000800BEFEE71EF0040F0CBFEFF33B
:100340000880EFF309807146244A10472DE9F041F7
:1003500082B004468846084B5E6B9F6B9D6A0748D7
:1003600002F00AFBCDF800803B4632462946204683
:1003700002F06CFB00BEFEE700ED00E0DC3D000893
:100380001EF0040F0CBFEFF30880EFF309807146F5
:10039000134A10472DE9F04182B004468846084BC5
:1003A0005E6B9F6B9D6A074802F0E6FACDF800800D
:1003B0003B4632462946204602F048FB00BEFEE797
:1003C00000ED00E0E83D000800BEFEE700BEFEE7ED
:1003D00000BEFEE770470000D70200084D0300088A
:0803E0009503000800BEFEE7D2
:1003E800743E00080000002084000020743E0008CD
:1003F80000000010000000108400002038020020D7
:080408000000001000000010CC
:1004100008B50B4B1A6842F400721A601A6842F46D
:1004200080621A601A6842F480721A60032000F039
:1004300097FB0F2001F010FF02F0E4FD002008BD43
:10044000003C0240024A136801331360704700BF4A
:1004500020010020014B1868704700BF20010020D8
:1004600010B50446514B5A6822F440325A605A681B
:1004700041680A435A600268536823F480735360EA
:1004800002685368016943EA0123536002685368B4
:1004900023F0407353600268536881680B435360D4
:1004A0000268936823F40063936002689368C168EC
:1004B0000B439360826A3E4B9A425FD00268936816
:1004C00023F07063936002689368816A0B439360C2
:1004D0000268936823F04053936002689368C16A8E
:1004E0000B4393602268936823F0020393602268B1
:1004F0009368A16943EA41039360236A002B4ED0BD
:10050000636A013B072B44D82268536843F40063B5
:1005100053602268536823F460435360636A013B6D
:100520004FF4604292FAA2F2B2FA82F2934021684A
:100530004A6813434B602268D36A23F47003D36282
:100540002168CB6AE269013A43EA0253CB6222682E
:10055000936823F40073936022689368216B43EAE5
:10056000412393602268936823F480639360226838
:100570009368616943EA8123936010BD02689368C0
:1005800023F0706393600268936823F04053936094
:10059000A8E740F20A61074802F0E4F9B4E72268EC
:1005A000536823F400635360C5E700BF0023014094
:1005B0000100000F083B0008002800F0EB8010B598
:1005C00004460368744A93420CD002F58072934249
:1005D00008D002F58072934204D040F20D116F48AA
:1005E00002F0C0F9636843B1B3F5803F05D0B3F5BD
:1005F000003F02D0B3F5403F6FD1A36843B1B3F1E0
:10060000807F05D0B3F1007F02D0B3F1407F6AD183
:100610002369012B6DD8A369012B70D8A36A7BB322
:10062000B3F1807F2CD0B3F1007F29D0B3F1407FAC
:1006300026D0B3F1806F23D0B3F1A06F20D0B3F1F7
:10064000C06F1DD0B3F1E06F1AD0B3F1006F17D0B7
:10065000B3F1106F14D0B3F1206F11D0B3F1306F3C
:100660000ED0B3F1406F0BD0B3F1506F08D0B3F19F
:10067000606F05D0B3F1706F02D0494A934244D104
:10068000E36813B1B3F5006F45D1E369013B0F2B6C
:1006900047D8236B012B4AD86369022B4DD8236AB4
:1006A000012B50D8A26A3E4B9A420AD0E36A43B16A
:1006B000B3F1805F05D0B3F1005F02D0B3F1405FCA
:1006C00047D1236C002B4AD0236C13F0100F4DD070
:1006D0000120002384F83C3010BD4FF487712F486F
:1006E00002F040F989E740F20F112C4802F03AF984
:1006F0008EE74FF48871294802F034F98BE740F215
:100700001111264802F02EF988E74FF48971234829
:1007100002F028F9B4E740F21311204802F022F960
:10072000B3E74FF48A711D4802F01CF9B1E740F2BB
:1007300015111A4802F016F9AEE74FF48B711748FD
:1007400002F010F9ABE740F21711144802F00AF971
:10075000A8E740F21B11114802F004F9B1E7636405
:1007600084F83C30204602F0FBFCADE7236C23F418
:10077000885323F0020343F0020323642046FFF76B
:100780006FFE00206064236C23F0030343F0010339
:1007900023649EE70120704700200140083B0008C9
:1007A0000100000F10B582B0044600230193836955
:1007B000012B29D8E36A43B1B3F1805F05D0B3F1CF
:1007C000005F02D0B3F1405F24D194F83C30012B9C
:1007D0006FD0012384F83C3023689A6812F0010F2F
:1007E0001ED19A6842F001029A60364B1B68364A65
:1007F000A2FB03239B0C03EB43030193019B7BB1FF
:10080000019B013B0193F9E74FF4DD712F4802F0A2
:10081000A9F8CFE740F2BB112C4802F0A3F8D4E7C7
:100820002268936813F0010F45D0236C23F4E06332
:1008300023F0010343F480732364536813F4806F3F
:1008400005D0236C23F4405343F480532364236C7A
:1008500013F4805F1AD0636C23F0060363640023F3
:1008600084F83C3023686FF022021A60184B5B68F2
:1008700013F01F0F0DD123689A6812F0405F1DD14D
:100880009A6842F080429A60002015E00023636479
:10089000E5E723680F4A934201D000200CE09A68F4
:1008A00012F0405F0CD19A6842F080429A600020BA
:1008B00002E0022000E0002002B010BD0020FBE7B3
:1008C0000020F9E70C00002083DE1B43083B0008F2
:1008D000002301400020014003689A6812F4806FF1
:1008E00003D09B6813F4807F1CD170B50D4604467D
:1008F000FFF7B0FD064623681A6812F0020F1AD1FE
:10090000B5F1FF3FF7D025B1FFF7A4FD801BA8424A
:10091000F1D9236C43F004032364002384F83C30B2
:1009200003202DE0036C43F020030364002380F8D0
:100930003C30012070476FF012021A60236C43F4C0
:100940000073236423689A6812F0405F17D1A2698C
:10095000BAB9DA6A12F4700F03D09B6813F4806F8F
:1009600011D1236C23F480732364236C13F4805F10
:100970000BD1236C43F001032364002000E000202E
:1009800070BD0020FCE70020FAE70020F8E70368CC
:10099000D86C704730B583B005460C4600230193F0
:1009A0000B68122B4ED86368013B0F2B50D8A368FD
:1009B000072B53D895F83C30012B00F0C78001235A
:1009C00085F83C302368092B4ED92868C2689BB251
:1009D00003EB43031E3B072101FA03F322EA03035F
:1009E000C3602868C268A168238803EB43031E3BE9
:1009F00001FA03F31343C3606368062B4AD82868DF
:100A0000426B03EB8303053B1F2101FA03F322EA48
:100A1000030343632868426B636803EB8303053B6E
:100A2000218801FA03F3134343632A68484B9A422F
:100A300060D02A68464B9A4265D0002085F83C0079
:100A400003B030BD40F20451424801F08BFFAAE7E9
:100A500040F205513F4801F085FFA8E740F20651FA
:100A60003C4801F07FFFA5E7286802699BB203EBD1
:100A70004303072101FA03F322EA03030361286811
:100A80000269A168238803EB430301FA03F31343CC
:100A90000361B1E70C2B16D82868026B03EB8303C4
:100AA000233B1F2101FA03F322EA030303632868AF
:100AB000026B636803EB8303233B218801FA03F392
:100AC00013430363B1E72868C26A03EB8303413B26
:100AD0001F2101FA03F322EA0303C3622868C26AF2
:100AE000636803EB8303413B218801FA03F313435B
:100AF000C3629AE72368122B9BD1174A536843F4C9
:100B00008003536095E72368103B012B95D8124A68
:100B1000536843F4000353602368102B8DD10F4BAF
:100B20001B6802F1467202F52E3202F28332A2FBFA
:100B300003239B0C03EB83035A000192019B002BC0
:100B40003FF47BAF019B013B0193F7E7022077E77E
:100B500000200140083B0008002301400C00002059
:100B600010B50446C31E042B0FD80A4AD36823F4D9
:100B7000E0631B041B0C240204F4E064234343F0F1
:100B8000BF6343F40033D36010BDA421024801F0D9
:100B9000E9FEEAE700ED00E0383B000870B50546E5
:100BA0000C4616460F2A0FD80F2C12D81B4BDB68A9
:100BB000C3F30223C3F10702042A28BF0422191D2C
:100BC00006290BD9033B0AE0BC21154801F0CAFEF7
:100BD000EAE7BD21124801F0C5FEE7E700234FF028
:100BE000FF3101FA02F224EA02049C4001FA03F305
:100BF00026EA03063443002D08DB2401E4B205F1A4
:100C0000604505F5614585F8004370BD05F00F05A9
:100C10002401E4B2034B5C55F7E700BF00ED00E0B0
:100C2000383B000814ED00E010B5041E08DB04F0AA
:100C30001F02640901239340044A42F8243010BD86
:100C4000D021034801F08EFEF1E700BF00E100E093
:100C5000383B00082DE9F04782B080460E46B84B7D
:100C6000984223D003F5806398421FD003F5806338
:100C700098421BD003F58063984217D003F5806338
:100C8000984213D003F5806398420FD003F5806338
:100C900098420BD003F58063984207D003F5806338
:100CA000984203D0C521A74801F05CFE338833B3D6
:100CB0007368012B1ED9112B1CD0022B1AD0122BBA
:100CC00018D0A14A934215D002F58012934211D058
:100CD00002F5801293420DD0A2F5F812934209D08A
:100CE00002F58012934205D002F58012934201D0A2
:100CF000032B09D1B368022B0BD800244FE0C62187
:100D0000904801F02FFED3E7C7218E4801F02AFE5C
:100D1000F0E7C8218B4801F025FEEEE7D92189488C
:100D200001F020FE67E0EC21864801F01BFE92E016
:100D3000082300E000238B4003430232834941F83B
:100D40002230834B1A68FB4303EA0201706810F4F7
:100D5000803F01D047EA02017D4A1160526803EAF0
:100D60000201706810F4003F01D047EA0201784A9E
:100D70005160926803EA0201706810F4801F01D08C
:100D800047EA0201724A9160D2681340716811F417
:100D9000001F01D047EA02036D4AD36001340F2CD3
:100DA00000F2CB800125A54037682F40BD42F5D128
:100DB0007368022B01D0122B2DD13369DBB1092BC3
:100DC00019D0012B17D0022B15D0032B13D0042BD5
:100DD00011D0052B0FD0062B0DD0072B0BD0082BD5
:100DE00009D00A2B07D00B2B05D00C2B03D00D2BD1
:100DF00001D00F2B92D1E208083258F8220004F0FB
:100E0000070399000F238B4020EA030033698B40CE
:100E1000034348F82230D8F800204FEA440A4FF044
:100E2000030909FA0AF96FEA090909EA0202736873
:100E300003F0030303FA0AF31343C8F8003073689E
:100E40005A1E012A03D9112B01D0122B18D1F36895
:100E5000032B3FF668AFD8F8082009EA0202F368CE
:100E600003FA0AF31343C8F80830D8F8042022EA3A
:100E700005027368C3F30015A5401543C8F8045074
:100E8000D8F80C3009EA0309B36803FA0AF343EA15
:100E90000903C8F80C30736813F0805F3FF47EAF2D
:100EA000002301932B4B5A6C42F480425A645B6CD2
:100EB00003F480430193019BA208911C234B53F838
:100EC000210004F0030399000F238B4020EA030064
:100ED0001B4B98453FF42EAF03F5806398451ED019
:100EE00003F5806398451CD003F5806398451AD0BC
:100EF00003F58063984518D003F58063984516D0B4
:100F000003F58063984514D003F58063984512D0AB
:100F100003F5806398453FF40BAF09230BE70123EA
:100F200009E7022307E7032305E7042303E7052373
:100F300001E70623FFE60723FDE602B0BDE8F087E0
:100F4000000002406C3B0008000011100038014016
:100F5000003C01400038024070B5064615460C467C
:100F600021B1012D08D86DB1B46170BD40F2B1114D
:100F7000064801F0F7FCF4E74FF4D971034801F09B
:100F8000F1FCF0E72404B461EFE700BF6C3B00081C
:100F900030B583B0044603680F2B29D8236813F0BB
:100FA000010F3DD06368012B01D9052B25D1A24B40
:100FB0009B6803F00C03042B29D09F4B9B6803F024
:100FC0000C03082B1ED022799C4B1A706368002BEF
:100FD00050D0FFF73FFA0546974B1B6813F4003FCC
:100FE0001ED1FFF737FA401B6428F5D90320E3E14F
:100FF000F521934801F0B6FCD0E7FA21904801F0C2
:10100000B1FCD4E78C4B5B6813F4800FDBD08A4BC8
:101010001B6813F4003F03D06368002B00F0C78106
:10102000236813F0020F5CD0E368012B31D82369E9
:101030001F2B34D8804B9B6813F00C0F3AD07E4B9B
:101040009B6803F00C03082B2FD0E368002B73D0B0
:101050007C4B01221A60FFF7FDF90546764B1B68B1
:1010600013F0020F59D1FFF7F5F9401B0228F5D90B
:101070000320A1E1FFF7EEF905466F4B1B6813F45F
:10108000003FCDD0FFF7E6F9401B6428F5D90320D7
:1010900092E14FF496716A4801F064FCC7E740F2B0
:1010A0002D11674801F05EFCC4E7634B5B6813F4E5
:1010B000800FCAD1604B1B6813F0020F03D0E368A6
:1010C000012B40F076815C48036823F0F803216926
:1010D000F82292FAA2F2B2FA82F201FA02F2134371
:1010E0000360236813F0080F50D06369012B35D8D3
:1010F0006369002B38D0544B01221A60FFF7AAF91C
:1011000005464D4B5B6F13F0020F3FD1FFF7A2F97D
:10111000401B0228F5D903204EE14748036823F01D
:10112000F8032169F82292FAA2F2B2FA82F201FAE5
:1011300002F213430360D4E7424B00221A60FFF728
:1011400089F905463C4B1B6813F0020FC9D0FFF725
:1011500081F9401B0228F5D903202DE140F26D11E1
:10116000374801F0FFFBC3E7374B00221A60FFF757
:1011700071F90546304B5B6F13F0020F06D0FFF795
:1011800069F9401B0228F5D9032015E1236813F003
:10119000040F5FD0A368012B01D9052B1FD10023B9
:1011A0000193254B1A6C42F080521A641B6C03F0B9
:1011B00080530193019B254A136843F480731360A5
:1011C000FFF748F90546214B1B6813F4807F0CD1CB
:1011D000FFF740F9401B0228F5D90320ECE040F26C
:1011E0009711174801F0BEFBD9E7227A184B1A7005
:1011F000A36883B1FFF72EF905460F4B1B6F13F061
:10120000020F27D1FFF726F9401B41F2883398429D
:10121000F3D90320D0E0FFF71DF90546064B1B6FFD
:1012200013F0020F16D0FFF715F9401B41F2883377
:101230009842F3D90320BFE0003802400238024050
:10124000AC3B000800004742800E4742007000405F
:1012500070380240A369022B39D8A369002B00F033
:10126000AA80574A926802F00C02082A00F0A68071
:10127000022B40F08880E36913B1B3F5800F2CD1C5
:10128000236A3F2B2FD8636A323BB3F5BF7F30D838
:10129000A36A022B05D0042B03D0062B01D0082B08
:1012A0002DD1E36A043B0B2B2FD8464B00221A604A
:1012B000FFF7D0F80546424B1B6813F0007F2AD099
:1012C000FFF7C8F8401B0228F5D9032074E04FF45B
:1012D000E6713D4801F046FBBFE740F2D5113A48C0
:1012E00001F040FBCCE74FF4EB71374801F03AFBDB
:1012F000C9E740F2D711344801F034FBC8E74FF496
:10130000EC71314801F02EFBCBE740F2D9112E48A9
:1013100001F028FBC9E7E369226A1343616A47F6D3
:10132000C07292FAA2F2B2FA82F201FA02F2134306
:10133000A26A5208013A4FF4403191FAA1F1B1FA90
:1013400081F18A401343E16A4FF0706292FAA2F28F
:10135000B2FA82F201FA02F21343194A5360194BAE
:1013600001221A60FFF776F80446154B1B6813F04C
:10137000007F06D1FFF76EF8001B0228F5D9032085
:101380001AE0002018E00F4B00221A60FFF762F805
:1013900004460B4B1B6813F0007F06D0FFF75AF88A
:1013A000001B0228F5D9032006E0002004E00120FC
:1013B00002E0012000E0002003B030BD0120FBE787
:1013C0000038024060004742AC3B0008214B9B685C
:1013D00003F00C03042B38D0082B38D11D4B586870
:1013E00000F03F005B6813F4800F1ED01A4AB2FB76
:1013F000F0F2184B586847F6C073184093FAA3F3FD
:10140000B3FA83F3D84000FB02F0124B5B6803F49D
:1014100040334FF4403292FAA2F2B2FA82F2D34051
:1014200001335B00B0FBF3F070470C4AB2FBF0F203
:10143000084B586847F6C073184093FAA3F3B3FA01
:1014400083F3D84000FB02F0DFE70348704703480E
:10145000704700BF0038024000127A000024F400F8
:1014600070B504460D460368013B0E2B5ED8072D70
:1014700062D88C4B1B6803F00F03AB4208D2EBB26F
:10148000884A1370136803F00F03AB4240F00481E5
:10149000236813F0020F18D0A3687BB1802B0DD006
:1014A000902B0BD0A02B09D0B02B07D0C02B05D090
:1014B000D02B03D0E02B01D0F02B43D17A4A936894
:1014C00023F0F003A1680B439360236813F0010F2E
:1014D0007FD06368032B3BD86368012B3ED09A1EF4
:1014E000012A42D9704A126812F0020F00F0D68029
:1014F0006D498A6822F0030213438B60FEF7AAFF4E
:1015000006466368012B37D0022B44D0032B51D001
:10151000654B9B6813F00C0F5BD0FEF79BFF801BA5
:1015200041F288339842F3D90320A8E040F23721F2
:101530005E4801F017FA9AE74FF40E715B4801F02C
:1015400011FA96E740F24F21584801F00BFAB5E73F
:1015500040F25621554801F005FABDE7524A12689B
:1015600012F4003FC4D1012089E04F4A126812F002
:10157000007FBDD1012082E04B4B9B6803F00C0340
:10158000042B26D0FEF766FF801B41F28833984279
:10159000F2D9032073E0444B9B6803F00C03082B43
:1015A00017D0FEF757FF801B41F288339842F2D9DB
:1015B000032064E03C4B9B6803F00C030C2B08D029
:1015C000FEF748FF801B41F288339842F2D903208E
:1015D00055E0344B1B6803F00F03AB4207D9EAB266
:1015E000304B1A701B6803F00F03AB4258D12368CD
:1015F00013F0040F14D0E3685BB1B3F5805F08D03B
:10160000B3F5A05F05D0B3F5C05F02D0B3F5E05FDE
:1016100036D1254A936823F4E053E1680B43936085
:10162000236813F0080F15D023695BB1B3F5805F11
:1016300008D0B3F5A05F05D0B3F5C05F02D0B3F515
:10164000E05F23D1184A936823F46043216943EA99
:10165000C1039360FFF7BAFE134B9B6803F0F003DE
:10166000F02292FAA2F2B2FA82F2D340104AD35C8C
:10167000D840104B18600F2000F0EEFD002070BD28
:101680004FF42D71094801F06DF9C2E740F2BB211A
:10169000064801F067F9D5E70120F0E70120EEE701
:1016A0000120ECE7003C024000380240AC3B00085F
:1016B0009C3B00080C000020014B1868704700BFDD
:1016C0000C00002008B5FFF7F7FF074B9B6803F4F9
:1016D000E0534FF4E05292FAA2F2B2FA82F2D3400F
:1016E000024AD35CD84008BD003802409C3B000849
:1016F00008B5FFF7E1FF074B9B6803F460434FF425
:10170000604292FAA2F2B2FA82F2D340024AD35C69
:10171000D84008BD003802409C3B00080F230360FE
:101720000B4B9A6802F0030242609A6802F0F002E2
:1017300082609A6802F4E052C2609B68DB0803F49E
:10174000E0530361034B1B6803F00F030B6070470A
:1017500000380240003C024010B4036A046A24F0DE
:1017600001040462846924F0F00444EA021223F0C4
:101770000A030B438261036210BC704710B4036A12
:1017800023F0100303628469036A24F4704444EA7A
:10179000023223F0A00343EA01138261036210BC0A
:1017A0007047836823F0700341F00701194381609B
:1017B000704710B4846824F47F4442EA03230B4347
:1017C0002343836010BC704710B504460368234A66
:1017D000934237D0B3F1804F34D0A2F57C4293428C
:1017E00030D002F5806293422CD002F580629342A1
:1017F00028D002F58062934224D002F580629342A1
:1018000020D002F5704293421CD002F570529342F0
:1018100018D002F58062934214D002F580629342A0
:1018200010D0A2F5983293420CD002F58062934218
:1018300008D002F58062934204D04FF4B271084898
:1018400001F090F82268D36843F00103D360226866
:10185000136843F001031360002010BD0000014035
:10186000DC3B000838B590F83830012B00F0D88206
:101870000D460446012380F83830022380F83930C1
:101880000B68B3F5805F11D0B3F5005F0ED06BB17C
:10189000102B0BD0202B09D0302B07D0402B05D09C
:1018A000502B03D0602B01D0702B52D1226893684B
:1018B00023F47F4323F0770393602B68402B00F0E1
:1018C00007824CD9702B00F03A8100F2A780502B90
:1018D00000F09C81602B40F02B812368B74A934233
:1018E0001FD0B3F1804F1CD0A2F57C42934218D098
:1018F00002F58062934214D002F58062934210D0C8
:1019000002F5784293420CD002F57052934208D00F
:10191000A2F59432934204D040F6BA71A84801F07F
:1019200021F86B68B3F5004F05D023B1022B02D02C
:101930000A2B40F0C181EB680F2B00F2C381EA68EB
:1019400069682068FFF71AFF60212068FFF729FF08
:10195000EEE040F66D719A4801F004F8A6E7102B0E
:1019600000F00C822ED9202B00F03182302B40F079
:10197000DF802368914A93421FD0B3F1804F1CD07F
:10198000A2F57C42934218D002F58062934214D0B3
:1019900002F58062934210D002F5784293420CD057
:1019A00002F57052934208D0A2F59432934204D0CB
:1019B00040F6E871824800F0D5FF30212068FFF73B
:1019C000F0FEB5E0002B40F0B38023687B4A9342E1
:1019D0001FD0B3F1804F1CD0A2F57C42934218D0A7
:1019E00002F58062934214D002F58062934210D0D7
:1019F00002F5784293420CD002F57052934208D01F
:101A0000A2F59432934204D040F6D6716C4800F0AF
:101A1000A9FF00212068FFF7C4FE89E0B3F5805FCD
:101A200045D0B3F5005F40F083802368634A93425A
:101A300017D0B3F1804F14D0A2F57C42934210D05E
:101A400002F5806293420CD002F58062934208D086
:101A500002F57842934204D040F69A71584800F05B
:101A600081FF6B68B3F5004F05D023B1022B02D084
:101A70000A2B40F0B980AB684BB1B3F5805F06D05C
:101A8000B3F5005F03D0B3F5405F40F0B380EB687F
:101A90000F2B00F2B580EB686A68A9682068FFF731
:101AA00088FE2268936843F48043936040E0236893
:101AB000424A934237D0B3F1804F34D0A2F57C42F2
:101AC000934230D002F5806293422CD002F58062BE
:101AD000934228D002F58062934224D002F58062BE
:101AE000934220D002F5704293421CD002F570520E
:101AF000934218D002F58062934214D002F58062BE
:101B0000934210D0A2F5983293420CD002F5806235
:101B1000934208D002F58062934204D040F6797176
:101B2000274800F01FFF2268936823F007039360A3
:101B3000012384F83930002084F8380038BD236848
:101B40001E4A934217D0B3F1804F14D0A2F57C42C5
:101B5000934210D002F5806293420CD002F580626D
:101B6000934208D002F57842934204D040F6827145
:101B7000134800F0F7FE6B68B3F5004F04D01BB1BB
:101B8000022B01D00A2B1DD1AB6843B1B3F5805FA6
:101B900005D0B3F5005F02D0B3F5405F18D1EB6814
:101BA0000F2B1BD8EB686A68A9682068FFF701FE55
:101BB0002268936843F077039360B9E7000001401F
:101BC000DC3B000840F68471964800F0CBFEDBE772
:101BD00040F68571934800F0C5FEE0E740F6867157
:101BE000904800F0BFFEDDE740F69C718D4800F0A4
:101BF000B9FE40E740F69D718A4800F0B3FE46E723
:101C000040F69E71874800F0ADFE44E72368864A9F
:101C100093422FD0B3F1804F2CD0A2F57C42934257
:101C200028D002F58062934224D002F5806293426C
:101C300020D002F5784293421CD002F570529342B4
:101C400018D002F58062934214D002F5806293426C
:101C500010D0A2F5983293420CD002F580629342E4
:101C600008D002F58062934204D040F6AC716D4812
:101C700000F078FE6B68B3F5004F04D01BB1022B67
:101C800001D00A2B0CD1EB680F2B0FD8EA686968DA
:101C90002068FFF761FD50212068FFF782FD47E7CC
:101CA00040F6AF715F4800F05DFEECE74FF47B61FA
:101CB0005C4800F057FEE9E740F6BD71594800F076
:101CC00051FE38E640F6BE71564800F04BFE36E64F
:101CD0002368554A93422FD0B3F1804F2CD0A2F500
:101CE0007C42934228D002F58062934224D002F5D0
:101CF0008062934220D002F5784293421CD002F5D4
:101D00007052934218D002F58062934214D002F5CB
:101D10008062934210D0A2F5983293420CD002F523
:101D20008062934208D002F58062934204D040F66C
:101D3000C8713C4800F016FE6B68B3F5004F04D044
:101D40001BB1022B01D00A2B0CD1EB680F2B0FD843
:101D5000EA6869682068FFF7FFFC40212068FFF708
:101D600020FDE5E640F6CB712E4800F0FBFDECE7E8
:101D700040F6CC712B4800F0F5FDE9E723682A4ACC
:101D800093421FD0B3F1804F1CD0A2F57C42934206
:101D900018D002F58062934214D002F5806293421B
:101DA00010D002F5784293420CD002F57052934263
:101DB00008D0A2F59432934204D040F6DC71194861
:101DC00000F0D0FD10212068FFF7EBFCB0E623689F
:101DD000154A93421FD0B3F1804F1CD0A2F57C422C
:101DE000934218D002F58062934214D002F58062CB
:101DF000934210D002F5784293420CD002F5705213
:101E0000934208D0A2F59432934204D040F6E27196
:101E1000044800F0A7FD20212068FFF7C2FC87E6F8
:101E200002208BE6DC3B0008000001407047704751
:101E30007047704710B5044603681A6912F0020F24
:101E400011D0DA6812F0020F0DD06FF002021A61A1
:101E50000123037603689B6913F0030F70D0FFF72B
:101E6000E6FF0023237623681A6912F0040F12D0CC
:101E7000DA6812F0040F0ED06FF004021A61022328
:101E8000237623689B6913F4407F5FD02046FFF7D9
:101E9000CEFF0023237623681A6912F0080F12D0B0
:101EA000DA6812F0080F0ED06FF008021A610423EE
:101EB00023762368DB6913F0030F4ED02046FFF72B
:101EC000B6FF0023237623681A6912F0100F12D090
:101ED000DA6812F0100F0ED06FF010021A610823AA
:101EE00023762368DB6913F4407F3DD02046FFF75B
:101EF0009EFF0023237623681A6912F0010F03D096
:101F0000DA6812F0010F36D123681A6912F0800FD7
:101F100003D0DA6812F0800F34D123681A6912F006
:101F2000400F03D0DA6812F0400F32D123681A69EB
:101F300012F0200F03D0DA6812F0200F30D110BD5C
:101F4000FFF774FF2046FFF773FF8AE72046FFF78D
:101F50006DFF2046FFF76CFF9BE72046FFF766FF0B
:101F60002046FFF765FFACE72046FFF75FFF2046FE
:101F7000FFF75EFFBDE76FF001021A61204600F037
:101F8000AFF9C1E76FF080021A61204600F063F9F3
:101F9000C3E76FF040021A612046FFF74AFFC5E72A
:101FA0006FF020021A61204600F054F9C7E70000E4
:101FB00003682E4A904212D0B0F1804F0FD0A2F5A4
:101FC0007C4290420BD002F58062904207D002F52D
:101FD0008062904203D002F57842904203D123F010
:101FE00070034A681343214A90422AD0B0F1804FCF
:101FF00027D0A2F57C42904223D002F58062904225
:102000001FD002F5806290421BD002F578429042C8
:1020100017D002F57052904213D002F580629042C0
:102020000FD002F5806290420BD0A2F59832904218
:1020300007D002F58062904203D002F580629042A0
:1020400003D123F44073CA68134303608B68C362EF
:102050000B688362054B984203D003F58063984276
:1020600001D10B6903630123436170470000014004
:1020700000286ED010B504460368374A934236D024
:10208000B3F1804F33D0A2F57C4293422FD002F5BA
:10209000806293422BD002F58062934227D002F5F2
:1020A0008062934223D002F5806293421FD002F5F2
:1020B000704293421BD002F57052934217D002F542
:1020C0008062934213D002F5806293420FD0A2F552
:1020D000983293420BD002F58062934207D002F50A
:1020E0008062934203D0D9211C4800F03BFCA368D6
:1020F0003BB1102B05D0202B03D0402B01D0602BFF
:1021000017D123692BB1B3F5807F02D0B3F5007FDF
:1021100014D194F83930B3B1022384F83930214610
:1021200051F8040BFFF744FF012384F839300020F5
:1021300010BDDA21094800F015FCE2E7DB21074871
:1021400000F010FCE5E784F83830204600F05CFF32
:10215000E2E70120704700BF00000140DC3B0008BF
:1021600038B504460D460368384A934227D0B3F188
:10217000804F24D0A2F57C42934220D002F58062A9
:1021800093421CD002F58062934218D002F580621F
:10219000934214D002F58062934210D002F570424F
:1021A00093420CD002F57052934208D0A2F59432BB
:1021B000934204D04FF4CB61254800F0D3FB2B6849
:1021C0006BB1102B0BD0202B09D0302B07D0402B1C
:1021D00005D0502B03D0602B01D0702B27D16B681A
:1021E000802B00D04BBB94F83830012B2BD0012230
:1021F00084F83820022384F8393021684B6823F0B2
:1022000070034B6021684B68286803434B6021686A
:102210008B6823F080038B6021688B6868680343B8
:102220008B6084F83920002084F8380038BD40F2F3
:102230005961074800F096FBD1E740F25A61044823
:1022400000F090FBCFE70220F0E700BF0000014064
:102250000C3C00087047704700B589B00022014669
:102260003620FEF79BFC3620FEF7DEFC00230193B0
:10227000174B1A6C42F010021A641B6C03F0100327
:102280000193019B02A903A8FFF748FA069BBBB97B
:10229000FFF718FA0F4BA3FB00239B0C013B0E48E2
:1022A0000E4A026040F2E732C260436000230361DD
:1022B0008360FFF7DDFE38B1012009B05DF804FB53
:1022C000FFF700FA4000E5E70348FFF77DFAF4E77F
:1022D0000038024083DE1B43240100200010004030
:1022E00008B5FEF7AFF808BD08B50248FFF7A2FD34
:1022F00008BD00BF240100202DE9F84304464268D0
:10230000B44B9A4200F29C80E3681BB1B3F5005FC6
:1023100040F09C80236933B1B3F5806F03D0B3F5EF
:10232000C06F40F0998063694FF6F372134200D199
:1023300023B940F25271A84800F014FB21680A69E1
:1023400022F44052E36813430B612168CA6822F407
:10235000164222F00C02A36820690343606903431C
:10236000E06903431343CB6021684A6922F4407259
:10237000A36913434B61E369B3F5004F72D023683F
:10238000964A934200F02E8102F58062934200F05B
:102390002981FFF797F900EB800000EB800065686A
:1023A000AD00B0FBF5F58E4FA7FB05356D092E018D
:1023B000FFF788F900EB800000EB80006568AD0056
:1023C000B0FBF5F9FFF77EF900EB800000EB800031
:1023D0006568AD00B0FBF5F5A7FB05356D094FF05D
:1023E000640808FB15952D013235A7FB05356D09ED
:1023F00005F0F0053544FFF765F900EB800000EBD0
:1024000080006668B600B0FBF6F6FFF75BF900EBFC
:10241000800000EB800063689B00B0FBF3F0A7FB3B
:102420000030400908FB10684FEA081808F132082C
:10243000A7FB0837C7F3431723682F449F6027E1A2
:1024400040F24F71644800F08DFA5DE74FF4EA61A5
:10245000614800F087FA5DE740F251715E4800F094
:1024600081FA60E723685D4A93425BD002F580629F
:10247000934257D0FFF726F900EB800000EB800075
:1024800065686D00B0FBF5F5554FA7FB05356D0987
:102490002E01FFF717F900EB800000EB8000656864
:1024A0006D00B0FBF5F9FFF70DF900EB800000EBD4
:1024B000800065686D00B0FBF5F5A7FB05356D097B
:1024C0004FF0640808FB1595ED003235A7FB053584
:1024D0006D096D0005F4F8753544FFF7F3F800EB6E
:1024E000800000EB800066687600B0FBF6F6FFF730
:1024F000E9F800EB800000EB800063685B00B0FB54
:10250000F3F3A7FB03235B0908FB13684FEAC80832
:1025100008F13208A7FB0837C7F3421723682F4496
:102520009F60B5E0FFF7E4F800EB800000EB80006F
:1025300065686D00B0FBF5F5294FA7FB05356D0902
:102540002E01FFF7D5F800EB800000EB80006568F6
:102550006D00B0FBF5F9FFF7CBF800EB800000EB66
:10256000800065686D00B0FBF5F5A7FB05356D09CA
:102570004FF0640808FB1595ED003235A7FB0535D3
:102580006D096D0005F4F8753544FFF7B1F800EBFF
:10259000800000EB800066687600B0FBF6F6FFF77F
:1025A000A7F800EB800000EB800063685B00B0FBE5
:1025B000F3F3A7FB03235B0908FB13684FEAC80882
:1025C00008F13208A7FB0837C7F3421723682F44E6
:1025D0009F605DE0A037A000403C00080010014073
:1025E0001F85EB51FFF784F800EB800000EB8000C3
:1025F0006568AD00B0FBF5F5264FA7FB05356D0905
:102600002E01FFF775F800EB800000EB8000656895
:10261000AD00B0FBF5F9FFF76BF800EB800000EBC5
:1026200080006568AD00B0FBF5F5A7FB05356D09C9
:102630004FF0640808FB15952D013235A7FB0535D1
:102640006D0905F0F0053544FFF752F800EB800006
:1026500000EB80006668B600B0FBF6F6FFF748F8BE
:1026600000EB800000EB800063689B00B0FBF3F0A0
:10267000A7FB0030400908FB10684FEA081808F172
:102680003208A7FB0837C7F3431723682F449F601E
:10269000BDE8F8831F85EB512DE9F04105460F4653
:1026A00016469846069C2B681B6837EA03030CBF46
:1026B00001230023B3421DD1B4F1FF3FF3D02CB16D
:1026C000FDF7C8FEA0EB0800A042ECD92A68D36849
:1026D00023F4D073D3602A68536923F00103536154
:1026E000202385F8393085F83A30002385F83830D2
:1026F000032000E00020BDE8F0810000002800F089
:10270000898010B504468369002B53D00368424A80
:1027100093420FD0A2F54C4293420BD002F5806257
:10272000934207D002F54C42934203D0FE213B482E
:1027300000F018F9A36943B1B3F5807F05D0B3F574
:10274000007F02D0B3F5407F2FD1A36813B1B3F55A
:10275000805F4DD1E36913B1B3F5004F4ED194F8CA
:102760003930002B50D0242384F839302268D368C4
:1027700023F40053D3602046FFF7BEFD226813699F
:1027800023F4904313612268536923F02A035361B1
:102790002268D36843F40053D3600020E063202311
:1027A00084F8393084F83A3010BDFF211B4800F01E
:1027B000D9F8CAE70368184A9342C6D0A2F54C423A
:1027C0009342C2D002F580629342BED002F580628D
:1027D0009342BAD002F580629342B6D002F54442E9
:1027E0009342B2D040F203110C4800F0BBF8ACE7C2
:1027F00040F20511094800F0B5F8ABE74FF48371DA
:10280000064800F0AFF8AAE784F83830204600F018
:102810006DFCA8E70120704700100140403C000813
:102820002DE9F04182B01E4690F83930DBB2202B02
:1028300052D104460D469046002952D0002A52D06B
:1028400090F83830012B50D0012380F83830002325
:10285000C363212380F83930FDF7FCFD0746A4F857
:102860002480A4F8268010E000963B4600228021B8
:102870002046FFF711FF002839D12B882268C3F3C7
:10288000080353602369ABB90235E38CA3B1013B64
:10289000E384A368B3F5805FE6D000963B46002250
:1028A00080212046FFF7F8FE18BB15F8012B23689E
:1028B0005A60EAE70135E8E700963B4600224021EE
:1028C0002046FFF7E9FE0346A8B9202284F8392004
:1028D000002284F8382000E00223184602B0BDE848
:1028E000F0810123F9E70123F7E70223F5E703234A
:1028F000F3E70323F1E70323EFE7FEE708B5034817
:1029000000F054F80120FFF7F8FF00BF703C00080A
:1029100008B503460C4A12685AB10B4A10680333D3
:1029200023F003030344094A934206D8064A13607E
:1029300008BD054A06491160EFE700F045FC0C238D
:1029400003604FF0FF30F3E78800002000FC012017
:102950003802002001230360014B0B60704700BF69
:102960000400002008B50A460146024800F004F8B9
:10297000FFF7C4FF843C00080FB400B583B004AB7C
:1029800053F8042B01938021074800F05FFC0028D6
:1029900004DC03B05DF804EB04B070470146024864
:1029A00000F044F8F5E700BF9000002010B50446A1
:1029B00000F018FC0146204600F038F801210248DA
:1029C00000F034F810BD00BF103E00082DE9F043C0
:1029D00085B004460F46435633BB0425284621469E
:1029E000ABBE0446384605B0BDE8F08304AA1344E4
:1029F000002203F8102C4FF00408E94640464946EF
:102A0000ABBE8046761B002EECD03546102E28BF7C
:102A100010250023AB42E9D214F9011B04AA1A4481
:102A200002F8101C0133F5E70E46ECE708B5FFF796
:102A3000CDFF08BD08B500F093F8024A024B9A603A
:102A400008BD00BF0000000800ED00E0F8B5044636
:102A50000D4617461E462748FFF78EFF2168264879
:102A6000FFF78AFF61682548FFF786FFA1682448C1
:102A7000FFF782FFE1682348FFF77EFF21692248C4
:102A8000FFF77AFF61692148FFF776FFA1692048C7
:102A9000FFF772FFE1691F48FFF76EFF1E48FFF75F
:102AA0006BFF29461D48FFF767FF1D4CE16A1D4873
:102AB000FFF762FF216B1C48FFF75EFFE16B1B48CD
:102AC000FFF75AFF15F0800F0AD115F4004F0CD113
:102AD0001748FFF751FF06991648FFF74DFFF8BD5D
:102AE00039461548FFF748FFEFE731461348FFF72F
:102AF00043FFEDE7B03C0008C03C0008D03C0008B4
:102B0000E03C0008F03C0008003D0008103D0008D3
:102B1000203D0008303D0008403D00084C3D0008C5
:102B200000ED00E05C3D00086C3D00087C3D0008C5
:102B3000AC3D0008B43D00088C3D00089C3D0008F9
:102B400083691A888A4201D0002070470268033ADC
:102B5000012A01D9002070470233836101207047A8
:102B60000C4B1A6842F001021A60002199601A6841
:102B700022F0847222F480321A60074A5A601A687E
:102B800022F480221A60D960044B4FF000629A60F0
:102B9000704700BF003802401030002400ED00E014
:102BA000224B9B6803F00C03042B14D0082B16D087
:102BB0001BB11F4B1F4A1A6002E01D4B1D4A1A60D1
:102BC0001A4B9B68C3F303131B4AD15C184A136862
:102BD000CB4013607047164B184A1A60F0E7134B4E
:102BE0005A685B6803F03F0312F4800F13D0134A56
:102BF000B2FBF3F20D4B5B68C3F3881303FB02F3E4
:102C00000A4A5268C2F3014201325200B3FBF2F3A6
:102C1000074A1360D4E7074AB2FBF3F2034B5B6841
:102C2000C3F3881303FB02F3EAE700BF0038024056
:102C30000C0000200024F400F83D000800127A0087
:102C40000A4B1B680A4AA2FB03239B0C013BB3F10E
:102C5000807F09D2074A5360074BF02183F8231085
:102C60000023936007231360704700BF0C0000200F
:102C700083DE1B4310E000E000ED00E008B5FDF747
:102C8000E1FB00F087F908BD10B51348FDF78AFD98
:102C9000124A536983F00103536164210E48FDF722
:102CA0001BFE0028F9D10D4A536983F001035361DB
:102CB0000948FDF76CFE81B2094C21800948FFF7F5
:102CC0005BFE4FF6FF73022221460748FFF7A8FD7F
:102CD0000648FFF7AFF810BD640100200010024065
:102CE00010010020083E0008AC010020EC0100208B
:102CF000F0B58BB0002405940694079408940994C9
:102D00000194264B1A6B42F004021A631A6B02F00C
:102D100004020192019A02941A6B42F080021A6333
:102D20001A6B02F080020292029A03941A6B42F02C
:102D300001021A631A6B02F001020392039A0494CF
:102D40001A6B42F010021A631B6B03F0100304931A
:102D5000049B134E224601213046FEF7FDF8012563
:102D60000595069507940327089705A93046FDF7B2
:102D700071FFA6F5006622464FF4E0713046FEF77B
:102D8000EBF84FF4E073059306950794089705A9AF
:102D90003046FDF75FFF0BB0F0BD00BF00380240CA
:102DA0000010024072B6FEE700B595B03022002157
:102DB00008A800F00FFA00230393049305930693E9
:102DC000079301931F4A116C41F080511164126CFA
:102DD00002F080520192019A02931B4B1A6842F44E
:102DE00080421A601B6803F480430293029B012314
:102DF0000893099302230E934FF480020F9204224A
:102E00001092A822119212930723139308A8FEF799
:102E1000BFF898B90F23039302230493002305936B
:102E20004FF4A05306934FF480530793052103A852
:102E3000FEF716FB20B915B05DF804FBFFF7B2FFF3
:102E4000FFF7B0FF003802400070004008B50A48A4
:102E50000A4B03604FF4E133436000238360C36097
:102E600003610C2242618361C361FFF747FC00B933
:102E700008BDFFF797FF00BFAC0100200010014024
:102E800000B585B000230093019302930393124889
:102E9000124A02604360836003610122826103621F
:102EA000C3620F498162C360C26103634261FDF77F
:102EB00083FB60B9002300930122019202936946CB
:102EC0000548FDF767FD20B905B05DF804FBFFF785
:102ED00069FFFFF767FF00BF640100200020014089
:102EE0000100000F00B587B0002302930393049301
:102EF0000593009301931448144A02604FF47A72C8
:102F0000426083604FF6FF72C26003614361FFF766
:102F1000AFF890B94FF48053029302A90A48FEF724
:102F2000A1FC60B900230093019369460648FFF7AE
:102F300017F930B907B05DF804FBFFF733FFFFF76F
:102F400031FFFFF72FFF00BFEC0100200000014020
:102F500008B5FDF75DFAFFF727FFFFF721FEFFF742
:102F6000C7FEFFF7BFFFFFF771FFFFF789FF08BD3F
:102F700008B50548FFF71AFD044B19680448FFF728
:102F8000FBFCFFF75DFEFEE7143E00080C0000208E
:102F9000283E000808B5154A136801331360144A27
:102FA0001168144AB2FBF1F2934200D208BD0F4BF4
:102FB00000221A6010494A68536909884B405361DE
:102FC0000E48FDF7EFFBFF210C48FDF785FC0028BC
:102FD000F9D109494A68536909884B405361074848
:102FE000FDF7D5FC064B1880E0E700BF1401002078
:102FF0001800002040420F00100000206401002053
:10300000100100207047000010B584B00368334AF7
:1030100093420AD0B3F1804F24D0314A934235D045
:10302000304A934246D004B010BD002400942E4B89
:103030005A6C42F001025A645B6C03F00103009386
:10304000009B224621461920FDF7A8FD1920FDF717
:10305000EBFD224621461A20FDF7A0FD1A20FDF7C0
:10306000E3FDE0E70021019103F50E331A6C42F015
:1030700001021A641B6C03F0010301930A461C2031
:10308000FDF78CFD1C20FDF7CFFDCCE70021029160
:10309000154B1A6C42F010021A641B6C03F01003FB
:1030A0000293029B0A463620FDF778FD3620FDF795
:1030B000BBFDB8E7002103910B4B1A6C42F4807200
:1030C0001A641B6C03F480730393039B0A462D2040
:1030D000FDF764FD2D20FDF7A7FDA4E700000140EA
:1030E00000100040002000400038024000B589B0C8
:1030F000002303930493059306930793026803F157
:10310000804303F588339A4202D009B05DF804FB8E
:103110000021019103F594335A6C42F010025A6475
:103120005A6C02F010020192019A02911A6B42F05D
:1031300001021A631B6B03F001030293029B4FF41D
:10314000C063039302230493032306930723079387
:1031500003A90248FDF77EFDD7E700BF000002404B
:1031600000B589B000230393049305930693079356
:10317000026803F1804303F590339A4202D009B00C
:103180005DF804FB0021019103F58C335A6C42F485
:1031900080725A645A6C02F480720192019A029110
:1031A0001A6B42F001021A631B6B03F001030293D6
:1031B000029B012303930323049303A90148FDF712
:1031C00049FDDCE700000240014B1868704700BF72
:1031D0001C00002002440346934200D1704703F8CC
:1031E000011BF9E7034613F8012B002AFBD1181A3B
:1031F0000138704730B5141E05469BB0184605DAF5
:103200008B232B604FF0FF301BB030BD4FF40273A7
:10321000ADF80C3014BF04F1FF332346029305933D
:103220004FF6FF7300910491ADF80E3002461E9BDD
:103230006946284600F074F8431CBCBF8B232B6002
:10324000002CE1D0009B00221A70DDE707B5009347
:1032500013460A46014603480068FFF7CBFF03B058
:103260005DF804FB1C0000202DE9F0478E689E42AB
:1032700082460C469146984638D8B1F80CC01CF4EA
:10328000906F31D062692568096902EB42026F1ABA
:1032900002EBD272013355103B449D4238BF1D46AC
:1032A0001CF4806F30D0294600F088FB064650B9E8
:1032B0000C23CAF80030A38943F04003A3814FF0E8
:1032C000FF30BDE8F0873A46216900F001FBA38991
:1032D00023F4906343F08003A381266165613E443B
:1032E000ED1B2660A5604646464500D94646324657
:1032F0004946206800F0FAFAA3689B1BA360236884
:103300001E4426600020DCE72A4600F0B1FB06469A
:103310000028E2D12169504600F002FBC8E7000016
:103320002DE9F04F1E468B891B069DB007460D46C2
:1033300014460ED50B6963B9402100F03FFB2860AD
:10334000286120B90C233B604FF0FF30C9E04023D7
:103350006B610023099320238DF82930DFF89C91BD
:10336000039630238DF82A304FF0010A23461E467B
:1033700013F8012B0AB1252AF9D1B6EB040B0BD0B7
:103380005B46224629463846FFF76EFF013000F0C3
:10339000A380099B5B4409933378002B00F09C8049
:1033A00000234FF0FF32CDE9052301360493079344
:1033B0008DF853301A933446052214F8011B4F48F8
:1033C00000F036FA049BC0B9D90644BF20228DF81C
:1033D00053201A0744BF2B228DF8532032782A2A13
:1033E00013D0079A344600200A26214611F8013BE3
:1033F000303B092B4BD970B914E0A0EB09000AFA55
:1034000000F0184304902646D5E7039A111D126870
:103410000391002A01DB079204E0524243F00203C9
:103420000792049323782E2B0CD163782A2B33D167
:10343000039B1A1D1B680392002BB8BF4FF0FF338C
:10344000023405932E4E21780322304600F0F0F925
:1034500038B14023801B03FA00F0049B034301347E
:10346000049314F8011B27488DF82810062200F059
:10347000DFF9002838D0244B13BB039B073323F01C
:10348000070308330393099B434409936EE706FB44
:10349000023201200C46A8E70023013405931946A7
:1034A0000A26204610F8012B303A092A03D9002BAE
:1034B000C8D00591C6E706FB012101230446F0E7C9
:1034C00003AB00932A46114B04A93846AFF30080A2
:1034D000B0F1FF3F8046D6D1AB895B063FF534AFF4
:1034E00009981DB0BDE8F08F03AB00932A46074B47
:1034F00004A9384600F082F8EAE700BF403E000821
:10350000463E00084A3E00080000000069320008FC
:103510002DE9F04791461F468A680B69DDF8208047
:103520009342B8BF1346C9F8003091F843200646CD
:103530000C4612B10133C9F800302368990642BF26
:10354000D9F800300233C9F80030256815F00605B7
:1035500007D104F1190AE368D9F800209B1AAB429D
:1035600028DC94F843302268003318BF0123920608
:103570002DD404F1430239463046C047013020D0F3
:103580002368E568D9F8002003F00603042B08BF80
:10359000AD1AA36822690CBF25EAE57500259342A0
:1035A000C4BF9B1AED184FF000091A344D451AD1CB
:1035B000002008E00123524639463046C04701301A
:1035C00003D14FF0FF30BDE8F0870135C3E7E118C4
:1035D0005A1C302081F84300224494F8451082F8A8
:1035E00043100233C5E70123224639463046C0471F
:1035F0000130E6D009F10109D8E700002DE9F043D8
:1036000006460C4601F14300097E85B06E299846B6
:1036100017460C9B00F0BA8024D8632939D00AD809
:10362000002900F0C380582900F0918004F1420580
:1036300084F8421035E0642901D06929F6D1256863
:103640001A6815F0800F02F104012CD0126819607D
:10365000002A03DA2D23524284F84330DFF8BCC13C
:103660000A233FE0732900F0A58008D86F2921D0F4
:103670007029DBD1226842F02002226003E0752924
:1036800018D07829D2D1782284F84520DFF890C16B
:1036900061E01A68111D1960136884F8423004F162
:1036A0004205012393E01268196015F0400F18BF1E
:1036B00012B2CDE7D4F800C01A681CF0800F02F1F6
:1036C00004051D6001D0126803E01CF0400FFAD021
:1036D0001288DFF848C16F290CBF08230A23002194
:1036E00084F843106568A560002DA2BF216821F011
:1036F000040121600AB9002D46D00546B2FBF3F162
:1037000003FB112E93421CF80EE005F801ED39D9A8
:10371000082B0BD12368DA0708D5236962689A421F
:10372000DEBF302305F8013C05F1FF35401B206169
:10373000CDF800803B4603AA21463046FFF7E8FE5D
:10374000013049D14FF0FF3005B0BDE8F083DFF81C
:10375000CCC084F845101D68216855F8042B1D6005
:103760000D060BD5CD0744BF41F0200121601AB9E9
:10377000236823F0200323601023B0E74B0648BFE3
:1037800092B2EFE70A46B9E70546C1E71A68D4F8EE
:1037900000C06169151D1D601CF0800F136801D009
:1037A000196003E01CF0400FFAD019800023236158
:1037B0000546BDE71A68111D196015686268002189
:1037C000284600F035F808B1401B6060636823614B
:1037D000002384F84330ABE723692A463946304654
:1037E000C0470130AED023689B0713D4E068039B29
:1037F0009842B8BF1846A7E701234A4639463046E3
:10380000C04701309ED00135E368039A9B1AAB4252
:10381000F2DCEBE7002504F11909F5E7513E000859
:10382000623E0008000000000000000000000000F0
:1038300001F0FF01102A2BDB10F0070F08D010F861
:10384000013B013A8B422DD010F0070F42B3F6D165
:10385000F0B441EA012141EA014122F007047FF07E
:1038600000070023F0E80256083C85EA010586EAD5
:10387000010685FA47F5A3FA87F586FA47F6A5FA11
:1038800087F68EB9EED1F0BC01F0FF0102F007021D
:1038900032B110F8013B013A83EA010313B1F8D1C8
:1038A0000020704701387047002D06BF35460338A9
:1038B000073815F0010F07D1013015F4807F02BFE2
:1038C000013015F4C03F0130F0BC0138704700BF33
:1038D0000A44914200F1FF3300D1704710B511F84E
:1038E000014B03F8014F9142F9D110BD884210B548
:1038F00001EB020302D983421C4607D8421E9942BB
:1039000008D011F8014B02F8014FF8E783189A1A12
:103910009A4200D110BD14F8011D03F8011DF7E70C
:1039200038B50546002945D051F8043C0C1F002B42
:10393000B8BFE41800F0D2F81F4A1368104633B934
:10394000636014602846BDE8384000F0CDB8A3425B
:103950000CD921686218934204BF1A685B686360DF
:1039600004BF521822600460ECE713465A680AB19B
:10397000A242FAD919685818A0420BD12068014414
:10398000581882421960DDD1106852685A600144AB
:103990001960D7E702D90C232B60D3E720682118E0
:1039A0008A4204BF11685268626004BF091821602E
:1039B0005C60C7E738BD00BF18010020F8B5CD1C1A
:1039C00025F0030508350C2D38BF0C25002D0646C3
:1039D00001DBA94203D90C2333600020F8BD00F0BD
:1039E0007DF821490A6814469CB9204F3B6823B9E9
:1039F0002146304600F062F838602946304600F033
:103A00005DF8431C23D10C233360304600F06CF882
:103A1000E3E723685B1B17D40B2B03D923601C44FB
:103A2000256004E06368A2420CBF0B60536030461F
:103A300000F05AF804F10B00231D20F00700C21A11
:103A4000CCD01B1AA350C9E722466468CCE7C41C3B
:103A500024F00304A042E3D0211A304600F02EF8EF
:103A60000130DDD1CFE700BF180100201C0100208C
:103A7000F8B5074614460E4621B91146BDE8F84090
:103A8000FFF79CBF22B9FFF74BFF25462846F8BD3C
:103A900000F030F8A0420FD221463846FFF78EFFE3
:103AA00005460028F2D031462246FFF711FF314685
:103AB0003846FFF735FFE9E73546E7E738B5064C06
:103AC0000023054608462360FEF722FF431C02D16F
:103AD000236803B12B6038BD60010020014800F06D
:103AE00011B800BF2C020020014800F00CB800BF44
:103AF0002C02002051F8043C181F002BBCBF0B58AF
:103B0000C0187047704770472E2E2F7379737465F5
:103B10006D2F7372632F73746D333266342D686149
:103B20006C2F73746D3332663478785F68616C5FC4
:103B30006164632E630000002E2E2F737973746509
:103B40006D2F7372632F73746D333266342D686119
:103B50006C2F73746D3332663478785F68616C5F94
:103B6000636F727465782E63000000002E2E2F7331
:103B7000797374656D2F7372632F73746D3332664E
:103B8000342D68616C2F73746D3332663478785FCE
:103B900068616C5F6770696F2E6300000000000051
:103BA0000102030401020304060708092E2E2F73E5
:103BB000797374656D2F7372632F73746D3332660E
:103BC000342D68616C2F73746D3332663478785F8E
:103BD00068616C5F7263632E630000002E2E2F738A
:103BE000797374656D2F7372632F73746D333266DE
:103BF000342D68616C2F73746D3332663478785F5E
:103C000068616C5F74696D2E630000002E2E2F7347
:103C1000797374656D2F7372632F73746D333266AD
:103C2000342D68616C2F73746D3332663478785F2D
:103C300068616C5F74696D5F65782E6300000000D9
:103C40002E2E2F73797374656D2F7372632F7374B7
:103C50006D333266342D68616C2F73746D33326648
:103C60003478785F68616C5F756172742E630000F0
:103C700061626F727428292C2065786974696E6797
:103C80002E2E2E006173736572745F706172616DA8
:103C90002829206661696C65643A2066696C652034
:103CA000222573222C206C696E652025640A000091
:103CB000537461636B206672616D653A0A0000009F
:103CC000205230203D2020253038580A00000000C6
:103CD000205231203D2020253038580A00000000B5
:103CE000205232203D2020253038580A00000000A4
:103CF000205233203D2020253038580A0000000093
:103D000020523132203D20253038580A0000000072
:103D1000204C52203D2020253038580A0000000059
:103D2000205043203D2020253038580A0000000054
:103D300020505352203D20253038580A0000000002
:103D40004653522F4641523A0A0000002043465340
:103D500052203D2020253038580A00002048465384
:103D600052203D2020253038580A00002044465378
:103D700052203D2020253038580A0000204146536B
:103D800052203D2020253038580A0000204D4D4655
:103D90004152203D20253038580A0000204246413B
:103DA00052203D2020253038580A00004D697363A9
:103DB0000A000000204C522F4558435F524554558D
:103DC000524E3D20253038580A0000005B48617291
:103DD000644661756C745D0A000000005B42757397
:103DE0004661756C745D0A005B5573616765466179
:103DF000756C745D0A000000000000000000000007
:103E000001020304060708094144433A20256420BF
:103E10000A000000496E69636F2064652070726F4C
:103E20006772616D6100000053797374656D206382
:103E30006C6F636B3A20257520487A0A00000000F9
:103E4000232D302B2000686C4C0065666745464783
:103E50000030313233343536373839414243444506
:103E60004600303132333435363738396162636475
:033E700065660084
:103E7400785634128C000020000000000024F40066
:103E8400000100000008024040420F002000002012
:103E9400000000000000000000000000000000001E
:103EA400000000000000000000000000000000000E
:103EB40000000000000000000000000000000000FE
:103EC40000000000000000000000000000000000EE
:103ED40000000000000000000000000000000000DE
:103EE40000000000000000000000000000000000CE
:043EF4003254769836
:040000050800018965
:00000001FF
