:020000040800F2
:1000000000000220B9020008BF020008C302000875
:1000100035030008390300088103000800000000D0
:10002000000000000000000000000000C9030008FC
:10003000CD03000800000000D10300084130000893
:10004000E5030008E5030008E5030008E5030008F0
:10005000E5030008E5030008E5030008E5030008E0
:10006000E5030008E5030008E5030008E5030008D0
:10007000E5030008E5030008E5030008E5030008C0
:10008000E5030008E5030008E5030008E5030008B0
:10009000E5030008E5030008E5030008E5030008A0
:1000A000E50300084D300008E5030008E5030008FB
:1000B000E5030008E5030008E5030008E503000880
:1000C000E5030008E5030008E5030008E503000870
:1000D000E5030008E5030008E5030008E503000860
:1000E000E5030008E5030008E5030008E503000850
:1000F000E5030008E5030008E5030008E503000840
:10010000E5030008E5030008E5030008E50300082F
:10011000E5030008E5030008AD260008E503000834
:10012000E5030008E5030008E5030008E50300080F
:10013000E5030008E5030008E5030008E5030008FF
:10014000E5030008E5030008E5030008E5030008EF
:10015000E5030008E5030008E5030008E5030008DF
:10016000E5030008E5030008E5030008E5030008CF
:10017000E5030008E5030008E503000800000000AF
:10018000E5030008E503000800B583B002F034FE83
:10019000384B394A1360394A1360394900E0214627
:1001A000384B99420BD20A684B6801F10C048868FD
:1001B0009842F4D952F8041B43F8041BF8E72E4B7D
:1001C0001A68314B9A4200D0FEE72C4B1A682F4B2D
:1001D0009A42F9D1274B2E4A13602E4A13602E4AB9
:1001E00005E0002043F8040B9A42FAD80A462B4B4C
:1001F0009A4204D2114651F8083B5268F4E7244B66
:100200001B6813B9234B1B6803B1FEE703F0E4F846
:10021000694601A802F080FD214C224BE41AA4108B
:10022000002504E01F4B53F8253098470135AC42B8
:10023000F8DC1D4C1D4BE41AA410002504E01B4BF8
:1002400053F8253098470135AC42F8DC0099019805
:100250000DF0FEFE0546164C164BE41AA41004E001
:10026000013C144B53F824309847002CF8DC284606
:1002700002F025FDBABADECA00000020C435002015
:10028000E8030008000400087856341232547698C7
:10029000C83500202C730120000400081004000859
:1002A00010040008100400081004000810040008DE
:1002B000100400081004000808B5FFF765FF00BE31
:1002C000FEE71EF0040F0CBFEFF30880EFF3098088
:1002D0007146414A10472DE9F04182B004468846F4
:1002E000124B5E6B9F6B9D6A1B6B13F0020F03D06A
:1002F0000E4BDB6A002B0CDB0D4802F01FFDCDF826
:1003000000803B4632462946204602F081FD00BE71
:10031000FEE74BF6AB6102F0F5FD0028ECD0034B95
:100320004FF00042DA6202B0BDE8F08100ED00E07B
:100330001413010800BEFEE71EF0040F0CBFEFF31C
:100340000880EFF309807146244A10472DE9F041F7
:1003500082B004468846084B5E6B9F6B9D6A0748D7
:1003600002F0ECFCCDF800803B46324629462046A0
:1003700002F04EFD00BEFEE700ED00E02413010890
:100380001EF0040F0CBFEFF30880EFF309807146F5
:10039000134A10472DE9F04182B004468846084BC5
:1003A0005E6B9F6B9D6A074802F0C8FCCDF8008029
:1003B0003B4632462946204602F02AFD00BEFEE7B3
:1003C00000ED00E03013010800BEFEE700BEFEE7CE
:1003D00000BEFEE770470000D70200084D0300088A
:0803E0009503000800BEFEE7D2
:1003E800C441010800000020C8350020C4410108AC
:1003F8000000001000000010C835002030730120F4
:080408000000001000000010CC
:1004100008B50B4B1A6842F400721A601A6842F46D
:1004200080621A601A6842F480721A60032000F039
:1004300065FD0F2002F0F2F80DF00AFF002008BD64
:10044000003C0240024A136801331360704700BF4A
:10045000A8360020014B1868704700BFA83600205E
:1004600010B582B00190FFF7F5FF0446FFF7F2FFE9
:10047000001B019B9842F9D302B010BD10B5044691
:10048000514B5A6822F440325A605A6841680A4314
:100490005A600268536823F480735360026853689B
:1004A000016943EA012353600268536823F04073F3
:1004B00053600268536881680B4353600268936815
:1004C00023F40063936002689368C1680B439360F0
:1004D000826A3E4B9A425FD00268936823F0706351
:1004E000936002689368816A0B4393600268936823
:1004F00023F04053936002689368C16A0B43936092
:100500002268936823F00203936022689368A169CC
:1005100043EA41039360236A002B4ED0636A013B98
:10052000072B44D82268536843F400635360226861
:10053000536823F460435360636A013B4FF46042A5
:1005400092FAA2F2B2FA82F2934021684A68134307
:100550004B602268D36A23F47003D3622168CB6AAC
:10056000E269013A43EA0253CB622268936823F4BA
:100570000073936022689368216B43EA4123936080
:100580002268936823F480639360226893686169AA
:1005900043EA8123936010BD0268936823F070637F
:1005A00093600268936823F040539360A8E740F299
:1005B0000A61074802F0B8FBB4E72268536823F4E5
:1005C00000635360C5E700BF002301400100000F36
:1005D0001C100108002800F0EB8010B504460368E9
:1005E000744A93420CD002F58072934208D002F50F
:1005F0008072934204D040F20D116F4802F094FBD8
:10060000636843B1B3F5803F05D0B3F5003F02D036
:10061000B3F5403F6FD1A36843B1B3F1807F05D0FC
:10062000B3F1007F02D0B3F1407F6AD12369012B7F
:100630006DD8A369012B70D8A36A7BB3B3F1807F17
:100640002CD0B3F1007F29D0B3F1407F26D0B3F195
:10065000806F23D0B3F1A06F20D0B3F1C06F1DD055
:10066000B3F1E06F1AD0B3F1006F17D0B3F1106F90
:1006700014D0B3F1206F11D0B3F1306F0ED0B3F1BD
:10068000406F0BD0B3F1506F08D0B3F1606F05D05D
:10069000B3F1706F02D0494A934244D1E36813B179
:1006A000B3F5006F45D1E369013B0F2B47D8236BAE
:1006B000012B4AD86369022B4DD8236A012B50D8ED
:1006C000A26A3E4B9A420AD0E36A43B1B3F1805F1B
:1006D00005D0B3F1005F02D0B3F1405F47D1236C86
:1006E000002B4AD0236C13F0100F4DD001200023B3
:1006F00084F83C3010BD4FF487712F4802F014FB92
:1007000089E740F20F112C4802F00EFB8EE74FF400
:100710008871294802F008FB8BE740F21111264846
:1007200002F002FB88E74FF48971234802F0FCFADB
:10073000B4E740F21311204802F0F6FAB3E74FF4A1
:100740008A711D4802F0F0FAB1E740F215111A481B
:1007500002F0EAFAAEE74FF48B71174802F0E4FAC0
:10076000ABE740F21711144802F0DEFAA8E740F2B6
:100770001B11114802F0D8FAB1E7636484F83C30E9
:1007800020460DF013FEADE7236C23F4885323F0CD
:10079000020343F0020323642046FFF76FFE0020AC
:1007A0006064236C23F0030343F0010323649EE79A
:1007B00001207047002001401C1001080100000FBB
:1007C00010B582B00446002301938369012B29D818
:1007D000E36A43B1B3F1805F05D0B3F1005F02D0AB
:1007E000B3F1405F24D194F83C30012B6FD001234A
:1007F00084F83C3023689A6812F0010F1ED19A6881
:1008000042F001029A60364B1B68364AA2FB032372
:100810009B0C03EB43030193019B7BB1019B013BC9
:100820000193F9E74FF4DD712F4802F07DFACFE72D
:1008300040F2BB112C4802F077FAD4E722689368A3
:1008400013F0010F45D0236C23F4E06323F0010380
:1008500043F480732364536813F4806F05D0236CD2
:1008600023F4405343F480532364236C13F4805FD8
:100870001AD0636C23F006036364002384F83C30D1
:1008800023686FF022021A60184B5B6813F01F0F89
:100890000DD123689A6812F0405F1DD19A6842F02A
:1008A00080429A60002015E000236364E5E7236836
:1008B0000F4A934201D000200CE09A6812F0405F8A
:1008C0000CD19A6842F080429A60002002E0022037
:1008D00000E0002002B010BD0020FBE70020F9E797
:1008E0000C00002083DE1B431C1001080023014084
:1008F0000020014003689A6812F4806F03D09B685F
:1009000013F4807F1CD170B50D460446FFF7A2FD9D
:10091000064623681A6812F0020F1AD1B5F1FF3F9C
:10092000F7D025B1FFF796FD801BA842F1D9236CC3
:1009300043F004032364002384F83C3003202DE0BB
:10094000036C43F020030364002380F83C30012053
:1009500070476FF012021A60236C43F40073236433
:1009600023689A6812F0405F17D1A269BAB9DA6AAF
:1009700012F4700F03D09B6813F4806F11D1236CB5
:1009800023F480732364236C13F4805F0BD1236CF6
:1009900043F001032364002000E0002070BD00202C
:1009A000FCE70020FAE70020F8E70368D86C7047FE
:1009B00030B583B005460C46002301930B68122B1B
:1009C0004ED86368013B0F2B50D8A368072B53D830
:1009D00095F83C30012B00F0C780012385F83C30AE
:1009E0002368092B4ED92868C2689BB203EB4303E6
:1009F0001E3B072101FA03F322EA0303C3602868C0
:100A0000C268A168238803EB43031E3B01FA03F38A
:100A10001343C3606368062B4AD82868426B03EB14
:100A20008303053B1F2101FA03F322EA0303436317
:100A30002868426B636803EB8303053B218801FA56
:100A400003F3134343632A68484B9A4260D02A68F1
:100A5000464B9A4265D0002085F83C0003B030BD7B
:100A600040F20451424802F05FF9AAE740F2055112
:100A70003F4802F059F9A8E740F206513C4802F01D
:100A800053F9A5E7286802699BB203EB43030721EA
:100A900001FA03F322EA0303036128680269A168EB
:100AA000238803EB430301FA03F313430361B1E724
:100AB0000C2B16D82868026B03EB8303233B1F2102
:100AC00001FA03F322EA030303632868026B6368F5
:100AD00003EB8303233B218801FA03F313430363EE
:100AE000B1E72868C26A03EB8303413B1F2101FA87
:100AF00003F322EA0303C3622868C26A636803EB54
:100B00008303413B218801FA03F31343C3629AE74D
:100B10002368122B9BD1174A536843F48003536018
:100B200095E72368103B012B95D8124A536843F48C
:100B3000000353602368102B8DD10F4B1B6802F10B
:100B4000467202F52E3202F28332A2FB03239B0C83
:100B500003EB83035A000192019B002B3FF47BAF10
:100B6000019B013B0193F7E7022077E7002001405A
:100B70001C100108002301400C00002038B5054678
:100B80000C460B68122B00F201816368013B032BBA
:100B900000F20281A368072B00F20481E36983B3AA
:100BA000B3F5803F2DD0B3F5003F2AD0B3F5403FD9
:100BB00027D0B3F5802F24D0B3F5A02F21D0B3F5E3
:100BC000C02F1ED0B3F5E02F1BD0B3F5002F18D0E7
:100BD000B3F5102F15D0B3F5202F12D0B3F5302F69
:100BE0000FD0B3F5402F0CD0B3F5502F09D0B3F58B
:100BF000602F06D0B3F5702F03D0AB4A934240F07C
:100C0000D7802369013B032B00F2D880A369012B15
:100C100000F2DA806369012B00F2DC802B685B68EC
:100C200013F0407303D1E268B2F5805F12D3B3F1E1
:100C3000807F00F0D580B3F1007F00F0D780B3F162
:100C4000407F02D1E3683F2B04D94FF449719748A4
:100C500002F06AF8236A944A93420AD04BB1B3F582
:100C6000801F06D0B3F5001F03D0B3F5401F40F03E
:100C7000C28095F83C30012B00F03C81012385F8BF
:100C80003C302368092B40F2BC802868C2689BB2C4
:100C900003EB43031E3B072101FA03F322EA03039C
:100CA000C3602868C268A168238803EB43031E3B26
:100CB00001FA03F31343C3602A68936B23F44013D0
:100CC000936329688B6B2269013A43EA02538B6371
:100CD0002868826B636821695B1ADBB20333DBB27D
:100CE00003EB83031F2101FA03F322EA0303836367
:100CF0002868826B636821695B1ADBB20333DBB25D
:100D000003EB8303218801FA03F313438363E2694E
:100D1000654B9A4200F08B802A68936823F4702315
:100D200093602A689368E1690B4393602A6893682B
:100D300023F4401393602A689368216A0B439360FD
:100D4000A369002B7ED02A68536843F48063536004
:100D50006369002B7CD02A68536843F48053536046
:100D60006368022B00F09280032B00F0A380012B1C
:100D700074D02A68136A23F47F6323F00F0313628D
:100D80002A68136AE1680B43136273E040F21A3178
:100D9000464801F0C9FFF8E640F21B31434801F034
:100DA000C3FFF7E64FF44771404801F0BDFFF5E699
:100DB00040F21D313D4801F0B7FF22E740F21E31FD
:100DC0003A4801F0B1FF21E740F21F31374801F006
:100DD000ABFF1FE74FF44871344801F0A5FF1DE752
:100DE000E268B2F5806FFFF435AF24E7E268FF2ACE
:100DF0007FF630AF23E740F229312C4801F094FF11
:100E000037E7286802699BB203EB4303072101FA25
:100E100003F322EA0303036128680269A1682388B7
:100E200003EB430301FA03F31343036144E72A6826
:100E3000936823F4702393602A68936823F4401323
:100E400093607DE72A68536823F4806353607FE7EB
:100E50002A68536823F48053536081E72A685369F2
:100E600023F47F6323F00F0353612A685369E16819
:100E70000B4353612A680E4B9A4228D02A680C4BC8
:100E80009A422DD0002085F83C0038BD2A6893692D
:100E900023F47F6323F00F0393612A689369E16869
:100EA0000B439361E6E700BF01000F004C100108FF
:100EB000002001402A68D36923F47F6323F00F03E5
:100EC000D3612A68D369E1680B43D361D2E7236811
:100ED000122BD3D1084A536843F480035360CDE703
:100EE0002368103B012BCDD8034A536843F4000319
:100EF0005360C7E70220C8E70023014010B504464D
:100F0000C31E042B0FD80A4AD36823F4E0631B04E2
:100F10001B0C240204F4E064234343F0BF6343F456
:100F20000033D36010BDA421024801F0FDFEEAE7C2
:100F300000ED00E08010010870B505460C4616462D
:100F40000F2A0FD80F2C12D81B4BDB68C3F30223D8
:100F5000C3F10702042A28BF0422191D06290BD950
:100F6000033B0AE0BC21154801F0DEFEEAE7BD21A3
:100F7000124801F0D9FEE7E700234FF0FF3101FAF4
:100F800002F224EA02049C4001FA03F326EA030673
:100F90003443002D08DB2401E4B205F1604505F57A
:100FA000614585F8004370BD05F00F052401E4B2EA
:100FB000034B5C55F7E700BF00ED00E0801001082F
:100FC00014ED00E010B5041E08DB04F01F026409F4
:100FD00001239340044A42F8243010BDD021034835
:100FE00001F0A2FEF1E700BF00E100E0801001087F
:100FF0002DE9F04782B080460E46B84B984223D088
:1010000003F5806398421FD003F5806398421BD09C
:1010100003F58063984217D003F58063984213D09C
:1010200003F5806398420FD003F5806398420BD09C
:1010300003F58063984207D003F58063984203D09C
:10104000C521A74801F070FE338833B37368012BC4
:101050001ED9112B1CD0022B1AD0122B18D0A14A4A
:10106000934215D002F58012934211D002F58012FE
:1010700093420DD0A2F5F812934209D002F58012E6
:10108000934205D002F58012934201D0032B09D17F
:10109000B368022B0BD800244FE0C621904801F022
:1010A00043FED3E7C7218E4801F03EFEF0E7C8219A
:1010B0008B4801F039FEEEE7D921894801F034FE72
:1010C00067E0EC21864801F02FFE92E0082300E063
:1010D00000238B4003430232834941F82230834B83
:1010E0001A68FB4303EA0201706810F4803F01D0E4
:1010F00047EA02017D4A1160526803EA0201706802
:1011000010F4003F01D047EA0201784A516092682A
:1011100003EA0201706810F4801F01D047EA02015F
:10112000724A9160D2681340716811F4001F01D0B7
:1011300047EA02036D4AD36001340F2C00F2CB80E2
:101140000125A54037682F40BD42F5D17368022BB9
:1011500001D0122B2DD13369DBB1092B19D0012B12
:1011600017D0022B15D0032B13D0042B11D0052B35
:101170000FD0062B0DD0072B0BD0082B09D00A2B34
:1011800007D00B2B05D00C2B03D00D2B01D00F2B30
:1011900092D1E208083258F8220004F007039900BF
:1011A0000F238B4020EA030033698B40034348F848
:1011B0002230D8F800204FEA440A4FF0030909FA18
:1011C0000AF96FEA090909EA0202736803F00303E6
:1011D00003FA0AF31343C8F8003073685A1E012A51
:1011E00003D9112B01D0122B18D1F368032B3FF632
:1011F00068AFD8F8082009EA0202F36803FA0AF394
:101200001343C8F80830D8F8042022EA05027368AE
:10121000C3F30015A5401543C8F80450D8F80C30A6
:1012200009EA0309B36803FA0AF343EA0903C8F8B1
:101230000C30736813F0805F3FF47EAF002301939E
:101240002B4B5A6C42F480425A645B6C03F480432B
:101250000193019BA208911C234B53F8210004F039
:10126000030399000F238B4020EA03001B4B984592
:101270003FF42EAF03F5806398451ED003F58063DD
:1012800098451CD003F5806398451AD003F5806318
:10129000984518D003F58063984516D003F5806310
:1012A000984514D003F58063984512D003F5806308
:1012B00098453FF40BAF09230BE7012309E702230D
:1012C00007E7032305E7042303E7052301E70623D4
:1012D000FFE60723FDE602B0BDE8F087000002400C
:1012E000B41001080000111000380140003C01401A
:1012F0000038024038B505460C4621B12B691C4226
:1013000007D0012038BD4FF4C871034801F00CFD2F
:10131000F4E70020F6E700BFB410010870B50646F8
:1013200015460C4621B1012D08D86DB1B46170BDD0
:1013300040F2B111064801F0F7FCF4E74FF4D9711F
:10134000034801F0F1FCF0E72404B461EFE700BFCB
:10135000B410010830B583B0044603680F2B29D8B8
:10136000236813F0010F3DD06368012B01D9052BD1
:1013700025D1A24B9B6803F00C03042B29D09F4B73
:101380009B6803F00C03082B1ED022799C4B1A702B
:101390006368002B50D0FFF75DF80546974B1B683C
:1013A00013F4003F1ED1FFF755F8401B6428F5D910
:1013B0000320E3E1F521934801F0B6FCD0E7FA21E0
:1013C000904801F0B1FCD4E78C4B5B6813F4800FBC
:1013D000DBD08A4B1B6813F4003F03D06368002BFB
:1013E00000F0C781236813F0020F5CD0E368012B83
:1013F00031D823691F2B34D8804B9B6813F00C0F16
:101400003AD07E4B9B6803F00C03082B2FD0E36887
:10141000002B73D07C4B01221A60FFF71BF80546A6
:10142000764B1B6813F0020F59D1FFF713F8401BDE
:101430000228F5D90320A1E1FFF70CF805466F4B10
:101440001B6813F4003FCDD0FFF704F8401B64285D
:10145000F5D9032092E14FF496716A4801F064FCDB
:10146000C7E740F22D11674801F05EFCC4E7634B0B
:101470005B6813F4800FCAD1604B1B6813F0020F36
:1014800003D0E368012B40F076815C48036823F0C9
:10149000F8032169F82292FAA2F2B2FA82F201FA72
:1014A00002F213430360236813F0080F50D06369FE
:1014B000012B35D86369002B38D0544B01221A60B8
:1014C000FEF7C8FF05464D4B5B6F13F0020F3FD18F
:1014D000FEF7C0FF401B0228F5D903204EE1474824
:1014E000036823F0F8032169F82292FAA2F2B2FA13
:1014F00082F201FA02F213430360D4E7424B002266
:101500001A60FEF7A7FF05463C4B1B6813F0020F5D
:10151000C9D0FEF79FFF401B0228F5D903202DE11B
:1015200040F26D11374801F0FFFBC3E7374B002253
:101530001A60FEF78FFF0546304B5B6F13F0020F0A
:1015400006D0FEF787FF401B0228F5D9032015E1DE
:10155000236813F0040F5FD0A368012B01D9052B7A
:101560001FD100230193254B1A6C42F080521A645C
:101570001B6C03F080530193019B254A136843F4CD
:1015800080731360FEF766FF0546214B1B6813F45A
:10159000807F0CD1FEF75EFF401B0228F5D90320A7
:1015A000ECE040F29711174801F0BEFBD9E7227A30
:1015B000184B1A70A36883B1FEF74CFF05460F4B1A
:1015C0001B6F13F0020F27D1FEF744FF401B41F2BF
:1015D00088339842F3D90320D0E0FEF73BFF05465D
:1015E000064B1B6F13F0020F16D0FEF733FF401BA4
:1015F00041F288339842F3D90320BFE0003802401B
:1016000002380240F410010800004742800E4742B1
:101610000070004070380240A369022B39D8A369DA
:10162000002B00F0AA80574A926802F00C02082AA8
:1016300000F0A680022B40F08880E36913B1B3F577
:10164000800F2CD1236A3F2B2FD8636A323BB3F52E
:10165000BF7F30D8A36A022B05D0042B03D0062B02
:1016600001D0082B2DD1E36A043B0B2B2FD8464B1E
:1016700000221A60FEF7EEFE0546424B1B6813F08F
:10168000007F2AD0FEF7E6FE401B0228F5D9032092
:1016900074E04FF4E6713D4801F046FBBFE740F2CD
:1016A000D5113A4801F040FBCCE74FF4EB713748D5
:1016B00001F03AFBC9E740F2D711344801F034FB9E
:1016C000C8E74FF4EC71314801F02EFBCBE740F254
:1016D000D9112E4801F028FBC9E7E369226A1343B8
:1016E000616A47F6C07292FAA2F2B2FA82F201FA85
:1016F00002F21343A26A5208013A4FF4403191FAC0
:10170000A1F1B1FA81F18A401343E16A4FF07062AE
:1017100092FAA2F2B2FA82F201FA02F21343194AE1
:101720005360194B01221A60FEF794FE0446154BD4
:101730001B6813F0007F06D1FEF78CFE001B022809
:10174000F5D903201AE0002018E00F4B00221A60A0
:10175000FEF780FE04460B4B1B6813F0007F06D09B
:10176000FEF778FE001B0228F5D9032006E00020D2
:1017700004E0012002E0012000E0002003B030BDC1
:101780000120FBE70038024060004742F4100108E6
:10179000214B9B6803F00C03042B38D0082B38D165
:1017A0001D4B586800F03F005B6813F4800F1ED09B
:1017B0001A4AB2FBF0F2184B586847F6C07318404B
:1017C00093FAA3F3B3FA83F3D84000FB02F0124B71
:1017D0005B6803F440334FF4403292FAA2F2B2FA5B
:1017E00082F2D34001335B00B0FBF3F070470C4A48
:1017F000B2FBF0F2084B586847F6C073184093FAF2
:10180000A3F3B3FA83F3D84000FB02F0DFE7034809
:1018100070470348704700BF0038024000127A004A
:101820000024F40070B504460D460368013B0E2BFE
:101830005ED8072D62D88C4B1B6803F00F03AB42B8
:1018400008D2EBB2884A1370136803F00F03AB425F
:1018500040F00481236813F0020F18D0A3687BB115
:10186000802B0DD0902B0BD0A02B09D0B02B07D004
:10187000C02B05D0D02B03D0E02B01D0F02B43D1CF
:101880007A4A936823F0F003A1680B4393602368BE
:1018900013F0010F7FD06368032B3BD86368012BE3
:1018A0003ED09A1E012A42D9704A126812F0020FE5
:1018B00000F0D6806D498A6822F0030213438B60E2
:1018C000FEF7C8FD06466368012B37D0022B44D0D3
:1018D000032B51D0654B9B6813F00C0F5BD0FEF7C8
:1018E000B9FD801B41F288339842F3D90320A8E068
:1018F00040F237215E4801F017FA9AE74FF40E7173
:101900005B4801F011FA96E740F24F21584801F088
:101910000BFAB5E740F25621554801F005FABDE74C
:10192000524A126812F4003FC4D1012089E04F4AA4
:10193000126812F0007FBDD1012082E04B4B9B6802
:1019400003F00C03042B26D0FEF784FD801B41F22C
:1019500088339842F2D9032073E0444B9B6803F02C
:101960000C03082B17D0FEF775FD801B41F288335E
:101970009842F2D9032064E03C4B9B6803F00C03CF
:101980000C2B08D0FEF766FD801B41F2883398428D
:10199000F2D9032055E0344B1B6803F00F03AB4230
:1019A00007D9EAB2304B1A701B6803F00F03AB4241
:1019B00058D1236813F0040F14D0E3685BB1B3F57A
:1019C000805F08D0B3F5A05F05D0B3F5C05F02D04B
:1019D000B3F5E05F36D1254A936823F4E053E1681C
:1019E0000B439360236813F0080F15D023695BB194
:1019F000B3F5805F08D0B3F5A05F05D0B3F5C05F45
:101A000002D0B3F5E05F23D1184A936823F4604312
:101A1000216943EAC1039360FFF7BAFE134B9B6849
:101A200003F0F003F02292FAA2F2B2FA82F2D3406B
:101A3000104AD35CD840104B18600F2000F0EEFD28
:101A4000002070BD4FF42D71094801F06DF9C2E717
:101A500040F2BB21064801F067F9D5E70120F0E725
:101A60000120EEE70120ECE7003C02400038024094
:101A7000F4100108E41001080C000020014B186864
:101A8000704700BF0C00002008B5FFF7F7FF074BB9
:101A90009B6803F4E0534FF4E05292FAA2F2B2FAD8
:101AA00082F2D340024AD35CD84008BD00380240DD
:101AB000E410010808B5FFF7E1FF074B9B6803F44A
:101AC00060434FF4604292FAA2F2B2FA82F2D3403B
:101AD000024AD35CD84008BD00380240E410010837
:101AE0000F2303600B4B9A6802F0030242609A686E
:101AF00002F0F00282609A6802F4E052C2609B68D1
:101B0000DB0803F4E0530361034B1B6803F00F038E
:101B10000B60704700380240003C024010B4036A7A
:101B2000046A24F001040462846924F0F00444EAA5
:101B3000021223F00A030B438261036210BC704758
:101B400010B4036A23F0100303628469036A24F467
:101B5000704444EA023223F0A00343EA0113826195
:101B6000036210BC7047836823F0700341F00701E3
:101B700019438160704710B4846824F47F4442EABA
:101B800003230B432343836010BC704710B5044606
:101B90000368234A934237D0B3F1804F34D0A2F583
:101BA0007C42934230D002F5806293422CD002F501
:101BB0008062934228D002F58062934224D002F5DD
:101BC0008062934220D002F5704293421CD002F50D
:101BD0007052934218D002F58062934214D002F5FD
:101BE0008062934210D0A2F5983293420CD002F555
:101BF0008062934208D002F58062934204D04FF491
:101C0000B271084801F090F82268D36843F00103EC
:101C1000D3602268136843F001031360002010BDF5
:101C2000000001402411010838B590F83830012B2C
:101C300000F0D8820D460446012380F83830022394
:101C400080F839300B68B3F5805F11D0B3F5005FD1
:101C50000ED06BB1102B0BD0202B09D0302B07D01E
:101C6000402B05D0502B03D0602B01D0702B52D1CC
:101C70002268936823F47F4323F0770393602B68F3
:101C8000402B00F007824CD9702B00F03A8100F213
:101C9000A780502B00F09C81602B40F02B812368A3
:101CA000B74A93421FD0B3F1804F1CD0A2F57C42BB
:101CB000934218D002F58062934214D002F58062FC
:101CC000934210D002F5784293420CD002F5705244
:101CD000934208D0A2F59432934204D040F6BA71F0
:101CE000A84801F021F86B68B3F5004F05D023B187
:101CF000022B02D00A2B40F0C181EB680F2B00F2BF
:101D0000C381EA6869682068FFF71AFF60212068CC
:101D1000FFF729FFEEE040F66D719A4801F004F8F4
:101D2000A6E7102B00F00C822ED9202B00F0318278
:101D3000302B40F0DF802368914A93421FD0B3F1EB
:101D4000804F1CD0A2F57C42934218D002F58062ED
:101D5000934214D002F58062934210D002F578428B
:101D600093420CD002F57052934208D0A2F59432FF
:101D7000934204D040F6E871824800F0D5FF30214C
:101D80002068FFF7F0FEB5E0002B40F0B380236839
:101D90007B4A93421FD0B3F1804F1CD0A2F57C4206
:101DA000934218D002F58062934214D002F580620B
:101DB000934210D002F5784293420CD002F5705253
:101DC000934208D0A2F59432934204D040F6D671E3
:101DD0006C4800F0A9FF00212068FFF7C4FE89E0ED
:101DE000B3F5805F45D0B3F5005F40F08380236892
:101DF000634A934217D0B3F1804F14D0A2F57C42CE
:101E0000934210D002F5806293420CD002F58062BA
:101E1000934208D002F57842934204D040F69A717A
:101E2000584800F081FF6B68B3F5004F05D023B12F
:101E3000022B02D00A2B40F0B980AB684BB1B3F54E
:101E4000805F06D0B3F5005F03D0B3F5405F40F08C
:101E5000B380EB680F2B00F2B580EB686A68A96865
:101E60002068FFF788FE2268936843F480439360FC
:101E700040E02368424A934237D0B3F1804F34D0D8
:101E8000A2F57C42934230D002F5806293422CD07E
:101E900002F58062934228D002F58062934224D0FA
:101EA00002F58062934220D002F5704293421CD02A
:101EB00002F57052934218D002F58062934214D01A
:101EC00002F58062934210D0A2F5983293420CD072
:101ED00002F58062934208D002F58062934204D0FA
:101EE00040F67971274800F01FFF2268936823F0BD
:101EF00007039360012384F83930002084F8380008
:101F000038BD23681E4A934217D0B3F1804F14D0D6
:101F1000A2F57C42934210D002F5806293420CD02D
:101F200002F58062934208D002F57842934204D0D1
:101F300040F68271134800F0F7FE6B68B3F5004F6E
:101F400004D01BB1022B01D00A2B1DD1AB6843B1C9
:101F5000B3F5805F05D0B3F5005F02D0B3F5405F05
:101F600018D1EB680F2B1BD8EB686A68A96820684A
:101F7000FFF701FE2268936843F077039360B9E7A7
:101F8000000001402411010840F68471964800F0D9
:101F9000CBFEDBE740F68571934800F0C5FEE0E735
:101FA00040F68671904800F0BFFEDDE740F69C7178
:101FB0008D4800F0B9FE40E740F69D718A4800F078
:101FC000B3FE46E740F69E71874800F0ADFE44E759
:101FD0002368864A93422FD0B3F1804F2CD0A2F5CC
:101FE0007C42934228D002F58062934224D002F5CD
:101FF0008062934220D002F5784293421CD002F5D1
:102000007052934218D002F58062934214D002F5C8
:102010008062934210D0A2F5983293420CD002F520
:102020008062934208D002F58062934204D040F669
:10203000AC716D4800F078FE6B68B3F5004F04D0CA
:102040001BB1022B01D00A2B0CD1EB680F2B0FD840
:10205000EA6869682068FFF761FD50212068FFF792
:1020600082FD47E740F6AF715F4800F05DFEECE7A8
:102070004FF47B615C4800F057FEE9E740F6BD7124
:10208000594800F051FE38E640F6BE71564800F05F
:102090004BFE36E62368554A93422FD0B3F1804F6A
:1020A0002CD0A2F57C42934228D002F58062934264
:1020B00024D002F58062934220D002F57842934208
:1020C0001CD002F57052934218D002F58062934200
:1020D00014D002F58062934210D0A2F59832934258
:1020E0000CD002F58062934208D002F580629342E0
:1020F00004D040F6C8713C4800F016FE6B68B3F59A
:10210000004F04D01BB1022B01D00A2B0CD1EB687D
:102110000F2B0FD8EA6869682068FFF7FFFC4021A1
:102120002068FFF720FDE5E640F6CB712E4800F071
:10213000FBFDECE740F6CC712B4800F0F5FDE9E73C
:1021400023682A4A93421FD0B3F1804F1CD0A2F5D6
:102150007C42934218D002F58062934214D002F57B
:102160008062934210D002F5784293420CD002F57F
:102170007052934208D0A2F59432934204D040F6B4
:10218000DC71194800F0D0FD10212068FFF7EBFC4E
:10219000B0E62368154A93421FD0B3F1804F1CD09C
:1021A000A2F57C42934218D002F58062934214D08B
:1021B00002F58062934210D002F5784293420CD02F
:1021C00002F57052934208D0A2F59432934204D0A3
:1021D00040F6E271044800F0A7FD20212068FFF7D7
:1021E000C2FC87E602208BE62411010800000140B2
:1021F000704770477047704710B5044603681A6906
:1022000012F0020F11D0DA6812F0020F0DD06FF049
:1022100002021A610123037603689B6913F0030F1E
:1022200070D0FFF7E6FF0023237623681A6912F0C7
:10223000040F12D0DA6812F0040F0ED06FF004020F
:102240001A610223237623689B6913F4407F5FD0D1
:102250002046FFF7CEFF0023237623681A6912F089
:10226000080F12D0DA6812F0080F0ED06FF00802D3
:102270001A61042323762368DB6913F0030F4ED021
:102280002046FFF7B6FF0023237623681A6912F071
:10229000100F12D0DA6812F0100F0ED06FF010028B
:1022A0001A61082323762368DB6913F4407F3DD04D
:1022B0002046FFF79EFF0023237623681A6912F059
:1022C000010F03D0DA6812F0010F36D123681A69C2
:1022D00012F0800F03D0DA6812F0800F34D1236837
:1022E0001A6912F0400F03D0DA6812F0400F32D1B1
:1022F00023681A6912F0200F03D0DA6812F0200F59
:1023000030D110BDFFF774FF2046FFF773FF8AE757
:102310002046FFF76DFF2046FFF76CFF9BE7204646
:10232000FFF766FF2046FFF765FFACE72046FFF7A3
:102330005FFF2046FFF75EFFBDE76FF001021A6105
:10234000204600F0AFF9C1E76FF080021A61204625
:1023500000F063F9C3E76FF040021A612046FFF70F
:102360004AFFC5E76FF020021A61204600F054F9D9
:10237000C7E7000003682E4A904212D0B0F1804FA8
:102380000FD0A2F57C4290420BD002F580629042C1
:1023900007D002F58062904203D002F57842904265
:1023A00003D123F070034A681343214A90422AD094
:1023B000B0F1804F27D0A2F57C42904223D002F5A5
:1023C000806290421FD002F5806290421BD002F5DD
:1023D0007842904217D002F57052904213D002F525
:1023E000806290420FD002F5806290420BD0A2F53D
:1023F0009832904207D002F58062904203D002F5F5
:102400008062904203D123F44073CA68134303608F
:102410008B68C3620B688362054B984203D003F557
:102420008063984201D10B690363012343617047C4
:102430000000014000286ED010B504460368374AFA
:10244000934236D0B3F1804F33D0A2F57C42934211
:102450002FD002F5806293422BD002F58062934226
:1024600027D002F58062934223D002F58062934226
:102470001FD002F5704293421BD002F57052934276
:1024800017D002F58062934213D002F58062934226
:102490000FD0A2F5983293420BD002F5806293429E
:1024A00007D002F58062934203D0D9211C4800F086
:1024B0003BFCA3683BB1102B05D0202B03D0402B55
:1024C00001D0602B17D123692BB1B3F5807F02D0E7
:1024D000B3F5007F14D194F83930B3B1022384F8F6
:1024E0003930214651F8040BFFF744FF012384F8EB
:1024F0003930002010BDDA21094800F015FCE2E770
:10250000DB21074800F010FCE5E784F8383020466E
:102510000BF0A0FEE2E70120704700BF0000014081
:102520002411010838B504460D460368384A934221
:1025300027D0B3F1804F24D0A2F57C42934220D023
:1025400002F5806293421CD002F58062934218D05B
:1025500002F58062934214D002F58062934210D05B
:1025600002F5704293420CD002F57052934208D0AB
:10257000A2F59432934204D04FF4CB61254800F089
:10258000D3FB2B686BB1102B0BD0202B09D0302B39
:1025900007D0402B05D0502B03D0602B01D0702BDF
:1025A00027D16B68802B00D04BBB94F83830012BBF
:1025B0002BD0012284F83820022384F83930216896
:1025C0004B6823F070034B6021684B682868034315
:1025D0004B6021688B6823F080038B6021688B68D7
:1025E000686803438B6084F83920002084F8380041
:1025F00038BD40F25961074800F096FBD1E740F240
:102600005A61044800F090FBCFE70220F0E700BFDA
:1026100000000140541101087047704700B589B0AF
:10262000002201463620FEF787FC3620FEF7CAFC62
:1026300000230193174B1A6C42F010021A641B6CB2
:1026400003F010030193019B02A903A8FFF748FAC6
:10265000069BBBB9FFF718FA0F4BA3FB00239B0C9B
:10266000013B0E480E4A026040F2E732C26043600E
:10267000002303618360FFF7DDFE38B1012009B05C
:102680005DF804FBFFF700FA4000E5E70348FFF7B9
:102690007DFAF4E70038024083DE1B43AC360020AD
:1026A0000010004008B5FDF7CDFE08BD08B5024892
:1026B000FFF7A2FD08BD00BFAC3600202DE9F843AE
:1026C00004464268B44B9A4200F29C80E3681BB116
:1026D000B3F5005F40F09C80236933B1B3F5806FA0
:1026E00003D0B3F5C06F40F0998063694FF6F37281
:1026F000134200D123B940F25271A84800F014FBF4
:1027000021680A6922F44052E36813430B6121688F
:10271000CA6822F4164222F00C02A368206903431F
:1027200060690343E06903431343CB6021684A694E
:1027300022F44072A36913434B61E369B3F5004F80
:1027400072D02368964A934200F02E8102F580628F
:10275000934200F02981FFF797F900EB800000EB2E
:1027600080006568AD00B0FBF5F58E4FA7FB053521
:102770006D092E01FFF788F900EB800000EB800067
:102780006568AD00B0FBF5F9FFF77EF900EB80005E
:1027900000EB80006568AD00B0FBF5F5A7FB0535E3
:1027A0006D094FF0640808FB15952D013235A7FB24
:1027B00005356D0905F0F0053544FFF765F900EBC7
:1027C000800000EB80006668B600B0FBF6F6FFF70D
:1027D0005BF900EB800000EB800063689B00B0FBBE
:1027E000F3F0A7FB0030400908FB10684FEA081817
:1027F00008F13208A7FB0837C7F3431723682F44B3
:102800009F6027E140F24F71644800F08DFA5DE768
:102810004FF4EA61614800F087FA5DE740F25171D8
:102820005E4800F081FA60E723685D4A93425BD01E
:1028300002F58062934257D0FFF726F900EB800043
:1028400000EB800065686D00B0FBF5F5554FA7FB08
:1028500005356D092E01FFF717F900EB800000EB3D
:10286000800065686D00B0FBF5F9FFF70DF900EB2E
:10287000800000EB800065686D00B0FBF5F5A7FBFC
:1028800005356D094FF0640808FB1595ED003235EC
:10289000A7FB05356D096D0005F4F8753544FFF7A4
:1028A000F3F800EB800000EB800066687600B0FB78
:1028B000F6F6FFF7E9F800EB800000EB80006368B4
:1028C0005B00B0FBF3F3A7FB03235B0908FB136872
:1028D0004FEAC80808F13208A7FB0837C7F34217C8
:1028E00023682F449F60B5E0FFF7E4F800EB800019
:1028F00000EB800065686D00B0FBF5F5294FA7FB84
:1029000005356D092E01FFF7D5F800EB800000EBCF
:10291000800065686D00B0FBF5F9FFF7CBF800EBC0
:10292000800000EB800065686D00B0FBF5F5A7FB4B
:1029300005356D094FF0640808FB1595ED0032353B
:10294000A7FB05356D096D0005F4F8753544FFF7F3
:10295000B1F800EB800000EB800066687600B0FB09
:10296000F6F6FFF7A7F800EB800000EB8000636845
:102970005B00B0FBF3F3A7FB03235B0908FB1368C1
:102980004FEAC80808F13208A7FB0837C7F3421717
:1029900023682F449F605DE0A037A00088110108E4
:1029A000001001401F85EB51FFF784F800EB800019
:1029B00000EB80006568AD00B0FBF5F5264FA7FB86
:1029C00005356D092E01FFF775F800EB800000EB6F
:1029D00080006568AD00B0FBF5F9FFF76BF800EB20
:1029E000800000EB80006568AD00B0FBF5F5A7FB4B
:1029F00005356D094FF0640808FB15952D0132353A
:102A0000A7FB05356D0905F0F0053544FFF752F8D1
:102A100000EB800000EB80006668B600B0FBF6F6C5
:102A2000FFF748F800EB800000EB800063689B0034
:102A3000B0FBF3F0A7FB0030400908FB10684FEA39
:102A4000081808F13208A7FB0837C7F343172368B3
:102A50002F449F60BDE8F8831F85EB512DE9F041BD
:102A600005460F4616469846069C2B681B6837EAB3
:102A700003030CBF01230023B3421DD1B4F1FF3F78
:102A8000F3D02CB1FDF7E6FCA0EB0800A042ECD996
:102A90002A68D36823F4D073D3602A68536923F07B
:102AA00001035361202385F8393085F83A3000233B
:102AB00085F83830032000E00020BDE8F0810000F8
:102AC000002800F0898010B504468369002B53D09C
:102AD0000368424A93420FD0A2F54C4293420BD076
:102AE00002F58062934207D002F54C42934203D034
:102AF000FE213B4800F018F9A36943B1B3F5807F8C
:102B000005D0B3F5007F02D0B3F5407F2FD1A36885
:102B100013B1B3F5805F4DD1E36913B1B3F5004F45
:102B20004ED194F83930002B50D0242384F839301A
:102B30002268D36823F40053D3602046FFF7BEFD1C
:102B40002268136923F4904313612268536923F0C8
:102B50002A0353612268D36843F40053D3600020F2
:102B6000E063202384F8393084F83A3010BDFF2127
:102B70001B4800F0D9F8CAE70368184A9342C6D048
:102B8000A2F54C429342C2D002F580629342BED07D
:102B900002F580629342BAD002F580629342B6D0C9
:102BA00002F544429342B2D040F203110C4800F0C7
:102BB000BBF8ACE740F20511094800F0B5F8ABE707
:102BC0004FF48371064800F0AFF8AAE784F8383074
:102BD00020460BF0B1FBA8E7012070470010014030
:102BE000881101082DE9F04182B01E4690F8393075
:102BF000DBB2202B52D104460D469046002952D01C
:102C0000002A52D090F83830012B50D0012380F8A0
:102C100038300023C363212380F83930FDF71AFCD4
:102C20000746A4F82480A4F8268010E000963B46CE
:102C3000002280212046FFF711FF002839D12B8880
:102C40002268C3F3080353602369ABB90235E38CF0
:102C5000A3B1013BE384A368B3F5805FE6D000969F
:102C60003B46002280212046FFF7F8FE18BB15F8EE
:102C7000012B23685A60EAE70135E8E700963B46F6
:102C8000002240212046FFF7E9FE0346A8B9202292
:102C900084F83920002284F8382000E00223184606
:102CA00002B0BDE8F0810123F9E70123F7E7022331
:102CB000F5E70323F3E70323F1E70323EFE7FEE759
:102CC00008B5034800F054F80120FFF7F8FF00BFF3
:102CD000B811010808B503460C4A12685AB10B4AEC
:102CE0001068033323F003030344094A934206D8D0
:102CF000064A136008BD054A06491160EFE70DF06A
:102D0000C1FC0C2303604FF0FF30F3E7CC3500200B
:102D100000FC01203073012001230360014B0B6094
:102D2000704700BF0400002008B50A46014602486B
:102D300000F004F8FFF7C4FFCC1101080FB400B590
:102D400083B004AB53F8042B0193802107480DF0A6
:102D500019FD002804DC03B05DF804EB04B07047F3
:102D60000146024800F044F8F5E700BFD4350020E2
:102D700010B504460DF0D2FC0146204600F038F8AC
:102D80000121024800F034F810BD00BF58130108BB
:102D90002DE9F04385B004460F46435633BB042566
:102DA00028462146ABBE0446384605B0BDE8F08350
:102DB00004AA1344002203F8102C4FF00408E9463B
:102DC00040464946ABBE8046761B002EECD03546C9
:102DD000102E28BF10250023AB42E9D214F9011BA5
:102DE00004AA1A4402F8101C0133F5E70E46ECE77A
:102DF00008B5FFF7CDFF08BD08B500F093F8024A0B
:102E0000024B9A6008BD00BF0000000800ED00E022
:102E1000F8B504460D4617461E462748FFF78EFFB5
:102E200021682648FFF78AFF61682548FFF786FF7B
:102E3000A1682448FFF782FFE1682348FFF77EFF7F
:102E400021692248FFF77AFF61692148FFF776FF81
:102E5000A1692048FFF772FFE1691F48FFF76EFF85
:102E60001E48FFF76BFF29461D48FFF767FF1D4C03
:102E7000E16A1D48FFF762FF216B1C48FFF75EFF08
:102E8000E16B1B48FFF75AFF15F0800F0AD115F4CC
:102E9000004F0CD11748FFF751FF06991648FFF76E
:102EA0004DFFF8BD39461548FFF748FFEFE73146BB
:102EB0001348FFF743FFEDE7F81101080812010876
:102EC00018120108281201083812010848120108D6
:102ED00058120108681201087812010888120108C6
:102EE0009412010800ED00E0A4120108B4120108D8
:102EF000C4120108F4120108FC120108D4120108DE
:102F0000E412010883691A888A4201D000207047C0
:102F10000268033A012A01D9002070470233836115
:102F2000012070470C4B1A6842F001021A60002120
:102F300099601A6822F0847222F480321A60074A7B
:102F40005A601A6822F480221A60D960044B4FF04C
:102F500000629A60704700BF0038024010300024C1
:102F600000ED00E0224B9B6803F00C03042B14D00F
:102F7000082B16D01BB11F4B1F4A1A6002E01D4BD5
:102F80001D4A1A601A4B9B68C3F303131B4AD15C9A
:102F9000184A1368CB4013607047164B184A1A60E2
:102FA000F0E7134B5A685B6803F03F0312F4800F9D
:102FB00013D0134AB2FBF3F20D4B5B68C3F38813D3
:102FC00003FB02F30A4A5268C2F301420132520083
:102FD000B3FBF2F3074A1360D4E7074AB2FBF3F2FC
:102FE000034B5B68C3F3881303FB02F3EAE700BFFC
:102FF000003802400C0000200024F40040130108B7
:1030000000127A000A4B1B680A4AA2FB0323DB0C5E
:10301000013BB3F1807F09D2074A5360074BF0218F
:1030200083F823100023936007231360704700BFC9
:103030000C00002083DE1B4310E000E000ED00E008
:1030400008B5FDF7FFF90BF059F808BD10B51348A6
:10305000FDF7B6FB124A536983F001035361642103
:103060000E48FDF747FC0028F9D10D4A536983F05B
:10307000010353610948FDF798FC81B2094C218096
:103080000948FFF75BFE4FF6FF730222214607480F
:10309000FFF7A8FD0648FFF7AFF810BDEC3600209B
:1030A000001002405436002050130108343700202D
:1030B000743700202DE9F0478CB000240794089461
:1030C00009940A940B940194474B1A6B42F0040242
:1030D0001A631A6B02F004020192019A02941A6BAD
:1030E00042F080021A631A6B02F080020292029A86
:1030F00003941A6B42F001021A631A6B02F0010288
:103100000392039A04941A6B42F010021A631A6B2A
:1031100002F010020492049A05941A6B42F008021D
:103120001A631A6B02F008020592059A06941A6B4C
:1031300042F002021A631B6B03F002030693069B24
:103140002A4F22464EF22D013846FEF7E7F8DFF807
:10315000A0A022464FF47C415046FEF7DFF8DFF88E
:10316000949022464FF4E0714846FEF7D7F8DFF816
:10317000888022464FF47F414046FEF7CFF84EF25A
:103180002D03079301260896099403250A9507A99C
:103190003846FDF72DFF502307930894099407A99B
:1031A0003846FDF725FF4FF47C43079308960994B2
:1031B0000A9507A95046FDF71BFF4FF4E0730793EC
:1031C000089609940A9507A94846FDF711FF4FF4A0
:1031D0007F430793089609940A9507A94046FDF78F
:1031E00007FF0CB0BDE8F087003802400010024035
:1031F0000004024000080240000C024072B6FEE7E4
:1032000000B595B03022002108A80DF04FFA002338
:103210000393049305930693079301931F4A116C3C
:1032200041F080511164126C02F080520192019AB7
:1032300002931B4B1A6842F480421A601B6803F425
:1032400080430293029B01230893099302230E9368
:103250004FF480020F9204221092A822119212932E
:103260000723139308A8FEF775F898B90F23039363
:1032700002230493002305934FF4A05306934FF4C5
:1032800080530793052103A8FEF7CCFA20B915B0A7
:103290005DF804FBFFF7B2FFFFF7B0FF0038024014
:1032A0000070004008B50A480A4B03604FF4E13350
:1032B000436000238360C36003610C224261836129
:1032C000C361FFF7FDFB00B908BDFFF797FF00BF23
:1032D000343700200010014010B58EB000240A944D
:1032E0000B940C940D942422214601A80DF0DEF9D4
:1032F0001B481C4B036044608460046101238361AC
:103300000462C462184A8262C460C3610463446197
:10331000FDF760F9E8B900230A9301220B920C93A0
:103320000AA90F48FDF744FBA8B900230193012225
:10333000029205920393099302F570220892079373
:103340000693049301A90648FDF718FC28B90EB0AE
:1033500010BDFFF753FFFFF751FFFFF74FFF00BF0F
:10336000EC360020002001400100000F00B587B0BE
:10337000002302930393049305930093019314484D
:10338000144A02604FF47A72426083604FF6FF7213
:10339000C26003614361FFF74DF890B94FF4805369
:1033A000029302A90A48FEF73FFC60B9002300938C
:1033B000019369460648FFF7B5F830B907B05DF8E4
:1033C00004FBFFF71BFFFFF719FFFFF717FF00BF15
:1033D000743700200000014008B5FDF719F8FFF729
:1033E0000FFFFFF7BFFDFFF765FEFFF7BFFFFFF71A
:1033F00059FFFFF771FF08BD70B5DEB00446244DDC
:103400007C26324629463FA80DF042F93246A919DA
:1034100020A80DF03DF901AB10221A605A609A60A5
:103420000821D96019615A6199611A480568DD61FE
:103430001A621948006858629862DA621A635A631D
:103440009963DA63154E36681E645A649964D964C8
:103450001A655A659A65D9650021196658669D6690
:10346000DA661A675A6798675EAA02EB840252F816
:103470007C0C0B49086052F8F81C0A4A116053F89A
:103480002420094B1A60094B1C605EB070BD00BF60
:103490005C13010870300020743000205030002090
:1034A0000C730120CC370020106F0020945D0020A9
:1034B000F8B504460E46854B002219885868FDF77A
:1034C0002DFF834B002219885868FDF727FF814B99
:1034D000002219885868FDF721FF7F4B00221988C8
:1034E0005868FDF71BFF7D4B002219885868FDF7CF
:1034F00015FF7B4B002219885868FDF70FFF794BA9
:10350000002219885868FDF709FF774B00221988B7
:103510005868FDF703FF754B002219885868FDF7BE
:10352000FDFE734B002219885868FDF7F7FE714BBA
:10353000002219885868FDF7F1FE6F4B00221988A8
:103540005868FDF7EBFE6D4B002219885868FDF7AF
:10355000E5FE6B4B002219885868FDF7DFFE694BCA
:10356000002219885868FDF7D9FE674B0022198898
:103570005868FDF7D3FEF5B215F0400F36D1E4B22E
:1035800014F0020F39D114F004073DD114F0010FEB
:1035900041D115F0010F45D115F0020F49D115F0B9
:1035A000040F4DD115F0080F51D115F0100F55D162
:1035B00015F0200F59D1002E5EDB14F0080562D102
:1035C00014F0100F66D114F0200F6AD1002F6FD1C4
:1035D000002D74D14D4C012221886068FDF79EFEBC
:1035E000002221886068FDF799FEF8BD374B012263
:1035F00019885868FDF792FEC1E7354B01221988FA
:103600005868FDF78BFEBEE7324B012219885868D7
:10361000FDF784FEBAE7304B012219885868FDF7A0
:103620007DFEB6E72D4B012219885868FDF776FE1E
:10363000B2E72B4B012219885868FDF76FFEAEE701
:10364000284B012219885868FDF768FEAAE7264B27
:10365000012219885868FDF761FEA6E7234B012275
:1036600019885868FDF75AFEA2E7214B01221988F4
:103670005868FDF753FE9EE71E4B012219885868D3
:10368000FDF74CFE99E71C4B012219885868FDF79D
:1036900045FE95E7194B012219885868FDF73EFE53
:1036A00091E7174B012219885868FDF737FE8DE71F
:1036B000144B012219885868FDF730FE88E7124B39
:1036C000012219885868FDF729FE83E7740C002051
:1036D0008C0C0020240C0020840C0020140C0020F2
:1036E0001C0C0020540C00205C0C0020640C0020FA
:1036F0006C0C00207C0C00202C0C0020340C0020D2
:103700003C0C0020440C00204C0C00202C350020E8
:1037100010B50446064B012219885868FDF7FEFDD6
:10372000044B1A7821460020FFF7C2FE10BD00BFEF
:1037300064300020106F002010B50446064B0022B4
:1037400019885868FDF7EAFD044B1A7821460020D5
:10375000FFF7AEFE10BD00BF64300020106F0020E8
:1037600038B504460D46064B012219885868FDF706
:10377000D5FD044B1A7829462046FFF799FE38BD3F
:1037800064300020106F0020F8B504460D46164640
:10379000B64B002219885868FDF7C0FDB44B0022D3
:1037A00019885868FDF7BAFDB24B0022198858688D
:1037B000FDF7B4FDB04B002219885868FDF7AEFD47
:1037C000AE4B002219885868FDF7A8FDAC4B0022CB
:1037D00019885868FDF7A2FDAA4B0022198858687D
:1037E000FDF79CFDA84B002219885868FDF796FD4F
:1037F000A64B002219885868FDF790FDA44B0022C3
:1038000019885868FDF78AFDA24B0022198858686C
:10381000FDF784FDA04B002219885868FDF77EFD56
:103820009E4B002219885868FDF778FD9C4B0022BA
:1038300019885868FDF772FD9A4B0022198858685C
:10384000FDF76CFD984B002219885868FDF766FD5E
:1038500015F0400F40F0E68014F0020F40F0E980D0
:1038600014F0040740F0EC8014F0010F40F0EF80FA
:1038700015F0010F40F0F28015F0020F40F01881B2
:1038800015F0040F40F01B8115F0080F40F01E8169
:1038900015F0100F40F0218115F0200F40F0248129
:1038A00015F0800F40F0278114F0080540F02A81C0
:1038B00014F0100F40F02D8114F0200F40F03081F3
:1038C000002F40F03481002D40F038813746002E23
:1038D000C0F23B813F110025BD4280F23981734C1B
:1038E000002221886068FDF719FD012221886068A7
:1038F000FDF714FD002221886068FDF70FFD01220D
:1039000021886068FDF70AFD002221886068FDF7C4
:1039100005FD012221886068FDF700FD0022218855
:103920006068FDF7FBFC012221886068FDF7F6FC6A
:10393000002221886068FDF7F1FC0122218860687F
:10394000FDF7ECFC002221886068FDF7E7FC01220E
:1039500021886068FDF7E2FC002221886068FDF79D
:10396000DDFC012221886068FDF7D8FC0022218857
:103970006068FDF7D3FC012221886068FDF7CEFC6A
:10398000002221886068FDF7C9FC01222188606857
:10399000FDF7C4FC002221886068FDF7BFFC01220E
:1039A00021886068FDF7BAFC002221886068FDF775
:1039B000B5FC012221886068FDF7B0FC0022218857
:1039C0006068FDF7ABFC012221886068FDF7A6FC6A
:1039D000002221886068FDF7A1FC0122218860682F
:1039E000FDF79CFC002221886068FDF797FC01220E
:1039F00021886068FDF792FC002221886068FDF74D
:103A00008DFC012221886068FDF788FC0022218856
:103A10006068FDF783FC012221886068FDF77EFC69
:103A2000013559E7114B012219885868FDF776FCDA
:103A300012E70F4B012219885868FDF76FFC0FE75A
:103A40000C4B012219885868FDF768FC0CE70A4BFB
:103A5000012219885868FDF761FC09E7074B01222C
:103A600019885868FDF75AFC06E700BF740C00205F
:103A70008C0C0020240C0020840C0020140C00204E
:103A80001C0C0020540C00205C0C0020640C002056
:103A90006C0C00207C0C00202C0C0020340C00202E
:103AA0003C0C0020440C00204C0C00202C35002045
:103AB000354B012219885868FDF730FCE0E6334B9E
:103AC000012219885868FDF729FCDDE6304B0122F8
:103AD00019885868FDF722FCDAE62E4B0122198876
:103AE0005868FDF71BFCD7E62B4B01221988586854
:103AF000FDF714FCD4E6294B012219885868FDF71C
:103B00000DFCD1E6264B012219885868FDF706FC0A
:103B1000CEE6244B012219885868FDF7FFFBCBE65F
:103B2000214B012219885868FDF7F8FBC8E61F4BA6
:103B3000012219885868FDF7F1FBC4E61C4B0122ED
:103B400019885868FDF7EAFBC0E606F10F07C1E6E1
:103B500016F00F0F16D1F8BD164C002221886068B0
:103B6000FDF7DCFB012221886068FDF7D7FB0135FA
:103B7000724206F00F0302F00F0258BF5342AB42ED
:103B8000EADAE8E70025F3E71C0C0020540C0020DB
:103B90005C0C0020640C00206C0C00207C0C0020CD
:103BA0002C0C0020340C00203C0C0020440C002085
:103BB0004C0C00202C350020F8B505460F46144665
:103BC0001E461A4B1A781A4B1B789A4225D02A2087
:103BD000FFF7B2FD47F30720FFF79AFD78B2FFF732
:103BE00097FD46F30720FFF793FD70B2FFF790FDB6
:103BF0002B20FFF7A1FD45F30720FFF789FD68B2F1
:103C0000FFF786FD44F30720FFF782FD60B2FFF760
:103C10007FFD2C20FFF790FDF8BD064B1B681A1B9B
:103C200034461E1A0D461746D1E700BF4435002022
:103C30004C300020CC37002008B50C4B1A780C4BC8
:103C40001B789A4208D00B4B1B680B4A1268002164
:103C50000846FFF7B1FF08BD074B1B68054A12680D
:103C600000210846FFF7A8FFF5E700BF4435002014
:103C70005C3600200C730120CC37002010B5264B99
:103C8000002219885868FDF749FBFFF7D5FF234B41
:103C90001B68012B05D1214B1B68102B08D0002479
:103CA00020E01F4B012219885868FDF737FBF2E727
:103CB0001C4B1B681C4A1268013203FB02220021C4
:103CC0000846FFF761FD144B012219885868FDF77B
:103CD00025FBFFF7B1FF10BDD2B200210846FFF768
:103CE000E7FB01340F4B1A680F4B1B68013302FBD3
:103CF0000333A342E7DD094B1A68012AECD1D2B2A3
:103D000000210120FFF7D4FB044B1A780021012089
:103D1000FFF7CEFBE5E700BF040C0020106F00208A
:103D2000643000200C730120CC370020054B186054
:103D300002781A7142785A7182789A71C278DA716F
:103D4000704700BF6C17012008B56FF01D00FFF72A
:103D5000F3FC2320FFF7DCFC0220FFF7D9FC042052
:103D6000FFF7D6FC6FF01F00FFF7E6FC0120FFF71E
:103D7000CFFC6FF01F00FFF7DFFC0320FFF7C8FC4C
:103D80000120FFF7D9FC6FF01900FFF7D5FC0420E4
:103D9000FFF7BEFC6FF06C00FFF7BAFC6FF01F007E
:103DA000FFF7B6FC6FF04F00FFF7C6FC0020FFF7EF
:103DB000AFFC0020FFF7ACFC0320FFF7A9FC1F209D
:103DC000FFF7A6FC0120FFF7A3FC6FF02000FFF730
:103DD0009FFC0020FFF79CFC6FF04B00FFF7ACFC52
:103DE0000320FFF795FC6FF05F00FFF791FC0020C8
:103DF000FFF78EFC2E20FFF78BFC3020FFF788FCAE
:103E00000020FFF785FC0F20FFF782FC0020FFF762
:103E10007FFC6FF04900FFF78FFC0220FFF778FC72
:103E20000D20FFF775FC0020FFF772FC1020FFF754
:103E30006FFC1020FFF76CFC0020FFF769FC0820E6
:103E4000FFF766FC6FF04500FFF776FC0520FFF7F3
:103E50005FFC6FF04700FFF76FFC0720FFF758FC8F
:103E60000120FFF755FC3620FFF766FC2220FFF704
:103E70004FFC6FF00F00FFF75FFC0320FFF748FCDB
:103E800040F2DF1340F21F3200210846FFF794FE94
:103E90002920FFF751FC6FF04100FFF74DFC062091
:103EA000FFF736FC6FF00F00FFF732FC0120FFF741
:103EB0002FFC6FF00F00FFF72BFC0020FFF728FC12
:103EC0000020FFF725FC6FF02F00FFF735FC0D20D9
:103ED000FFF71EFC2C20FFF72FFC08BD00F0F800B8
:103EE00040B240EA5110054B1870C90021F01F0183
:103EF00049B241EAD202024B1A707047B83700202B
:103F0000C03700200212024B1A70024B1870704723
:103F1000B8370020C037002000F0F80040B240EA77
:103F20005110054B1870C90021F01F0149B241EA38
:103F3000D202024B1A707047B8370020C0370020F9
:103F400000F0F80040B240EA5110074B1870C90069
:103F500021F01F0149B241EAD202044B1A70044B0E
:103F600000221A70704700BFB0A90020C89C002032
:103F700004C9002010B51A4B18701A4B1B68012B8E
:103F800027D1194C002221886068FDF7C7F901226A
:103F900021886068FDF7C2F9144C0022218860680E
:103FA000FDF7BCF9FFF7D0FE012221886068FDF71C
:103FB000B5F9FF2211461046FFF790FF0022114687
:103FC0001046FFF7BDFF0023094A1360094A13702A
:103FD00010BD054B012219885868FDF79FF9D0E7FD
:103FE00044350020106F00205C300020040C0020BD
:103FF0006C17012004C90020B0F1FF3F08D0020A6D
:10400000054B1A70054B1870054B00221A7070474B
:10401000034B01221A707047B0A90020C89C0020F1
:1040200004C9002070B504460E46151E18DB154B5A
:10403000002219885868FDF771F933466219314634
:104040002046FFF7B9FD104B1B68102B0BD00D4B12
:10405000012219885868FDF761F9FFF7EDFD70BD81
:104060002C446D42E3E7094B012219885868FDF79B
:1040700055F92A46064B1978064B1878FFF784FB4A
:10408000E5E700BF040C0020106F00206430002022
:10409000C0370020B837002070B506460C46151E04
:1040A00018DB154B002219885868FDF737F963199A
:1040B000324621463046FFF77FFD104B1B68102B20
:1040C0000BD00D4B012219885868FDF727F9FFF72F
:1040D000B3FD70BD2C446D42E3E7094B0122198802
:1040E0005868FDF71BF92A46064B1978064B1878D5
:1040F000FFF74AFBE5E700BF040C0020106F00202B
:1041000064300020C0370020B83700202DE9F84F78
:1041100005460C469146994235D01E46824239D01A
:1041200082423BDD171AA9453ADD4FF0010AB4423D
:1041300039DAA6EB0408B44238DA4FF0010B294B08
:10414000002219885868FDF7E9F8474531D24FEA4F
:104150005809C9F1000923462A4621462846FFF797
:104160002BFD214B93F90010204B93F90000FFF732
:10417000F7FAB4420CD05C4419EB0709EBD4554470
:10418000A9EB0809E7E7121AFFF74CFFFFF754FD08
:10419000BDE8F88F5A1AFFF77FFFF7E7871AC2E7E3
:1041A0004FF0FF3AC3E7A4EB0608C4E74FF0FF3B2C
:1041B000C5E77E08764223462A4621462846FFF771
:1041C000FBFC094B93F90010084B93F90000FFF733
:1041D000C7FA4D45DCD0554416EB0806EBD45C44D9
:1041E000F61BE8E7040C0020C0370020B837002099
:1041F00008B541B240F30720FFF7B2FA08BD00004E
:1042000070B505460E460E4C002221886068FDF709
:1042100085F833462A4631462846FFF7CDFC094B40
:104220001878094B1B7843EA0020FFF7E1FF0122D1
:1042300021886068FDF772F8FFF7FEFC70BD00BFD3
:10424000040C0020B8370020C03700202DE9F047CB
:10425000044688469146764B002219885868FDF737
:104260005DF8744B1B78002B40F09680724B1A78E7
:10427000724B1B789A420DD0714A9779E41B1379DF
:10428000DB08577907FB03F707FB04F704374FF008
:10429000000A6AE06A4D2A7942446B794B44013B3B
:1042A000013A49464046FFF787FCAE79A41B2B79BB
:1042B000DB086E7906FB03F606FB04F604360027DE
:1042C0001DE0604B1878604B1B7843EA0020FFF735
:1042D0008FFF0134E4B2072C0FD8C4F1070345FA6D
:1042E00003F313F0010FECD0584B1878584B1B78A0
:1042F00043EA0020FFF77CFFEBE701360137504926
:104300000B79DA084B7903FB02F3BB4240F386805A
:104310004B4B1B689D5D0024DDE74A4B18784A4BE8
:104320001B7843EA0020FFF763FF0134E4B2072C57
:104330000DD845FA04F313F0010FEED0434B187873
:10434000434B1B7843EA0020FFF752FFEDE7013EA5
:10435000002E05DB3A4B1A68BB19D55C0024E6E752
:10436000374B1B79DB081F449A4435490A79D30837
:10437000497901FB03F1514550DD9AFBF3F303EB5F
:10438000090142440B46013A4046FFF715FC2C4B0D
:104390001E79F608013EDBE7294A9379E41A13797E
:1043A000DB0892F805A00AFB03FA0AFB04F404F107
:1043B000040A00272CE004EB080000EBC60007EB22
:1043C00009014B1C421CFFF7F7FB204B1878204BD0
:1043D0001B7843EA0020FFF70BFF0134E4B2072CFF
:1043E00007D8C4F1070345FA03F313F0010FF4D023
:1043F000E1E70136124B1B79DB08B34206DD104BB7
:104400001A680AEB0603D55C0024E8E79A440137F2
:104410000B4B5B79BB4201DD0026EBE7044B01222D
:1044200019885868FCF77AFFFFF706FCBDE8F087AB
:10443000040C002004C90020443500205C36002014
:104440006C170120B0A90020C89C0020B8370020BC
:10445000C03700202DE9F04107460C4616461D46A0
:10446000904201DC06461746AC4202DC2B4625464C
:104470001C46A7EB0608424629463046FFF7D2FD08
:10448000424621463046FFF7CDFD641B22462946B1
:104490003046FFF701FE224629463846FFF7FCFD6D
:1044A000BDE8F0812DE9F04F83B006460F46144673
:1044B0001D46904201DC04461646AF4202DC2B4604
:1044C0003D461F46A6EB0408B8F1040F04DDA7EB38
:1044D0000509B9F1040F02DC03B0BDE8F08F04F167
:1044E000010B05F1010A51465846FFF789FE731E7C
:1044F000514601931846FFF783FE07F1FF3A5146F4
:104500005846FFF77DFE51460198FFF779FE04F10A
:10451000020AA8F10408424629465046FFF782FDE8
:10452000424639465046FFF77DFD0235A9F10409A0
:104530004A4629462046FFF7AFFD4A4629463046FF
:10454000FFF7AAFDC8E72DE9F84F884616469946B9
:10455000904201DC06461046C84502DC4B46C14687
:104560009846851B042D03DDA8EB0907042F39DCD1
:10457000BDE8F88F06F1020AA5F1040B5A4609EBD3
:1045800004015046FFF74EFD5A46A8EB0401504681
:10459000FFF748FD013407EBD773B4EB630FE7DC9B
:1045A000002CE7D0012C0CD02A4609EB0401304640
:1045B000FFF738FD2A46A8EB04013046FFF732FD2D
:1045C000E8E706F1010AA5F1020B5A4609EB0401DE
:1045D0005046FFF727FD5A46A8EB04015046FFF767
:1045E00021FDD7E70024D6E72DE9F04F8BB0044634
:1045F00007919146984614980BF02AFB6CA3D3E9D7
:1046000000230BF08FFBCDE900016B4B00221988D2
:104610005868FCF783FE69498B79E41A0B79DA084C
:104620004B7903FB02F303FB04F3043309930023E8
:104630000693CDF82090C146A6E0614B1878614BF7
:104640001B7843EA0020FFF7D3FD09F101095FFA67
:1046500089F9B9F1070F7FD809EBCA04574D95F8CE
:1046600004800BFB0848DDE9000109F0D3FE064693
:104670000F4640460BF0ECFA32463B460BF052FB3D
:1046800006460F4606980BF0E3FACDE90201DDE994
:10469000000109F007FF02460B46DDE902010BF0BD
:1046A00041FB02460B46304639460BF083F906467D
:1046B0000F4607980BF0CCFA32463B460BF07CF9DC
:1046C0000BF0E0FD0646DDE9000109F0A3FE02461D
:1046D0000B46DDE902010BF025FBCDE902012F7944
:1046E0000BFB0747DDE9000109F0DCFE04460D463F
:1046F00038460BF0ADFA22462B460BF013FB024670
:104700000B46DDE902010BF057F904460D46089807
:104710000BF09EFA22462B460BF04EF90BF0B2FD41
:104720000146431C721C3046FFF746FAC9F10703E5
:10473000059A42FA03F313F0010F7FF47EAF224B88
:104740001B78002B81D1214B1878214B1B7843EA31
:104750000020FFF74DFD78E70AF1010A174B1B799E
:10476000DB08534508DD154B1A68099B5344D65C9A
:104770004FF0000905966CE7D946099A1A44099248
:10478000069B0133DBB206930C4B5B79069A93428E
:1047900003D90026B246CB46E0E7074B0122198831
:1047A0005868FCF7BBFDFFF747FA0BB0BDE8F08F88
:1047B000EC51B81E85EB913F040C00206C170120D2
:1047C000B8370020C037002004C90020B0A900205D
:1047D000C89C00202DE9F04383B004460E46914664
:1047E0001F460BF09BFF80462C4B1A782C4B1B78F6
:1047F0009A4209D042F20F739E4220D042F20E73C9
:104800009E4224D0002537E042F20F739E420ED024
:1048100042F20E739E42F5D1224B1B680133224AAD
:10482000167908FB163606EBD6767610EAE71D4BAE
:104830001B6801331C4A167900FB1636E8E71B4B50
:104840001B680133184A167900FB1636D6E7174B5A
:104850001B680133144A167908FB163606EBD67628
:104860007610CFE714F9010B00972B464A463146E4
:10487000C0B2FFF7B9FE013545450CDA002FF1D182
:1048800014F9010B084B19794A4605FB0161C0B2C6
:10489000FFF7DCFCEFE703B0BDE8F0834435002010
:1048A0005C3600200C7301206C170120CC370020EF
:1048B0002DE9F04383B004460E4691461F460BF0A7
:1048C0002DFF80462C4B1A782C4B1B789A4209D02E
:1048D00042F20F739E4220D042F20E739E4224D0C9
:1048E000002537E042F20F739E420ED042F20E7363
:1048F0009E42F5D1224B1B680133224A167908FBF0
:10490000163606EBD6767610EAE71D4B1B680133A8
:104910001C4A167900FB1636E8E71B4B1B6801336F
:10492000184A167900FB1636D6E7174B1B68013379
:10493000144A167908FB163606EBD6767610CFE7C2
:1049400014F9010B00972B464A463146C0B2FFF7D7
:104950004BFE013545450CDA002FF1D114F9010B5E
:10496000084B19794A4605FB0161C0B2FFF76EFC9E
:10497000EFE703B0BDE8F083443500205C3600204B
:104980000C7301206C170120CC3700202DE9F04179
:104990008EB09DF95070E8B933B930238DF80030EE
:1049A00000238DF8013071E000205C1E844205DD9B
:1049B0000EAC044404F8387C0130F6E70EAB034437
:1049C000302403F8384C01300EAB1844002300F8B3
:1049D000383C5BE0044600281FDB4FF0000C00254C
:1049E000002C1EDD2D4E86FB040EE017C0EBAE0042
:1049F00000EB80004FEA400EA4EB0E0000F13008FF
:104A00000DF1380EAE440EF81C8C0135201A86FBD1
:104A10000064C017C0EBA404E2E744424FF0010C6D
:104A2000DDE700240EA8284400F81C4CBCF1000F60
:104A300002D02D208DF800006646AC449C451DDB5D
:104A400000240027BD421BDDE81B0138F319234475
:104A50000DF1380E704410F91C0C734403F8380C37
:104A60000137EFE730190DF1380E704400F8387C4B
:104A70000134581B801BA042F4DCE2E70024F8E775
:104A800064440EAB1C44002304F8383C0023684601
:104A9000FFF7A0FE0EB0BDE8F08100BF6766666656
:104AA0002DE9F04186B0804616461F469DF8342019
:104AB000224B93E803000390ADF810100024CDF8CA
:104AC0001240752300930194ADF8084015461C4927
:104AD00068460BF0F3FD234601249D4204D004EB0D
:104AE000840254000133F8E7164968460BF006FECD
:104AF000694603A80BF002FE304639460BF0C2FBB4
:104B000005460BF0A5F802460B46304639460AF03A
:104B100051FF06460F4620460BF09AF832463B46B8
:104B20000BF000F90BF0AEFB03462A4603A9404602
:104B30000BF0C4FD06B0BDE8F08100BF54140108BD
:104B40006C140108701401082DE9F0478AB0804602
:104B500089461E469DF94C509DF954402AB1924613
:104B6000052A04D94FF0050A01E04FF0010A00229E
:104B70000023404649460BF047FB68B90027CDF8B3
:104B800004A0149B009342464B4603A8FFF788FFFE
:104B90002E2D11D0002302E00127F0E701331A2B5C
:104BA0000AD80AAA1A4412F91C2C2E2AF6D10AAAEB
:104BB0001A4402F81C5CF1E7202C25D017B32D23F2
:104BC0008DF80C30012304E00AAA1A4402F81C4CA8
:104BD00001331A2B18D80AAA1A4412F91C2C202ABD
:104BE000F2D02D2AF4D1EFE701331A2B0CD80AAA00
:104BF0001A4412F91C2C202AF6D10AAA1A4402F8E7
:104C00001C4CF1E70023F0E70023129A314603A879
:104C1000FFF7E0FD0AB0BDE8F0870000034B18780D
:104C2000034B1B7843EA0020704700BFB8370020D1
:104C3000C0370020034B1878034B1B7843EA002051
:104C4000704700BFB0A90020C89C0020014B186825
:104C5000704700BF6C1701202DE9F04F85B001901F
:104C6000029191460393DDF838A00F9D012D0ED0DF
:104C7000704B1A78704B1B789A425FD06F4B0022B2
:104C800019885868FCF74AFB4FF0000BC1E0694BEC
:104C90001A78694B1B789A4207D0684B0022198812
:104CA0005868FCF73BFB002532E0644B0022198872
:104CB0005868FCF733FB019800EB09020299039B4B
:104CC000CB18013B013AFEF777FF002407E03AF8E2
:104CD000140041B240F30720FEF742FD0134039B6C
:104CE00003FB09F3A342F2DC544B012219885868F4
:104CF000FCF714FB99E009FB05433AF8130041B2B5
:104D000040F30720FEF72CFD013C002CF3DA0135BF
:104D1000039B9D420BDA029BE918019800EB090204
:104D20000B46013AFEF748FF09F1FF34EDE7434B2C
:104D3000012219885868FCF7F1FA76E03F4B00220F
:104D400019885868FCF7EAFA4FF0000B1DE071B2C1
:104D500047F30720FEF704FD0134AC42F7DB08F10E
:104D60000108C84506DA09FB0B833AF81360374699
:104D70000024F2E7009B01330093009BAB4202DA70
:104D80004FF00008EDE70BF1010B039B9B450DDA9B
:104D9000029B05FB0B3109FB05F2013A4B19019807
:104DA0000244FEF709FF00230093E6E7234B0122AC
:104DB00019885868FCF7B2FA37E008F1FF38B8F103
:104DC000000F0EDB09FB0B833AF813603746002413
:104DD000AC42F2DA71B247F30720FEF7C1FC0134AE
:104DE000F6E7009B01330093009BAB420FDA029B76
:104DF00005FB0B31009B194409FB05F2013A0B46F8
:104E000001980244FEF7D8FE09F1FF38D7E70BF10D
:104E1000010B039B9B4502DA00230093E4E7074B59
:104E2000012219885868FCF779FAFEF705FF05B0EA
:104E3000BDE8F08F443500205C360020040C0020D3
:104E4000014B1879704700BF6C170120014B58794E
:104E5000704700BF6C17012010B5194B1870012462
:104E6000184B1C60184B3F221A60184B4FF47C62A1
:104E70001A60174B40F20A221A60164B40F6627213
:104E80001A60154B40F21F321A60144B40F2DF12C9
:104E90001A60134B0A221A70124B2246198858685E
:104EA000FCF73CFA104B224619885868FCF736FA92
:104EB0000E4B224619885868FCF730FA10BD00BF27
:104EC00044350020787D0020109D0020905D00205A
:104ED00048E80020C4370020A45D002010730120A2
:104EE000C05D0020F8340020F034002000350020A0
:104EF00008B5044B19885868FCF7FCF9B0FA80F043
:104F0000400908BD10350020274BB3F90000B0F16F
:104F1000FF3F47D0254BB3F90030B3F1FF3F40D0FE
:104F2000234B1A78234B1B689A4217D053BB224B52
:104F30001968401A214B1B685A4202FB00F0204AB4
:104F40001268521A90FBF2F00344002B27DB1B4A35
:104F50001068984200DB184600B27047194B196878
:104F6000431A194A106800FB03F3184A1268521AD0
:104F700093FBF2F3002B03DB9842EDDB1846EBE7E3
:104F80000023F9E70C4B1A68801A0C4B1B6803FBD3
:104F900000F00B4B1B689B1A90FBF3F3D5E7002343
:104FA000D5E71846704700BF801F0120E29C002013
:104FB00044350020787D002048E80020107301204F
:104FC000C4370020109D0020A45D0020905D0020CB
:104FD000264BB3F90000B0F1FF3F20D0244BB3F9CA
:104FE0000000B0F1FF3F1AD0224B1A78224B1B6809
:104FF0009A4215D043BB214B1A68801A204B1B687C
:1050000003FB00F01F4B1B689B1A90FBF3F3002B74
:1050100029DB1B4A1068984200DB184600B2704733
:10502000194B1968431A194A106800FB03F3184A10
:105030001268521A93FBF2F3002B03DB9842EDDB6C
:105040001846EBE70023F9E70C4B1968401A0C4BA4
:105050001B685A4202FB00F00A4A1268521A90FB7F
:10506000F2F00344D3E70023D3E700BF801F012001
:10507000E29C002044350020787D0020109D002017
:10508000A45D0020905D002048E8002010730120FE
:10509000C43700200138032813D8DFE800F00206E7
:1050A0000A0E0A4B01221A707047084B0C221A7024
:1050B0007047064B1B221A707047044B66221A7009
:1050C0007047024B0C221A70704700BFC05D002071
:1050D00070B50546174B002219885868FCF71EF971
:1050E00000241AE0144B012219885868FCF716F9BD
:1050F0006D00EDB20F4E002231887068FCF70EF99A
:1051000000BF00BF00BF00BF00BF00BF0122318849
:105110007068FCF703F90134E4B2072C09D815F0E4
:10512000800FDFD1044B002219885868FCF7F6F88D
:10513000DEE770BDF03400200035002070B500249B
:10514000264601E00134E4B20B2C1AD876000E4D4D
:10515000012229886868FCF7E1F800BF00BF00BFA2
:1051600000BF00BF00BF002229886868FCF7D6F89E
:10517000064B19885868FCF7BDF80028E2D00136C4
:10518000E0E7304670BD00BFF03400200835002055
:105190002DE9F04F83B04E4B002219885868FCF778
:1051A000BDF8002427460194DFF844A10094D346BB
:1051B000A046A14601E001370134464B1B78A342CB
:1051C0004BDD454B19885868FCF794F80028F3D15B
:1051D0009020FFF77DFF414D012229886868FCF788
:1051E0009DF80220FBF73CF9002229886868FCF74B
:1051F00095F8FFF7A3FF0646D020FFF769FF0122CD
:1052000029886868FCF78AF80220FBF729F9002250
:1052100029886868FCF782F8FFF790FF721E40F655
:10522000FE739A42C8D80028C6D0B0F5805FC3D2BA
:10523000B1448044274B1B78052BBCD9B34500D91A
:10524000B346009BB34200D20096824500D9824605
:10525000019B8342AFD20190ADE7052B08D9009B9B
:105260009B44A9EB0B09019B9A44A8EB0A08023F57
:10527000174B012219885868FCF750F8154B1B781A
:10528000023BBB420AD0012F08D04FF6FF73144AED
:105290001380144A138003B0BDE8F08F124B1A78C4
:1052A000124B1B689A4209D0B9FBF7F90C4BA3F8D3
:1052B0000090B8FBF7F70B4B1F80ECE7B8FBF7F853
:1052C000074BA3F80080B9FBF7F7064B1F80E2E716
:1052D000F8340020C05D002010350020F03400209C
:1052E000801F0120E29C002044350020787D0020B2
:1052F0009F860100F0B40646002000E0013000EB7C
:105300008004A5000F4C2C44B4F90840002C01DBAC
:105310001328F3DD142811D00A4F84000444A5009B
:105320007C197E536180A280E380BDF81430238114
:10533000049BE36000232361F0BC70474FF0FF3013
:10534000FAE700BF741701202DE9F04F85B004463D
:10535000FFF77CFC0746FFF761FC0646FFF76AFC97
:10536000039004EB84039A00894B13441B8913F0C8
:10537000080F37D0864D104605EB02080123019334
:10538000D8F810300093B8F80630B8F80420B8F810
:105390000210285AFFF760FCB8F8083013F0100F1D
:1053A00040F0998013F0010F04D07A4B1868FEF793
:1053B000A9FD90E0784B1868FEF7A4FD744B4FEA06
:1053C000840C0CEB04018A0003EB020E985ABEF821
:1053D0000210BEF80420BEF806300B440244FFF76A
:1053E00039F878E06D4B1868FEF78CFD684DA30026
:1053F00023444FEA830905EB090835F80900B8F89A
:105400000210B8F80420B8F806300B440244FFF745
:105410009AF8614B1868FEF775FD35F80900B8F881
:105420000210B8F80420B8F806300B440244FFF725
:1054300039F8B8F8083013F0010F58D0554B1868F8
:10544000FEF760FD04EB84039A00514B13441B8963
:1054500013F0020F50D0524B1868FEF767FC4C4D0A
:10546000A30023444FEA830805EB0809B9F804A018
:105470004FEA5A0AFFF7E4FCC0F34700AAEB000A20
:1054800035F808008244B9F806804FEA5808FFF75B
:10549000DDFCC0F34700A8EB0008B9F80200804427
:1054A0003E4B1868FEF7A8FD3E4B1868FEF72AFD34
:1054B000A30023444FEA8309354B99440023424615
:1054C0005146D9F80C00FFF785F9B9F8083003F018
:1054D0000603062B3BD03846FEF728FC3046FEF785
:1054E00011FD0398FEF788FD05B0BDE8F08F2D4B48
:1054F0001868FEF707FDA5E72B4B1868FEF716FCAA
:10550000DFF88CB0A30023444FEA83090BEB0908B2
:10551000B8F804004508D8F80C000BF0FFF88246F4
:10552000FFF78EFC00FB0AFAA5EB5A0A3BF80900CC
:105530008244B8F806904FEA5909FFF787FCC0F398
:105540004700A9EB0009B8F80280C844A8E7FFF7B4
:1055500077FCDFF83CB04FEA840909EB04029300C2
:105560000BEB030C00234246AAEB0001DCF80C0015
:10557000FFF730F9FFF764FC4C44A3009B44002381
:10558000424600EB0A01DBF80C00FFF723F9A2E723
:1055900074170120747D0020146F0020DC9C002013
:1055A000AC1F0120941F012068A3002010B5002427
:1055B00000E00134132C0CDC04EB84039A00054B4F
:1055C0001344B3F90830002BF3DB2046FFF7BCFE91
:1055D000EFE710BD741701200022132A14DC10B469
:1055E0000A4C93001344980023180021215259803B
:1055F0009980D9804FF4004119810549D960013261
:10560000132AEDDD10BC7047704700BF74170120EE
:105610001412010808B5FFF7DFFF4FF6FF730A4ABF
:1056200013600A4A48F210411160094A1F211160B3
:10563000084A1360084B4FF478421A600023074A67
:105640001360074A136008BD941F0120747D002079
:10565000DC9C0020146F0020B4A9002068A3002067
:10566000AC1F012010B4064C206006480160019870
:105670000549086005490A60054A136010BC704777
:10568000941F0120747D0020DC9C0020146F0020FA
:10569000B4A90020014B1860704700BF68A3002028
:1056A000014B1860704700BFAC1F0120F8B5FFF731
:1056B0001FFC002800F0AB80FFF76AFDFFF724FC19
:1056C0000546FFF785FC0746FFF7A8FA06460023C4
:1056D0004FF0FF3400E00133132B2BDC03EB83028C
:1056E00091004C4A0A44128912F4004FF3D112F08F
:1056F000010FF0D1B4F1FF3FEDD103EB83018A003C
:1057000044498A5AAA42E6DC03EB830188004149F6
:10571000014489880A44AA42DDDB3E4A0244528899
:10572000BA42D8DC3B490144C9880A44BA42D2DBB8
:105730001C46D0E7B4F1FF3F08D004EB84039A0085
:10574000344B13441B8913F0100F14D0FFF7D0FB18
:105750000028FBD1B4F1FF3F08D004EB84039A008A
:105760002C4B13441B8913F0100F2AD03046FEF740
:10577000C9FB2046F8BD284B1868FEF7C3FB04EBB5
:1057800084039A00234B13441B8913F0080F0AD09B
:1057900020498B18885A59889A88DB880B44024420
:1057A000FEF758FED2E71B49A30023449A008B184A
:1057B000885A59889A88DB880B440244FEF772FEA7
:1057C000C4E7164B1868FEF79DFB04EB84039A00B0
:1057D000104B13441B8913F0080F0AD00D498B1886
:1057E000885A59889A88DB880B440244FEF732FEB7
:1057F000BCE70849A30023449A008B18885A5988AB
:105800009A88DB880B440244FEF74CFEAEE74FF06B
:10581000FF34AEE774170120B4A90020146F0020F4
:10582000F8B506460F4601252C4616E00022154B1A
:10583000304639460AF0F2FCF0B9601E4FF4B473FA
:1058400003FB00F00AF004FA02460B4630463946E4
:105850000AF0B0F806460F4600257DB14FF4B4704B
:1058600000FB04F00AF0F4F932463B460AF0CCFCA7
:105870000028DBD00134F0E70025EEE7304639465A
:10588000F8BD00BF0080764010B582B0FFF7A4FEDF
:105890004FF47840FEF736FB444CB4F90020112356
:1058A000013A00210846FEF74EFE4FF47840FEF71D
:1058B000A3FB40F2FF70FEF725FB3D48FEF736FAEA
:1058C0000023012242F20E713A48FEF7F1FFFF2257
:1058D00000210846FEF720FB374BB3F90030B4F93E
:1058E0000020013B013A12210020FEF7DBFDB4F954
:1058F00000201123013A00210846FEF7D3FD1F23A3
:1059000000934FF4FC634FF4784211464CF2186058
:10591000FFF7A8FE00240194284B00936423C822BB
:1059200032210846FFF7E6FC254B18600194254B11
:1059300000936423C82232214FF49670FFF7DAFCFB
:10594000214B18600194214B00936423C82232211B
:1059500040F22620FFF7CEFC1D4B186001941D4B32
:1059600000936423C82211463220FFF7C3FC1A4B70
:1059700018600194194B00936423C82211464FF418
:105980009670FFF7B7FC164B18600194154B009307
:105990006423C822114640F22620FFF7ABFC124BCD
:1059A0001860FFF703FE02B010BD00BF6C3000208E
:1059B00020000020FC1401086E30002010150108A2
:1059C000985D002020150108AC5D00202415010819
:1059D000F849012030150108089D00203C150108F8
:1059E000C83700204C150108CC9C002010B548F2A7
:1059F0001040FEF787FA0D4CB4F90010123901EB94
:105A0000D1710B4B1B6803EB61010B4640F2562230
:105A10000120FEF77BFBB4F90030023B40F22B1271
:105A200012211046FEF772FB10BD00BF6E30002041
:105A30003C350020000000002DE9F04784B0FFF75E
:105A4000CBFDFEF71BF900221146FF20FEF764FA9A
:105A5000C14CB4F900201123013A00210846FEF799
:105A600072FDFF2211461046FEF756FA002211463B
:105A7000FF20FEF765FAB948FEF758F90023012226
:105A80001946B748FEF7A6FEFF2200210846FEF79A
:105A900043FAB44DB5F90030B4F90020013B013AA6
:105AA00013210020FEF7FEFCB5F90030B4F9002008
:105AB000013B013A12214FF41670FEF7CBFCB4F90A
:105AC00000204623013A12214FF41670FEF7C2FC63
